:1016B4004572726F723A20253032580A007265639F
:1016C40065697665206C656E203D2025640A0049B5
:1016D4006E697420737461747573203A2047494E9F
:1016E400545F535441545F5048595F4348414E47F7
:0316F400450A00A4
:100F46004601F10203040506074401DDFFFFFFFF2A
:0A0F56004201E9EA604201EFC350D6
:071D14007FFA121D1B7FFA8C
:071D1B00AE071FEE70FA2273
:101C5300AD07AF051DEF6008121D14121D1480F2AD
:011C6300225E
:101A7300EF601D7BFF7A1679B4900185E4F0A3EF44
:101A8300F0120A057FC8121C537FC8121C5380F43E
:011A93002230
:1015E2007E007F237D007B007A00793E120912780B
:1015F2003E7C007D007B017A0179E17E007F04124E
:10160200060678427C007D007B017A0179EB7E0040
:101612007F0412060678467C007D007B017A017900
:08162200E57E007F04020606CC
:101670007E007F1C7D007B007A007922120912789F
:10168000227C007D007B017A0179DD7E007F0412DF
:1016900006069001E9E0FEA3E0FF7833A60608A65F
:1016A000079001EFE0FEA3E0FF08A60608A6077872
:0416B0002C76022270
:1017E9007B007A007922E4FF121B15782CE6FDE4D0
:1017F900FF121C057833E6FC08E6FDE4FF121B50D6
:101809007835E6FC08E6FDE4FF121B69E4FF121ACD
:0418190003021A7339
:0512D200900172EFF035
:1012D700121B82EF30E263900172E0FF121B359020
:1012E7000173EEF0A3EFF07BFF7A1679C1900185C9
:1012F700EEF0A3EFF0120A05900173E0FEA3E0FF02
:101307004E6037D3EF942CEE94014014900172E0B5
:10131700FFA3E0FCA3E0FD7B007A0079000213AD98
:10132700900172E0FFA3E0FCA3E0FD7B017A007966
:0A133700401213AD9000007401F0A5
:011341002289
:10125600121A94900170EEF0A3EFF0900171E03055
:10126600E2097BFF7A1679D3120A05900171E03004
:10127600E405E4FF1212D2900171E030E5057F012A
:101286001212D2900171E030E6057F021212D2905E
:101296000171E030E7057F031212D2900170E03051
:1012A600E0057F041212D2900170E030E1057F055F
:1012B6001212D2900170E030E2057F061212D2902F
:0B12C6000170E030E3057F071212D238
:0112D10022FA
:10190C007F65121D83EF649A60037FFA227B007A55
:10191C0000793E121AB57B007A007942121AD57BF7
:0B192C00007A007946121AF51218DE4E
:01193700228D
:1017780043483339354556542054657374204465BD
:101788006D6F0A00434833393520436F6E6E6563C9
:10179800742045746865726E65740A005245534535
:0917A800542043483339350A008E
:100F600041000000603C000143483339354D4F4497
:100F7000554C450000000000000000000001C0A822
:100F8000010AFFFFFF00C0A80101D007C0A801644B
:100F9000E803000000000000000000000000000066
:0A0FA0000000000043003D010001C5
:071D22007FFA121D297FFA70
:071D2900AE071FEE70FA2265
:101C6400AD07AF051DEF6008121D22121D2280F280
:011C7400224D
:091D8D00D29475D55C43AA08222A
:0D1D3E008F86E5AA30E7FB53AA7FAF86220F
:031CC900E4FCFB3D
:0C1CCC00D294C294121D3E7F02021D291A
:1018B00090018FE0FBA3E475F0011206D9A9F0FABC
:1018C00012062CFF1218DB90018FE0FBA3E475F0E9
:0B18D000011206D9A9F0FA12062CFF45
:0318DB00021D3EAD
:081D3000121CCCAF051218DBF8
:051D38007FFF121D3EBB
:011D3D002283
:081D96007F05121CCCD294223F
:081D9E007F03121CCCD2942239
:0A1D57007F01121CCC121D38D2943B
:011D6100225F
:021D8300AD07AA
:071D85007F06121D30D2940D
:011D8C002234
:0F1CD800AD077F20121CCCAF051218DBD294226F
:0A1D62007F26121CCC121D38D2940B
:011D6C002254
:0A1D6D007F29121CCC121D38D294FD
:011D77002249
:1018DE00E4900170F0FD7F27121CCCD2947F0A1287
:1018EE001C64121CBEAD07EDB41010900170E0FF29
:0D18FE0004F0EFD394C840E57FFA22AF0557
:01190B0022B9
:0616F70090022012072BF7
:1016FD007F02121CCC900220A3A3A3E0FF1218DBE3
:10170D00900220A3A3E0FEEEFF1218DB900220E072
:10171D00FCA3E0FDA3E0FEA3E0FF78101207051285
:0A172D0018DB121D38A3EFF0D29470
:01173700228F
:051CB9007F05121C6410
:0A1CBE007F2C121CCC121D38D294AA
:011CC80022F9
:0B1AB500900170EBF0A3EAF0A3E9F051
:101AC0007F22121CCCE4FE9001701218CA0EEEB4F4
:041AD00004F5D294B3
:011AD40022EF
:0B1AD500900170EBF0A3EAF0A3E9F031
:101AE0007F23121CCCE4FE9001701218CA0EEEB4D3
:041AF00004F5D29493
:011AF40022CF
:0B1AF500900170EBF0A3EAF0A3E9F011
:101B00007F24121CCCE4FE9001701218CA0EEEB4B1
:041B100004F5D29472
:011B140022AE
:0B1A4F00900231EBF0A3EAF0A3E9F0F5
:101A5A007F21121CCCE4FE9002311218CA0EEEB499
:091A6A0006F5D2947F64021C64AD
:0B181D00900234EBF0A3EAF0A3E9F026
:101828007F40121CCCE4FE121D38900234E0FBA36A
:10183800E475F0011206D9A9F0FAEF1206A50EEE2A
:05184800B406E4D29497
:01184D002278
:10113700AD077F25121CCCAF051218DB90020CA35C
:10114700A3A3E0FF1218DB90020CA3A3E0FEEEFFBF
:101157001218DB90020CE0FCA3E0FDA3E0FEA3E085
:10116700FF78101207051218DB90020CE0FCA3E0D1
:10117700FDA3E0FEA3E0FF78181207051218DBA312
:10118700A3A3A3E0FF1218DB900210A3A3E0FEEED7
:10119700FF1218DB900210E0FCA3E0FDA3E0FEA322
:1011A700E0FF78101207051218DB900210E0FCA38D
:1011B700E0FDA3E0FEA3E0FF78181207051218DB95
:0311C700D294229D
:0B184E00900237EBF0A3EAF0A3E9F0F2
:101859007F28121CCCE4FE121D38900237E0FBA34E
:10186900E475F0011206D9A9F0FAEF1206A50EEEF9
:05187900B408E4D29464
:01187E002247
:0D17B10090023AEBF0A3EAF0A3E9F0AD07D7
:1017BE007F2D121CCCAF051218DBE4FE121D3890E3
:1017CE00023AE0FBA3E475F0011206D9A9F0FAEF94
:0A17DE001206A50EEEB406E4D29444
:0117E80022DE
:101B150090018FEBF0A3EAF0A3E9F0AD077F311256
:101B25001CCCAF051218DB1218B01218B0D29422D3
:101C0500AC077F34121CCCAF041218DBAF051218D9
:041C1500DBD2942268
:101B5000AB077F32121CCCAF031218DBAF05121893
:091B6000DBECFF1218DBD2942229
:101B6900AB077F33121CCCAF031218DBAF05121879
:091B7900DBECFF1218DBD2942210
:101C1900AC077F3E121CCCAF041218DBAF051218BB
:041C2900DBD2942254
:0F1CE700AD077F3F121CCCAF051218DBD2942241
:0D162A00900190EBF0A3EAF0A3E9F0AD070A
:101637007F39121CCCAF051218DBA3A3E0FF1218E9
:10164700DB900193E0FF1218DBE4FDFCD3900194DB
:10165700E09D900193E09C400D9001901218CA0DF7
:08166700BD00010C80E6D294E5
:01166F002258
:021B3500AD07FA
:101B37007F3B121D30AD077C00121D38EFFEE42DF0
:081B4700FDEC3ED294FEAF0557
:011B4F002273
:0F1CF600AD077F2E121CCCAF051218DBD2942243
:0B13AD00900175EFF0A3ECF0A3EDF051
:1013B8004C60487F3C121CCC900175E0FF1218DB92
:1013C800A3A3E0FF1218DB900176E0FF1218DB7F81
:1013D80001121D29E4FDFCD3900177E09D90017670
:1013E800E09C4015121D38EF1206A5740129F9E496
:0B13F8003AFA0DBD00010C80DED2941B
:0114030022C6
:0F1D0500AD077F2A121CCCAF051218DBD2942237
:101B9900AD07AC067F2A121CCCAF051218DBECFF8F
:061BA9001218DBD29422A9
:1017380090023DEBF0A3EAF0A3E9F0AD077F2F128A
:101748001D3090023DE0FBA3E475F0011206D9A913
:10175800F0FAEF1206A5121D3890023DE0FBA3E453
:1017680075F0011206D9A9F0FAEF1206A5D2942253
:021A0300AD072D
:101A05007F35121CC9AF051218DBD294121CB9AB75
:101A150007EBB4100CAF040CEFD394C840EE7FFA7B
:031A250022AF03EA
:011A2800229B
:021A2900AD0707
:101A2B007F3D121CC9AF051218DBD294121CB9AB47
:101A3B0007EBB4100CAF040CEFD394C840EE7FFA55
:031A4B0022AF03C4
:011A4E002275
:02193800AD07F9
:10193A00E4FCFB7F37121CCCAF051218DBD29412E1
:10194A001CB9AB07EBB4100CAF040CEFD394C8402E
:06195A00EE7FFA22AF034C
:011960002264
:02196100AD07D0
:10196300E4FCFB7F36121CCCAF051218DBD29412B9
:101973001CB9AB07EBB4100CAF040CEFD394C84005
:06198300EE7FFA22AF0323
:01198900223B
:02198A00AD07A7
:10198C00E4FCFB7F38121CCCAF051218DBD294128E
:10199C001CB9AB07EBB4100CAF040CEFD394C840DC
:0619AC00EE7FFA22AF03FA
:0119B2002212
:021B8200AD07AD
:101B84007F30121CCCAF051218DB7F02121D291204
:041B94001D38D29492
:011B9800222A
:0B0CFF009001F7EBF0A3EAF0A3E9F08E
:100D0A0090020212073704C11DB790020612073774
:100D1A00FFFFFFFF9001FA12073700000000E47F8F
:100D2A0006FEFDFC9001FAE0F8A3E0F9A3E0FAA3BD
:100D3A00E0FBC31206EF4003020E529001F7E0FBFC
:100D4A00A3E475F0011206D9A9F0FA12062C900252
:100D5A000AF09001FE12073700000000E47F08FE47
:100D6A00FDFC9001FEE0F8A3E0F9A3E0FAA3E0FBA2
:100D7A00C31206EF4003020E2A900206E0FCA3E02B
:100D8A00FDA3E0FEA3E0FF781F120705A905AA0646
:100D9A00AB07A3E0FFEB6FFFEF5401FFEF60189082
:100DAA000202E0FCA3E0FDA3E0FEA3E0FFC004C052
:100DBA0005C006C007800DE4FBFAF9F8C000C001BF
:100DCA00C002C003900206E0FCA3E0FDA3E0FEA37C
:100DDA00E0FF7801120718D003D002D001D000EF4B
:100DEA006BFFEE6AFEED69FDEC68FC9002061207E5
:100DFA002B90020AE0C313F09001FEE0FCA3E0FD91
:100E0A00A3E0FEA3E0FFE4FAF9F8EF2401FFEA3ECB
:100E1A00FEE93DFDE83CFC9001FE12072B020D663F
:100E2A009001FAE0FCA3E0FDA3E0FEA3E0FFE4FAF0
:100E3A00F9F8EF2401FFEA3EFEE93DFDE83CFC90AB
:100E4A0001FA12072B020D28900206E0FCA3E0FD2E
:100E5A00A3E0FEA3E0FF781A120705900206120724
:090E6A002B900206A3A3A3E0FFF4
:010E7300225C
:0219B300AD077E
:1019B500E4FC7F41121CCCAF051218DBD2947F14D6
:1019C500121C64121CBEEFB4100CAE040CEED394C2
:0619D500C840EB7FFA227E
:0119DB0022E9
:0A1D78007F42121CCC121D38D294D9
:011D8200223E
:0B187F00900240EBF0A3EAF0A3E9F0B8
:10188A007F43121CCCE4FE121D38900240E0FBA3F9
:10189A00E475F0011206D9A9F0FAEF1206A50EEEC8
:0518AA00B414E4D29427
:0118AF002216
:101C7500AC077FED121CCCAF041218DBAF050218C0
:011C8500DB83
:021BDB00AD0754
:101BDD007FEC121CCCAF051218DB7F01121C6412B6
:021BED001D38A1
:011BEF0022D3
:101C2D007FE9121CCC7F14121C64121CBEEF6410D1
:021C3D0060F352
:011C3F002282
:0F145800900216EBF0A3EAF0A3E9F0AD07AC06A3
:101467007FEA121CCCAF051218DBECFF1218DBA3C6
:10147700E0801D900219E0FF14F0EF60199002164A
:10148700E0FBA3E475F0011206D9A9F0FA12062CC5
:10149700FF1218DB80DD7F14121C64121CBEEF6480
:0314A7001060F3DF
:0114AA00221F
:1015950090021CEBF0A3EAF0A3E9F0AD07AC067FDF
:1015A500EB121CCCAF051218DBECFF1218DBA3E025
:1015B500FF1218DB7F01121C6490021FE0FF14F07C
:1015C500EF6019121D3890021CE0FBA3E475F001D1
:0D15D5001206D9A9F0FAEF1206A580DD225A
:101C4000AD07AC067F50121CCCAF051218DBECFFC1
:031C50000218DB9C
:101BAF00AC077F52121CCCAF041218DBAF05121812
:061BBF00DBAF030218DB9E
:101BC500AC077F53121CCCAF041218DBAF051218FB
:061BD500DBAF030218DB88
:10140400900182EBF0A3EAF0A3E9F0A312072B907A
:10141400018EE0FF900189E0FBA3E0FAA3E0F9125A
:101424001B1590018EE0FF90018CE0FCA3E0FD12FF
:101434001B50900182E0FBA3E0FAA3E0F9A3A3A36D
:10144400E0FFA3E0900193CFF0A3EFF090018EE0D2
:04145400FF02162A53
:1014AB0090022512072B7F55121CCC900225A3A36B
:1014BB00A3E0FF1218DB900225A3A3E0FEEEFF12C0
:1014CB0018DB900225E0FCA3E0FDA3E0FEA3E0FF08
:1014DB0078101207051218DB900225E0FCA3E0FD43
:0E14EB00A3E0FEA3E0FF78181207050218DB4D
:101A94007F19121CCC7F02121D29121D38AD077C40
:101AA40000121D38EFFEE42DFDEC3ED294FEAF058E
:011AB400220F
:101C8600AC077F59121CCCAF041218DBAF05021843
:011C9600DB72
:0C1D4B00AD077F58121CCCAF050218DB5E
:1014F90090022912072B7F56121CCC900229A3A314
:10150900A3E0FF1218DB900229A3A3E0FEEEFF126D
:1015190018DB900229E0FCA3E0FDA3E0FEA3E0FFB5
:1015290078101207051218DB900229E0FCA3E0FDF0
:0E153900A3E0FEA3E0FF78181207050218DBFE
:1015470090022D12072B7F57121CCC90022DA3A3BC
:10155700A3E0FF1218DB90022DA3A3E0FEEEFF121B
:1015670018DB90022DE0FCA3E0FDA3E0FEA3E0FF63
:1015770078101207051218DB90022DE0FCA3E0FD9E
:0E158700A3E0FEA3E0FF78181207050218DBB0
:101C9700AC077F51121CCCAF041218DBAF0502183A
:011CA700DB61
:101CA800759850758780758921758DF3D28ED29974
:011CB8002209
:100E74007F64121C64121CA87BFF7A177978120A0B
:100E840005121D8D90003DE0FBA3E0FAA3E02416BB
:100E9400F9E43AFA78E17C017D017E007F041206D0
:100EA4000690003DE0FBA3E0FAA3E0241EF9E43A37
:100EB400FA78EB7C017D017E007F04120606900027
:100EC4003DE0FBA3E0FAA3E0241EF9E43AFA78E556
:100ED4007C017D017E007F041206061215E21219C0
:100EE4000C90016CEFF0121A73121D62BF01077FA0
:100EF400C8121C6480F37BFF7A17798C120A0512DE
:100F040016701217E920B303121256900000E06025
:100F1400F4E4F07B017A00794890016D04F0A3EACF
:100F2400F0A3E9F012000390016CEFF060D77BFFAF
:100F34007A1779A4120A05121D967FC8121C64023E
:020F44000E8815
:100FFC0043483339354E45545F4D4F44554C4500AD
:10100C0025642E25642E25642E256400257300434B
:10101C004D445F5345415243482A2A2A2A2A2A2AF8
:10102C002A2A2A2A2A2A2A2A2A2A2A2A2A0A004345
:10103C004D445F5345542A2A2A2A2A2A2A2A2A2A24
:10104C002A2A2A2A2A2A2A2A2A2A2A2A2A0A004325
:10105C004D445F4745542A2A2A2A2A2A2A2A2A2A10
:10106C002A2A2A2A2A2A2A2A2A2A2A2A2A0A004305
:10107C004D445F52455345542A2A2A2A2A2A2A2AA1
:0F108C002A2A2A2A2A2A2A2A2A2A2A2A2A0A0029
:100FAA004401B8C0A801644401D9FFFFFF0044010D
:100FBA00BCC0A801014401C0000025804201B2075B
:100FCA00D04401B4C0A8010A4201AC03E85501C4E7
:100FDA0043483339354D4F44554C45000000000015
:100FEA0000000000004401AEFFFFFFFF4201AAEA31
:010FFA006096
:0C109B00F9E43AFAE0FEA3E0FFE4FCFDFB
:0610A70090018212072BEC
:1010AD00900186EBF0A3EAF0A3E9F0900182A3A3EF
:1010BD00A3E0FFA3E0FBA3E475F0011206D9A9F0AC
:1010CD00FAEF1206A5900182A3A3E0FEA3EEFFA303
:1010DD00E0FBA3E475F0011206D9A9F0FAEF1206B0
:1010ED00A5900182A3A3E0FEA3E07810CEC313CE9A
:1010FD0013D8F9FF900186E0FBA3E475F001120609
:10110D00D9A9F0FAEF1206A5900182A3A3E0FEA3E0
:10111D00E07818CEC313CE13D8F9FF900186E0FB0B
:0A112D00A3E0FAA3E0F9EF0206A523
:0B000300900170EBF0A3EAF0A3E9F01D
:10000E00900179EBF0A3EAF0A3E9F02418F9E43AB1
:10001E00FAA3EBF0A3EAF0A3E9F0A37401F0A37442
:10002E0000F0A37401F0900179E0FBA3E0FAA3E0E5
:10003E00F8AC02AD037BFF7A0F79FC7E007F0F12C6
:10004E0008EEEF3395E0FE900173F0A3EFF04E60F3
:10005E00037F0022900179E0FBA3E0FAA3E0F99080
:10006E0000101206451470030202261470030202D9
:10007E00ED1470030203B814600302053390017986
:10008E00E0FBA3E0FAA3E0F990001074841206B727
:10009E00900179E0FBA3E0FAA3E02411F9E43AA879
:1000AE0001FCAD037B017A0179F17E007F06120619
:1000BE0006900179E0FBA3E0FAA3E02418F9E43AF4
:1000CE00FAC003C002C00190018574FFF0A3741042
:1000DE00F0A3740CF090017FE0FBA3E0FAA3E0F92B
:1000EE00900016120645FF900188E4F0A3EFF09001
:1000FE000017120645FF90018AE4F0A3EFF090007E
:10010E0018120645FF90018CE4F0A3EFF090001951
:10011E00120645FF90018EE4F0A3EFF0D001D0025D
:10012E00D0031209FF900179E0FBA3E0FAA3E024CB
:10013E0018F9E43AFA121BF0900179E0FBA3E0FA09
:10014E00A3E0F9900017EF1206B7900017120645BC
:10015E002419FFE433FEE92FF9EA3EFAC002C0018A
:10016E0090018574FFF0A37410F0A37418F0900141
:10017E007FE0F9A3E0FAA3E0900188C9F0A3EAF0CA
:10018E00A3E9F0D001D0021209FF900179E0FBA3A0
:10019E00E0FAA3E0F99000171206452419FFE433A4
:1001AE00FEE92FF9EA3EFA121BF0EF04FF900179F7
:1001BE00E0FBA3E0FAA3E0F9900017EF12067290AD
:1001CE000175120737000000547F05121C53900171
:1001DE0075E0FCA3E0FDA3E0FEA3E0FF90018974AF
:1001EE0001F0A37401F0A374AEF09001AAE0FBA39A
:1001FE00E090018CCBF0A3EBF0E4A3F0900170E063
:10020E00FBA3E0FAA3E0F91214047F05121C537B42
:10021E00FF7A10791B0203B2900179E0FBA3E0FA9A
:10022E00A3E02411F9E43AA801FCAD037B017A01A5
:10023E0079F17E007F061208EEEF3395E0FE900115
:10024E0073F0A3EFF04E60037F0022E4FF121A2931
:10025E00900173E4F0A3EFF0900179E0FBA3E0FAD4
:10026E00A3E0F990001074811206B7900017E41203
:10027E0006B7E92418F9E43AFA78017C007D017E8C
:10028E00007F2A12060690017512073700000054EF
:10029E007F05121C53900175E0FCA3E0FDA3E0FE68
:1002AE00A3E0FF9001897401F0A37401F0A374AE72
:1002BE00F09001AAE0FBA3E090018CCBF0A3EBF051
:1002CE00E4A3F0900170E0FBA3E0FAA3E0F91214AE
:1002DE00047F05121C537BFF7A10793B02052D908B
:1002EE000179E0FBA3E0FAA3E02411F9E43AA801B6
:1002FE00FCAD037B017A0179F17E007F061208EED8
:10030E00EF3395E0FE900173F0A3EFF04E60037FA4
:10031E000022900179E0FBA3E0FAA3E0F99000102F
:10032E0074821206B7900017742A1206B7900179DC
:10033E00E0FBA3E0FAA3E02418F9E43AA801FCAD2F
:10034E00037B017A0079017E007F2A120606900156
:10035E0075120737000000547F05121C539001756B
:10036E00E0FCA3E0FDA3E0FEA3E0FF900189740191
:10037E00F0A37401F0A374AEF09001AAE0FBA3E029
:10038E0090018CCBF0A3EBF0E4A3F0900170E0FBB6
:10039E00A3E0FAA3E0F91214047F05121C537BFFAD
:1003AE007A10795B120A057F0022900179E0FBA397
:1003BE00E0FAA3E02411F9E43AA801FCAD037B01B5
:1003CE007A0179F17E007F061208EEEF3395E0FE9A
:1003DE00900173F0A3EFF04E60037F0022E4FF1252
:1003EE001A29900173E4F0A3EFF07E007F037D00E5
:1003FE0090017CE0FBA3E0FAA3E0F9120912900150
:10040E00857401F0A37401F0A374C4F090017CE034
:10041E00FBA3E0FAA3E0F912134290017CE0FBA3E8
:10042E00E0FAA3E0F990001574011206B790017C72
:10043E00E0FBA3E0FAA3E02416F9E43AA801FCAD30
:10044E00037B017A0179B87E007F041206069001C3
:10045E007CE0FBA3E0FAA3E0241AF9E43AA801FC3D
:10046E00AD037B017A0179D97E007F0412060690D6
:10047E00017CE0FBA3E0FAA3E0241EF9E43AA80114
:10048E00FCAD037B017A0179BC7E007F0412060667
:10049E0090017CE0FBA3E0FAA3E024229001B212CB
:1004AE00109B90017CE0FBA3E0FAA3E02424F9E486
:1004BE003AA801FCAD037B017A0179B47E007F047A
:1004CE0012060690017CE0FBA3E0FAA3E02428903C
:1004DE0001AC12109B900179E0FBA3E0FAA3E0249B
:1004EE0018F9E43AFA78017C007D017E007F2A1229
:1004FE000606900179E0FBA3E0FAA3E0F990001064
:10050E0074831206B7900175120737000000547FEE
:10051E0005121C537F05121C537BFF7A10797B1238
:07052E000A057F01227F0096
:0105350022A3
:030000000211CA20
:0C11CA00787FE4F6D8FD758160021211F8
:10053600E709F608DFFA8046E709F208DFFA803EA7
:1005460088828C83E709F0A3DFFA8032E309F60894
:10055600DFFA8078E309F208DFFA807088828C83FC
:10056600E309F0A3DFFA806489828A83E0A3F608B0
:10057600DFFA805889828A83E0A3F208DFFA804C8A
:1005860080D280FA80C680D4806980F28033801061
:1005960080A680EA809A80A880DA80E280CA8033CA
:1005A60089828A83ECFAE493A3C8C582C8CCC58342
:1005B600CCF0A3C8C582C8CCC583CCDFE9DEE78012
:1005C6000D89828A83E493A3F608DFF9ECFAA9F091
:1005D600EDFB2289828A83ECFAE0A3C8C582C8CCE7
:1005E600C583CCF0A3C8C582C8CCC583CCDFEADE00
:1005F600E880DB89828A83E493A3F208DFF980CC62
:1006060088F0EF60010E4E60C388F0ED2402B4045A
:100616000050B9F582EB2402B4040050AF23234501
:060626008223900586739B
:10062C00BB010689828A83E0225002E722BBFE02CC
:09063C00E32289828A83E49322FF
:10064500BB010CE58229F582E5833AF583E022506A
:1006550006E92582F8E622BBFE06E92582F8E222B4
:0D066500E58229F582E5833AF583E49322CE
:10067200BB010FF8E58229F582E5833AF583E0288C
:10068200F0225009C58229F8E58226F622BBFE092E
:10069200C58229F8E22582F222F8EA2583F583E968
:0306A20093282278
:1006A500BB010689828A83F0225002F722BBFE0134
:0206B500F3222E
:1006B700F8BB010DE58229F582E5833AF583E8F079
:1006C700225006E92582C8F622BBFE05E92582C825
:0206D700F2220D
:1006D900A3F8E0C5F025F0F0E582158270021583D4
:0606E900E0C838F0E82231
:1006EF00EB9FF5F0EA9E42F0E99D42F0EC6480C882
:0606FF0064809845F02222
:10070500E8600FECC313FCED13FDEE13FEEF13FFD2
:03071500D8F122F6
:10071800E8600FEFC333FFEE33FEED33FDEC33FC3F
:03072800D8F122E3
:0C072B00ECF0A3EDF0A3EEF0A3EFF02241
:10073700A8828583F0D083D08212074E12074E120B
:10074700074E12074EE473E493A3C583C5F0C58330
:10075700C8C582C8F0A3C583C5F0C583C8C582C80C
:01076700226F
:10099A00E5082485F582E43401F583E00508229010
:1009AA000182300703900185E475F00112095402AF
:1009BA00062C2000E97F2ED2008018EF540F2490D5
:1009CA00D43440D4FF30040BEF24BFB41A005003D0
:1009DA002461FFE50960021509050CE50C700205A2
:1009EA000B30070E900182E475F001120954EF02F0
:1009FA0006A50219DC7403D2078003E4C207F508CE
:100A0A0090018212096BE4F509F50BF50CE5096012
:100A1A00077F201209DD80F5750AFFC201C200C2F4
:100A2A0002C203C205C206C2081209A9FF700D302C
:100A3A0007057F001209EEAF0CAE0B22B4255FC288
:100A4A00D5C2041209A9FF24D0B40A00501A75F0BD
:100A5A000A780930D50508B6FF0106C6A426F6208D
:100A6A00D5047002D20380D924CFB41A00EF5004FF
:100A7A00C2E5D204020BEFD20180C6D20080C0D2F6
:100A8A000280BCD2D580BAD20580B47F201209DD9B
:100A9A002002077401B5090040F112099AFF1209F0
:100AAA00DD020A17D208D206809512099AFB1209AA
:100ABA009AFA12099AF94A4B700679C07A0C7BFFA6
:100ACA0020022EE509602A7E008E827583001206B6
:100ADA004560060EEE650A70F0C2D5EBC0E0EAC0CA
:100AEA00E0E9C0E0EE120C36D0E0F9D0E0FAD0E04E
:100AFA00FB12062CFF60AAEBC0E0EAC0E0E9C0E006
:100B0A001209DDD0E02401F9D0E03400FAD0E0FB8C
:100B1A00E50A0460DCD50AD980877BFF7A0C793232
:100B2A00D202809C791080027908C206C208800825
:100B3A00D2D5790A8004790AC2D5E50A047002F589
:100B4A000AE4FAFDFEFF12099AFC7B08200113123F
:100B5A00099AFD7B1030000A12099AFE12099AFFBF
:100B6A007B20EC3382D592D55013C3E43000069F24
:100B7A00FFE49EFEE42001039DFDE49CFCE4CBF827
:100B8A00C201EC700CCFCECDCCE824F8F870F3801B
:100B9A0017C3EF33FFEE33FEED33FDEC33FCEB33DB
:100BAA00FB994002FB0FD8E9EB300105F8D0E0C40D
:100BBA0048B201C0E00AEC4D4E4F78207B0070C26B
:100BCA00EAB50A0040BCC0E0120C38D0F0D0E020F0
:100BDA000104C4C0E0C4B201C0F01209C6D0F0D505
:100BEA00F0EB020A171209740AB4530B2E580A853D
:100BFA004C0A81420B324F0B3A440B3A490A9A4348
:080C0A000B40550B24460B249E
:100C1200450B24470CE0500A892D0A8D2E0AB02B71
:100C22000A91230AAE200CC92A0A494800000AA8E0
:100C32003F3F3F00790AA2D5200314300509B910BD
:100C4200020404B9080104A2D520060250010420BE
:100C520002689202B509005034C0E07F20300319C7
:100C62007F30A20272067205500F120C8FC202C2AE
:100C720006C205C2087F30800F300503E9C0E012CA
:100C820009DD300503D0E0F9D0E0B509CC30051715
:100C92007F30B9100C1209DD7F583004077F78804D
:100CA20003B908031209DD3002057F2D0209DD7F39
:100CB200202008F87F2B2006F322920280CF286E94
:100CC200756C6C2900D20112099A3001F8C20178C0
:100CD2000930D50108F6020A492D50434958120934
:100CE2009A2403B405004001E4900CDB931209CE70
:0D0CF200743A1209CED203750904020B2ECC
:10134200900182EBF0A3EAF0A3E9F0900188EBF0C0
:10135200A3EAF0A3E9F0900182E0FBA3E475F001B7
:101362001206D9A9F0FA12062C70EB90018374FFD1
:10137200F5F012093E900185E0FBA3E475F001123D
:1013820006D9A9F0FA12062CFF900182E0FBA3E431
:1013920075F0011206D9A9F0FAEF1206A570D690DF
:0B13A2000188E0FBA3E0FAA3E0F922C1
:101BF000E4FFFE12062C600C0FEF70010E09E97075
:051C0000F20A80EF2252
:10076800E3F5F009E208B5F06BDFF58067E3F5F033
:1007780009E608B5F05EDFF5805A87F009E608B5A6
:10078800F052DFF6804E87F009E208B5F046DFF652
:10079800804288828C8387F009E0A3B5F036DFF6C3
:1007A800803288828C8387F009E493A3B5F025DF33
:1007B800F5802188828C83E3F5F009E0A3B5F01475
:1007C800DFF5801088828C83E3F5F009E493A3B504
:1007D800F002DFF4020897808780E9809080D48057
:1007E8003E8015806E807E809D80B7808D80A3803E
:1007F800518074803C0208A389828A83ECFAE493CE
:10080800F5F0A3C8C582C8CCC583CCE493A3C8C5FA
:1008180082C8CCC583CCB5F076DFE3DEE180708991
:10082800828A83E493F5F0A3E208B5F062DFF480EE
:100838005E89828A83E0F5F0A3E608B5F051DFF51A
:10084800804D89828A83E0F5F0A3E208B5F040DFA5
:10085800F5803C89828A83E493F5F0A3E608B5F035
:100868002EDFF4802A8002805789828A83ECFAE49A
:1008780093F5F0A3C8C582C8CCC583CCE0A3C8C58E
:1008880082C8CCC583CCB5F006DFE4DEE280007F09
:10089800FFB5F0020F2240027F012289828A83EC91
:1008A800FAE0F5F0A3C8C582C8CCC583CCE0A3C8DC
:1008B800C582C8CCC583CCB5F0D5DFE5DEE380CFF3
:1008C80089828A83ECFAE0F5F0A3C8C582C8CCC552
:1008D80083CCE493A3C8C582C8CCC583CCB5F0AF9C
:1008E800DFE4DEE280A988F0EF60010E4E60ABED38
:1008F8002402B404005098F582EB2402B40400509A
:0A0908008E23234582239007DF733E
:10091200EF4E6012EF60010EEDBB010B89828A83FC
:10092200F0A3DFFCDEFA2289F05007F709DFFCA909
:0C093200F022BBFEFCF309DFFCA9F02260
:1011D600020E74E493A3F8E493A34003F68001F2AD
:1011E60008DFF48029E493A3F85407240CC8C3331A
:1011F600C4540F4420C8834004F456800146F6DFE9
:10120600E4800B0102040810204080900F46E47E23
:10121600019360BCA3FF543F30E509541FFEE493DD
:10122600A360010ECF54C025E060A840B8E493A3A4
:10123600FAE493A3F8E493A3C8C582C8CAC583CACF
:10124600F0A3C8C582C8CAC583CADFE9DEE780BE87
:010FFB0000F5
:10093E00C5F0F8A3E028F0C5F0F8E5821582700244
:06094E001583E038F022E1
:10095400F8E0FBA3A3E0F925F0F0E582158270022C
:070964001583E0FA38F022D0
:09096B00EBF0A3EAF0A3E9F0228D
:10097400D083D082F8E4937012740193700DA3A312
:1009840093F8740193F5828883E473740293686026
:06099400EFA3A3A380DF26
:1019DC00EFB40A07740D1219E7740A309811A8991C
:1019EC00B8130CC2983098FDA899C298B811F6306B
:0719FC0099FDC299F5992243
:00000001FF
