:10083800440201C0A8010A440241C0A801014402BF
:1008480030FFFFFF00440228C0A8016442023D03B4
:10085800E8420247138844022CC0A8016442023FC0
:1008680007D04202491770440234C0A8016442020A
:10087800450BB842024B1B58440238C0A8016441DA
:07088800023CE24100000008
:0710D8007FFA1210DF7FFA1E
:0710DF00AE071FEE70FA22BC
:10101700AD07AF051DEF60081210D81210D880F287
:0110270022A6
:09114300D29475D55C43AA082280
:0D10F4008F86E5AA30E7FB53AA7FAF862266
:03108D00E4FCFB85
:0C109000D294C2941210F47F020210DF10
:100CEA0090024DE0FBA3E475F001120124A9F0FA89
:100CFA001200F9FF120D1590024DE0FBA3E475F006
:0B0D0A0001120124A9F0FA1200F9FF09
:030D15000210F4D5
:0810E600121090AF05120D1568
:0510EE007FFF1210F469
:0110F30022DA
:08114C007F05121090D29422DD
:081154007F03121090D29422D7
:0A110D007F011210901210EED29430
:0111170022B5
:02113900AD0700
:07113B007F061210E6D294BA
:01114200228A
:0F109C00AD077F20121090AF05120D15D29422D0
:0A1118007F261210901210EED29400
:0111220022AA
:0A1123007F291210901210EED294F2
:01112D00229F
:100D1800E490024DF0FD7F27121090D2947F0A12C2
:100D28001017121082AD07EDB4101090024DE0FFBD
:0D0D380004F0EFD394C840E57FFA22AF0528
:010D4500228B
:060B9E009002A512017691
:100BA4007F021210909002A5A3A3A3E0FF120D15DB
:100BB4009002A5A3A3E0FEEEFF120D159002A5E09E
:100BC400FCA3E0FDA3E0FEA3E0FF781012015012A5
:0A0BD4000D151210EEA3EFF0D294FD
:010BDE0022F4
:05107D007F05121017B1
:0A1082007F2C1210901210EED29491
:01108C002241
:0B0E7B009002B6EBF0A3EAF0A3E9F050
:100E86007F22121090E4FE9002B6120D040EEEB40C
:040E960004F5D294F9
:010E9A002235
:0B0E9B009002B9EBF0A3EAF0A3E9F02D
:100EA6007F23121090E4FE9002B9120D040EEEB4E8
:040EB60004F5D294D9
:010EBA002215
:0B0EBB009002BCEBF0A3EAF0A3E9F00A
:100EC6007F24121090E4FE9002BC120D040EEEB4C4
:040ED60004F5D294B9
:010EDA0022F5
:0B0E36009002BFEBF0A3EAF0A3E9F08C
:100E41007F21121090E4FE9002BF120D040EEEB449
:090E510006F5D2947F640210172B
:0B0C57009002C2EBF0A3EAF0A3E9F06A
:100C62007F40121090E4FE1210EE9002C2E0FBA34D
:100C7200E475F001120124A9F0FAEF1201120EEE4E
:050C8200B406E4D29469
:010C8700224A
:10071900AD077F25121090AF05120D15900291A318
:10072900A3A3E0FF120D15900291A3A3E0FEEEFF33
:10073900120D15900291E0FCA3E0FDA3E0FEA3E0F9
:10074900FF7810120150120D15900291E0FCA3E000
:10075900FDA3E0FEA3E0FF7818120150120D15A3C6
:10076900A3A3A3E0FF120D15900295A3A3E0FEEE4B
:10077900FF120D15900295E0FCA3E0FDA3E0FEA396
:10078900E0FF7810120150120D15900295E0FCA3BC
:10079900E0FDA3E0FEA3E0FF7818120150120D1549
:0307A900D29422C5
:0B0C8800900263EBF0A3EAF0A3E9F098
:100C93007F28121090E4FE1210EE900263E0FBA393
:100CA300E475F001120124A9F0FAEF1201120EEE1D
:050CB300B408E4D29436
:010CB8002219
:0D0C1F00900269EBF0A3EAF0A3E9F0AD0745
:100C2C007F2D121090AF05120D15E4FE1210EE90F0
:100C3C000269E0FBA3E475F001120124A9F0FAEFBC
:0A0C4C001201120EEEB406E4D29479
:010C5600227B
:100EDB0090024DEBF0A3EAF0A3E9F0AD077F3112DE
:100EEB001090AF05120D15120CEA120CEAD29422D7
:100FB600AC077F34121090AF04120D15AF05120D59
:040FC60015D294228A
:100F1600AB077F32121090AF03120D15AF05120DFD
:090F260015ECFF120D15D2942206
:100F2F00AB077F33121090AF03120D15AF05120DE3
:090F3F0015ECFF120D15D29422ED
:100FCA00AC077F3E121090AF04120D15AF05120D3B
:040FDA0015D2942276
:0F10AB00AD077F3F121090AF05120D15D29422A2
:0D0B580090026AEBF0A3EAF0A3E9F0AD070C
:100B65007F39121090AF05120D15A3A3E0FF120DEA
:100B75001590026DE0FF120D15E4FDFCD390026E99
:100B8500E09D90026DE09C400D90026A120D040DEF
:080B9500BD00010C80E6D294C2
:010B9D002235
:020EFB00AD0741
:100EFD007F3B1210E6AD077C001210EEEFFEE42DE5
:080F0D00FDEC3ED294FEAF059D
:010F150022B9
:0F10BA00AD077F2E121090AF05120D15D29422A4
:0B089000900269EFF0A3ECF0A3EDF084
:10089B004C60487F3C121090900269E0FF120D15DE
:1008AB00A3A3E0FF120D1590026AE0FF120D157F56
:1008BB00011210DFE4FDFCD390026BE09D90026A05
:1008CB00E09C40151210EEEF120112740129F9E4AD
:0B08DB003AFA0DBD00010C80DED29443
:0108E60022EF
:0F10C900AD077F2A121090AF05120D15D2942299
:100F5F00AD07AC067F2A121090AF05120D15ECFFEE
:060F6F00120D15D29422C0
:100BDF009002C5EBF0A3EAF0A3E9F0AD077F2F1267
:100BEF0010E69002C5E0FBA3E475F001120124A901
:100BFF00F0FAEF1201121210EE9002C5E0FBA3E41F
:100C0F0075F001120124A9F0FAEF120112D2942209
:020DEA00AD0753
:100DEC007F3512108DAF05120D15D29412107DABFC
:100DFC0007EBB4100CAF040CEFD394C840EE7FFAA1
:030E0C0022AF030F
:010E0F0022C0
:020E1000AD072C
:100E12007F3D12108DAF05120D15D29412107DABCD
:100E220007EBB4100CAF040CEFD394C840EE7FFA7A
:030E320022AF03E9
:010E3500229A
:020D4600AD07F7
:100D4800E4FCFB7F37121090AF05120D15D29412F8
:100D5800107DAB07EBB4100CAF040CEFD394C84074
:060D6800EE7FFA22AF034A
:010D6E002262
:020D6F00AD07CE
:100D7100E4FCFB7F36121090AF05120D15D29412D0
:100D8100107DAB07EBB4100CAF040CEFD394C8404B
:060D9100EE7FFA22AF0321
:010D97002239
:020D9800AD07A5
:100D9A00E4FCFB7F38121090AF05120D15D29412A5
:100DAA00107DAB07EBB4100CAF040CEFD394C84022
:060DBA00EE7FFA22AF03F8
:010DC0002210
:020F4800AD07F3
:100F4A007F30121090AF05120D157F021210DF12BA
:040F5A0010EED2942F
:010F5E002270
:0B01DF0090026FEBF0A3EAF0A3E9F040
:1001EA0090027A12018204C11DB790027E12018226
:1001FA00FFFFFFFF90027212018200000000E47FFD
:10020A0006FEFDFC900272E0F8A3E0F9A3E0FAA36F
:10021A00E0FBC312013A400302033290026FE0FB93
:10022A00A3E475F001120124A9F0FA1200F9900270
:10023A0082F090027612018200000000E47F08FE3C
:10024A00FDFC900276E0F8A3E0F9A3E0FAA3E0FB54
:10025A00C312013A400302030A90027EE0FCA3E0C3
:10026A00FDA3E0FEA3E0FF781F120150A905AA062C
:10027A00AB07A3E0FFEB6FFFEF5401FFEF601890AD
:10028A00027AE0FCA3E0FDA3E0FEA3E0FFC004C005
:10029A0005C006C007800DE4FBFAF9F8C000C001EA
:1002AA00C002C00390027EE0FCA3E0FDA3E0FEA32F
:1002BA00E0FF7801120163D003D002D001D000EF31
:1002CA006BFFEE6AFEED69FDEC68FC90027E12019E
:1002DA0076900282E0C313F0900276E0FCA3E0FD80
:1002EA00A3E0FEA3E0FFE4FAF9F8EF2401FFEA3EF7
:1002FA00FEE93DFDE83CFC900276120176020246D8
:10030A00900272E0FCA3E0FDA3E0FEA3E0FFE4FAA2
:10031A00F9F8EF2401FFEA3EFEE93DFDE83CFC90D6
:10032A00027212017602020890027EE0FCA3E0FD4E
:10033A00A3E0FEA3E0FF781A12015090027E120198
:09034A007690027EA3A3A3E0FF5C
:010353002287
:020DC100AD077C
:100DC300E4FC7F41121090AF05120D15D2947F14ED
:100DD300121017121082EFB4100CAE040CEED39461
:060DE300C840EB7FFA227C
:010DE90022E7
:0A112E007F421210901210EED294CE
:011138002294
:0B0CB900900263EBF0A3EAF0A3E9F067
:100CC4007F43121090E4FE1210EE900263E0FBA347
:100CD400E475F001120124A9F0FAEF1201120EEEEC
:050CE400B414E4D294F9
:010CE90022E8
:10102800AC077FED121090AF04120D15AF05020D3D
:0110380015A2
:020FA100AD079A
:100FA3007FEC121090AF05120D157F01121017126E
:020FB30010EE3E
:010FB5002219
:100FDE007FE91210907F14121017121082EF641016
:020FEE0060F3AE
:010FF00022DE
:0F093B0090029BEBF0A3EAF0A3E9F0AD07AC0646
:10094A007FEA121090AF05120D15ECFF120D15A3D8
:10095A00E0801D90029EE0FF14F0EF601990029B68
:10096A00E0FBA3E475F001120124A9F0FA1200F9E0
:10097A00FF120D1580DD7F14121017121082EF641A
:03098A001060F307
:01098D002247
:100A78009002A1EBF0A3EAF0A3E9F0AD07AC067F82
:100A8800EB121090AF05120D15ECFF120D15A3E037
:100A9800FF120D157F011210179002A4E0FF14F049
:100AA800EF60191210EE9002A1E0FBA3E475F001CB
:0D0AB800120124A9F0FAEF12011280DD22D4
:100FF100AD07AC067F50121090AF05120D15ECFF36
:03100100020D15C8
:100F7500AC077F52121090AF04120D15AF05120D7C
:060F850015AF03020D157B
:100F8B00AC077F53121090AF04120D15AF05120D65
:060F9B0015AF03020D1565
:1008E700900283EBF0A3EAF0A3E9F0A3120176905C
:1008F700028FE0FF90028AE0FBA3E0FAA3E0F9127F
:100907000EDB90028FE0FF90028DE0FCA3E0FD126A
:100917000F16900283E0FBA3E0FAA3E0F9A3A3A3D9
:10092700E0FFA3E090026DCFF0A3EFF090028FE01D
:04093700FF020B5858
:10098E009002AA1201767F551210909002AAA3A38C
:10099E00A3E0FF120D159002AAA3A3E0FEEEFF1234
:1009AE000D159002AAE0FCA3E0FDA3E0FEA3E0FF7C
:1009BE007810120150120D159002AAE0FCA3E0FD72
:0E09CE00A3E0FEA3E0FF7818120150020D1501
:100E5A007F191210907F021210DF1210EEAD077C7C
:100E6A00001210EEEFFEE42DFDEC3ED294FEAF052B
:010E7A002255
:10103900AC077F59121090AF04120D15AF05020DC0
:011049001591
:0C110100AD077F58121090AF05020D15CD
:1009DC009002AE1201767F561210909002AEA3A335
:1009EC00A3E0FF120D159002AEA3A3E0FEEEFF12E2
:1009FC000D159002AEE0FCA3E0FDA3E0FEA3E0FF2A
:100A0C007810120150120D159002AEE0FCA3E0FD1F
:0E0A1C00A3E0FEA3E0FF7818120150020D15B2
:100A2A009002B21201767F571210909002B2A3A3DD
:100A3A00A3E0FF120D159002B2A3A3E0FEEEFF128F
:100A4A000D159002B2E0FCA3E0FDA3E0FEA3E0FFD7
:100A5A007810120150120D159002B2E0FCA3E0FDCD
:0E0A6A00A3E0FEA3E0FF7818120150020D1564
:10104A00AC077F51121090AF04120D15AF05020DB7
:01105A001580
:03100400120DEAE0
:10100700EF600C7FC81210177FC812101780F422E8
:100B10007E007F237D007B017A0279051201B37884
:100B2000057C027D017B017A0279017E007F04123F
:100B300000D378097C027D017B017A0279417E0035
:100B40007F041200D3780D7C027D017B017A02794B
:080B5000307E007F040200D397
:1004B7007E007F1C7D007B017A0179911201B37860
:1004C700917C017D017B017A0279287E007F0412ED
:1004D70000D390023DE0FFA3E09001A2CFF0A3EF8D
:1004E700F0900247E0FFA3E09001A4CFF0A3EFF064
:1004F70090019B7402F07E007F1C7D007B017A01D6
:1005070079AD1201B378AD7C017D017B017A027967
:100517002C7E007F041200D390023FE0FFA3E090FF
:1005270001BECFF0A3EFF0900249E0FFA3E09001F6
:10053700C0CFF0A3EFF09001B77403F09001B97446
:1005470001F07E007F1C7D00FB7A0179C91201B39F
:1005570078C97C017D017B017A0279347E007F04B2
:100567001200D3900245E0FFA3E09001DACFF0A399
:10057700EFF090024BE0FFA3E09001DCCFF0A3EF98
:10058700F09001D37403F0E49001D5F0FE7F1CFDD9
:100597007B017A0179E51201B378E57C017D017B66
:1005A700017A0279387E007F041200D390023FE07F
:1005B700FFA3E09001F6CFF0A3EFF0900249E0FF30
:1005C700A3E09001F8CFF0A3EFF0E49001EFF02261
:1005D7007B017A017991E4FF120EDB7D02E4FF12C1
:1005E7000FB69001A2E0FCA3E0FDE4FF120F16A3F3
:1005F700E0FCA3E0FDE4FF120F2FE4FF1210047DDF
:10060700037F01120FB69001C0E0FCA3E0FD7F015C
:10061700120F2F7F011210047F01120D6F121007A6
:100627007B017A0179C97F02120EDB7D037F0212FB
:100637000FB69001DAE0FCA3E0FD7F02120F16A3CC
:10064700E0FCA3E0FD7F02120F2F7F02120DEA12DA
:1006570010077F02120D461210077B017A0179E518
:100667007F03120EDBE4FD7F03120FB690023CE01E
:0E067700FD7F03120FCA7F03120DEA02100767
:05035400900263EFF0D0
:10035900120F48A3EFF0900264E020E20302044583
:10036900900263E0FF120EFB900265EEF0A3EFF03E
:100379004E70030204B6D3900266E094649002655D
:10038900E094004006E4F0A37464F0900263E07521
:10039900F064A42401F9740035F0FA7B01E0FF90C0
:1003A9000265E0FCA3E0FD120890E4900267F0A367
:1003B900F0900265E0FEA3E0FFC3900268E09F9021
:1003C9000267E09E5050E0FEA3E0FF900263E0FD6B
:1003D90075F064A42401F582E5F03400F583E58223
:1003E9002FF582E5833EF583E0F4FC75F064EDA416
:1003F9002401F582E5F03400F583E5822FF582E5E5
:10040900833EF583ECF0900268E004F070A390025B
:1004190067E004F0809B900263E075F064A4240116
:10042900F9740035F0FA7B01E0FF900265E0FDA365
:10043900E090026DCDF0A3EDF0120B58900264E04C
:1004490030E333900263E0FF75F01CA4249DF5822C
:10045900E43401F583E0B4011D7B007A00790812C8
:100469000C1F780DE6FE18E67C002400FFEC3E9098
:100479000267F0A3EFF0900264E030E63090026387
:10048900E075F01CA4249DF582E43401F583E07045
:100499001C7FC8121017900263E0FF120DEAAA0729
:0D04A900121007E0FF120D46AF02121007FF
:0104B6002223
:10068500120E5A90024DEEF0A3EFF030E0097B0117
:100695007A02794F120C8890024EE030E315121160
:1006A5002E7E00EF700D90000004F0FB7A02794F6A
:1006B500120CB990024EE030E405E4FF12035490A9
:1006C500024EE030E5057F0112035490024EE03002
:1006D500E6057F0212035490024EE030E7057F03E2
:1006E50012035490024DE030E0057F04120354904C
:1006F500024DE030E1057F0512035490024DE030D4
:10070500E2057F0612035490024DE030E3057F07B2
:0307150012035478
:0107180022BE
:10105B007F65121139EF649A60037FFA22120D1823
:01106B002262
:10106C00759850758780758921758DF3D28ED299BC
:01107C002251
:100AC5007F6412101712106C121143120B101210C2
:100AD5005BAB07121007121118BF01077FC8121070
:100AE5001780F37F01120DC1AB077F641210172029
:100AF500B303120685900000E060F4E4F01204B739
:0B0B05001205D720B3FD12068580F812
:030000000207AC48
:0C07AC00787FE4F6D8FD7581110207F398
:10000300E709F608DFFA8046E709F208DFFA803EDF
:1000130088828C83E709F0A3DFFA8032E309F608CC
:10002300DFFA8078E309F208DFFA807088828C8334
:10003300E309F0A3DFFA806489828A83E0A3F608E8
:10004300DFFA805889828A83E0A3F208DFFA804CC2
:1000530080D280FA80C680D4806980F28033801099
:1000630080A680EA809A80A880DA80E280CA803302
:1000730089828A83ECFAE493A3C8C582C8CCC5837A
:10008300CCF0A3C8C582C8CCC583CCDFE9DEE7804A
:100093000D89828A83E493A3F608DFF9ECFAA9F0C9
:1000A300EDFB2289828A83ECFAE0A3C8C582C8CC1F
:1000B300C583CCF0A3C8C582C8CCC583CCDFEADE38
:1000C300E880DB89828A83E493A3F208DFF980CC9A
:1000D30088F0EF60010E4E60C388F0ED2402B40493
:1000E3000050B9F582EB2402B4040050AF2323453A
:0600F3008223900053730C
:1000F900BB010689828A83E0225002E722BBFE0205
:09010900E32289828A83E4932237
:10011200BB010689828A83F0225002F722BBFE01CC
:02012200F322C6
:10012400A3F8E0C5F025F0F0E5821582700215838E
:06013400E0C838F0E822EB
:10013A00EB9FF5F0EA9E42F0E99D42F0EC6480C83C
:06014A0064809845F022DC
:10015000E8600FECC313FCED13FDEE13FEEF13FF8D
:03016000D8F122B1
:10016300E8600FEFC333FFEE33FEED33FDEC33FCFA
:03017300D8F1229E
:0C017600ECF0A3EDF0A3EEF0A3EFF022FC
:10018200A8828583F0D083D082120199120199123C
:100192000199120199E473E493A3C583C5F0C58361
:1001A200C8C582C8F0A3C583C5F0C583C8C582C8C7
:0101B200222A
:1001B300EF4E6012EF60010EEDBB010B89828A8363
:1001C300F0A3DFFCDEFA2289F05007F709DFFCA970
:0C01D300F022BBFEFCF309DFFCA9F022C7
:1007B800020AC5E493A3F8E493A34003F68001F288
:1007C80008DFF48029E493A3F85407240CC8C33342
:1007D800C4540F4420C8834004F456800146F6DF11
:1007E800E4800B0102040810204080900838E47E61
:1007F800019360BCA3FF543F30E509541FFEE49306
:10080800A360010ECF54C025E060A840B8E493A3CC
:10081800FAE493A3F8E493A3C8C582C8CAC583CAF7
:10082800F0A3C8C582C8CAC583CADFE9DEE780BEAF
:01088F000068
:00000001FF
