:100890004572726F723A20253032580A00726563D1
:1008A00065697665206C656E203D2025640A0054DC
:1008B000637020436F6E6E6563740A004950206157
:1008C000646472657373203D2025642E25642E2593
:1008D000642E25640A00506F7274203D2025640A3E
:1008E00000496E697420737461747573203A2047EF
:1008F000494E545F535441545F5048595F434841F7
:100900004E47450A0043483339354556542054650F
:1009100073742044656D6F0A004572726F723A20DD
:100920004E6F7420537570706F7274210A004348C3
:1009300033393520436F6E6E656374204574686586
:06094000726E65740A00EE
:10132600441D6CC0A8010A441D97C0A80101441DB4
:0A13360093FFFFFF00421D9B138888
:0714E6007FFA1214ED7FFAFA
:0714ED00AE071FEE70FA22AA
:071373007FC812137A7FC846
:10137A00AD07AF051DEF60081214E61214E680F2FD
:01138A002240
:09155100D29475D55C43AA08226E
:0D1502008F86E5AA30E7FB53AA7FAF862253
:03149B00E4FCFB73
:0C149E00D294C2941215027F020214EDD9
:10107C00901E22E0FBA3E475F00112049BA9F0FA88
:10108C0012045EFF1210A7901E22E0FBA3E475F081
:0B109C000112049BA9F0FA12045EFF91
:0310A7000215022D
:0814F40012149EAF051210A7AF
:0514FC007FFF12150244
:0115010022C7
:08155A007F0512149ED29422B9
:081562007F0312149ED29422B3
:0A151B007F0112149E1214FCD294FA
:0115250022A3
:02154700AD07EE
:071549007F061214F4D29496
:011550002278
:0F14AA00AD077F2012149EAF051210A7D2942217
:0A1526007F2612149E1214FCD294CA
:011530002298
:0A1531007F2912149E1214FCD294BC
:01153B00228D
:1010AA00E4901D9EF0FD7F2712149ED2947F0A12AF
:1010BA00137A121490AD07EDB41010901D9EE0FF44
:0D10CA0004F0EFD394C840E57FFA22AF0593
:0110D70022F6
:060EF400901E0F1204ED38
:100EFA007F0212149E901E0FA3A3A3E0FF1210A755
:100F0A00901E0FA3A3E0FEEEFF1210A7901E0FE0A3
:100F1A00FCA3E0FDA3E0FEA3E0FF78101204C712D1
:0A0F2A0010A71214FCA3EFF0D294FC
:010F3400229A
:05148B007F0512137A39
:0A1490007F2C12149E1214FCD2945B
:01149A00222F
:0B128B00901D9EEBF0A3EAF0A3E9F039
:101296007F2212149EE4FE901D9E1210960EEEB44E
:0412A60004F5D294E5
:0112AA002221
:0B12AB00901D9EEBF0A3EAF0A3E9F019
:1012B6007F2312149EE4FE901D9E1210960EEEB42D
:0412C60004F5D294C5
:0112CA002201
:0B12CB00901D9EEBF0A3EAF0A3E9F0F9
:1012D6007F2412149EE4FE901D9E1210960EEEB40C
:0412E60004F5D294A5
:0112EA0022E1
:0B124600901E1CEBF0A3EAF0A3E9F0FF
:101251007F2112149EE4FE901E1C1210960EEEB415
:0912610006F5D2947F6402137AB1
:0B0FE900901E1FEBF0A3EAF0A3E9F05C
:100FF4007F4012149EE4FE1214FC901E1FE0FBA31B
:10100400E475F00112049BA9F0FAEF1204770EEED6
:05101400B406E4D294D3
:0110190022B4
:10094600AD077F2512149EAF051210A7901DFBA3BD
:10095600A3A3E0FF1210A7901DFBA3A3E0FEEEFFEA
:100966001210A7901DFBE0FCA3E0FDA3E0FEA3E0B0
:10097600FF78101204C71210A7901DFBE0FCA3E03D
:10098600FDA3E0FEA3E0FF78181204C71210A7A388
:10099600A3A3A3E0FF1210A7901DFFA3A3E0FEEE02
:1009A600FF1210A7901DFFE0FCA3E0FDA3E0FEA34D
:1009B600E0FF78101204C71210A7901DFFE0FCA3F9
:1009C600E0FDA3E0FEA3E0FF78181204C71210A70B
:0309D600D2942296
:0B101A00901DAAEBF0A3EAF0A3E9F0A0
:101025007F2812149EE4FE1214FC901DAAE0FBA377
:10103500E475F00112049BA9F0FAEF1204770EEEA5
:05104500B408E4D294A0
:01104A002283
:0D0FB100901DB1EBF0A3EAF0A3E9F0AD074D
:100FBE007F2D12149EAF051210A7E4FE1214FC90A2
:100FCE001DB1E0FBA3E475F00112049BA9F0FAEF4A
:0A0FDE001204770EEEB406E4D2947C
:010FE80022E6
:1012EB00901E22EBF0A3EAF0A3E9F0AD077F3112D9
:1012FB00149EAF051210A712107C12107CD29422F0
:1013F900AC077F3412149EAF041210A7AF05121068
:04140900A7D29422B0
:10134100AB077F3212149EAF031210A7AF05121024
:09135100A7ECFF1210A7D29422B0
:10135A00AB077F3312149EAF031210A7AF0512100A
:09136A00A7ECFF1210A7D2942297
:10140D00AC077F3E12149EAF041210A7AF05121049
:04141D00A7D294229C
:0F14B900AD077F3F12149EAF051210A7D29422E9
:0D0EAE00901DB2EBF0A3EAF0A3E9F0AD0750
:100EBB007F3912149EAF051210A7A3A3E0FF1210E7
:100ECB00A7901DB5E0FF1210A7E4FDFCD3901DB653
:100EDB00E09D901DB5E09C400D901DB21210960D3B
:080EEB00BD00010C80E6D29469
:010EF30022DC
:02130B00AD072C
:10130D007F3B1214F4AD077C001214FCEFFEE42DAC
:08131D00FDEC3ED294FEAF0589
:0113250022A5
:0F14C800AD077F2E12149EAF051210A7D29422EB
:0B0BE700901DB1EFF0A3ECF0A3EDF0C7
:100BF2004C60487F3C12149E901DB1E0FF1210A77A
:100C0200A3A3E0FF1210A7901DB2E0FF1210A77F6E
:100C1200011214EDE4FDFCD3901DB3E09D901DB2D2
:100C2200E09C40151214FCEF120477740129F9E4D8
:0B0C32003AFA0DBD00010C80DED294E8
:010C3D002294
:0F14D700AD077F2A12149EAF051210A7D29422E0
:1013A200AD07AC067F2A12149EAF051210A7ECFF00
:0613B2001210A7D29422E4
:100F3500901E25EBF0A3EAF0A3E9F0AD077F2F1291
:100F450014F4901E25E0FBA3E475F00112049BA99F
:100F5500F0FAEF1204771214FC901E25E0FBA3E4CF
:100F650075F00112049BA9F0FAEF120477D29422CE
:0211FA00AD073F
:1011FC007F3512149BAF051210A7D29412148BAB2F
:10120C0007EBB4100CAF040CEFD394C840EE7FFA8C
:03121C0022AF03FB
:01121F0022AC
:02122000AD0718
:101222007F3D12149BAF051210A7D29412148BAB00
:1012320007EBB4100CAF040CEFD394C840EE7FFA66
:0312420022AF03D5
:011245002286
:02112F00AD070A
:10113100E4FCFB7F3712149EAF051210A7D2941264
:10114100148BAB07EBB4100CAF040CEFD394C84075
:06115100EE7FFA22AF035D
:011157002275
:02115800AD07E1
:10115A00E4FCFB7F3612149EAF051210A7D294123C
:10116A00148BAB07EBB4100CAF040CEFD394C8404C
:06117A00EE7FFA22AF0334
:01118000224C
:02118100AD07B8
:10118300E4FCFB7F3812149EAF051210A7D2941211
:10119300148BAB07EBB4100CAF040CEFD394C84023
:0611A300EE7FFA22AF030B
:0111A9002223
:02138B00AD07AC
:10138D007F3012149EAF051210A77F021214ED12BA
:04139D0014FCD294D6
:0113A1002229
:0B05C900901DD9EBF0A3EAF0A3E9F0CD
:1005D400901DE41204F904C11DB7901DE81204F93A
:1005E400FFFFFFFF901DDC1204F900000000E47F10
:1005F40006FEFDFC901DDCE0F8A3E0F9A3E0FAA3FD
:10060400E0FBC31204B1400302071C901DD9E0FBB8
:10061400A3E475F00112049BA9F0FA12045E901D84
:10062400ECF0901DE01204F900000000E47F08FEE5
:10063400FDFC901DE0E0F8A3E0F9A3E0FAA3E0FBE1
:10064400C31204B140030206F4901DE8E0FCA3E0E9
:10065400FDA3E0FEA3E0FF781F1204C7A905AA06C4
:10066400AB07A3E0FFEB6FFFEF5401FFEF601890BF
:100674001DE4E0FCA3E0FDA3E0FEA3E0FFC004C092
:1006840005C006C007800DE4FBFAF9F8C000C001FC
:10069400C002C003901DE8E0FCA3E0FDA3E0FEA3BC
:1006A400E0FF78011204DAD003D002D001D000EFC9
:1006B4006BFFEE6AFEED69FDEC68FC901DE8120428
:1006C400ED901DECE0C313F0901DE0E0FCA3E0FD11
:1006D400A3E0FEA3E0FFE4FAF9F8EF2401FFEA3E09
:1006E400FEE93DFDE83CFC901DE01204ED020630FD
:1006F400901DDCE0FCA3E0FDA3E0FEA3E0FFE4FA30
:10070400F9F8EF2401FFEA3EFEE93DFDE83CFC90E8
:100714001DDC1204ED0205F2901DE8E0FCA3E0FDEF
:10072400A3E0FEA3E0FF781A1204C7901DE81204A8
:09073400ED901DE8A3A3A3E0FF72
:01073D002299
:0211AA00AD078F
:1011AC00E4FC7F4112149EAF051210A7D2947F1459
:1011BC0012137A121490EFB4100CAE040CEED394FC
:0611CC00C840EB7FFA228F
:0111D20022FA
:0A153C007F4212149E1214FCD29498
:011546002282
:0B104B00901E28EBF0A3EAF0A3E9F0F0
:101056007F4312149EE4FE1214FC901E28E0FBA3AC
:10106600E475F00112049BA9F0FAEF1204770EEE74
:05107600B414E4D29463
:01107B002252
:10144700AC077FED12149EAF041210A7AF05021070
:01145700A7ED
:0213E400AD0753
:1013E6007FEC12149EAF051210A77F0112137A121A
:0213F60014FCE5
:0113F80022D2
:101421007FE912149E7F1412137A121490EF641044
:0214310060F366
:011433002296
:0F0C9200901E05EBF0A3EAF0A3E9F0AD07AC0666
:100CA1007FEA12149EAF051210A7ECFF1210A7A342
:100CB100E0801D901E08E0FF14F0EF6019901E0502
:100CC100E0FBA3E475F00112049BA9F0FA12045EA3
:100CD100FF1210A780DD7F1412137A121490EF64B3
:030CE1001060F3AD
:010CE40022ED
:100DCF00901E0BEBF0A3EAF0A3E9F0AD07AC067FA2
:100DDF00EB12149EAF051210A7ECFF1210A7A3E0A1
:100DEF00FF1210A77F0112137A901E0EE0FF14F06E
:100DFF00EF60191214FC901E0BE0FBA3E475F001D9
:0D0E0F0012049BA9F0FAEF12047780DD2297
:10143400AD07AC067F5012149EAF051210A7ECFF47
:031444000210A7EC
:1013B800AC077F5212149EAF041210A7AF0512108B
:0613C800A7AF030210A70D
:1013CE00AC077F5312149EAF041210A7AF05121074
:0613DE00A7AF030210A7F7
:100C3E00901DEDEBF0A3EAF0A3E9F0A31204ED9002
:100C4E001DF9E0FF901DF4E0FBA3E0FAA3E0F9121A
:100C5E0012EB901DF9E0FF901DF7E0FCA3E0FD12F2
:100C6E001341901DEDE0FBA3E0FAA3E0F9A3A3A3CB
:100C7E00E0FFA3E0901DB5CFF0A3EFF0901DF9E0DB
:040C8E00FF020EAEA5
:100CE500901D9E1204ED7F5512149E901D9EA3A388
:100CF500A3E0FF1210A7901D9EA3A3E0FEEEFF1236
:100D050010A7901D9EE0FCA3E0FDA3E0FEA3E0FF7D
:100D150078101204C71210A7901D9EE0FCA3E0FDF9
:0E0D2500A3E0FEA3E0FF78181204C70210A797
:10126A007F1912149E7F021214ED1214FCAD077C32
:10127A00001214FCEFFEE42DFDEC3ED294FEAF0505
:01128A002241
:10145800AC077F5912149EAF041210A7AF050210F3
:01146800A7DC
:0C150F00AD077F5812149EAF050210A714
:100D3300901E141204ED7F5612149E901E14A3A34A
:100D4300A3E0FF1210A7901E14A3A3E0FEEEFF1270
:100D530010A7901E14E0FCA3E0FDA3E0FEA3E0FFB8
:100D630078101204C71210A7901E14E0FCA3E0FD34
:0E0D7300A3E0FEA3E0FF78181204C70210A749
:100D8100901E181204ED7F5712149E901E18A3A3F3
:100D9100A3E0FF1210A7901E18A3A3E0FEEEFF121E
:100DA10010A7901E18E0FCA3E0FDA3E0FEA3E0FF66
:100DB10078101204C71210A7901E18E0FCA3E0FDE2
:0E0DC100A3E0FEA3E0FF78181204C70210A7FB
:10146900AC077F5112149EAF041210A7AF050210EA
:01147900A7CB
:1010D8007F0212137A901DAAE0FF1211FA901DAC3C
:0210E800EFF027
:1010EA00EF60167BFF7A087990901DB4E4F0A3EFC5
:0A10FA00F012006E12137380FB2247
:100E66007E007F237D007B017A1D797012052A782A
:100E7600707C1D7D017B017A1D796C7E007F0412DA
:100E8600043878747C1D7D017B017A1D79977E007C
:100E96007F0412043878787C1D7D017B017A1D79E8
:080EA600937E007F0402043872
:101104007E007F1C7D007B017A1D795012052A9098
:101114001D9BE0FFA3E0901D63CFF0A3EFF0901DB3
:0B1124005A7403F0901D5C7401F0226F
:100E1C00901D5AE0FDE4FF1213F9901D63E0FCA352
:100E2C00E0FDE4FF12135AE4FF1211FAAA071210A4
:100E3C00EAE4FF121158AA071210EA7A01AF0290E5
:100E4C001D5AE0FD1213F9AF02901D63E0FCA3E004
:090E5C00FD12135A0AEAB408E47D
:010E6500226A
:05073E00901DAAEFF080
:1007430012138BA3EFF0901DABE020E2030207E34B
:10075300901DAAE0FF12130B901DADEEF0A3EFF076
:100763007BFF7A08799D901DB4EEF0A3EFF01200A1
:100773006E901DADE0FEA3E0FF4E700302088FD321
:10078300EF9464EE94004009901DADE4F0A374640B
:10079300F0901DAAE0FF7E007C047D301204897472
:1007A300002FF974003EFA7B01E0FF901DADE0FCE1
:1007B300A3E0FD120BE7901DAAE0FF7E007C047D01
:1007C3003012048974002FF974003EFAE0FF901D83
:1007D300ADE0FDA3E0901DB5CDF0A3EDF0120EAE9C
:1007E300901DABE030E37B7BFF7A0879AF12006E9C
:1007F300901D5CE06401706A901DAAE0FF7B007AA3
:1008030000790D120FB17812E6FE18E67C00240081
:10081300FFEC3E901DAFF0A3EFF07BFF7A0879BCAD
:10082300780DE6FF901DB4E4F0A3EFF008E6FFA314
:10083300E4F0A3EFF008E6FFA3E4F0A3EFF008E68B
:10084300FFA3E4F0A3EFF012006E7BFF7A0879D6E2
:10085300901DAFE0FFA3E0901DB4CFF0A3EFF01223
:10086300006E901DABE030E40E901DAAE0FF121263
:10087300201210E51210D8901DABE030E60E901D4B
:0C088300AAE0FF1212201210E51210D89B
:01088F002246
:100AF40012126A901D9EEEF0A3EFF030E0097B0124
:100B04007A1D79A012101A901D9FE030E2097BFF34
:100B14007A0879E112006E901D9FE030E405E4FF4D
:100B240012073E901D9FE030E5057F0112073E90BD
:100B34001D9FE030E6057F0212073E901D9FE030C6
:100B4400E7057F0312073E901D9EE030E0057F0419
:100B540012073E901D9EE030E1057F0512073E908E
:100B64001D9EE030E2057F0612073E901D9EE03098
:070B7400E3057F0712073EB5
:010B7B002257
:100F75007F65121547EF649A60037FFA227B017A39
:100F85001D797012128B7B017A1D79741212AB7B5D
:100F9500017A1D79781212CB7F0A7E007D007C00D4
:0B0FA500120CE57F6412137A1210AAF0
:010FB000221E
:10147A00759850758780758921758DF3D28ED299AA
:01148A00223F
:1009D9007B04E4FDFF1213B87B027D04E4FF1213CC
:1009E900CE7B047D067F011213B87B027D0A7F014D
:1009F9001213CE7B047D0C7F021213B87B027D108B
:100A09007F021213CE7B047D127F031213B87B027F
:100A19007D167F031213CE7B047D187F041213B851
:100A29007B027D1C7F041213CE7B047D1E7F051281
:100A390013B87B027D227F051213CE7B047D247FB0
:100A4900061213B87B027D287F061213CE7B047D24
:0F0A59002A7F071213B87B027D2E7F070213CE70
:100B7C007F6412137A12147A7BFF7A0979051200BA
:100B8C006E12155112151B901D9DEFF0C39444501D
:100B9C000E7BFF7A09791912006E12137380FB1207
:100BAC000E66120F75901D9DEFF01210EA1209D906
:100BBC007F187E02121434121526BF01077FC8124B
:100BCC00137A80F37BFF7A09792E12006E121104CE
:0B0BDC00120E1C20B3FD120AF480F87A
:03000000020A6889
:0C0A6800787FE4F6D8FD758121020AAF0A
:10036800E709F608DFFA8046E709F208DFFA803E77
:1003780088828C83E709F0A3DFFA8032E309F60864
:10038800DFFA8078E309F208DFFA807088828C83CC
:10039800E309F0A3DFFA806489828A83E0A3F60880
:1003A800DFFA805889828A83E0A3F208DFFA804C5A
:1003B80080D280FA80C680D4806980F28033801031
:1003C80080A680EA809A80A880DA80E280CA80339A
:1003D80089828A83ECFAE493A3C8C582C8CCC58312
:1003E800CCF0A3C8C582C8CCC583CCDFE9DEE780E2
:1003F8000D89828A83E493A3F608DFF9ECFAA9F061
:10040800EDFB2289828A83ECFAE0A3C8C582C8CCB6
:10041800C583CCF0A3C8C582C8CCC583CCDFEADECF
:10042800E880DB89828A83E493A3F208DFF980CC31
:1004380088F0EF60010E4E60C388F0ED2402B4042A
:100448000050B9F582EB2402B4040050AF232345D1
:0604580082239003B8733B
:10045E00BB010689828A83E0225002E722BBFE029C
:09046E00E32289828A83E49322CF
:10047700BB010689828A83F0225002F722BBFE0164
:02048700F3225E
:10048900EF8DF0A4A8F0CF8CF0A428CE8DF0A42E87
:02049900FE2241
:10049B00A3F8E0C5F025F0F0E58215827002158314
:0604AB00E0C838F0E82271
:1004B100EB9FF5F0EA9E42F0E99D42F0EC6480C8C2
:0604C10064809845F02262
:1004C700E8600FECC313FCED13FDEE13FEEF13FF13
:0304D700D8F12237
:1004DA00E8600FEFC333FFEE33FEED33FDEC33FC80
:0304EA00D8F12224
:0C04ED00ECF0A3EDF0A3EEF0A3EFF02282
:1004F900A8828583F0D083D08212051012051012CC
:100509000510120510E473E493A3C583C5F0C583F0
:10051900C8C582C8F0A3C583C5F0C583C8C582C84C
:0105290022AF
:10000300E50824B4F582E4341DF583E00508229065
:100013001DB1300703901DB4E475F001120583028E
:10002300045E2000E97F2ED2008018EF540F249045
:10003300D43440D4FF30040BEF24BFB41A00500370
:100043002461FFE50960021509050CE50C70020542
:100053000B30070E901DB1E475F001120583EF021A
:1000630004770211D37403D2078003E4C207F508AF
:10007300901DB112059AE4F509F50BF50CE509603D
:10008300077F2012004680F5750AFFC201C200C235
:1000930002C203C205C206C208120012FF700D306D
:1000A30007057F00120057AF0CAE0B22B4255FC2C9
:1000B300D5C204120012FF24D0B40A00501A75F0FE
:1000C3000A780930D50508B6FF0106C6A426F6202E
:1000D300D5047002D20380D924CFB41A00EF5004A0
:1000E300C2E5D204020258D20180C6D20080C0D237
:1000F3000280BCD2D580BAD20580B47F20120046DC
:100103002002077401B5090040F1120003FF120039
:1001130046020080D208D2068095120003FB12002B
:1001230003FA120003F94A4B700679297A037BFF1D
:1001330020022EE509602A7E008E82758300120557
:100143005660060EEE650A70F0C2D5EBC0E0EAC059
:10015300E0E9C0E0EE12029FD0E0F9D0E0FAD0E08F
:10016300FB12045EFF60AAEBC0E0EAC0E0E9C0E076
:10017300120046D0E02401F9D0E03400FAD0E0FBCD
:10018300E50A0460DCD50AD980877BFF7A02799B74
:10019300D202809C791080027908C206C2088008C6
:1001A300D2D5790A8004790AC2D5E50A047002F52A
:1001B3000AE4FAFDFEFF120003FC7B082001131280
:1001C3000003FD7B1030000A120003FE120003FF40
:1001D3007B20EC3382D592D55013C3E43000069FC5
:1001E300FFE49EFEE42001039DFDE49CFCE4CBF8C8
:1001F300C201EC700CCFCECDCCE824F8F870F380BC
:1002030017C3EF33FFEE33FEED33FDEC33FCEB337B
:10021300FB994002FB0FD8E9EB300105F8D0E0C4AD
:1002230048B201C0E00AEC4D4E4F78207B0070C20B
:10023300EAB50A0040BCC0E01202A1D0F0D0E02031
:100243000104C4C0E0C4B201C0F012002FD0F0D545
:10025300F0EB0200801205A3011D5301975800EE35
:100263004C00EA42019B4F01A34401A3490103430C
:0802730001A955018D46018D22
:10027B0045018D4703495000F22D00F62E01192B35
:10028B0000FA2301172003322A00B24800000111A3
:10029B003F3F3F00790AA2D5200314300509B9105E
:1002AB00020404B9080104A2D5200602500104205F
:1002BB0002689202B509005034C0E07F2030031968
:1002CB007F30A20272067205500F1202F8C202C2F0
:1002DB0006C205C2087F30800F300503E9C0E0126B
:1002EB000046300503D0E0F9D0E0B509CC30051756
:1002FB007F30B9100C1200467F583004077F78808E
:10030B0003B908031200463002057F2D0200467F19
:10031B00202008F87F2B2006F322920280CF286E34
:10032B00756C6C2900D2011200033001F8C2017800
:10033B000930D50108F60200B22D5043495812007E
:10034B00032403B405004001E490034493120037E7
:0D035B00743A120037D203750904020197AD
:10052A00EF4E6012EF60010EEDBB010B89828A83E8
:10053A00F0A3DFFCDEFA2289F05007F709DFFCA9F5
:0C054A00F022BBFEFCF309DFFCA9F0224C
:100A7400020B7CE493A3F8E493A34003F68001F211
:100A840008DFF48029E493A3F85407240CC8C33383
:100A9400C4540F4420C8834004F456800146F6DF52
:100AA400E4800B0102040810204080901326E47EA9
:100AB400019360BCA3FF543F30E509541FFEE49347
:100AC400A360010ECF54C025E060A840B8E493A30E
:100AD400FAE493A3F8E493A3C8C582C8CAC583CA39
:100AE400F0A3C8C582C8CAC583CADFE9DEE780BEF1
:0113400000AC
:10055600BB010CE58229F582E5833AF583E022505A
:1005660006E92582F8E622BBFE06E92582F8E222A4
:0D057600E58229F582E5833AF583E49322BE
:10058300F8E0FBA3A3E0F925F0F0E5821582700201
:070593001583E0FA38F022A5
:09059A00EBF0A3EAF0A3E9F02262
:1005A300D083D082F8E4937012740193700DA3A3E7
:1005B30093F8740193F5828883E4737402936860FB
:0605C300EFA3A3A380DFFB
:1011D300EFB40A07740D1211DE740A309811A8993E
:1011E300B8130CC2983098FDA899C298B811F6307C
:0711F30099FDC299F5992254
:00000001FF
