:1010F900726563656976652064617461203A0A00E6
:0711090025303278200A00B6
:0912E70046023F0203040506075C
:07127C007FFA1212837FFAD2
:07128300AE071FEE70FA2216
:100FB0007FC8120FC17FC8120FC17FC8120FC17F37
:010FC000C868
:100FC100AD07AF051DEF600812127C12127C80F292
:010FD10022FD
:0912F100D29475D55C43AA0822D1
:0D1298008F86E5AA30E7FB53AA7FAF8622C0
:03123100E4FCFBDF
:0C123400D294C2941212987F020212831E
:100DF400900316E0FBA3E475F001120489A9F0FA4C
:100E040012045EFF120E1F900316E0FBA3E475F0BC
:0B0E140001120489A9F0FA12045EFF2D
:030E1F0002129824
:08128A00121234AF05120E1F11
:051292007FFF1212981D
:011297002234
:081303007F05121234D294227E
:08130B007F03121234D2942278
:0A12B1007F01121234121292D2943F
:0112BB002210
:0212DD00AD075B
:0712DF007F0612128AD2946F
:0112E60022E5
:0F124000AD077F20121234AF05120E1FD2942279
:0A12BC007F26121234121292D2940F
:0112C6002205
:0A12C7007F29121234121292D29401
:0112D10022FA
:100E2200E4900245F0FD7F27121234D2947F0A1219
:100E32000FC1121226AD07EDB41010900245E0FF6B
:0D0E420004F0EFD394C840E57FFA22AF051D
:010E4F002280
:060C79009002F61204DBFC
:100C7F007F021212349002F6A3A3A3E0FF120E1FFD
:100C8F009002F6A3A3E0FEEEFF120E1F9002F6E015
:100C9F00FCA3E0FDA3E0FEA3E0FF78101204B51261
:0A0CAF000E1F121292A3EFF0D29470
:010CB9002218
:051221007F05120FC162
:0A1226007F2C121234121292D2949F
:01123000229B
:0B101500900307EBF0A3EAF0A3E9F062
:101020007F22121234E4FE900307120E0E0EEEB46D
:0410300004F5D2945D
:011034002299
:0B10350090030AEBF0A3EAF0A3E9F03F
:101040007F23121234E4FE90030A120E0E0EEEB449
:0410500004F5D2943D
:011054002279
:0B10550090030DEBF0A3EAF0A3E9F01C
:101060007F24121234E4FE90030D120E0E0EEEB425
:0410700004F5D2941D
:011074002259
:0B0F8C00900245EBF0A3EAF0A3E9F0AF
:100F97007F21121234E4FE900245120E0E0EEEB4BB
:090FA70006F5D2947F64020FC12B
:0B0D3200900310EBF0A3EAF0A3E9F03F
:100D3D007F40121234E4FE121292900310E0FBA3D6
:100D4D00E475F001120489A9F0FAEF1204770EEEA2
:050D5D00B406E4D2948D
:010D6200226E
:10086700AD077F25121234AF05120E1F9002E2A3C7
:10087700A3A3E0FF120E1F9002E2A3A3E0FEEEFF88
:10088700120E1F9002E2E0FCA3E0FDA3E0FEA3E04E
:10089700FF78101204B5120E1F9002E2E0FCA3E0ED
:1008A700FDA3E0FEA3E0FF78181204B5120E1FA304
:1008B700A3A3A3E0FF120E1F9002E6A3A3E0FEEEA0
:1008C700FF120E1F9002E6E0FCA3E0FDA3E0FEA3EB
:1008D700E0FF78101204B5120E1F9002E6E0FCA3A9
:1008E700E0FDA3E0FEA3E0FF78181204B5120E1F87
:0308F700D2942276
:0B0D6300900287EBF0A3EAF0A3E9F098
:100D6E007F28121234E4FE121292900287E0FBA347
:100D7E00E475F001120489A9F0FAEF1204770EEE71
:050D8E00B408E4D2945A
:010D9300223D
:0D0CFA00900313EBF0A3EAF0A3E9F0AD07BF
:100D07007F2D121234AF05120E1FE4FE12129290BD
:100D17000313E0FBA3E475F001120489A9F0FAEFCD
:0A0D27001204770EEEB406E4D29435
:010D3100229F
:10107500900316EBF0A3EAF0A3E9F0AD077F311278
:101085001234AF05120E1F120DF4120DF4D2942274
:10117D00AC077F34121234AF04120E1FAF05120EDE
:04118D001FD29422B7
:1010B000AB077F32121234AF03120E1FAF05120EB0
:0910C0001FECFF120E1FD2942256
:1010C900AB077F33121234AF03120E1FAF05120E96
:0910D9001FECFF120E1FD294223D
:10119100AC077F3E121234AF04120E1FAF05120EC0
:0411A1001FD29422A3
:0F124F00AD077F3F121234AF05120E1FD294224B
:0D0C3300900299EBF0A3EAF0A3E9F0AD0701
:100C40007F39121234AF05120E1FA3A3E0FF120E5C
:100C50001F90029CE0FF120E1FE4FDFCD390029D4A
:100C6000E09D90029CE09C400D900299120E0E0DAA
:080C7000BD00010C80E6D294E6
:010C78002259
:02109500AD07A5
:101097007F3B12128AAD077C00121292EFFEE42DFD
:0810A700FDEC3ED294FEAF0502
:0110AF00221E
:0F125E00AD077F2E121234AF05120E1FD294224D
:0B09FE00900298EFF0A3ECF0A3EDF0E6
:100A09004C60487F3C121234900298E0FF120E1F8E
:100A1900A3A3E0FF120E1F900299E0FF120E1F7FA1
:100A290001121283E4FDFCD390029AE09D90029991
:100A3900E09C4015121292EF120477740129F9E42F
:0B0A49003AFA0DBD00010C80DED294D3
:010A5400227F
:0F126D00AD077F2A121234AF05120E1FD2942242
:10111000AD07AC067F2A121234AF05120E1FECFF8A
:06112000120E1FD2942202
:100CBA00900319EBF0A3EAF0A3E9F0AD077F2F1236
:100CCA00128A900319E0FBA3E475F001120489A9C2
:100CDA00F0FAEF120477121292900319E0FBA3E4E0
:100CEA0075F001120489A9F0FAEF120477D294225E
:020F1B00AD0720
:100F1D007F35121231AF05120E1FD294121221AB72
:100F2D0007EBB4100CAF040CEFD394C840EE7FFA6E
:030F3D0022AF03DD
:010F4000228E
:020F4100AD07FA
:100F43007F3D121231AF05120E1FD294121221AB44
:100F530007EBB4100CAF040CEFD394C840EE7FFA48
:030F630022AF03B7
:010F66002268
:020E5000AD07EC
:100E5200E4FCFB7F37121234AF05120E1FD294123C
:100E62001221AB07EBB4100CAF040CEFD394C840C3
:060E7200EE7FFA22AF033F
:010E78002257
:020E7900AD07C3
:100E7B00E4FCFB7F36121234AF05120E1FD2941214
:100E8B001221AB07EBB4100CAF040CEFD394C8409A
:060E9B00EE7FFA22AF0316
:010EA100222E
:020EA200AD079A
:100EA400E4FCFB7F38121234AF05120E1FD29412E9
:100EB4001221AB07EBB4100CAF040CEFD394C84071
:060EC400EE7FFA22AF03ED
:010ECA002205
:0210E200AD0758
:1010E4007F30121234AF05120E1F7F0212128312C8
:0410F4001292D294EE
:0110F80022D5
:0B05B7009002C0EBF0A3EAF0A3E9F013
:1005C2009002CB1204E704C11DB79002CF1204E7D8
:1005D200FFFFFFFF9002C31204E700000000E47F68
:1005E20006FEFDFC9002C3E0F8A3E0F9A3E0FAA343
:1005F200E0FBC312049F400302070A9002C0E0FB23
:10060200A3E475F001120489A9F0FA12045E9002C3
:10061200D3F09002C71204E700000000E47F08FE56
:10062200FDFC9002C7E0F8A3E0F9A3E0FAA3E0FB27
:10063200C312049F40030206E29002CFE0FCA3E053
:10064200FDA3E0FEA3E0FF781F1204B5A905AA06E8
:10065200AB07A3E0FFEB6FFFEF5401FFEF601890D1
:1006620002CBE0FCA3E0FDA3E0FEA3E0FFC004C0D8
:1006720005C006C007800DE4FBFAF9F8C000C0010E
:10068200C002C0039002CFE0FCA3E0FDA3E0FEA302
:10069200E0FF78011204C8D003D002D001D000EFED
:1006A2006BFFEE6AFEED69FDEC68FC9002CF12046E
:1006B200DB9002D3E0C313F09002C7E0FCA3E0FD9D
:1006C200A3E0FEA3E0FFE4FAF9F8EF2401FFEA3E1B
:1006D200FEE93DFDE83CFC9002C71204DB02061E67
:1006E2009002C3E0FCA3E0FDA3E0FEA3E0FFE4FA76
:1006F200F9F8EF2401FFEA3EFEE93DFDE83CFC90FB
:1007020002C31204DB0205E09002CFE0FCA3E0FD8D
:10071200A3E0FEA3E0FF781A1204B59002CF120400
:09072200DB9002CFA3A3A3E0FFCA
:01072B0022AB
:020ECB00AD0771
:100ECD00E4FC7F41121234AF05120E1FD2947F1431
:100EDD00120FC1121226EFB4100CAE040CEED39407
:060EED00C840EB7FFA2271
:010EF30022DC
:0A12D2007F42121234121292D294DD
:0112DC0022EF
:0B0D940090031CEBF0A3EAF0A3E9F0D1
:100D9F007F43121234E4FE12129290031CE0FBA365
:100DAF00E475F001120489A9F0FAEF1204770EEE40
:050DBF00B414E4D2941D
:010DC400220C
:1011DD00AC077FED121234AF04120E1FAF05020ED5
:0111ED001FE2
:02116800AD07D1
:10116A007FEC121234AF05120E1F7F01120FC1124B
:02117A001292CF
:01117C002250
:1011A5007FE91212347F14120FC1121226EF641058
:0211B50060F3E5
:0111B7002215
:0F0AA9009002ECEBF0A3EAF0A3E9F0AD07AC0686
:100AB8007FEA121234AF05120E1FECFF120E1FA3AD
:100AC800E0801D9002EFE0FF14F0EF60199002EC57
:100AD800E0FBA3E475F001120489A9F0FA12045EA0
:100AE800FF120E1F80DD7F14120FC1121226EF6451
:030AF8001060F398
:010AFB0022D8
:100BE6009002F2EBF0A3EAF0A3E9F0AD07AC067FC2
:100BF600EB121234AF05120E1FECFF120E1FA3E00C
:100C0600FF120E1F7F01120FC19002F5E0FF14F0D4
:100C1600EF60191212929002F2E0FBA3E475F00164
:0D0C2600120489A9F0FAEF12047780DD2294
:1011B800AD07AC067F50121234AF05120E1FECFFBC
:0311C800020E1FF5
:10112600AC077F52121234AF04120E1FAF05120E17
:061136001FAF03020E1FB3
:10113C00AC077F53121234AF04120E1FAF05120E00
:06114C001FAF03020E1F9D
:100A55009002D4EBF0A3EAF0A3E9F0A31204DB9033
:100A650002E0E0FF9002DBE0FBA3E0FAA3E0F9126D
:100A750010759002E0E0FF9002DEE0FCA3E0FD12BD
:100A850010B09002D4E0FBA3E0FAA3E0F9A3A3A37E
:100A9500E0FFA3E090029CCFF0A3EFF09002E0E02E
:040AA500FF020C330D
:100AFC009002FB1204DB7F551212349002FBA3A36D
:100B0C00A3E0FF120E1F9002FBA3A3E0FEEEFF1268
:100B1C000E1F9002FBE0FCA3E0FDA3E0FEA3E0FFB0
:100B2C0078101204B5120E1F9002FBE0FCA3E0FD3E
:0E0B3C00A3E0FEA3E0FF78181204B5020E1F1E
:100FF4007F191212347F02121283121292AD077CEF
:1010040000121292EFFEE42DFDEC3ED294FEAF05E9
:0110140022B9
:1011EE00AC077F59121234AF04120E1FAF05020E58
:0111FE001FD1
:0C12A500AD077F58121234AF05020E1F77
:100B4A009002FF1204DB7F561212349002FFA3A315
:100B5A00A3E0FF120E1F9002FFA3A3E0FEEEFF1216
:100B6A000E1F9002FFE0FCA3E0FDA3E0FEA3E0FF5E
:100B7A0078101204B5120E1F9002FFE0FCA3E0FDEC
:0E0B8A00A3E0FEA3E0FF78181204B5020E1FD0
:100B98009003031204DB7F57121234900303A3A3BC
:100BA800A3E0FF120E1F900303A3A3E0FEEEFF12C3
:100BB8000E1F900303E0FCA3E0FDA3E0FEA3E0FF0B
:100BC80078101204B5120E1F900303E0FCA3E0FD99
:0E0BD800A3E0FEA3E0FF78181204B5020E1F82
:1011FF00AC077F51121234AF04120E1FAF05020E4F
:01120F001FBF
:0912FA00EF6005120FBA80FB221F
:100FD2007E007F237D007B017A02791C120518783E
:100FE200287C027D017B017A02793F7E007F060226
:020FF2000438C1
:101152007E007F1C7D007B017A02790012051890C7
:06116200020A7401F022F4
:1011CB0090020AE0FDE4FF12117DE4FF120F1B02F7
:0211DB0012FA06
:05072C00900287EFF0D0
:100731001210E2EF20E203020866900287E0FF1246
:100741001095900294EEF0A3EFF04E70030208664C
:10075100D3900295E09400900294E09402400674D4
:1007610002F0A3E4F0900287E0FF900294E0FCA382
:10077100E0FD7B017A0079001209FE7BFF7A107996
:10078100F912006EE4900296F0A3F0900294E0FE5C
:10079100A3E0FFA3E0FCA3E0FDC39FEC9E502D7BF3
:1007A100FF7A11790974002DF58274003CF583E01C
:1007B100FF90029BE4F0A3EFF012006E900297E02D
:1007C10004F070C7900296E004F080BFE4FF74006B
:1007D1002FF582E43400F583E0FE74882FF582E47E
:1007E1003402F583EEF00FEFB406E3E4FF74062F55
:1007F100F582E43400F583E0FE748E2FF582E43453
:1008010002F583EEF00FEFB406E3E4FF748E2FF5EB
:1008110082E43402F583E0FE74002FF582E43400B3
:10082100F583EEF00FEFB406E3E4FF74882FF58251
:10083100E43402F583E0FE74062FF582E43400F51A
:1008410083EEF00FEFB406E3900287E0FF7B017ABD
:10085100007900900294E0FDA3E090029CCDF0A30A
:05086100EDF0120C3364
:01086600226F
:10098600120FF4900245EEF0A3EFF030E0097B0180
:100996007A027947120D63900246E030E405E4FFDF
:1009A60012072C900246E030E5057F0112072C90D5
:1009B6000246E030E6057F0212072C900246E03040
:1009C600E7057F0312072C900245E030E0057F041F
:1009D60012072C900245E030E1057F0512072C90A6
:1009E6000245E030E2057F0612072C900245E03012
:0709F600E3057F0712072C47
:0109FD0022D7
:100F67007F651212DDEF649A60037FFA227B017AB4
:100F7700027928120F8C120FB07FC8120FC1120FFF
:040F8700B0120E2274
:010F8B002243
:10121000759850758780758921758DF3D28ED29916
:0112200022AB
:100DC5007F64120FC11212101212F1120FD2120FFC
:100DD500671212FA1212BCBF01077FC8120FC18039
:0F0DE500F31211521211CB20B3FD12098680F8C0
:030000000208FAF9
:0C08FA00787FE4F6D8FD758121020941E9
:10036800E709F608DFFA8046E709F208DFFA803E77
:1003780088828C83E709F0A3DFFA8032E309F60864
:10038800DFFA8078E309F208DFFA807088828C83CC
:10039800E309F0A3DFFA806489828A83E0A3F60880
:1003A800DFFA805889828A83E0A3F208DFFA804C5A
:1003B80080D280FA80C680D4806980F28033801031
:1003C80080A680EA809A80A880DA80E280CA80339A
:1003D80089828A83ECFAE493A3C8C582C8CCC58312
:1003E800CCF0A3C8C582C8CCC583CCDFE9DEE780E2
:1003F8000D89828A83E493A3F608DFF9ECFAA9F061
:10040800EDFB2289828A83ECFAE0A3C8C582C8CCB6
:10041800C583CCF0A3C8C582C8CCC583CCDFEADECF
:10042800E880DB89828A83E493A3F208DFF980CC31
:1004380088F0EF60010E4E60C388F0ED2402B4042A
:100448000050B9F582EB2402B4040050AF232345D1
:0604580082239003B8733B
:10045E00BB010689828A83E0225002E722BBFE029C
:09046E00E32289828A83E49322CF
:10047700BB010689828A83F0225002F722BBFE0164
:02048700F3225E
:10048900A3F8E0C5F025F0F0E58215827002158326
:06049900E0C838F0E82283
:10049F00EB9FF5F0EA9E42F0E99D42F0EC6480C8D4
:0604AF0064809845F02274
:1004B500E8600FECC313FCED13FDEE13FEEF13FF25
:0304C500D8F12249
:1004C800E8600FEFC333FFEE33FEED33FDEC33FC92
:0304D800D8F12236
:0C04DB00ECF0A3EDF0A3EEF0A3EFF02294
:1004E700A8828583F0D083D0821204FE1204FE1204
:1004F70004FE1204FEE473E493A3C583C5F0C58329
:10050700C8C582C8F0A3C583C5F0C583C8C582C85E
:0105170022C1
:10000300E508249BF582E43402F583E00508229099
:10001300029830070390029BE475F0011205710208
:10002300045E2000E97F2ED2008018EF540F249045
:10003300D43440D4FF30040BEF24BFB41A00500370
:100043002461FFE50960021509050CE50C70020542
:100053000B30070E900298E475F001120571EF0260
:100063000477020EF47403D2078003E4C207F50891
:10007300900298120588E4F509F50BF50CE5096083
:10008300077F2012004680F5750AFFC201C200C235
:1000930002C203C205C206C208120012FF700D306D
:1000A30007057F00120057AF0CAE0B22B4255FC2C9
:1000B300D5C204120012FF24D0B40A00501A75F0FE
:1000C3000A780930D50508B6FF0106C6A426F6202E
:1000D300D5047002D20380D924CFB41A00EF5004A0
:1000E300C2E5D204020258D20180C6D20080C0D237
:1000F3000280BCD2D580BAD20580B47F20120046DC
:100103002002077401B5090040F1120003FF120039
:1001130046020080D208D2068095120003FB12002B
:1001230003FA120003F94A4B700679297A037BFF1D
:1001330020022EE509602A7E008E82758300120557
:100143004460060EEE650A70F0C2D5EBC0E0EAC06B
:10015300E0E9C0E0EE12029FD0E0F9D0E0FAD0E08F
:10016300FB12045EFF60AAEBC0E0EAC0E0E9C0E076
:10017300120046D0E02401F9D0E03400FAD0E0FBCD
:10018300E50A0460DCD50AD980877BFF7A02799B74
:10019300D202809C791080027908C206C2088008C6
:1001A300D2D5790A8004790AC2D5E50A047002F52A
:1001B3000AE4FAFDFEFF120003FC7B082001131280
:1001C3000003FD7B1030000A120003FE120003FF40
:1001D3007B20EC3382D592D55013C3E43000069FC5
:1001E300FFE49EFEE42001039DFDE49CFCE4CBF8C8
:1001F300C201EC700CCFCECDCCE824F8F870F380BC
:1002030017C3EF33FFEE33FEED33FDEC33FCEB337B
:10021300FB994002FB0FD8E9EB300105F8D0E0C4AD
:1002230048B201C0E00AEC4D4E4F78207B0070C20B
:10023300EAB50A0040BCC0E01202A1D0F0D0E02031
:100243000104C4C0E0C4B201C0F012002FD0F0D545
:10025300F0EB020080120591011D5301975800EE47
:100263004C00EA42019B4F01A34401A3490103430C
:0802730001A955018D46018D22
:10027B0045018D4703495000F22D00F62E01192B35
:10028B0000FA2301172003322A00B24800000111A3
:10029B003F3F3F00790AA2D5200314300509B9105E
:1002AB00020404B9080104A2D5200602500104205F
:1002BB0002689202B509005034C0E07F2030031968
:1002CB007F30A20272067205500F1202F8C202C2F0
:1002DB0006C205C2087F30800F300503E9C0E0126B
:1002EB000046300503D0E0F9D0E0B509CC30051756
:1002FB007F30B9100C1200467F583004077F78808E
:10030B0003B908031200463002057F2D0200467F19
:10031B00202008F87F2B2006F322920280CF286E34
:10032B00756C6C2900D2011200033001F8C2017800
:10033B000930D50108F60200B22D5043495812007E
:10034B00032403B405004001E490034493120037E7
:0D035B00743A120037D203750904020197AD
:10051800EF4E6012EF60010EEDBB010B89828A83FA
:10052800F0A3DFFCDEFA2289F05007F709DFFCA907
:0C053800F022BBFEFCF309DFFCA9F0225E
:10090600020DC5E493A3F8E493A34003F68001F235
:1009160008DFF48029E493A3F85407240CC8C333F2
:10092600C4540F4420C8834004F456800146F6DFC1
:10093600E4800B01020408102040809012E7E47E58
:10094600019360BCA3FF543F30E509541FFEE493B6
:10095600A360010ECF54C025E060A840B8E493A37D
:10096600FAE493A3F8E493A3C8C582C8CAC583CAA8
:10097600F0A3C8C582C8CAC583CADFE9DEE780BE60
:0112F00000FD
:10054400BB010CE58229F582E5833AF583E022506C
:1005540006E92582F8E622BBFE06E92582F8E222B6
:0D056400E58229F582E5833AF583E49322D0
:10057100F8E0FBA3A3E0F925F0F0E5821582700213
:070581001583E0FA38F022B7
:09058800EBF0A3EAF0A3E9F02274
:10059100D083D082F8E4937012740193700DA3A3F9
:1005A10093F8740193F5828883E47374029368600D
:0605B100EFA3A3A380DF0D
:100EF400EFB40A07740D120EFF740A309811A89902
:100F0400B8130CC2983098FDA899C298B811F6305D
:070F140099FDC299F5992235
:00000001FF
