:10134B004D61634372633332203A202532780A00B1
:100B7500440234C0A8010A440265C0A80101440228
:100B85005FFFFFFF0046026B0203040506074402F0
:100B950026FFFFFFFF420263138842026913884460
:100BA500025BEA05060746000401005E0506074AE2
:100BB500022A526563766461746121004400000075
:030BC50000000A23
:0713A6007FFA1213AD7FFA7C
:0713AD00AE071FEE70FA22EB
:071223007FC812122A7FC8E8
:10122A00AD07AF051DEF60081213A61213A680F2D0
:01123A002291
:09141100D29475D55C43AA0822AF
:0D13C2008F86E5AA30E7FB53AA7FAF862295
:03135B00E4FCFBB4
:0C135E00D294C2941213C27F020213AD9D
:100F9E00900298E0FBA3E475F001120489A9F0FA1F
:100FAE0012045EFF120FC9900298E0FBA3E475F0E5
:0B0FBE0001120489A9F0FA12045EFF82
:030FC9000213C24E
:0813B40012135EAF05120FC910
:0513BC007FFF1213C2C7
:0113C1002209
:081423007F0512135ED2942232
:08142B007F0312135ED294222C
:0A13DB007F0112135E1213BCD294BE
:0113E50022E5
:02140700AD072F
:071409007F061213B4D29418
:0114100022B9
:0F136A00AD077F2012135EAF05120FC9D2942278
:0A13E6007F2612135E1213BCD2948E
:0113F00022DA
:0A13F1007F2912135E1213BCD29480
:0113FB0022CF
:100FCC00E490027AF0FD7F2712135ED2947F0A120E
:100FDC00122A121340AD07EDB4101090027AE0FF04
:0D0FEC0004F0EFD394C840E57FFA22AF0572
:010FF90022D5
:060DE0009002AE1204DBDC
:100DE6007F0212135E9002AEA3A3A3E0FF120FC907
:100DF6009002AEA3A3E0FEEEFF120FC99002AEE092
:100E0600FCA3E0FDA3E0FEA3E0FF78101204B512F8
:0A0E16000FC91213BCA3EFF0D29431
:010E200022AF
:05133B007F0512122ADB
:0A1340007F2C12135E1213BCD2942E
:01134A002280
:0B11560090027AEBF0A3EAF0A3E9F0AE
:101161007F2212135EE4FE90027A120FB80EEEB4E3
:0411710004F5D2941B
:011175002257
:0B11760090027AEBF0A3EAF0A3E9F08E
:101181007F2312135EE4FE90027A120FB80EEEB4C2
:0411910004F5D294FB
:011195002237
:0B11960090027AEBF0A3EAF0A3E9F06E
:1011A1007F2412135EE4FE90027A120FB80EEEB4A1
:0411B10004F5D294DB
:0111B5002217
:0B11110090027AEBF0A3EAF0A3E9F0F3
:10111C007F2112135EE4FE90027A120FB80EEEB429
:09112C0006F5D2947F6402122A38
:0B0F0B009002BFEBF0A3EAF0A3E9F0B6
:100F16007F4012135EE4FE1213BC9002BFE0FBA3F7
:100F2600E475F001120489A9F0FAEF1204770EEEC7
:050F3600B406E4D294B2
:010F3B002293
:1008D800AD077F2512135EAF05120FC990027BA3E7
:1008E800A3A3E0FF120FC990027BA3A3E0FEEEFFD3
:1008F800120FC990027BE0FCA3E0FDA3E0FEA3E099
:10090800FF78101204B5120FC990027BE0FCA3E037
:10091800FDA3E0FEA3E0FF78181204B5120FC9A3E7
:10092800A3A3A3E0FF120FC990027FA3A3E0FEEEEA
:10093800FF120FC990027FE0FCA3E0FDA3E0FEA335
:10094800E0FF78101204B5120FC990027FE0FCA3F3
:10095800E0FDA3E0FEA3E0FF78181204B5120FC96A
:03096800D2942204
:0B0F3C00900286EBF0A3EAF0A3E9F0BE
:100F47007F2812135EE4FE1213BC900286E0FBA317
:100F5700E475F001120489A9F0FAEF1204770EEE96
:050F6700B408E4D2947F
:010F6C002262
:0D0E9E009002C2EBF0A3EAF0A3E9F0AD076B
:100EAB007F2D12135EAF05120FC9E4FE1213BC9017
:100EBB0002C2E0FBA3E475F001120489A9F0FAEF7A
:0A0ECB001204770EEEB406E4D29490
:010ED50022FA
:1011B600900298EBF0A3EAF0A3E9F0AD077F3112B5
:1011C600135EAF05120FC9120F9E120F9ED2942204
:1012A900AC077F3412135EAF04120FC9AF05120FDA
:0412B900C9D29422E0
:1011F100AB077F3212135EAF03120FC9AF05120F97
:09120100C9ECFF120FC9D29422BE
:10120A00AB077F3312135EAF03120FC9AF05120F7C
:09121A00C9ECFF120FC9D29422A5
:1012BD00AC077F3E12135EAF04120FC9AF05120FBC
:0412CD00C9D29422CC
:0F137900AD077F3F12135EAF05120FC9D294224A
:0D0D9A00900299EBF0A3EAF0A3E9F0AD0799
:100DA7007F3912135EAF05120FC9A3A3E0FF120F1D
:100DB700C990029CE0FF120FC9E4FDFCD390029D8D
:100DC700E09D90029CE09C400D900299120FB80D97
:080DD700BD00010C80E6D2947E
:010DDF0022F1
:0211D600AD0763
:1011D8007F3B1213B4AD077C001213BCEFFEE42D65
:0811E800FDEC3ED294FEAF05C0
:0111F00022DC
:0F138800AD077F2E12135EAF05120FC9D294224C
:0B0ACA0090028BEFF0A3ECF0A3EDF026
:100AD5004C60487F3C12135E90028BE0FF120FC9F9
:100AE500A3A3E0FF120FC990028CE0FF120FC97F8C
:100AF500011213ADE4FDFCD390028DE09D90028CB4
:100B0500E09C40151213BCEF120477740129F9E437
:0B0B15003AFA0DBD00010C80DED29406
:010B200022B2
:0F139700AD077F2A12135EAF05120FC9D2942241
:10125200AD07AC067F2A12135EAF05120FC9ECFF71
:06126200120FC9D2942214
:100E21009002C5EBF0A3EAF0A3E9F0AD077F2F1222
:100E310013B49002C5E0FBA3E475F001120489A983
:100E4100F0FAEF1204771213BC9002C5E0FBA3E4A1
:100E510075F001120489A9F0FAEF120477D29422F5
:0210C500AD0775
:1010C7007F3512135BAF05120FC9D29412133BABD6
:1010D70007EBB4100CAF040CEFD394C840EE7FFAC3
:0310E70022AF0332
:0110EA0022E3
:0210EB00AD074F
:1010ED007F3D12135BAF05120FC9D29412133BABA8
:1010FD0007EBB4100CAF040CEFD394C840EE7FFA9D
:03110D0022AF030B
:0111100022BC
:020FFA00AD0741
:100FFC00E4FCFB7F3712135EAF05120FC9D29412BB
:10100C00133BAB07EBB4100CAF040CEFD394C840FC
:06101C00EE7FFA22AF0393
:0110220022AB
:02102300AD0717
:10102500E4FCFB7F3612135EAF05120FC9D2941292
:10103500133BAB07EBB4100CAF040CEFD394C840D3
:06104500EE7FFA22AF036A
:01104B002282
:02104C00AD07EE
:10104E00E4FCFB7F3812135EAF05120FC9D2941267
:10105E00133BAB07EBB4100CAF040CEFD394C840AA
:06106E00EE7FFA22AF0341
:011074002259
:02123B00AD07FD
:10123D007F3012135EAF05120FC97F021213AD126C
:04124D0013BCD29468
:01125100227A
:0B05B70090027AEBF0A3EAF0A3E9F059
:1005C2009002851204E704C11DB79002891204E764
:1005D200FFFFFFFF90027D1204E700000000E47FAE
:1005E20006FEFDFC90027DE0F8A3E0F9A3E0FAA389
:1005F200E0FBC312049F400302070A90027AE0FB69
:10060200A3E475F001120489A9F0FA12045E9002C3
:100612008DF09002811204E700000000E47F08FEE2
:10062200FDFC900281E0F8A3E0F9A3E0FAA3E0FB6D
:10063200C312049F40030206E2900289E0FCA3E099
:10064200FDA3E0FEA3E0FF781F1204B5A905AA06E8
:10065200AB07A3E0FFEB6FFFEF5401FFEF601890D1
:100662000285E0FCA3E0FDA3E0FEA3E0FFC004C01E
:1006720005C006C007800DE4FBFAF9F8C000C0010E
:10068200C002C003900289E0FCA3E0FDA3E0FEA348
:10069200E0FF78011204C8D003D002D001D000EFED
:1006A2006BFFEE6AFEED69FDEC68FC9002891204B4
:1006B200DB90028DE0C313F0900281E0FCA3E0FD29
:1006C200A3E0FEA3E0FFE4FAF9F8EF2401FFEA3E1B
:1006D200FEE93DFDE83CFC9002811204DB02061EAD
:1006E20090027DE0FCA3E0FDA3E0FEA3E0FFE4FABC
:1006F200F9F8EF2401FFEA3EFEE93DFDE83CFC90FB
:10070200027D1204DB0205E0900289E0FCA3E0FD19
:10071200A3E0FEA3E0FF781A1204B5900289120446
:09072200DB900289A3A3A3E0FF10
:01072B0022AB
:02107500AD07C5
:10107700E4FC7F4112135EAF05120FC9D2947F14AF
:1010870012122A121340EFB4100CAE040CEED394D4
:06109700C840EB7FFA22C5
:01109D002230
:0A13FC007F4212135E1213BCD2945C
:0114060022C3
:0B0F6D009002C8EBF0A3EAF0A3E9F04B
:100F78007F4312135EE4FE1213BC9002C8E0FBA389
:100F8800E475F001120489A9F0FAEF1204770EEE65
:050F9800B414E4D29442
:010F9D002231
:1012F700AC077FED12135EAF04120FC9AF05020FE3
:01130700C91C
:02129400AD07A4
:101296007FEC12135EAF05120FC97F0112122A12DC
:0212A60013BC77
:0112A8002223
:1012D1007FE912135E7F1412122A121340EF641079
:0212E10060F3B8
:0112E30022E8
:0F0BC9009002A4EBF0A3EAF0A3E9F0AD07AC06AD
:100BD8007FEA12135EAF05120FC9ECFF120FC9A30B
:100BE800E0801D9002A7E0FF14F0EF60199002A4C6
:100BF800E0FBA3E475F001120489A9F0FA12045E7F
:100C0800FF120FC980DD7F1412122A121340EF64FD
:030C18001060F376
:010C1B0022B6
:100D06009002AAEBF0A3EAF0A3E9F0AD07AC067FE8
:100D1600EB12135EAF05120FC9ECFF120FC9A3E069
:100D2600FF120FC97F0112122A9002ADE0FF14F0E4
:100D3600EF60191213BC9002AAE0FBA3E475F00160
:0D0D4600120489A9F0FAEF12047780DD2273
:1012E400AD07AC067F5012135EAF05120FC9ECFFB9
:0312F400020FC91D
:10126800AC077F5212135EAF04120FC9AF05120FFD
:06127800C9AF03020FC91B
:10127E00AC077F5312135EAF04120FC9AF05120FE6
:06128E00C9AF03020FC905
:100B210090028BEBF0A3EAF0A3E9F0A31204DB90AF
:100B31000297E0FF900292E0FBA3E0FAA3E0F91232
:100B410011B6900297E0FF900295E0FCA3E0FD1240
:100B510011F190028BE0FBA3E0FAA3E0F9A3A3A3B8
:100B6100E0FFA3E090029CCFF0A3EFF0900297E0AA
:040B7100FF020D9AD8
:100C1C009002B31204DB7F5512135E9002B3A3A3B0
:100C2C00A3E0FF120FC99002B3A3A3E0FEEEFF12E4
:100C3C000FC99002B3E0FCA3E0FDA3E0FEA3E0FF2C
:100C4C0078101204B5120FC99002B3E0FCA3E0FDBA
:0E0C5C00A3E0FEA3E0FF78181204B5020FC952
:101135007F1912135E7F021213AD1213BCAD077C2B
:10114500001213BCEFFEE42DFDEC3ED294FEAF057C
:011155002277
:10130800AC077F5912135EAF04120FC9AF05020F65
:01131800C90B
:0C13CF00AD077F5812135EAF05020FC976
:100C6A009002B71204DB7F5612135E9002B7A3A359
:100C7A00A3E0FF120FC99002B7A3A3E0FEEEFF1292
:100C8A000FC99002B7E0FCA3E0FDA3E0FEA3E0FFDA
:100C9A0078101204B5120FC99002B7E0FCA3E0FD68
:0E0CAA00A3E0FEA3E0FF78181204B5020FC904
:100CB8009002BB1204DB7F5712135E9002BBA3A302
:100CC800A3E0FF120FC99002BBA3A3E0FEEEFF1240
:100CD8000FC99002BBE0FCA3E0FDA3E0FEA3E0FF88
:100CE80078101204B5120FC99002BBE0FCA3E0FD16
:0E0CF800A3E0FEA3E0FF78181204B5020FC9B6
:10131900AC077F5112135EAF04120FC9AF05020F5C
:01132900C9FA
:09141A00EF600512122380FB2291
:100A6F007E007F237D007B017A027938120518788A
:100A7F00387C027D017B017A0279347E007F04127B
:100A8F000438783C7C027D017B017A0279657E0017
:100A9F007F0412043878407C027D017B017A027951
:100AAF005F7E007F0412043878447C027D017B0155
:0B0ABF007A02796B7E007F060204388B
:100D53007E007F1C7D007B017A02790A12051878D8
:100D63000A7C027D017B017A0279267E007F0412D0
:100D73000438900263E0FFA3E090021BCFF0A3EFDF
:100D8300F0900269E0FFA3E090021DCFF0A3EFF023
:070D93009002147402F0222B
:100ED6007B017A02790AE4FF1211B6900214E0FD52
:100EE600E4FF1212A990021BE0FCA3E0FDE4FF124E
:100EF60011F1A3E0FCA3E0FDE4FF12120AE4FF12E5
:050F060010C502141AE1
:05083300900286EFF0C9
:1008380012123BEF20E2030208D7900286E0FF1273
:1008480011D6AD07AC06ED4C70030208D7D3ED9472
:1008580000EC940240047C027D00900286E0FF7B5D
:10086800017A00790A120ACA90000BE0FE90000A89
:10087800E07C002400FFEC3E900287F0A3EFF090AC
:10088800000DE0FE90000CE02400FFEC3E90028991
:10089800F0A3EFF0900000E0FCA3E0FDA3E0FEA3CE
:1008A800E0FF900292EBF0A37402F0A3745BF09067
:1008B8000263E0FBA3E0900295CBF0A3EBF090027B
:0F08C80086E0900297F07B017A02792A120B21C9
:0108D70022FE
:1009F70012113590027AEEF0A3EFF030E0097B0197
:100A07007A02797C120F3C90027BE030E405E4FF28
:100A170012083390027BE030E5057F01120833901E
:100A2700027BE030E6057F0212083390027BE0305C
:100A3700E7057F0312083390027AE030E0057F0470
:100A470012083390027AE030E1057F0512083390EF
:100A5700027AE030E2057F0612083390027AE0302E
:070A6700E3057F07120833CD
:010A6E002265
:100E61007F65121407EF649A60037FFA227B017A8F
:100E71000279381211567B017A02793C1211767B84
:100E8100017A0279401211967B017A02794412119A
:0C0E9100111212237FC812122A120FCC7B
:010E9D002232
:10132A00759850758780758921758DF3D28ED299FB
:01133A002290
:10072C009002721204E7000000009002761204E7B7
:10073C00000000007F6412122A12132A12141112E4
:10074C000A6F120E6112141A7B017A0079041205D9
:10075C00B7900271EFF07BFF7A13794B90027DE436
:10076C00F0A3EFF012006E900271E0D3941F403AA8
:10077C00E024E1F0900276E0F8A3E0F9A3E0FAA31C
:10078C00E0FBC000C001E47F01FEFDFC900271E0C3
:10079C00F9F81204C8D001D000EB4FFFEA4EFEE985
:1007AC004DFDE84CFC9002768032900272E0F8A38A
:1007BC00E0F9A3E0FAA3E0FBC000C001E47F01FE76
:1007CC00FDFC900271E0F9F81204C8D001D000EBE6
:1007DC004FFFEA4EFEE94DFDE84CFCA31204DB9002
:1007EC000272E0FCA3E0FDA3E0FEA3E0FF90027B1D
:1007FC001204DB900276E0FCA3E0FDA3E0FEA3E094
:10080C00FF90027F1204DB7F1D1208D81213E6BF83
:10081C0001077FC812122A80F3120D53120ED62034
:07082C00B3FD1209F780F88B
:0300000002096B87
:0C096B00787FE4F6D8FD7581210209B206
:10036800E709F608DFFA8046E709F208DFFA803E77
:1003780088828C83E709F0A3DFFA8032E309F60864
:10038800DFFA8078E309F208DFFA807088828C83CC
:10039800E309F0A3DFFA806489828A83E0A3F60880
:1003A800DFFA805889828A83E0A3F208DFFA804C5A
:1003B80080D280FA80C680D4806980F28033801031
:1003C80080A680EA809A80A880DA80E280CA80339A
:1003D80089828A83ECFAE493A3C8C582C8CCC58312
:1003E800CCF0A3C8C582C8CCC583CCDFE9DEE780E2
:1003F8000D89828A83E493A3F608DFF9ECFAA9F061
:10040800EDFB2289828A83ECFAE0A3C8C582C8CCB6
:10041800C583CCF0A3C8C582C8CCC583CCDFEADECF
:10042800E880DB89828A83E493A3F208DFF980CC31
:1004380088F0EF60010E4E60C388F0ED2402B4042A
:100448000050B9F582EB2402B4040050AF232345D1
:0604580082239003B8733B
:10045E00BB010689828A83E0225002E722BBFE029C
:09046E00E32289828A83E49322CF
:10047700BB010689828A83F0225002F722BBFE0164
:02048700F3225E
:10048900A3F8E0C5F025F0F0E58215827002158326
:06049900E0C838F0E82283
:10049F00EB9FF5F0EA9E42F0E99D42F0EC6480C8D4
:0604AF0064809845F02274
:1004B500E8600FECC313FCED13FDEE13FEEF13FF25
:0304C500D8F12249
:1004C800E8600FEFC333FFEE33FEED33FDEC33FC92
:0304D800D8F12236
:0C04DB00ECF0A3EDF0A3EEF0A3EFF02294
:1004E700A8828583F0D083D0821204FE1204FE1204
:1004F70004FE1204FEE473E493A3C583C5F0C58329
:10050700C8C582C8F0A3C583C5F0C583C8C582C85E
:0105170022C1
:10000300E508247DF582E43402F583E005082290B7
:10001300027A30070390027DE475F0011205710244
:10002300045E2000E97F2ED2008018EF540F249045
:10003300D43440D4FF30040BEF24BFB41A00500370
:100043002461FFE50960021509050CE50C70020542
:100053000B30070E90027AE475F001120571EF027E
:10006300047702109E7403D2078003E4C207F508E5
:1000730090027A120588E4F509F50BF50CE50960A1
:10008300077F2012004680F5750AFFC201C200C235
:1000930002C203C205C206C208120012FF700D306D
:1000A30007057F00120057AF0CAE0B22B4255FC2C9
:1000B300D5C204120012FF24D0B40A00501A75F0FE
:1000C3000A780930D50508B6FF0106C6A426F6202E
:1000D300D5047002D20380D924CFB41A00EF5004A0
:1000E300C2E5D204020258D20180C6D20080C0D237
:1000F3000280BCD2D580BAD20580B47F20120046DC
:100103002002077401B5090040F1120003FF120039
:1001130046020080D208D2068095120003FB12002B
:1001230003FA120003F94A4B700679297A037BFF1D
:1001330020022EE509602A7E008E82758300120557
:100143004460060EEE650A70F0C2D5EBC0E0EAC06B
:10015300E0E9C0E0EE12029FD0E0F9D0E0FAD0E08F
:10016300FB12045EFF60AAEBC0E0EAC0E0E9C0E076
:10017300120046D0E02401F9D0E03400FAD0E0FBCD
:10018300E50A0460DCD50AD980877BFF7A02799B74
:10019300D202809C791080027908C206C2088008C6
:1001A300D2D5790A8004790AC2D5E50A047002F52A
:1001B3000AE4FAFDFEFF120003FC7B082001131280
:1001C3000003FD7B1030000A120003FE120003FF40
:1001D3007B20EC3382D592D55013C3E43000069FC5
:1001E300FFE49EFEE42001039DFDE49CFCE4CBF8C8
:1001F300C201EC700CCFCECDCCE824F8F870F380BC
:1002030017C3EF33FFEE33FEED33FDEC33FCEB337B
:10021300FB994002FB0FD8E9EB300105F8D0E0C4AD
:1002230048B201C0E00AEC4D4E4F78207B0070C20B
:10023300EAB50A0040BCC0E01202A1D0F0D0E02031
:100243000104C4C0E0C4B201C0F012002FD0F0D545
:10025300F0EB020080120591011D5301975800EE47
:100263004C00EA42019B4F01A34401A3490103430C
:0802730001A955018D46018D22
:10027B0045018D4703495000F22D00F62E01192B35
:10028B0000FA2301172003322A00B24800000111A3
:10029B003F3F3F00790AA2D5200314300509B9105E
:1002AB00020404B9080104A2D5200602500104205F
:1002BB0002689202B509005034C0E07F2030031968
:1002CB007F30A20272067205500F1202F8C202C2F0
:1002DB0006C205C2087F30800F300503E9C0E0126B
:1002EB000046300503D0E0F9D0E0B509CC30051756
:1002FB007F30B9100C1200467F583004077F78808E
:10030B0003B908031200463002057F2D0200467F19
:10031B00202008F87F2B2006F322920280CF286E34
:10032B00756C6C2900D2011200033001F8C2017800
:10033B000930D50108F60200B22D5043495812007E
:10034B00032403B405004001E490034493120037E7
:0D035B00743A120037D203750904020197AD
:10051800EF4E6012EF60010EEDBB010B89828A83FA
:10052800F0A3DFFCDEFA2289F05007F709DFFCA907
:0C053800F022BBFEFCF309DFFCA9F0225E
:1009770002072CE493A3F8E493A34003F68001F263
:1009870008DFF48029E493A3F85407240CC8C33381
:10099700C4540F4420C8834004F456800146F6DF50
:1009A700E4800B0102040810204080900B75E47E60
:1009B700019360BCA3FF543F30E509541FFEE49345
:1009C700A360010ECF54C025E060A840B8E493A30C
:1009D700FAE493A3F8E493A3C8C582C8CAC583CA37
:1009E700F0A3C8C582C8CAC583CADFE9DEE780BEEF
:010BC800002C
:10054400BB010CE58229F582E5833AF583E022506C
:1005540006E92582F8E622BBFE06E92582F8E222B6
:0D056400E58229F582E5833AF583E49322D0
:10057100F8E0FBA3A3E0F925F0F0E5821582700213
:070581001583E0FA38F022B7
:09058800EBF0A3EAF0A3E9F02274
:10059100D083D082F8E4937012740193700DA3A3F9
:1005A10093F8740193F5828883E47374029368600D
:0605B100EFA3A3A380DF0D
:10109E00EFB40A07740D1210A9740A309811A899AA
:1010AE00B8130CC2983098FDA899C298B811F630B2
:0710BE0099FDC299F599228A
:00000001FF
