:100BCA0044021CC0A8010A44024CC0A80101440204
:100BDA0047FFFFFF00440243C0A8016441024BE201
:070E34007FFA120E3B7FFA6A
:070E3B00AE071FEE70FA2262
:100D7400AD07AF051DEF6008120E34120E3480F279
:010D8400224C
:090E9F00D29475D55C43AA082227
:0D0E50008F86E5AA30E7FB53AA7FAF86220C
:030DE900E4FCFB2C
:0C0DEC00D294C294120E507F02020E3B03
:1009BE00900250E0FBA3E475F001120124A9F0FAB5
:1009CE001200F9FF1209E9900250E0FBA3E475F062
:0B09DE0001120124A9F0FA1200F9FF39
:0309E900020E50AB
:080E4200120DECAF051209E9E5
:050E4A007FFF120E50B5
:010E4F002280
:080EA8007F05120DECD294222B
:080EB0007F03120DECD2942225
:0A0E69007F01120DEC120E4AD29424
:010E7300225C
:020E9500AD07A7
:070E97007F06120E42D29407
:010E9E002231
:0F0DF800AD077F20120DECAF051209E9D294224E
:0A0E74007F26120DEC120E4AD294F4
:010E7E002251
:0A0E7F007F29120DEC120E4AD294E6
:010E89002246
:1009EC00E4900250F0FD7F27120DECD2947F0A1296
:1009FC000D74120DCEAD07EDB41010900250E0FF47
:0D0A0C0004F0EFD394C840E57FFA22AF0557
:010A190022BA
:0608430090029B120176F9
:100849007F02120DEC90029BA3A3A3E0FF1209E91A
:1008590090029BA3A3E0FEEEFF1209E990029BE040
:10086900FCA3E0FDA3E0FEA3E0FF78101201501203
:0A08790009E9120E4AA3EFF0D29431
:010883002252
:050DC9007F05120D740E
:0A0DCE007F2C120DEC120E4AD29495
:010DD80022F8
:0B0BEB00900250EBF0A3EAF0A3E9F049
:100BF6007F22120DECE4FE9002501209D80EEEB4DC
:040C060004F5D2948B
:010C0A0022C7
:0B0C0B00900250EBF0A3EAF0A3E9F028
:100C16007F23120DECE4FE9002501209D80EEEB4BA
:040C260004F5D2946B
:010C2A0022A7
:0B0C2B00900250EBF0A3EAF0A3E9F008
:100C36007F24120DECE4FE9002501209D80EEEB499
:040C460004F5D2944B
:010C4A002287
:0B0B85009002ACEBF0A3EAF0A3E9F053
:100B90007F21120DECE4FE9002AC1209D80EEEB4E7
:090BA00006F5D2947F64020D7485
:0B08FC009002AFEBF0A3EAF0A3E9F0DC
:100907007F40120DECE4FE120E4A9002AFE0FBA30B
:10091700E475F001120124A9F0FAEF1201120EEEAC
:05092700B406E4D294C7
:01092C0022A8
:1003E900AD077F25120DECAF051209E9900287A32D
:1003F900A3A3E0FF1209E9900287A3A3E0FEEEFFA1
:100409001209E9900287E0FCA3E0FDA3E0FEA3E066
:10041900FF78101201501209E9900287E0FCA3E06D
:10042900FDA3E0FEA3E0FF78181201501209E9A329
:10043900A3A3A3E0FF1209E990028BA3A3E0FEEEB8
:10044900FF1209E990028BE0FCA3E0FDA3E0FEA303
:10045900E0FF78101201501209E990028BE0FCA329
:10046900E0FDA3E0FEA3E0FF78181201501209E9AC
:03047900D29422F8
:0B092D0090025CEBF0A3EAF0A3E9F0FD
:100938007F28120DECE4FE120E4A90025CE0FBA345
:10094800E475F001120124A9F0FAEF1201120EEE7B
:05095800B408E4D29494
:01095D002277
:0D08C4009002B2EBF0A3EAF0A3E9F0AD075B
:1008D1007F2D120DECAF051209E9E4FE120E4A90CC
:1008E10002B2E0FBA3E475F001120124A9F0FAEFD2
:0A08F1001201120EEEB406E4D294D8
:0108FB0022DA
:100C4B00900250EBF0A3EAF0A3E9F0AD077F31126D
:100C5B000DECAF051209E91209BE1209BED294229E
:100D2600AC077F34120DECAF041209E9AF051209C6
:040D3600E9D2942248
:100C8600AB077F32120DECAF031209E9AF0512096B
:090C9600E9ECFF1209E9D29422F5
:100C9F00AB077F33120DECAF031209E9AF05120951
:090CAF00E9ECFF1209E9D29422DC
:100D3A00AC077F3E120DECAF041209E9AF051209A8
:040D4A00E9D2942234
:0F0E0700AD077F3F120DECAF051209E9D294221F
:0D07FD00900260EBF0A3EAF0A3E9F0AD0775
:10080A007F39120DECAF051209E9A3A3E0FF120923
:10081A00E9900263E0FF1209E9E4FDFCD390026467
:10082A00E09D900263E09C400D9002601209D80D91
:08083A00BD00010C80E6D29420
:010842002293
:020C6B00AD07D3
:100C6D007F3B120E42AD077C00120E4AEFFEE42DC3
:080C7D00FDEC3ED294FEAF0530
:010C8500224C
:0F0E1600AD077F2E120DECAF051209E9D2942221
:0B05800090025FEFF0A3ECF0A3EDF0A1
:10058B004C60487F3C120DEC90025FE0FF1209E9D2
:10059B00A3A3E0FF1209E9900260E0FF1209E97FD3
:1005AB0001120E3BE4FDFCD3900261E09D900260D2
:1005BB00E09C4015120E4AEF120112740129F9E466
:0B05CB003AFA0DBD00010C80DED29456
:0105D6002202
:0F0E2500AD077F2A120DECAF051209E9D2942216
:100CCF00AD07AC067F2A120DECAF051209E9ECFF58
:060CDF001209E9D2942283
:100884009002B5EBF0A3EAF0A3E9F0AD077F2F12D5
:100894000E429002B5E0FBA3E475F001120124A915
:1008A400F0FAEF120112120E4A9002B5E0FBA3E433
:1008B40075F001120124A9F0FAEF120112D2942268
:020B3900AD0706
:100B3B007F35120DE9AF051209E9D294120DC9AB3D
:100B4B0007EBB4100CAF040CEFD394C840EE7FFA54
:030B5B0022AF03C3
:010B5E002274
:020B5F00AD07E0
:100B61007F3D120DE9AF051209E9D294120DC9AB0F
:100B710007EBB4100CAF040CEFD394C840EE7FFA2E
:030B810022AF039D
:010B8400224E
:020A4600AD07FA
:100A4800E4FCFB7F37120DECAF051209E9D29412D2
:100A58000DC9AB07EBB4100CAF040CEFD394C8402E
:060A6800EE7FFA22AF034D
:010A6E002265
:020A6F00AD07D1
:100A7100E4FCFB7F36120DECAF051209E9D29412AA
:100A81000DC9AB07EBB4100CAF040CEFD394C84005
:060A9100EE7FFA22AF0324
:010A9700223C
:020A9800AD07A8
:100A9A00E4FCFB7F38120DECAF051209E9D294127F
:100AAA000DC9AB07EBB4100CAF040CEFD394C840DC
:060ABA00EE7FFA22AF03FB
:010AC0002213
:020CB800AD0786
:100CBA007F30120DECAF051209E97F02120E3B12CA
:040CCA000E4AD29468
:010CCE002203
:0B01DF00900265EBF0A3EAF0A3E9F04A
:1001EA0090027012018204C11DB79002741201823A
:1001FA00FFFFFFFF90026812018200000000E47F07
:10020A0006FEFDFC900268E0F8A3E0F9A3E0FAA379
:10021A00E0FBC312013A4003020332900265E0FB9D
:10022A00A3E475F001120124A9F0FA1200F9900270
:10023A0078F090026C12018200000000E47F08FE50
:10024A00FDFC90026CE0F8A3E0F9A3E0FAA3E0FB5E
:10025A00C312013A400302030A900274E0FCA3E0CD
:10026A00FDA3E0FEA3E0FF781F120150A905AA062C
:10027A00AB07A3E0FFEB6FFFEF5401FFEF601890AD
:10028A000270E0FCA3E0FDA3E0FEA3E0FFC004C00F
:10029A0005C006C007800DE4FBFAF9F8C000C001EA
:1002AA00C002C003900274E0FCA3E0FDA3E0FEA339
:1002BA00E0FF7801120163D003D002D001D000EF31
:1002CA006BFFEE6AFEED69FDEC68FC9002741201A8
:1002DA0076900278E0C313F090026CE0FCA3E0FD94
:1002EA00A3E0FEA3E0FFE4FAF9F8EF2401FFEA3EF7
:1002FA00FEE93DFDE83CFC90026C120176020246E2
:10030A00900268E0FCA3E0FDA3E0FEA3E0FFE4FAAC
:10031A00F9F8EF2401FFEA3EFEE93DFDE83CFC90D6
:10032A000268120176020208900274E0FCA3E0FD62
:10033A00A3E0FEA3E0FF781A1201509002741201A2
:09034A0076900274A3A3A3E0FF66
:010353002287
:020AC100AD077F
:100AC300E4FC7F41120DECAF051209E9D2947F14C7
:100AD300120D74120DCEEFB4100CAE040CEED394C1
:060AE300C840EB7FFA227F
:010AE90022EA
:0A0E8A007F42120DEC120E4AD294C2
:010E9400223B
:0B095E009002B8EBF0A3EAF0A3E9F070
:100969007F43120DECE4FE120E4A9002B8E0FBA39D
:10097900E475F001120124A9F0FAEF1201120EEE4A
:05098900B414E4D29457
:01098E002246
:100D8500AC077FED120DECAF041209E9AF050209BE
:010D9500E974
:020D1100AD072C
:100D13007FEC120DECAF051209E97F01120D74127D
:020D23000E4A76
:010D250022AB
:100D4E007FE9120DEC7F14120D74120DCEEF6410AC
:020D5E0060F340
:010D60002270
:0F062B00900291EBF0A3EAF0A3E9F0AD07AC0663
:10063A007FEA120DECAF051209E9ECFF1209E9A3F2
:10064A00E0801D900294E0FF14F0EF60199002918F
:10065A00E0FBA3E475F001120124A9F0FA1200F9F3
:10066A00FF1209E980DD7F14120D74120DCEEF64BA
:03067A001060F31A
:01067D00225A
:10076800900297EBF0A3EAF0A3E9F0AD07AC067F9F
:10077800EB120DECAF051209E9ECFF1209E9A3E051
:10078800FF1209E97F01120D7490029AE0FF14F03C
:10079800EF6019120E4A900297E0FBA3E475F0018E
:0D07A800120124A9F0FAEF12011280DD22E7
:100D6100AD07AC067F50120DECAF051209E9ECFF9F
:030D71000209E98B
:100CE500AC077F52120DECAF041209E9AF051209EA
:060CF500E9AF030209E96A
:100CFB00AC077F53120DECAF041209E9AF051209D3
:060D0B00E9AF030209E953
:1005D700900279EBF0A3EAF0A3E9F0A31201769079
:1005E7000285E0FF900280E0FBA3E0FAA3E0F912A6
:1005F7000C4B900285E0FF900283E0FCA3E0FD1224
:100607000C86900279E0FBA3E0FAA3E0F9A3A3A389
:10061700E0FFA3E0900263CFF0A3EFF0900285E044
:04062700FF0207FDCA
:10067E009002A01201767F55120DEC9002A0A3A35A
:10068E00A3E0FF1209E99002A0A3A3E0FEEEFF1281
:10069E0009E99002A0E0FCA3E0FDA3E0FEA3E0FFC9
:1006AE0078101201501209E99002A0E0FCA3E0FDBF
:0E06BE00A3E0FEA3E0FF78181201500209E944
:100BA9007F19120DEC7F02120E3B120E4AAD077C23
:100BB90000120E4AEFFEE42DFDEC3ED294FEAF0585
:010BC9002209
:100D9600AC077F59120DECAF041209E9AF05020941
:010DA600E963
:0C0E5D00AD077F58120DECAF050209E94B
:1006CC009002A41201767F56120DEC9002A4A3A303
:1006DC00A3E0FF1209E99002A4A3A3E0FEEEFF122F
:1006EC0009E99002A4E0FCA3E0FDA3E0FEA3E0FF77
:1006FC0078101201501209E99002A4E0FCA3E0FD6D
:0E070C00A3E0FEA3E0FF78181201500209E9F5
:10071A009002A81201767F57120DEC9002A8A3A3AB
:10072A00A3E0FF1209E99002A8A3A3E0FEEEFF12DC
:10073A0009E99002A8E0FCA3E0FDA3E0FEA3E0FF24
:10074A0078101201501209E99002A8E0FCA3E0FD1A
:0E075A00A3E0FEA3E0FF78181201500209E9A7
:100DA700AC077F51120DECAF041209E9AF05020938
:010DB700E952
:100DD900EF600C7FC8120D747FC8120D7480F42265
:1007B5007E007F237D007B017A0279201201B378C8
:1007C500207C027D017B017A02791C7E007F041268
:1007D50000D378247C027D017B017A02794C7E006E
:1007E5007F041200D378287C027D017B017A02798F
:0807F500477E007F040200D3DF
:100AEA007E007F1C7D007B017A0279001201B378B7
:100AFA00007C027D017B017A0279437E007F041229
:080B0A0000D3E490020AF0227E
:100B12007B017A027900E4FF120C4B90020AE0FD9D
:100B2200E4FF120D2690024BE0FDE4FF120D3AE4C1
:070B3200FF120B39020DD97F
:0503540090025CEFF0D7
:10035900120CB8EF20E2030203E890025CE0FF12FE
:100369000C6BA3EEF0A3EFF04E6074D390025EE045
:10037900940090025DE0940240067402F0A3E4F058
:1003890090025CE0FFA3E0FCA3E0FD7B017A007929
:1003990000120580E4FFFED390025EE09F90025DAB
:1003A900E09E402074002FF58274003EF583E0F44E
:1003B900FD74002FF58274003EF583EDF00FBF0048
:1003C900010E80D390025CE0FF7B017A007900A3E3
:0F03D900E0FDA3E0900263CDF0A3EDF01207FD6D
:0103E80022F2
:10050800120BA9900250EEF0A3EFF030E0097B0146
:100518007A02795212092D900251E030E405E4FF85
:10052800120354900251E030E5057F011203549004
:100538000251E030E6057F02120354900251E03088
:10054800E7057F03120354900250E030E0057F0472
:10055800120354900250E030E1057F0512035490D5
:100568000250E030E2057F06120354900250E0305A
:07057800E3057F07120354A5
:01057F002259
:100A1A007F65120E95EF649A60037FFA227B017A52
:100A2A00027920120BEB7B017A027924120C0B7BE0
:0B0A3A00017A027928120C2B1209EC43
:010A4500228E
:100DB800759850758780758921758DF3D28ED29973
:010DC8002208
:10098F007F64120D74120DB8120E9F1207B5120A62
:10099F001A120DD9120E74BF01077FC8120D748081
:0F09AF00F3120AEA120B1220B3FD12050880F8AA
:0300000002047C7B
:0C047C00787FE4F6D8FD7581070204C308
:10000300E709F608DFFA8046E709F208DFFA803EDF
:1000130088828C83E709F0A3DFFA8032E309F608CC
:10002300DFFA8078E309F208DFFA807088828C8334
:10003300E309F0A3DFFA806489828A83E0A3F608E8
:10004300DFFA805889828A83E0A3F208DFFA804CC2
:1000530080D280FA80C680D4806980F28033801099
:1000630080A680EA809A80A880DA80E280CA803302
:1000730089828A83ECFAE493A3C8C582C8CCC5837A
:10008300CCF0A3C8C582C8CCC583CCDFE9DEE7804A
:100093000D89828A83E493A3F608DFF9ECFAA9F0C9
:1000A300EDFB2289828A83ECFAE0A3C8C582C8CC1F
:1000B300C583CCF0A3C8C582C8CCC583CCDFEADE38
:1000C300E880DB89828A83E493A3F208DFF980CC9A
:1000D30088F0EF60010E4E60C388F0ED2402B40493
:1000E3000050B9F582EB2402B4040050AF2323453A
:0600F3008223900053730C
:1000F900BB010689828A83E0225002E722BBFE0205
:09010900E32289828A83E4932237
:10011200BB010689828A83F0225002F722BBFE01CC
:02012200F322C6
:10012400A3F8E0C5F025F0F0E5821582700215838E
:06013400E0C838F0E822EB
:10013A00EB9FF5F0EA9E42F0E99D42F0EC6480C83C
:06014A0064809845F022DC
:10015000E8600FECC313FCED13FDEE13FEEF13FF8D
:03016000D8F122B1
:10016300E8600FEFC333FFEE33FEED33FDEC33FCFA
:03017300D8F1229E
:0C017600ECF0A3EDF0A3EEF0A3EFF022FC
:10018200A8828583F0D083D082120199120199123C
:100192000199120199E473E493A3C583C5F0C58361
:1001A200C8C582C8F0A3C583C5F0C583C8C582C8C7
:0101B200222A
:1001B300EF4E6012EF60010EEDBB010B89828A8363
:1001C300F0A3DFFCDEFA2289F05007F709DFFCA970
:0C01D300F022BBFEFCF309DFFCA9F022C7
:1004880002098FE493A3F8E493A34003F68001F2F2
:1004980008DFF48029E493A3F85407240CC8C33375
:1004A800C4540F4420C8834004F456800146F6DF44
:1004B800E4800B0102040810204080900BCAE47EFF
:1004C800019360BCA3FF543F30E509541FFEE49339
:1004D800A360010ECF54C025E060A840B8E493A300
:1004E800FAE493A3F8E493A3C8C582C8CAC583CA2B
:1004F800F0A3C8C582C8CAC583CADFE9DEE780BEE3
:010BEA00000A
:00000001FF
