:100DA40043483339354F70656E536F636B657428F0
:100DB40030290A0069203D20253032580A00434872
:100DC400333935544350436F6E6E6563742830294C
:0D0DD4000A0074696D65206F7574200A00B7
:1010140044021CC0A86F6444024DC0A801014402EC
:1010240047FFFFFF00440243C0A86F4E42024B0734
:06103400D04202511388B6
:071357007FFA12135E7FFA1A
:07135E00AE071FEE70FA223A
:10129700AD07AF051DEF600812135712135780F201
:0112A7002224
:0913C200D29475D55C43AA0822FF
:0D1373008F86E5AA30E7FB53AA7FAF8622E4
:03130C00E4FCFB03
:0C130F00D294C2941213737F0202135E8A
:100EE800900259E0FBA3E475F001120489A9F0FA15
:100EF80012045EFF120F13900259E0FBA3E475F091
:0B0F080001120489A9F0FA12045EFF38
:030F130002137353
:0813650012130FAF05120F1364
:05136D007FFF12137365
:011372002258
:0813CB007F0512130FD29422DA
:0813D3007F0312130FD29422D4
:0A138C007F0112130F12136DD294AB
:011396002234
:0213B800AD077F
:0713BA007F06121365D294B7
:0113C1002209
:0F131B00AD077F2012130FAF05120F13D29422CC
:0A1397007F2612130F12136DD2947B
:0113A1002229
:0A13A2007F2912130F12136DD2946D
:0113AC00221E
:100F1600E4900258F0FD7F2712130FD2947F0A1235
:100F260012971212F1AD07EDB41010900258E0FFBF
:0D0F360004F0EFD394C840E57FFA22AF0528
:010F4300228B
:060D23009002C71204DB80
:100D29007F0212130F9002C7A3A3A3E0FF120F13B0
:100D39009002C7A3A3E0FEEEFF120F139002C7E0D3
:100D4900FCA3E0FDA3E0FEA3E0FF78101204B512B6
:0A0D59000F1312136DA3EFF0D294F4
:010D6300226D
:0512EC007F05121297BE
:0A12F1007F2C12130F12136DD2941C
:0112FB0022D0
:0B10F300900258EBF0A3EAF0A3E9F034
:1010FE007F2212130FE4FE900258120F020EEEB46E
:04110E0004F5D2947E
:0111120022BA
:0B111300900258EBF0A3EAF0A3E9F013
:10111E007F2312130FE4FE900258120F020EEEB44C
:04112E0004F5D2945E
:01113200229A
:0B113300900258EBF0A3EAF0A3E9F0F3
:10113E007F2412130FE4FE900258120F020EEEB42B
:04114E0004F5D2943E
:01115200227A
:0B10AE009002D0EBF0A3EAF0A3E9F001
:1010B9007F2112130FE4FE9002D0120F020EEEB43C
:0910C90006F5D2947F640212972F
:0B0E55009002D3EBF0A3EAF0A3E9F059
:100E60007F4012130FE4FE12136D9002D3E0FBA338
:100E7000E475F001120489A9F0FAEF1204770EEE7E
:050E8000B406E4D29469
:010E8500224A
:1007F800AD077F2512130FAF05120F139002B3A395
:10080800A3A3E0FF120F139002B3A3A3E0FEEEFF31
:10081800120F139002B3E0FCA3E0FDA3E0FEA3E0F7
:10082800FF78101204B5120F139002B3E0FCA3E096
:10083800FDA3E0FEA3E0FF78181204B5120F13A37E
:10084800A3A3A3E0FF120F139002B7A3A3E0FEEE49
:10085800FF120F139002B7E0FCA3E0FDA3E0FEA394
:10086800E0FF78101204B5120F139002B7E0FCA352
:10087800E0FDA3E0FEA3E0FF78181204B5120F1301
:03088800D29422E5
:0B0E8600900264EBF0A3EAF0A3E9F097
:100E91007F2812130FE4FE12136D900264E0FBA38E
:100EA100E475F001120489A9F0FAEF1204770EEE4D
:050EB100B408E4D29436
:010EB6002219
:0D0E1D009002D6EBF0A3EAF0A3E9F0AD07D8
:100E2A007F2D12130FAF05120F13E4FE12136D90EC
:100E3A0002D6E0FBA3E475F001120489A9F0FAEFE7
:0A0E4A001204770EEEB406E4D29411
:010E5400227B
:10115300900259EBF0A3EAF0A3E9F0AD077F311257
:10116300130FAF05120F13120EE8120EE8D29422DA
:10124900AC077F3412130FAF04120F13AF05120F3F
:0412590013D29422F6
:1011A900AB077F3212130FAF03120F13AF05120FE4
:0911B90013ECFF120F13D2942273
:1011C200AB077F3312130FAF03120F13AF05120FCA
:0911D20013ECFF120F13D294225A
:10125D00AC077F3E12130FAF04120F13AF05120F21
:04126D0013D29422E2
:0F132A00AD077F3F12130FAF05120F13D294229E
:0D0CDD0090026AEBF0A3EAF0A3E9F0AD0786
:100CEA007F3912130FAF05120F13A3A3E0FF120FE0
:100CFA001390026DE0FF120F13E4FDFCD390026E15
:100D0A00E09D90026DE09C400D90026A120F020D68
:080D1A00BD00010C80E6D2943B
:010D220022AE
:02117300AD07C6
:101175007F3B121365AD077C0012136DEFFEE42D66
:08118500FDEC3ED294FEAF0523
:01118D00223F
:0F133900AD077F2E12130FAF05120F13D29422A0
:0B0A1400900269EFF0A3ECF0A3EDF0FE
:100A1F004C60487F3C12130F900269E0FF120F13D6
:100A2F00A3A3E0FF120F1390026AE0FF120F137FD0
:100A3F000112135EE4FDFCD390026BE09D90026AFD
:100A4F00E09C401512136DEF120477740129F9E43D
:0B0A5F003AFA0DBD00010C80DED294BD
:010A6A002269
:0F134800AD077F2A12130FAF05120F13D2942295
:1011F200AD07AC067F2A12130FAF05120F13ECFFD7
:06120200120F13D294222A
:100D64009002D9EBF0A3EAF0A3E9F0AD077F2F12CC
:100D740013659002D9E0FBA3E475F001120489A97C
:100D8400F0FAEF12047712136D9002D9E0FBA3E49A
:100D940075F001120489A9F0FAEF120477D29422B3
:02106200AD07D8
:101064007F3512130CAF05120F13D2941212ECAB8E
:1010740007EBB4100CAF040CEFD394C840EE7FFA26
:0310840022AF0395
:011087002246
:02108800AD07B2
:10108A007F3D12130CAF05120F13D2941212ECAB60
:10109A0007EBB4100CAF040CEFD394C840EE7FFA00
:0310AA0022AF036F
:0110AD002220
:020F7000AD07CB
:100F7200E4FCFB7F3712130FAF05120F13D294124A
:100F820012ECAB07EBB4100CAF040CEFD394C840D7
:060F9200EE7FFA22AF031E
:010F98002236
:020F9900AD07A2
:100F9B00E4FCFB7F3612130FAF05120F13D2941222
:100FAB0012ECAB07EBB4100CAF040CEFD394C840AE
:060FBB00EE7FFA22AF03F5
:010FC100220D
:020FC200AD0779
:100FC400E4FCFB7F3812130FAF05120F13D29412F7
:100FD40012ECAB07EBB4100CAF040CEFD394C84085
:060FE400EE7FFA22AF03CC
:010FEA0022E4
:0211DB00AD075E
:1011DD007F3012130FAF05120F137F0212135E1221
:0411ED00136DD29418
:0111F10022DB
:0B05B700900291EBF0A3EAF0A3E9F042
:1005C20090029C1204E704C11DB79002A01204E736
:1005D200FFFFFFFF9002941204E700000000E47F97
:1005E20006FEFDFC900294E0F8A3E0F9A3E0FAA372
:1005F200E0FBC312049F400302070A900291E0FB52
:10060200A3E475F001120489A9F0FA12045E9002C3
:10061200A4F09002981204E700000000E47F08FEB4
:10062200FDFC900298E0F8A3E0F9A3E0FAA3E0FB56
:10063200C312049F40030206E29002A0E0FCA3E082
:10064200FDA3E0FEA3E0FF781F1204B5A905AA06E8
:10065200AB07A3E0FFEB6FFFEF5401FFEF601890D1
:10066200029CE0FCA3E0FDA3E0FEA3E0FFC004C007
:1006720005C006C007800DE4FBFAF9F8C000C0010E
:10068200C002C0039002A0E0FCA3E0FDA3E0FEA331
:10069200E0FF78011204C8D003D002D001D000EFED
:1006A2006BFFEE6AFEED69FDEC68FC9002A012049D
:1006B200DB9002A4E0C313F0900298E0FCA3E0FDFB
:1006C200A3E0FEA3E0FFE4FAF9F8EF2401FFEA3E1B
:1006D200FEE93DFDE83CFC9002981204DB02061E96
:1006E200900294E0FCA3E0FDA3E0FEA3E0FFE4FAA5
:1006F200F9F8EF2401FFEA3EFEE93DFDE83CFC90FB
:1007020002941204DB0205E09002A0E0FCA3E0FDEB
:10071200A3E0FEA3E0FF781A1204B59002A012042F
:09072200DB9002A0A3A3A3E0FFF9
:01072B0022AB
:020FEB00AD0750
:100FED00E4FC7F4112130FAF05120F13D2947F143F
:100FFD001212971212F1EFB4100CAE040CEED39442
:06100D00C840EB7FFA224F
:0110130022BA
:0A13AD007F4212130F12136DD29449
:0113B7002213
:0B0EB7009002DCEBF0A3EAF0A3E9F0EE
:100EC2007F4312130FE4FE12136D9002DCE0FBA3CA
:100ED200E475F001120489A9F0FAEF1204770EEE1C
:050EE200B414E4D294F9
:010EE70022E8
:1012A800AC077FED12130FAF04120F13AF05020F37
:0112B8001322
:02123400AD0704
:101236007FEC12130FAF05120F137F0112129712D4
:02124600136D26
:011248002283
:101271007FE912130F7F141212971212F1EF64100B
:0212810060F318
:011283002248
:0F0ABF009002BDEBF0A3EAF0A3E9F0AD07AC069F
:100ACE007FEA12130FAF05120F13ECFF120F13A3D1
:100ADE00E0801D9002C0E0FF14F0EF60199002BD9F
:100AEE00E0FBA3E475F001120489A9F0FA12045E8A
:100AFE00FF120F1380DD7F141212971212F1EF64A2
:030B0E001060F381
:010B110022C1
:100BFC009002C3EBF0A3EAF0A3E9F0AD07AC067FDB
:100C0C00EB12130FAF05120F13ECFF120F13A3E02F
:100C1C00FF120F137F011212979002C6E0FF14F01F
:100C2C00EF601912136D9002C3E0FBA3E475F001A1
:0D0C3C00120489A9F0FAEF12047780DD227E
:10128400AD07AC067F5012130FAF05120F13ECFF1E
:03129400020F1333
:10120800AC077F5212130FAF04120F13AF05120F62
:0612180013AF03020F13E7
:10121E00AC077F5312130FAF04120F13AF05120F4B
:06122E0013AF03020F13D1
:100A6B009002A5EBF0A3EAF0A3E9F0A31204DB904C
:100A7B0002B1E0FF9002ACE0FBA3E0FAA3E0F912B5
:100A8B0011539002B1E0FF9002AFE0FCA3E0FD1226
:100A9B0011A99002A5E0FBA3E0FAA3E0F9A3A3A39D
:100AAB00E0FFA3E090026DCFF0A3EFF09002B1E076
:040ABB00FF020CDD4D
:100B12009002CC1204DB7F5512130F9002CCA3A3D8
:100B2200A3E0FF120F139002CCA3A3E0FEEEFF128C
:100B32000F139002CCE0FCA3E0FDA3E0FEA3E0FFD4
:100B420078101204B5120F139002CCE0FCA3E0FD62
:0E0B5200A3E0FEA3E0FF78181204B5020F1313
:1010D2007F1912130F7F0212135E12136DAD077C7C
:1010E2000012136DEFFEE42DFDEC3ED294FEAF052F
:0110F20022DB
:1012B900AC077F5912130FAF04120F13AF05020FBA
:0112C9001311
:0C138000AD077F5812130FAF05020F13CA
:100B60009002581204DB7F5612130F900258A3A371
:100B7000A3E0FF120F13900258A3A3E0FEEEFF12B2
:100B80000F13900258E0FCA3E0FDA3E0FEA3E0FFFA
:100B900078101204B5120F13900258E0FCA3E0FD88
:0E0BA000A3E0FEA3E0FF78181204B5020F13C5
:100BAE009002581204DB7F5712130F900258A3A322
:100BBE00A3E0FF120F13900258A3A3E0FEEEFF1264
:100BCE000F13900258E0FCA3E0FDA3E0FEA3E0FFAC
:100BDE0078101204B5120F13900258E0FCA3E0FD3A
:0E0BEE00A3E0FEA3E0FF78181204B5020F1377
:1012CA00AC077F5112130FAF04120F13AF05020FB1
:0112DA001300
:1012FC00EF600C7FC81212977FC812129780F422ED
:100C95007E007F237D007B017A027920120518787A
:100CA500207C027D017B017A02791C7E007F041283
:100CB500043878247C027D017B017A02794D7E001F
:100CC5007F0412043878287C027D017B017A027941
:080CD500477E007F0402043891
:100C49007E007F1C7D007B017A02790012051878ED
:100C5900007C027D017B017A0279437E007F0412C8
:100C6900043890024BE0FFA3E0900211CFF0A3EF0C
:100C7900F0900251E0FFA3E0900213CFF0A3EFF050
:0C0C890090020A7403F0E490020CF022C8
:100917007B017A027900E4FF12115390020AE0FD8D
:10092700E4FF121249900211E0FCA3E0FDE4FF127C
:1009370011A9A3E0FCA3E0FDE4FF1211C27BFF7A3B
:100947000D79A412006EE4FF121062900258EFF0C6
:100957007BFF7A0D79B890026CE4F0A3EFF01200F8
:100967006E900258E0FF1212FC7BFF7A0D79C212DB
:10097700006EE4FF120F70900258EFF07BFF7A0DC4
:1009870079B890026CE4F0A3EFF012006E90025871
:05099700E0FF0212FC6C
:10118E007FC81213807F987E3A7D007C00120B6020
:0B119E007F207E4E7D007C00020BAE27
:05072C00900264EFF0F3
:100731001211DBA3EFF0900265E020E2030207CF84
:10074100900264E0FF121173900267EEF0A3EFF0E4
:100751004E70030207F7D3900268E094009002679D
:10076100E0940240067402F0A3E4F0900264E0FF1A
:10077100900267E0FCA3E0FD7B017A007900120A98
:1007810014E4FFFED3900268E09F900267E09E4070
:100791002074002FF58274003EF583E0F4FD7400AF
:1007A1002FF58274003EF583EDF00FBF00010E803E
:1007B100D3900264E0FF7B017A007900900267E048
:1007C100FDA3E090026DCDF0A3EDF0120CDD9002DF
:1007D10065E030E311900264E0FF7D011212B9E09F
:1007E100FF7D281212CA900265E030E6097BFF7A8C
:0607F1000D79D612006E26
:0107F70022DF
:10099C001210D2900258EEF0A3EFF030E0097B0178
:1009AC007A02795A120E86900259E030E405E4FF7F
:1009BC0012072C900259E030E5057F0112072C90AC
:1009CC000259E030E6057F0212072C900259E03004
:1009DC00E7057F0312072C900258E030E0057F04F6
:1009EC0012072C900258E030E1057F0512072C907D
:1009FC000258E030E2057F0612072C900258E030D6
:070A0C00E3057F0712072C30
:010A130022C0
:100F44007F651213B8EF649A60037FFA227B017AFB
:100F54000279201210F37B017A0279241211137B97
:0B0F6400017A027928121133120F16D7
:010F6F00225F
:1012DB00759850758780758921758DF3D28ED2994B
:0112EB0022E0
:100DE1009002541204E7000000007F64121297126F
:100DF10012DB1213C2120C95120F441212FC1211C3
:100E01008E121397BF01077FC812129780F3120C3D
:0C0E11004912091720B3FD12099C80F85B
:0300000002088B68
:0C088B00787FE4F6D8FD7581210208D2C8
:10036800E709F608DFFA8046E709F208DFFA803E77
:1003780088828C83E709F0A3DFFA8032E309F60864
:10038800DFFA8078E309F208DFFA807088828C83CC
:10039800E309F0A3DFFA806489828A83E0A3F60880
:1003A800DFFA805889828A83E0A3F208DFFA804C5A
:1003B80080D280FA80C680D4806980F28033801031
:1003C80080A680EA809A80A880DA80E280CA80339A
:1003D80089828A83ECFAE493A3C8C582C8CCC58312
:1003E800CCF0A3C8C582C8CCC583CCDFE9DEE780E2
:1003F8000D89828A83E493A3F608DFF9ECFAA9F061
:10040800EDFB2289828A83ECFAE0A3C8C582C8CCB6
:10041800C583CCF0A3C8C582C8CCC583CCDFEADECF
:10042800E880DB89828A83E493A3F208DFF980CC31
:1004380088F0EF60010E4E60C388F0ED2402B4042A
:100448000050B9F582EB2402B4040050AF232345D1
:0604580082239003B8733B
:10045E00BB010689828A83E0225002E722BBFE029C
:09046E00E32289828A83E49322CF
:10047700BB010689828A83F0225002F722BBFE0164
:02048700F3225E
:10048900A3F8E0C5F025F0F0E58215827002158326
:06049900E0C838F0E82283
:10049F00EB9FF5F0EA9E42F0E99D42F0EC6480C8D4
:0604AF0064809845F02274
:1004B500E8600FECC313FCED13FDEE13FEEF13FF25
:0304C500D8F12249
:1004C800E8600FEFC333FFEE33FEED33FDEC33FC92
:0304D800D8F12236
:0C04DB00ECF0A3EDF0A3EEF0A3EFF02294
:1004E700A8828583F0D083D0821204FE1204FE1204
:1004F70004FE1204FEE473E493A3C583C5F0C58329
:10050700C8C582C8F0A3C583C5F0C583C8C582C85E
:0105170022C1
:10000300E508246CF582E43402F583E005082290C8
:10001300026930070390026CE475F0011205710266
:10002300045E2000E97F2ED2008018EF540F249045
:10003300D43440D4FF30040BEF24BFB41A00500370
:100043002461FFE50960021509050CE50C70020542
:100053000B30070E900269E475F001120571EF028F
:10006300047702103B7403D2078003E4C207F50848
:10007300900269120588E4F509F50BF50CE50960B2
:10008300077F2012004680F5750AFFC201C200C235
:1000930002C203C205C206C208120012FF700D306D
:1000A30007057F00120057AF0CAE0B22B4255FC2C9
:1000B300D5C204120012FF24D0B40A00501A75F0FE
:1000C3000A780930D50508B6FF0106C6A426F6202E
:1000D300D5047002D20380D924CFB41A00EF5004A0
:1000E300C2E5D204020258D20180C6D20080C0D237
:1000F3000280BCD2D580BAD20580B47F20120046DC
:100103002002077401B5090040F1120003FF120039
:1001130046020080D208D2068095120003FB12002B
:1001230003FA120003F94A4B700679297A037BFF1D
:1001330020022EE509602A7E008E82758300120557
:100143004460060EEE650A70F0C2D5EBC0E0EAC06B
:10015300E0E9C0E0EE12029FD0E0F9D0E0FAD0E08F
:10016300FB12045EFF60AAEBC0E0EAC0E0E9C0E076
:10017300120046D0E02401F9D0E03400FAD0E0FBCD
:10018300E50A0460DCD50AD980877BFF7A02799B74
:10019300D202809C791080027908C206C2088008C6
:1001A300D2D5790A8004790AC2D5E50A047002F52A
:1001B3000AE4FAFDFEFF120003FC7B082001131280
:1001C3000003FD7B1030000A120003FE120003FF40
:1001D3007B20EC3382D592D55013C3E43000069FC5
:1001E300FFE49EFEE42001039DFDE49CFCE4CBF8C8
:1001F300C201EC700CCFCECDCCE824F8F870F380BC
:1002030017C3EF33FFEE33FEED33FDEC33FCEB337B
:10021300FB994002FB0FD8E9EB300105F8D0E0C4AD
:1002230048B201C0E00AEC4D4E4F78207B0070C20B
:10023300EAB50A0040BCC0E01202A1D0F0D0E02031
:100243000104C4C0E0C4B201C0F012002FD0F0D545
:10025300F0EB020080120591011D5301975800EE47
:100263004C00EA42019B4F01A34401A3490103430C
:0802730001A955018D46018D22
:10027B0045018D4703495000F22D00F62E01192B35
:10028B0000FA2301172003322A00B24800000111A3
:10029B003F3F3F00790AA2D5200314300509B9105E
:1002AB00020404B9080104A2D5200602500104205F
:1002BB0002689202B509005034C0E07F2030031968
:1002CB007F30A20272067205500F1202F8C202C2F0
:1002DB0006C205C2087F30800F300503E9C0E0126B
:1002EB000046300503D0E0F9D0E0B509CC30051756
:1002FB007F30B9100C1200467F583004077F78808E
:10030B0003B908031200463002057F2D0200467F19
:10031B00202008F87F2B2006F322920280CF286E34
:10032B00756C6C2900D2011200033001F8C2017800
:10033B000930D50108F60200B22D5043495812007E
:10034B00032403B405004001E490034493120037E7
:0D035B00743A120037D203750904020197AD
:10051800EF4E6012EF60010EEDBB010B89828A83FA
:10052800F0A3DFFCDEFA2289F05007F709DFFCA907
:0C053800F022BBFEFCF309DFFCA9F0225E
:10089700020DE1E493A3F8E493A34003F68001F289
:1008A70008DFF48029E493A3F85407240CC8C33362
:1008B700C4540F4420C8834004F456800146F6DF31
:1008C700E4800B0102040810204080901014E47E9D
:1008D700019360BCA3FF543F30E509541FFEE49326
:1008E700A360010ECF54C025E060A840B8E493A3ED
:1008F700FAE493A3F8E493A3C8C582C8CAC583CA18
:10090700F0A3C8C582C8CAC583CADFE9DEE780BECF
:01103A0000B5
:10054400BB010CE58229F582E5833AF583E022506C
:1005540006E92582F8E622BBFE06E92582F8E222B6
:0D056400E58229F582E5833AF583E49322D0
:10057100F8E0FBA3A3E0F925F0F0E5821582700213
:070581001583E0FA38F022B7
:09058800EBF0A3EAF0A3E9F02274
:10059100D083D082F8E4937012740193700DA3A3F9
:1005A10093F8740193F5828883E47374029368600D
:0605B100EFA3A3A380DF0D
:10103B00EFB40A07740D121046740A309811A89970
:10104B00B8130CC2983098FDA899C298B811F63015
:07105B0099FDC299F59922ED
:00000001FF
