:1009D8004572726F723A20253032580A0072656388
:1009E80065697665206C656E203D2025640A0044A3
:1009F800617461204C656E203D2025640A00506FAB
:100A08007274203D2025640A004950203D2025327B
:100A1800642E2532642E2532642E2532642E0A0077
:100A2800627566203D20002530327820000A00B229
:100A3800BBBFC9B4EFC0E0D0CDA3BA256420202540
:100A4800303278200A00D0ADD2E9B2BBBFC9B4EFCA
:100A5800B4FAC2EBA3BA2564202025303278200AE4
:100A680000B2BBBFC9B4EFB6CBBFDAA3BA253464B2
:100A780020200A00B2BBBFC9B4EF4950A3BA25640D
:100A88002E25642E25642E2564200A00496E69747B
:100A980020737461747573203A2047494E545F532C
:100AA8005441545F5048595F4348414E47450A00F6
:100AB800434833393545565420546573742044658A
:100AC8006D6F0A00434833393520436F6E6E656396
:0C0AD800742045746865726E65740A0035
:1011FB00440220C0A8010A44024DC0A801014402C8
:10120B0047FFFFFF0044021CFFFFFFFF42024B039F
:06121B00E84202511388B5
:071534007FFA12153B7FFA5C
:07153B00AE071FEE70FA225B
:10148400AD07AF051DEF600812153412153480F254
:011494002235
:09159F00D29475D55C43AA082220
:0D1550008F86E5AA30E7FB53AA7FAF862205
:0314E900E4FCFB25
:0C14EC00D294C2941215507F0202153BEE
:1010CF00900276E0FBA3E475F001120489A9F0FA0F
:1010DF0012045EFF1210FA900276E0FBA3E475F0A3
:0B10EF0001120489A9F0FA12045EFF50
:0310FA000215508C
:081542001214ECAF051210FABF
:05154A007FFF121550A7
:01154F002279
:0815A8007F051214ECD294221D
:0815B0007F031214ECD2942217
:0A1569007F011214EC12154AD2940F
:011573002255
:02159500AD07A0
:071597007F06121542D294F9
:01159E00222A
:0F14F800AD077F201214ECAF051210FAD2942228
:0A1574007F261214EC12154AD294DF
:01157E00224A
:0A157F007F291214EC12154AD294D1
:01158900223F
:1010FD00E4900253F0FD7F271214ECD2947F0A1274
:10110D0014841214DEAD07EDB41010900253E0FFFD
:0D111D0004F0EFD394C840E57FFA22AF053F
:01112A0022A2
:060F0D009002BA1204DBA1
:100F13007F021214EC9002BAA3A3A3E0FF1210FA0B
:100F23009002BAA3A3E0FEEEFF1210FA9002BAE019
:100F3300FCA3E0FDA3E0FEA3E0FF78101204B512CA
:0A0F430010FA12154AA3EFF0D29441
:010F4D002281
:0514D9007F05121484E0
:0A14DE007F2C1214EC12154AD29470
:0114E80022E1
:0B12FB00900253EBF0A3EAF0A3E9F02F
:101306007F221214ECE4FE9002531210E90EEEB4A2
:0413160004F5D29474
:01131A0022B0
:0B131B00900253EBF0A3EAF0A3E9F00E
:101326007F231214ECE4FE9002531210E90EEEB481
:0413360004F5D29454
:01133A002290
:0B133B00900253EBF0A3EAF0A3E9F0EE
:101346007F241214ECE4FE9002531210E90EEEB460
:0413560004F5D29434
:01135A002270
:0B1295009002CBEBF0A3EAF0A3E9F01D
:1012A0007F211214ECE4FE9002CB1210E90EEEB492
:0912B00006F5D2947F6402148457
:0B103C009002CEEBF0A3EAF0A3E9F075
:101047007F401214ECE4FE12154A9002CEE0FBA397
:10105700E475F001120489A9F0FAEF1204770EEE95
:05106700B406E4D29480
:01106C002261
:100AE400AD077F251214ECAF051210FA9002A6A3ED
:100AF400A3A3E0FF1210FA9002A6A3A3E0FEEEFF68
:100B04001210FA9002A6E0FCA3E0FDA3E0FEA3E02D
:100B1400FF78101204B51210FA9002A6E0FCA3E0CC
:100B2400FDA3E0FEA3E0FF78181204B51210FAA3A7
:100B3400A3A3A3E0FF1210FA9002AAA3A3E0FEEE7F
:100B4400FF1210FA9002AAE0FCA3E0FDA3E0FEA3CA
:100B5400E0FF78101204B51210FA9002AAE0FCA388
:100B6400E0FDA3E0FEA3E0FF78181204B51210FA2A
:030B7400D29422F6
:0B106D00900262EBF0A3EAF0A3E9F0B0
:101078007F281214ECE4FE12154A900262E0FBA3EA
:10108800E475F001120489A9F0FAEF1204770EEE64
:05109800B408E4D2944D
:01109D002230
:0D0FCF009002D1EBF0A3EAF0A3E9F0AD072A
:100FDC007F2D1214ECAF051210FAE4FE12154A9094
:100FEC0002D1E0FBA3E475F001120489A9F0FAEF39
:0A0FFC001204770EEEB406E4D2945E
:0110060022C7
:10135B00900276EBF0A3EAF0A3E9F0AD077F311230
:10136B0014ECAF051210FA1210CF1210CFD2942238
:10143600AC077F341214ECAF041210FAAF05121089
:04144600FAD2942220
:10139600AB077F321214ECAF031210FAAF0512102E
:0913A600FAECFF1210FAD29422B5
:1013AF00AB077F331214ECAF031210FAAF05121014
:0913BF00FAECFF1210FAD294229C
:10144A00AC077F3E1214ECAF041210FAAF0512106B
:04145A00FAD294220C
:0F150700AD077F3F1214ECAF051210FAD29422F9
:0D0EC700900277EBF0A3EAF0A3E9F0AD078D
:100ED4007F391214ECAF051210FAA3A3E0FF12102D
:100EE400FA90027AE0FF1210FAE4FDFCD390027B40
:100EF400E09D90027AE09C400D9002771210E90D7B
:080F0400BD00010C80E6D2944F
:010F0C0022C2
:02137B00AD07BC
:10137D007F3B121542AD077C0012154AEFFEE42D9E
:08138D00FDEC3ED294FEAF0519
:011395002235
:0F151600AD077F2E1214ECAF051210FAD29422FB
:0B0C0300900269EFF0A3ECF0A3EDF00D
:100C0E004C60487F3C1214EC900269E0FF1210FA1F
:100C1E00A3A3E0FF1210FA90026AE0FF1210FA7F0F
:100C2E000112153BE4FDFCD390026BE09D90026A2D
:100C3E00E09C401512154AEF120477740129F9E46D
:0B0C4E003AFA0DBD00010C80DED294CC
:010C59002278
:0F152500AD077F2A1214ECAF051210FAD29422F0
:1013DF00AD07AC067F2A1214ECAF051210FAECFF22
:0613EF001210FAD2942254
:100F8F009002D4EBF0A3EAF0A3E9F0AD077F2F12A4
:100F9F0015429002D4E0FBA3E475F001120489A975
:100FAF00F0FAEF12047712154A9002D4E0FBA3E493
:100FBF0075F001120489A9F0FAEF120477D2942286
:02124900AD07EF
:10124B007F351214E9AF051210FAD2941214D9ABF0
:10125B0007EBB4100CAF040CEFD394C840EE7FFA3D
:03126B0022AF03AC
:01126E00225D
:02126F00AD07C9
:101271007F3D1214E9AF051210FAD2941214D9ABC2
:1012810007EBB4100CAF040CEFD394C840EE7FFA17
:0312910022AF0386
:011294002237
:02115700AD07E2
:10115900E4FCFB7F371214ECAF051210FAD294129B
:1011690014D9AB07EBB4100CAF040CEFD394C840FF
:06117900EE7FFA22AF0335
:01117F00224D
:02118000AD07B9
:10118200E4FCFB7F361214ECAF051210FAD2941273
:1011920014D9AB07EBB4100CAF040CEFD394C840D6
:0611A200EE7FFA22AF030C
:0111A8002224
:0211A900AD0790
:1011AB00E4FCFB7F381214ECAF051210FAD2941248
:1011BB0014D9AB07EBB4100CAF040CEFD394C840AD
:0611CB00EE7FFA22AF03E3
:0111D10022FB
:0213C800AD076F
:1013CA007F301214ECAF051210FA7F0212153B128D
:0413DA00154AD2944A
:0113DE0022EC
:0B05B700900291EBF0A3EAF0A3E9F042
:1005C20090029C1204E704C11DB79002A01204E736
:1005D200FFFFFFFF9002941204E700000000E47F97
:1005E20006FEFDFC900294E0F8A3E0F9A3E0FAA372
:1005F200E0FBC312049F400302070A900291E0FB52
:10060200A3E475F001120489A9F0FA12045E9002C3
:10061200A4F09002981204E700000000E47F08FEB4
:10062200FDFC900298E0F8A3E0F9A3E0FAA3E0FB56
:10063200C312049F40030206E29002A0E0FCA3E082
:10064200FDA3E0FEA3E0FF781F1204B5A905AA06E8
:10065200AB07A3E0FFEB6FFFEF5401FFEF601890D1
:10066200029CE0FCA3E0FDA3E0FEA3E0FFC004C007
:1006720005C006C007800DE4FBFAF9F8C000C0010E
:10068200C002C0039002A0E0FCA3E0FDA3E0FEA331
:10069200E0FF78011204C8D003D002D001D000EFED
:1006A2006BFFEE6AFEED69FDEC68FC9002A012049D
:1006B200DB9002A4E0C313F0900298E0FCA3E0FDFB
:1006C200A3E0FEA3E0FFE4FAF9F8EF2401FFEA3E1B
:1006D200FEE93DFDE83CFC9002981204DB02061E96
:1006E200900294E0FCA3E0FDA3E0FEA3E0FFE4FAA5
:1006F200F9F8EF2401FFEA3EFEE93DFDE83CFC90FB
:1007020002941204DB0205E09002A0E0FCA3E0FDEB
:10071200A3E0FEA3E0FF781A1204B59002A012042F
:09072200DB9002A0A3A3A3E0FFF9
:01072B0022AB
:0211D200AD0767
:1011D400E4FC7F411214ECAF051210FAD2947F1490
:1011E4001214841214DEEFB4100CAE040CEED3947B
:0611F400C840EB7FFA2267
:0111FA0022D2
:0A158A007F421214EC12154AD294AD
:011594002234
:0B109E009002D7EBF0A3EAF0A3E9F00A
:1010A9007F431214ECE4FE12154A9002D7E0FBA329
:1010B900E475F001120489A9F0FAEF1204770EEE33
:0510C900B414E4D29410
:0110CE0022FF
:10149500AC077FED1214ECAF041210FAAF05021081
:0114A500FA4C
:02142100AD0715
:101423007FEC1214ECAF051210FA7F011214841230
:02143300154A58
:011435002294
:10145E007FE91214EC7F141214841214DEEF641060
:02146E0060F329
:011470002259
:0F0CAE009002B0EBF0A3EAF0A3E9F0AD07AC06BB
:100CBD007FEA1214ECAF051210FAECFF1210FAA332
:100CCD00E0801D9002B3E0FF14F0EF60199002B0C8
:100CDD00E0FBA3E475F001120489A9F0FA12045E99
:100CED00FF1210FA80DD7F141214841214DEEF64EB
:030CFD001060F391
:010D000022D0
:100DEB009002B6EBF0A3EAF0A3E9F0AD07AC067FF7
:100DFB00EB1214ECAF051210FAECFF1210FAA3E091
:100E0B00FF1210FA7F011214849002B9E0FF14F064
:100E1B00EF601912154A9002B6E0FBA3E475F001DE
:0D0E2B00120489A9F0FAEF12047780DD228D
:10147100AD07AC067F501214ECAF051210FAECFF69
:031481000210FA5C
:1013F500AC077F521214ECAF041210FAAF051210AD
:06140500FAAF030210FA29
:10140B00AC077F531214ECAF041210FAAF05121095
:06141B00FAAF030210FA13
:100C5A00900269EBF0A3EAF0A3E9F0A31204DB9097
:100C6A000275E0FF900270E0FBA3E0FAA3E0F9123C
:100C7A00135B900275E0FF900273E0FCA3E0FD12A3
:100C8A001396900269E0FBA3E0FAA3E0F9A3A3A3F9
:100C9A00E0FFA3E090027ACFF0A3EFF0900275E0B4
:040CAA00FF020EC770
:100D01009002BF1204DB7F551214EC9002BFA3A323
:100D1100A3E0FF1210FA9002BFA3A3E0FEEEFF12C0
:100D210010FA9002BFE0FCA3E0FDA3E0FEA3E0FF08
:100D310078101204B51210FA9002BFE0FCA3E0FD96
:0E0D4100A3E0FEA3E0FF78181204B50210FA3A
:1012B9007F191214EC7F0212153B12154AAD077CF7
:1012C9000012154AEFFEE42DFDEC3ED294FEAF0567
:0112D90022F2
:1014A600AC077F591214ECAF041210FAAF05021004
:0114B600FA3B
:0C155D00AD077F581214ECAF050210FA25
:100D4F009002C31204DB7F561214EC9002C3A3A3CC
:100D5F00A3E0FF1210FA9002C3A3A3E0FEEEFF126E
:100D6F0010FA9002C3E0FCA3E0FDA3E0FEA3E0FFB6
:100D7F0078101204B51210FA9002C3E0FCA3E0FD44
:0E0D8F00A3E0FEA3E0FF78181204B50210FAEC
:100D9D009002C71204DB7F571214EC9002C7A3A375
:100DAD00A3E0FF1210FA9002C7A3A3E0FEEEFF121C
:100DBD0010FA9002C7E0FCA3E0FDA3E0FEA3E0FF64
:100DCD0078101204B51210FA9002C7E0FCA3E0FDF2
:0E0DDD00A3E0FEA3E0FF78181204B50210FA9E
:1014B700AC077F511214ECAF041210FAAF050210FB
:0114C700FA2A
:1012DA00EF601D7BFF7A0979D890026CE4F0A3EFE6
:1012EA00F012006E7FC81214847FC812148480F42E
:0112FA0022D1
:100E38007E007F237D007B017A02792412051878D1
:100E4800247C027D017B017A0279207E007F0412D6
:100E5800043878287C027D017B017A02794D7E0076
:100E68007F04120438782C7C027D017B017A027998
:080E7800477E007F04020438EC
:100E80007E007F1C7D007B017A02790012051878B4
:100E9000007C027D017B017A02791C7E007F0412B6
:100EA000043890024BE0FFA3E0900211CFF0A3EFD3
:100EB000F0900251E0FFA3E0900213CFF0A3EFF017
:070EC00090020A7402F02207
:101007007B017A027900E4FF12135B90020AE0FD8C
:10101700E4FF121436900211E0FCA3E0FDE4FF1296
:101027001396A3E0FCA3E0FDE4FF1213AFE4FF1265
:0510370012490212DA6B
:05089E00900262EFF082
:1008A3001213C8EF20E2030209D7900262E0FF129D
:1008B300137BA3EEF0A3EFF07BFF7A0979E59002B7
:1008C3006CEEF0A3EFF012006E900263E0FEA3E083
:1008D300FF4E70030209D7D3EF9400EE9402400950
:1008E3009002637402F0A3E4F0900262E0FFA3E0DD
:1008F300FCA3E0FD7B017A007900120C0390000158
:10090300E0FE900000E07C002400FFEC3E900265D6
:10091300F0A3EFF0900003E0FE900002E02400FF5C
:10092300EC3E900267F0A3EFF07BFF7A0979F79032
:100933000265E0FFA3E090026CCFF0A3EFF012009A
:100943006E7BFF7A0A7906900267E0FFA3E09002CC
:100953006CCFF0A3EFF012006E7BFF7A0A7911904F
:100963000004E0FF90026CE4F0A3EFF0900005E0D8
:10097300FF90026EE4F0A3EFF0900006E0FF900218
:1009830070E4F0A3EFF0900007E0FF900272E4F050
:10099300A3EFF012006E900264E024F8FF9002636C
:1009A300E034FFFEE4FCFD90027004F0A37400F059
:1009B300A37404F0900267E0FBA3E0900273CBF012
:1009C300A3EBF0900262E0900275F07B017A00796C
:0409D30008120C5AA0
:0109D70022FD
:10072C001212B9900253EEF0A3EFF020E00302088E
:10073C002D7B017A02795712106D7BFF7A0A79288A
:10074C0012006EE4900261F0900261E0FFC3940825
:10075C0050207BFF7A0A792F74572FF582E43402EC
:10076C00F583E090026CF012006E900261E004F0F0
:10077C0080D67BFF7A0A793512006E90025AE0FE21
:10078C00900259E07C002400FFEC3E900255F0A34F
:10079C00EFF07BFF7A0A7937A3E0FF7E0090026CC2
:1007AC00EEF0A3EFF0A3EEF0A3EFF012006E7BFFE0
:1007BC007A0A794E900258E0FF7E0090026CEEF0BF
:1007CC00A3EFF0A3EEF0A3EFF012006E7BFF7A0A1A
:1007DC007969900255E0FFA3E090026CCFF0A3EF93
:1007EC00F012006E7BFF7A0A797C90025BE0FF903E
:1007FC00026CE4F0A3EFF090025CE0FF90026EE478
:10080C00F0A3EFF090025DE0FF900270E4F0A3EF34
:10081C00F090025EE0FF900272E4F0A3EFF01200A1
:10082C006E900254E030E2097BFF7A0A7994120050
:10083C006E900254E030E405E4FF12089E900254DE
:10084C00E030E5057F0112089E900254E030E60589
:10085C007F0212089E900254E030E7057F031208D5
:10086C009E900253E030E0057F0412089E900253E4
:10087C00E030E1057F0512089E900253E030E2055E
:10088C007F0612089E900253E030E3057F071208A2
:01089C009EBD
:01089D002238
:10112B007F65121595EF649A60037FFA227B017A33
:10113B000279241212FB7B017A02792812131B7B92
:0B114B00017A02792C12133B1210FDF8
:011156002276
:1014C800759850758780758921758DF3D28ED2995C
:0114D80022F1
:100F4E007F641214841214C87BFF7A0A79B81200D7
:100F5E006E12159F120E3812112B1212DA12157410
:100F6E00BF01077FC812148480F37BFF7A0A79CC05
:100F7E0012006E120E8012100720B3FD12072C8085
:010F8E00F86A
:03000000020B7779
:0C0B7700787FE4F6D8FD758121020BBEEA
:10036800E709F608DFFA8046E709F208DFFA803E77
:1003780088828C83E709F0A3DFFA8032E309F60864
:10038800DFFA8078E309F208DFFA807088828C83CC
:10039800E309F0A3DFFA806489828A83E0A3F60880
:1003A800DFFA805889828A83E0A3F208DFFA804C5A
:1003B80080D280FA80C680D4806980F28033801031
:1003C80080A680EA809A80A880DA80E280CA80339A
:1003D80089828A83ECFAE493A3C8C582C8CCC58312
:1003E800CCF0A3C8C582C8CCC583CCDFE9DEE780E2
:1003F8000D89828A83E493A3F608DFF9ECFAA9F061
:10040800EDFB2289828A83ECFAE0A3C8C582C8CCB6
:10041800C583CCF0A3C8C582C8CCC583CCDFEADECF
:10042800E880DB89828A83E493A3F208DFF980CC31
:1004380088F0EF60010E4E60C388F0ED2402B4042A
:100448000050B9F582EB2402B4040050AF232345D1
:0604580082239003B8733B
:10045E00BB010689828A83E0225002E722BBFE029C
:09046E00E32289828A83E49322CF
:10047700BB010689828A83F0225002F722BBFE0164
:02048700F3225E
:10048900A3F8E0C5F025F0F0E58215827002158326
:06049900E0C838F0E82283
:10049F00EB9FF5F0EA9E42F0E99D42F0EC6480C8D4
:0604AF0064809845F02274
:1004B500E8600FECC313FCED13FDEE13FEEF13FF25
:0304C500D8F12249
:1004C800E8600FEFC333FFEE33FEED33FDEC33FC92
:0304D800D8F12236
:0C04DB00ECF0A3EDF0A3EEF0A3EFF02294
:1004E700A8828583F0D083D0821204FE1204FE1204
:1004F70004FE1204FEE473E493A3C583C5F0C58329
:10050700C8C582C8F0A3C583C5F0C583C8C582C85E
:0105170022C1
:10000300E508246CF582E43402F583E005082290C8
:10001300026930070390026CE475F0011205710266
:10002300045E2000E97F2ED2008018EF540F249045
:10003300D43440D4FF30040BEF24BFB41A00500370
:100043002461FFE50960021509050CE50C70020542
:100053000B30070E900269E475F001120571EF028F
:1000630004770212227403D2078003E4C207F5085F
:10007300900269120588E4F509F50BF50CE50960B2
:10008300077F2012004680F5750AFFC201C200C235
:1000930002C203C205C206C208120012FF700D306D
:1000A30007057F00120057AF0CAE0B22B4255FC2C9
:1000B300D5C204120012FF24D0B40A00501A75F0FE
:1000C3000A780930D50508B6FF0106C6A426F6202E
:1000D300D5047002D20380D924CFB41A00EF5004A0
:1000E300C2E5D204020258D20180C6D20080C0D237
:1000F3000280BCD2D580BAD20580B47F20120046DC
:100103002002077401B5090040F1120003FF120039
:1001130046020080D208D2068095120003FB12002B
:1001230003FA120003F94A4B700679297A037BFF1D
:1001330020022EE509602A7E008E82758300120557
:100143004460060EEE650A70F0C2D5EBC0E0EAC06B
:10015300E0E9C0E0EE12029FD0E0F9D0E0FAD0E08F
:10016300FB12045EFF60AAEBC0E0EAC0E0E9C0E076
:10017300120046D0E02401F9D0E03400FAD0E0FBCD
:10018300E50A0460DCD50AD980877BFF7A02799B74
:10019300D202809C791080027908C206C2088008C6
:1001A300D2D5790A8004790AC2D5E50A047002F52A
:1001B3000AE4FAFDFEFF120003FC7B082001131280
:1001C3000003FD7B1030000A120003FE120003FF40
:1001D3007B20EC3382D592D55013C3E43000069FC5
:1001E300FFE49EFEE42001039DFDE49CFCE4CBF8C8
:1001F300C201EC700CCFCECDCCE824F8F870F380BC
:1002030017C3EF33FFEE33FEED33FDEC33FCEB337B
:10021300FB994002FB0FD8E9EB300105F8D0E0C4AD
:1002230048B201C0E00AEC4D4E4F78207B0070C20B
:10023300EAB50A0040BCC0E01202A1D0F0D0E02031
:100243000104C4C0E0C4B201C0F012002FD0F0D545
:10025300F0EB020080120591011D5301975800EE47
:100263004C00EA42019B4F01A34401A3490103430C
:0802730001A955018D46018D22
:10027B0045018D4703495000F22D00F62E01192B35
:10028B0000FA2301172003322A00B24800000111A3
:10029B003F3F3F00790AA2D5200314300509B9105E
:1002AB00020404B9080104A2D5200602500104205F
:1002BB0002689202B509005034C0E07F2030031968
:1002CB007F30A20272067205500F1202F8C202C2F0
:1002DB0006C205C2087F30800F300503E9C0E0126B
:1002EB000046300503D0E0F9D0E0B509CC30051756
:1002FB007F30B9100C1200467F583004077F78808E
:10030B0003B908031200463002057F2D0200467F19
:10031B00202008F87F2B2006F322920280CF286E34
:10032B00756C6C2900D2011200033001F8C2017800
:10033B000930D50108F60200B22D5043495812007E
:10034B00032403B405004001E490034493120037E7
:0D035B00743A120037D203750904020197AD
:10051800EF4E6012EF60010EEDBB010B89828A83FA
:10052800F0A3DFFCDEFA2289F05007F709DFFCA907
:0C053800F022BBFEFCF309DFFCA9F0225E
:100B8300020F4EE493A3F8E493A34003F68001F22B
:100B930008DFF48029E493A3F85407240CC8C33373
:100BA300C4540F4420C8834004F456800146F6DF42
:100BB300E4800B01020408102040809011FBE47EC6
:100BC300019360BCA3FF543F30E509541FFEE49337
:100BD300A360010ECF54C025E060A840B8E493A3FE
:100BE300FAE493A3F8E493A3C8C582C8CAC583CA29
:100BF300F0A3C8C582C8CAC583CADFE9DEE780BEE1
:0112210000CC
:10054400BB010CE58229F582E5833AF583E022506C
:1005540006E92582F8E622BBFE06E92582F8E222B6
:0D056400E58229F582E5833AF583E49322D0
:10057100F8E0FBA3A3E0F925F0F0E5821582700213
:070581001583E0FA38F022B7
:09058800EBF0A3EAF0A3E9F02274
:10059100D083D082F8E4937012740193700DA3A3F9
:1005A10093F8740193F5828883E47374029368600D
:0605B100EFA3A3A380DF0D
:10122200EFB40A07740D12122D740A309811A8999E
:10123200B8130CC2983098FDA899C298B811F6302C
:0712420099FDC299F5992204
:00000001FF
