:100761004572726F723A20253032580A0072656301
:1007710065697665206C656E203D2025640A004917
:100781006E697420737461747573203A2047494E01
:10079100545F535441545F5048595F4348414E4759
:1007A100450A005465737420454550524F4D0A0067
:1007B100454550524F4D204572617365203D2025BE
:1007C1003032780A007C2D2D2D2D2D456570726FEC
:1007D1006D4E756D3A202564202D2D2D2D2D2D2D3D
:1007E1002D2D7C0A00577269746520454550726F42
:1007F1006D3A2E2E2E2E2E2E2E2020005753203DC8
:10080100202530327820202020202000526561648C
:1008110020454550726F6D3A2E2E2E2E2E2E2E0A09
:10082100002530327820000A002A2A2A2A2A2A2A78
:100831002A2A2A2A2A2A2A2A2A2A2A2A2A454550BB
:10084100524F4D204552524F522A2A2A2A2A2A2AE9
:100851002A2A2A2A2A2A2A2A2A2A0A007C2A2A2AEF
:100861002A2A2A2A2A2A2A2A2A2A2A2A2A2A2A2AE7
:100871004750494F20546573542A2A2A2A2A2A2A82
:100881002A2A2A2A2A2A2A2A2A2A2A2A2A2A2A2AC7
:100891002A2A2A2A2A2A2A2A7C0D0A007C2A2A2A7A
:1008A1002A2A2A2A2A2A2A2A2A4750494F204F75BA
:1008B1007450757454657374202A2A2A2A2A2A2AA4
:1008C1002A2A2A2A2A2A2A2A2A2A2A2A2A2A2A2A87
:1008D1007C0D0A007C2A2A2A2A2A2A2A2A2A2A2A3A
:1008E1002A2A5477696E6B6C6520352074696D65B1
:1008F100732A2A2A2A2A2A2A2A2A2A2A2A2A2A2A0E
:100901002A2A2A2A2A2A2A2A2A2A7C0D0A007C2A09
:100911002A2A2A2A2A2A2A2A2A2A2A4750494F20B9
:10092100496E50757454657374202A2A2A2A2A2A1A
:100931002A2A2A2A2A2A2A2A2A2A2A2A2A2A2A2A16
:100941002A7C0D0A0043757272656E74537461746A
:100951007573203A20253278200D0A004348333937
:100961003545565420546573742044656D6F0A00F3
:10097100C9E8D6C3504859C1ACBDD3B7BDCABDA3A0
:10098100BA5048595F31304D5F464C4C200A004304
:100991004833393520436F6E6E6563742045746842
:0709A10065726E65740A0027
:1016A60044021CC0A8010A44024DC0A8010144021C
:1016B60047FFFFFF00440243C0A8016442024B03F8
:0616C600E8420251138806
:0719C5007FFA1219CC7FFA32
:0719CC00AE071FEE70FA22C6
:071852007F821219267FC8F6
:10185900AD07AF051DEF60081219C51219C580F251
:01186900225C
:091A3000D29475D55C43AA08228A
:0D19E1008F86E5AA30E7FB53AA7FAF862270
:03197A00E4FCFB8F
:0C197D00D294C2941219E17F020219CC2E
:10157800900341E0FBA3E475F001120124A9F0FAFD
:101588001200F9FF1215A3900341E0FBA3E475F0E4
:0B15980001120124A9F0FA1200F9FF73
:0315A3000219E149
:0819D30012197DAF051215A3E6
:0519DB007FFF1219E17D
:0119E00022E4
:081A39007F0512197DD29422F1
:081A41007F0312197DD29422EB
:0A19FA007F0112197D1219DBD2944F
:011A040022BF
:021A2600AD070A
:071A28007F061219D3D294CE
:011A2F002294
:0F198900AD077F2012197DAF051215A3D294224E
:0A1A05007F2612197D1219DBD2941E
:011A0F0022B4
:0A1A10007F2912197D1219DBD29410
:011A1A0022A9
:1015A600E4900253F0FD7F2712197DD2947F0A1230
:1015B600185912196FAD07EDB41010900253E0FFE1
:0D15C60004F0EFD394C840E57FFA22AF0592
:0115D30022F5
:0613B30090032B120176ED
:1013B9007F0212197D90032BA3A3A3E0FF1215A3AB
:1013C90090032BA3A3E0FEEEFF1215A390032BE0DD
:1013D900FCA3E0FDA3E0FEA3E0FF78101201501288
:0A13E90015A31219DBA3EFF0D29454
:0113F30022D7
:05196A007F0512185971
:0A196F007F2C12197D1219DBD294AF
:01197900224B
:0B178500900253EBF0A3EAF0A3E9F0A0
:101790007F2212197DE4FE9002531215920EEEB4D0
:0417A00004F5D294E6
:0117A4002222
:0B17A500900253EBF0A3EAF0A3E9F080
:1017B0007F2312197DE4FE9002531215920EEEB4AF
:0417C00004F5D294C6
:0117C4002202
:0B17C500900253EBF0A3EAF0A3E9F060
:1017D0007F2412197DE4FE9002531215920EEEB48E
:0417E00004F5D294A6
:0117E40022E2
:0B174000900338EBF0A3EAF0A3E9F0FF
:10174B007F2112197DE4FE9003381215920EEEB430
:09175B0006F5D2947F64021859CE
:0B14E50090033BEBF0A3EAF0A3E9F05A
:1014F0007F4012197DE4FE1219DB90033BE0FBA351
:10150000E475F001120124A9F0FAEF1201120EEEB7
:05151000B406E4D294D2
:0115150022B3
:100EA400AD077F2512197DAF051215A3900323A367
:100EB400A3A3E0FF1215A3900323A3A3E0FEEEFF78
:100EC4001215A3900323E0FCA3E0FDA3E0FEA3E03E
:100ED400FF78101201501215A3900323E0FCA3E045
:100EE400FDA3E0FEA3E0FF78181201501215A3A39E
:100EF400A3A3A3E0FF1215A3900327A3A3E0FEEE90
:100F0400FF1215A3900327E0FCA3E0FDA3E0FEA3DA
:100F1400E0FF78101201501215A3900327E0FCA300
:100F2400E0FDA3E0FEA3E0FF78181201501215A320
:030F3400D2942232
:0B15160090025FEBF0A3EAF0A3E9F005
:101521007F2812197DE4FE1219DB90025FE0FBA314
:10153100E475F001120124A9F0FAEF1201120EEE86
:05154100B408E4D2949F
:011546002282
:0D14AD0090033EEBF0A3EAF0A3E9F0AD07D9
:1014BA007F2D12197DAF051215A3E4FE1219DB90D8
:1014CA00033EE0FBA3E475F001120124A9F0FAEF50
:0A14DA001201120EEEB406E4D294E3
:0114E40022E5
:1017E500900341EBF0A3EAF0A3E9F0AD077F3112D6
:1017F500197DAF051215A3121578121578D294220A
:1018D800AC077F3412197DAF041215A3AF0512159A
:0418E800A3D29422D1
:10182000AB077F3212197DAF031215A3AF05121556
:09183000A3ECFF1215A3D29422CF
:10183900AB077F3312197DAF031215A3AF0512153C
:09184900A3ECFF1215A3D29422B6
:1018EC00AC077F3E12197DAF041215A3AF0512157C
:0418FC00A3D29422BD
:0F199800AD077F3F12197DAF051215A3D2942220
:0D136D00900265EBF0A3EAF0A3E9F0AD07F4
:10137A007F3912197DAF051215A3A3A3E0FF121539
:10138A00A3900268E0FF1215A3E4FDFCD390026962
:10139A00E09D900268E09C400D9002651215920D46
:0813AA00BD00010C80E6D294A5
:0113B2002218
:02180500AD072D
:101807007F3B1219D3AD077C001219DBEFFEE42DE5
:08181700FDEC3ED294FEAF058A
:01181F0022A6
:0F19A700AD077F2E12197DAF051215A3D2942222
:0B10A400900264EFF0A3ECF0A3EDF06D
:1010AF004C60487F3C12197D900264E0FF1215A33B
:1010BF00A3A3E0FF1215A3900265E0FF1215A37F13
:1010CF00011219CCE4FDFCD3900266E09D900265FD
:1010DF00E09C40151219DBEF120112740129F9E49B
:0B10EF003AFA0DBD00010C80DED29427
:0110FA0022D3
:0F19B600AD077F2A12197DAF051215A3D2942217
:10188100AD07AC067F2A12197DAF051215A3ECFF37
:061891001215A3D29422FF
:1013F400900344EBF0A3EAF0A3E9F0AD077F2F12CA
:1014040019D3900344E0FBA3E475F001120124A96D
:10141400F0FAEF1201121219DB900344E0FBA3E48B
:1014240075F001120124A9F0FAEF120112D29422EC
:0216F400AD0740
:1016F6007F3512197AAF051215A3D29412196AAB67
:1017060007EBB4100CAF040CEFD394C840EE7FFA8D
:0317160022AF03FC
:0117190022AD
:02171A00AD0719
:10171C007F3D12197AAF051215A3D29412196AAB38
:10172C0007EBB4100CAF040CEFD394C840EE7FFA67
:03173C0022AF03D6
:01173F002287
:02160200AD0732
:10160400E4FCFB7F3712197DAF051215A3D29412A7
:10161400196AAB07EBB4100CAF040CEFD394C840B9
:06162400EE7FFA22AF0385
:01162A00229D
:02162B00AD0709
:10162D00E4FCFB7F3612197DAF051215A3D294127F
:10163D00196AAB07EBB4100CAF040CEFD394C84090
:06164D00EE7FFA22AF035C
:011653002274
:02165400AD07E0
:10165600E4FCFB7F3812197DAF051215A3D2941254
:10166600196AAB07EBB4100CAF040CEFD394C84067
:06167600EE7FFA22AF0333
:01167C00224B
:02186A00AD07C8
:10186C007F3012197DAF051215A37F021219CC120D
:04187C0019DBD2940E
:011880002245
:0B0B9A00900301EBF0A3EAF0A3E9F0E8
:100BA50090030C12018204C11DB79003101201823B
:100BB500FFFFFFFF90030412018200000000E47FA5
:100BC50006FEFDFC900304E0F8A3E0F9A3E0FAA318
:100BD500E0FBC312013A4003020CED900301E0FB78
:100BE500A3E475F001120124A9F0FA1200F99003AB
:100BF50014F090030812018200000000E47F08FE53
:100C0500FDFC900308E0F8A3E0F9A3E0FAA3E0FBFC
:100C1500C312013A4003020CC5900310E0FCA3E0A7
:100C2500FDA3E0FEA3E0FF781F120150A905AA0667
:100C3500AB07A3E0FFEB6FFFEF5401FFEF601890E8
:100C4500030CE0FCA3E0FDA3E0FEA3E0FFC004C0AD
:100C550005C006C007800DE4FBFAF9F8C000C00125
:100C6500C002C003900310E0FCA3E0FDA3E0FEA3D7
:100C7500E0FF7801120163D003D002D001D000EF6C
:100C85006BFFEE6AFEED69FDEC68FC900310120146
:100C950076900314E0C313F0900308E0FCA3E0FD95
:100CA500A3E0FEA3E0FFE4FAF9F8EF2401FFEA3E32
:100CB500FEE93DFDE83CFC900308120176020C01BB
:100CC500900304E0FCA3E0FDA3E0FEA3E0FFE4FA4B
:100CD500F9F8EF2401FFEA3EFEE93DFDE83CFC9012
:100CE5000304120176020BC3900310E0FCA3E0FDA0
:100CF500A3E0FEA3E0FF781A120150900310120141
:090D050076900310A3A3A3E0FF04
:010D0E0022C2
:02167D00AD07B7
:10167F00E4FC7F4112197DAF051215A3D2947F149C
:10168F0012185912196FEFB4100CAE040CEED3945C
:06169F00C840EB7FFA22B7
:0116A5002222
:0A1A1B007F4212197D1219DBD294EC
:011A2500229E
:0B154700900347EBF0A3EAF0A3E9F0EB
:101552007F4312197DE4FE1219DB900347E0FBA3DF
:10156200E475F001120124A9F0FAEF1201120EEE55
:05157200B414E4D29462
:011577002251
:10192600AC077FED12197DAF041215A3AF050215A2
:01193600A30D
:0218C300AD076F
:1018C5007FEC12197DAF051215A37F01121859126D
:0218D50019DB1D
:0118D70022EE
:101900007FE912197D7F1412185912196FEF6410B4
:0219100060F382
:0119120022B2
:0F114F009002DBEBF0A3EAF0A3E9F0AD07AC06EA
:10115E007FEA12197DAF051215A3ECFF1215A3A39A
:10116E00E0801D9002DEE0FF14F0EF60199002DBCC
:10117E00E0FBA3E475F001120124A9F0FA1200F9C4
:10118E00FF1215A380DD7F1412185912196FEF6428
:03119E001060F3EB
:0111A100222B
:10128C009002DBEBF0A3EAF0A3E9F0AD07AC067F2C
:10129C00EB12197DAF051215A3ECFF1215A3A3E0F9
:1012AC00FF1215A37F011218599002DEE0FF14F013
:1012BC00EF60191219DB9002DBE0FBA3E475F0017F
:0D12CC00120124A9F0FAEF12011280DD22B8
:10191300AD07AC067F5012197DAF051215A3ECFF7E
:031923000215A307
:10189700AC077F5212197DAF041215A3AF051215BD
:0618A700A3AF030215A32C
:1018AD00AC077F5312197DAF041215A3AF051215A6
:0618BD00A3AF030215A316
:1010FB00900315EBF0A3EAF0A3E9F0A312017690AD
:10110B000321E0FF90031CE0FBA3E0FAA3E0F9123C
:10111B0017E5900321E0FF90031FE0FCA3E0FD1215
:10112B001820900315E0FBA3E0FAA3E0F9A3A3A317
:10113B00E0FFA3E0900268CFF0A3EFF0900321E073
:04114B00FF02136D1F
:1011A2009002531201767F5512197D900253A3A328
:1011B200A3E0FF1215A3900253A3A3E0FEEEFF12D9
:1011C20015A3900253E0FCA3E0FDA3E0FEA3E0FF21
:1011D20078101201501215A3900253E0FCA3E0FD17
:0E11E200A3E0FEA3E0FF78181201500215A34F
:101764007F1912197D7F021219CC1219DBAD077C87
:10177400001219DBEFFEE42DFDEC3ED294FEAF0522
:011784002242
:10193700AC077F5912197DAF041215A3AF05021525
:01194700A3FC
:0C19EE00AD077F5812197DAF050215A34C
:1011F0009003301201767F5612197D900330A3A31D
:10120000A3E0FF1215A3900330A3A3E0FEEEFF12AC
:1012100015A3900330E0FCA3E0FDA3E0FEA3E0FFF4
:1012200078101201501215A3900330E0FCA3E0FDEA
:0E123000A3E0FEA3E0FF78181201500215A300
:10123E009003341201767F5712197D900334A3A3C5
:10124E00A3E0FF1215A3900334A3A3E0FEEEFF125A
:10125E0015A3900334E0FCA3E0FDA3E0FEA3E0FFA2
:10126E0078101201501215A3900334E0FCA3E0FD98
:0E127E00A3E0FEA3E0FF78181201500215A3B2
:10194800AC077F5112197DAF041215A3AF0502151C
:01195800A3EB
:0D15D40090025FE0FF12171A900261EFF025
:1015E100EF601D7BFF7A0779619002DCE4F0A3EFE5
:1015F100F01204677FC81218597FC812185980F475
:0116010022C6
:101325007E007F237D007B017A02792012035D78A0
:10133500207C027D017B017A02791C7E007F0412EC
:1013450000D378247C027D017B017A02794D7E00F1
:101355007F041200D378287C027D017B017A027913
:08136500477E007F040200D363
:1012D9007E007F1C7D007B017A02790012035D7814
:1012E900007C027D017B017A0279437E007F041232
:1012F90000D390024BE0FFA3E0900211CFF0A3EFDF
:10130900F0900251E0FFA3E0900213CFF0A3EFF0B9
:0C13190090020A7403F0E490020CF02231
:101434007B017A027900E4FF1217E590020AE0FDCD
:10144400E4FF1218D8900211E0FCA3E0FDE4FF12BF
:101454001820A3E0FCA3E0FDE4FF121839E4FF1216
:0D14640016F41215E1E4FF1216020215E164
:050D0F0090025FEFF00F
:100D140012186AA3EFF0900260E020E203020DC80B
:100D240090025FE0FF121805900262EEF0A3EFF06C
:100D34007BFF7A07796E9002DCEEF0A3EFF01204E9
:100D440067900262E0FEA3E0FF4E7003020E02D33E
:100D5400EF9400EE940240099002627402F0A3E45E
:100D6400F090025FE0FF900262E0FCA3E0FD7B01F3
:100D74007A0079001210A4E4FFFED3900263E09F8E
:100D8400900262E09E402074002FF58274003EF5CC
:100D940083E0F4FD74002FF58274003EF583EDF0DA
:100DA4000FBF00010E80D390025FE0FF7B017A0049
:100DB4007900900262E0FDA3E0900268CDF0A3ED1B
:100DC400F012136D900260E030E4031215D4900227
:100DD40060E030E6291215D490020CE070207FC840
:100DE40012185990025FE0FF1216F41215DC9002FB
:0E0DF4005FE0FF121602900261E0FF1215E1AF
:010E020022CD
:100FC300121764900253EEF0A3EFF030E0097B01B7
:100FD3007A027955121516900254E030E2097BFF2C
:100FE3007A077980120467900254E030E405E4FF45
:100FF300120D0F900254E030E5057F01120D0F90A2
:101003000254E030E6057F02120D0F900254E030E7
:10101300E7057F03120D0F900253E030E0057F04D4
:10102300120D0F900253E030E1057F05120D0F9072
:101033000253E030E2057F06120D0F900253E030B9
:07104300E3057F07120D0F0A
:01104A002283
:101471007F65121A26EF649A60037FFA227B017A54
:101481000279201217857B017A0279241217A57B34
:10149100017A0279281217C57F047E007D007C0045
:0B14A1001211A27F641218591215A648
:0114AC00221D
:10195900759850758780758921758DF3D28ED299C6
:01196900225B
:1009A800E49002D4F0A3F0A3F0A3F0A3F07BFF7AC5
:1009B8000779A4120467121900900253EFF07BFF25
:1009C8007A0779B19002DCE4F0A3EFF0120467E44F
:1009D800900253F09002D7E475F0011201249002BE
:1009E80053E0FE2454F582E43402F583E5F0F07414
:1009F800542EF582E43402F583E0FF74942EF582D8
:100A0800E43402F583EFF0900253E004F0E0B440E0
:100A1800C39002D4E0FF6008641F6004EFB43F1A7B
:100A28007BFF7A0779C69002DCE4F0A3EFF01204AA
:100A3800677BFF7A0779E61204679002D5E0FEA388
:100A4800E0FF7B017A0279549002DE7440F01211C3
:100A58004F9002D4E0FE6009641F6005EE643F70A9
:100A68003D7BFF7A0779FD9002DCE4F0A3EFF012FA
:100A780004677BFF7A08790D120467E4900253F04B
:100A8800900253E0FFC39440501474542FF582E44D
:100A98003402F583E4F0900253E004F080E290021F
:100AA800D5E0FEA3E0FF7B017A0279549002DE7460
:100AB80040F012128C9002D4E0FF6009641F6005B8
:100AC800EF643F707AE4900253F0900253E0FFC362
:100AD800942050257BFF7A08792274542FF582E4FC
:100AE8003402F583E0FF9002DCE4F0A3EFF0120497
:100AF80067900253E004F080D17BFF7A08792812CE
:100B08000467E4900253F0900253E0FFC39420502E
:100B1800257BFF7A08792274942FF582E43402F554
:100B280083E0FF9002DCE4F0A3EFF0120467900288
:100B380053E004F080D17BFF7A08792812046778A3
:100B4800547C027D017B017A0279947E007F4012F9
:100B58000339EF60097BFF7A08792A12046790024B
:100B6800D6E02440F09002D5E03400F09002D4E0C2
:100B780004F0D39002D8E094FF9002D7E0940040AC
:100B880004E4F0A3F0C39002D5E0941050030209E6
:020B9800D72262
:100E03007BFF7A08795D1204677BFF7A08799D126C
:100E130004677DFF7F801219267F84121926E4FD63
:100E23007F821219267BFF7A0879D5120467E49032
:100E33000253F0E4FD1218527D551218527DAA1286
:100E430018527DFF121852900253E004F0E0C3944D
:100E53000540E07BFF7A09790F120467E4FD7F8088
:100E63001219267DFF7F841219267FF4121859E484
:100E7300900254F07F811218C3900253EFF07BFF6E
:100E83007A0979469002DCE4F0A3EFF01204677F5D
:100E9300E8121859900254E004F0E0C3943240D4AD
:010EA300222C
:10104B007F641218591219597BFF7A09795D1204C2
:10105B0067121A301213251214711215E17BFF7AE5
:10106B000979711204677F021219897FC812185906
:10107B007FC81218591209A8120E03121A05BF01C4
:10108B00077FC812185980F37BFF7A0979901204F5
:09109B006720B3FD120FC380F8B9
:03000000020F37B5
:0C0F3700787FE4F6D8FD758121020F7E62
:10000300E709F608DFFA8046E709F208DFFA803EDF
:1000130088828C83E709F0A3DFFA8032E309F608CC
:10002300DFFA8078E309F208DFFA807088828C8334
:10003300E309F0A3DFFA806489828A83E0A3F608E8
:10004300DFFA805889828A83E0A3F208DFFA804CC2
:1000530080D280FA80C680D4806980F28033801099
:1000630080A680EA809A80A880DA80E280CA803302
:1000730089828A83ECFAE493A3C8C582C8CCC5837A
:10008300CCF0A3C8C582C8CCC583CCDFE9DEE7804A
:100093000D89828A83E493A3F608DFF9ECFAA9F0C9
:1000A300EDFB2289828A83ECFAE0A3C8C582C8CC1F
:1000B300C583CCF0A3C8C582C8CCC583CCDFEADE38
:1000C300E880DB89828A83E493A3F208DFF980CC9A
:1000D30088F0EF60010E4E60C388F0ED2402B40493
:1000E3000050B9F582EB2402B4040050AF2323453A
:0600F3008223900053730C
:1000F900BB010689828A83E0225002E722BBFE0205
:09010900E32289828A83E4932237
:10011200BB010689828A83F0225002F722BBFE01CC
:02012200F322C6
:10012400A3F8E0C5F025F0F0E5821582700215838E
:06013400E0C838F0E822EB
:10013A00EB9FF5F0EA9E42F0E99D42F0EC6480C83C
:06014A0064809845F022DC
:10015000E8600FECC313FCED13FDEE13FEEF13FF8D
:03016000D8F122B1
:10016300E8600FEFC333FFEE33FEED33FDEC33FCFA
:03017300D8F1229E
:0C017600ECF0A3EDF0A3EEF0A3EFF022FC
:10018200A8828583F0D083D082120199120199123C
:100192000199120199E473E493A3C583C5F0C58361
:1001A200C8C582C8F0A3C583C5F0C583C8C582C8C7
:0101B200222A
:1003FC00E50824DCF582E43402F583E0050822905C
:10040C0002D93007039002DCE475F0011203B60246
:10041C0000F92000E97F2ED2008018EF540F2490B1
:10042C00D43440D4FF30040BEF24BFB41A00500373
:10043C002461FFE50960021509050CE50C70020545
:10044C000B30070E9002D9E475F0011203B6EF02DF
:10045C0001120216CD7403D2078003E4C207F5081B
:10046C009002D91203CDE4F509F50BF50CE5096002
:10047C00077F2012043F80F5750AFFC201C200C23B
:10048C0002C203C205C206C20812040BFF700D3073
:10049C0007057F00120450AF0CAE0B22B4255FC2CF
:1004AC00D5C20412040BFF24D0B40A00501A75F004
:1004BC000A780930D50508B6FF0106C6A426F62031
:1004CC00D5047002D20380D924CFB41A00EF5004A3
:1004DC00C2E5D204020651D20180C6D20080C0D23D
:1004EC000280BCD2D580BAD20580B47F2012043FE2
:1004FC002002077401B5090040F11203FCFF12043D
:10050C003F020479D208D20680951203FCFB120339
:10051C00FCFA1203FCF94A4B700679227A077BFF2E
:10052C0020022EE509602A7E008E8275830012035C
:10053C008960060EEE650A70F0C2D5EBC0E0EAC029
:10054C00E0E9C0E0EE120698D0E0F9D0E0FAD0E095
:10055C00FB1200F9FF60AAEBC0E0EAC0E0E9C0E0E2
:10056C0012043FD0E02401F9D0E03400FAD0E0FBD3
:10057C00E50A0460DCD50AD980877BFF7A0679947A
:10058C00D202809C791080027908C206C2088008C9
:10059C00D2D5790A8004790AC2D5E50A047002F52D
:1005AC000AE4FAFDFEFF1203FCFC7B082001131287
:1005BC0003FCFD7B1030000A1203FCFE1203FCFF4F
:1005CC007B20EC3382D592D55013C3E43000069FC8
:1005DC00FFE49EFEE42001039DFDE49CFCE4CBF8CB
:1005EC00C201EC700CCFCECDCCE824F8F870F380BF
:1005FC0017C3EF33FFEE33FEED33FDEC33FCEB337F
:10060C00FB994002FB0FD8E9EB300105F8D0E0C4B0
:10061C0048B201C0E00AEC4D4E4F78207B0070C20E
:10062C00EAB50A0040BCC0E012069AD0F0D0E02037
:10063C000104C4C0E0C4B201C0F0120428D0F0D54B
:10064C00F0EB0204791203D605165305905804E713
:10065C004C04E34205944F059C44059C4904FC431F
:08066C0005A25505864605862E
:100674004505864707425004EB2D04EF2E05122B47
:1006840004F323051020072B2A04AB480000050AB5
:100694003F3F3F00790AA2D5200314300509B91061
:1006A400020404B9080104A2D52006025001042062
:1006B40002689202B509005034C0E07F203003196B
:1006C4007F30A20272067205500F1206F1C202C2F6
:1006D40006C205C2087F30800F300503E9C0E0126E
:1006E400043F300503D0E0F9D0E0B509CC3005175C
:1006F4007F30B9100C12043F7F583004077F788094
:1007040003B9080312043F3002057F2D02043F7F22
:10071400202008F87F2B2006F322920280CF286E37
:10072400756C6C2900D2011203FC3001F8C2017807
:100734000930D50108F60204AB2D50434958120381
:10074400FC2403B405004001E490073D93120430F7
:0D075400743A120430D203750904020590B6
:1001B300E3F5F009E208B5F06BDFF58067E3F5F0EE
:1001C30009E608B5F05EDFF5805A87F009E608B561
:1001D300F052DFF6804E87F009E208B5F046DFF60D
:1001E300804288828C8387F009E0A3B5F036DFF67E
:1001F300803288828C8387F009E493A3B5F025DFEE
:10020300F5802188828C83E3F5F009E0A3B5F0142F
:10021300DFF5801088828C83E3F5F009E493A3B5BE
:10022300F002DFF40202E2808780E9809080D480CC
:100233003E8015806E807E809D80B7808D80A380F8
:10024300518074803C0202EE89828A83ECFAE49343
:10025300F5F0A3C8C582C8CCC583CCE493A3C8C5B5
:1002630082C8CCC583CCB5F076DFE3DEE18070894C
:10027300828A83E493F5F0A3E208B5F062DFF480A9
:100283005E89828A83E0F5F0A3E608B5F051DFF5D5
:10029300804D89828A83E0F5F0A3E208B5F040DF60
:1002A300F5803C89828A83E493F5F0A3E608B5F0F0
:1002B3002EDFF4802A8002805789828A83ECFAE455
:1002C30093F5F0A3C8C582C8CCC583CCE0A3C8C549
:1002D30082C8CCC583CCB5F006DFE4DEE280007FC4
:1002E300FFB5F0020F2240027F012289828A83EC4C
:1002F300FAE0F5F0A3C8C582C8CCC583CCE0A3C897
:10030300C582C8CCC583CCB5F0D5DFE5DEE380CFAD
:1003130089828A83ECFAE0F5F0A3C8C582C8CCC50C
:1003230083CCE493A3C8C582C8CCC583CCB5F0AF56
:10033300DFE4DEE280A988F0EF60010E4E60ABEDF2
:100343002402B404005098F582EB2402B404005054
:0A0353008E232345822390022A73B3
:10035D00EF4E6012EF60010EEDBB010B89828A83B7
:10036D00F0A3DFFCDEFA2289F05007F709DFFCA9C4
:0C037D00F022BBFEFCF309DFFCA9F0221B
:100F430002104BE493A3F8E493A34003F68001F269
:100F530008DFF48029E493A3F85407240CC8C333AF
:100F6300C4540F4420C8834004F456800146F6DF7E
:100F7300E4800B01020408102040809016A6E47E52
:100F8300019360BCA3FF543F30E509541FFEE49373
:100F9300A360010ECF54C025E060A840B8E493A33A
:100FA300FAE493A3F8E493A3C8C582C8CAC583CA65
:100FB300F0A3C8C582C8CAC583CADFE9DEE780BE1D
:0116CC00001D
:10038900BB010CE58229F582E5833AF583E0225029
:1003990006E92582F8E622BBFE06E92582F8E22273
:0D03A900E58229F582E5833AF583E493228D
:1003B600F8E0FBA3A3E0F925F0F0E58215827002D0
:0703C6001583E0FA38F02274
:0903CD00EBF0A3EAF0A3E9F02231
:1003D600D083D082F8E4937012740193700DA3A3B6
:1003E60093F8740193F5828883E4737402936860CA
:0603F600EFA3A3A380DFCA
:1016CD00EFB40A07740D1216D8740A309811A89940
:1016DD00B8130CC2983098FDA899C298B811F6307D
:0716ED0099FDC299F5992255
:00000001FF
