:020000040800F2
:10000000A0C0002045010008DD7E010891380108EC
:10001000517C010871280008E54E0308000000002B
:1000200000000000000000000000000089C6020877
:1000300021A700080000000065A5010835ED0208B1
:100040005F0100085F0100085F0100085F01000810
:100050005F0100085F0100085F0100085F01000800
:10006000DDE500085F0100085F0100085F0100088E
:100070005F0100085F0100085F0100085F010008E0
:100080005F0100085F0100085F0100085F010008D0
:10009000DD4B03085F0100085F01000815E600085A
:1000A0005F0100085F0100085F0100085F010008B0
:1000B0005F0100085F0100085F0100085F010008A0
:1000C0005F0100085F0100085F0100085F01000890
:1000D0005F01000829470308F9470308E9480308B6
:1000E0005F0100085F010008D14B03085F010008B1
:1000F0005F0100085F0100085F0100085F01000860
:100100005F01000849BA02085F0100085F010008AA
:100110005F0100085F0100084DEF02087DF0020852
:100120005F0100085F0100085F0100085F0100082F
:10013000DFF80CD000F0F2FA00480047D975030848
:10014000A0C000200648804706480047FEE7FEE7BB
:10015000FEE7FEE7FEE7FEE7FEE7FEE7FEE7FEE777
:1001600095ED0208310100082DE9F05F05460020F9
:1001700092469B4688460646814640241BE0284618
:1001800041464746224600F0C8F853465A46C01A30
:10019000914110D311461846224600F0AFF82D1AAF
:1001A00067EB01084F4622460120002100F0A6F827
:1001B00017EB00094E41201EA4F10104DFDC484684
:1001C00031462A464346BDE8F09F40EA01039B07BB
:1001D00003D009E008C9121F08C0042AFAD203E0BC
:1001E00011F8013B00F8013B521EF9D27047D2B220
:1001F00001E000F8012B491EFBD270470022F6E710
:1002000010B513460A4604461946FFF7F0FF20468C
:1002100010BD421E12F8013F002BFBD111F8013B2B
:1002200002F8013B002BF9D1704710B5044604E0F9
:100230000B7800F8013B03B1491C521EF8D220464E
:1002400010BD421C10F8011B0029FBD1801A704719
:1002500010B5002200E0521C835C8C5CA34201D1EB
:10026000002BF8D1D8B2E1B2401A10BD30B5044627
:100270000020034600E05B1C934203D2E05CCD5CAF
:10028000401BF8D030BD034611F8012B00F8012BBC
:10029000002AF9D11846704730B5054600200346BC
:1002A00000E05B1C934205D2EC5CC85C201A01D1D3
:1002B000002CF6D130BD70B5064635F003FC04685D
:1002C00005460A220021304600F037F82C6070BD48
:1002D00030B50B46014600202022012409E021FA16
:1002E00002F59D4205D303FA02F5491B04FA02F513
:1002F0002844151EA2F10102F1DC30BD202A04DBE6
:10030000203A00FA02F1002070479140C2F1200328
:1003100020FA03F3194390407047202A04DB203A67
:1003200021FA02F00021704721FA02F3D040C2F115
:10033000200291400843194670472DE9F047914645
:100340000F4680460446002614F8015B2DB100F0EC
:1003500009FA0068405DC007F6D12B2D02D02D2D83
:1003600018D0641E4A463946204600F0FFF927B1EE
:100370003968A14201D1C7F8008071054FF002042D
:100380000BD54042002803DD35F09CFB0460A0073C
:10039000BDE8F08746F48066E4E70028F8DA35F037
:1003A00091FB04606FF00040F2E72DE9FE4F8046BC
:1003B00081EA0300C00F0C46009021F0004123F0B9
:1003C0000045B8EB0200A94105D2404621469046BF
:1003D0001C460B46024623F00040104347D0270D31
:1003E000C7F30A00C3F30A510290401A0190402853
:1003F0006BDAC3F3130040F4801B0098924620B1DF
:100400000023D2EB030A63EB0B0B01985946C0F1B2
:1004100040025046FFF772FF06460D4650465946C9
:10042000019A00F08DF910EB08006141002487EA81
:10043000115284EAE7731A4340D0009A62B3019ADA
:10044000012A4FEA075215DC001B61EB02014FF055
:10045000004202EA0752CDE90042001C41F580113A
:1004600032462B4600F0E0F903B0BDE8F08F40467D
:100470002146F9E7001B61EB0201001C41F58013E6
:1004800000185B412018A2F5001747EB030140EA72
:10049000D570B6196D4111E06D084FEA360645EA90
:1004A000C0754FEA0752001B61EB0201001C41F5C9
:1004B000801149084FEA30000019514132462B465D
:1004C00003B0BDE8F04F00F0A0B900980122400051
:1004D0000023D0EB020263EBE073009821464FEA61
:1004E000E074B8EB000061EB0401E9E783F000433E
:1004F0005BE781F0004158E72DE9FE4F81EA0304F4
:1005000004F0004421F0004100944FF0000B23F070
:10051000004350EA01045ED052EA03045BD0C3F307
:100520000A54C1F30A552C44A4F2F3340194A0FBFD
:100530000254C1F3130141F48011C3F3130343F4D4
:10054000801301FB024400FB034E840A970A44EA2D
:10055000815447EA8357A4FB076802958D0A05FB7F
:1005600007854FEA932C04FB0C542705029D4FEAA4
:10057000065847EA1637B5EB08056EEB070C870EF1
:10058000920E47EA811742EA8312A7FB0201B6EBFB
:100590000B0164EB00042B0D43EA0C335E1844EBB3
:1005A0001C50DA465146E7FB0201C5F313044FEA3B
:1005B0000B3343EA14534FEA0432019C43EA060327
:1005C000A4F10C040294009CCDE900B400F02CF9D5
:1005D00003B0BDE8F08F00200146F9E72DE9F04DAA
:1005E00081EA030404F0004B21F0004514464FF06B
:1005F000000A23F0004150EA050220D054EA01022B
:100600001DD0C5F30A570246C5F31303C1F3130007
:10061000C1F30A5640F4801543F48013A7EB060893
:10062000101BD64608F2FD3873EB050002D308F123
:10063000010801E092185B41B8F1000F03DA0020D5
:100640000146BDE8F08D00204FF480110646844637
:100650000EE0171B73EB050705D3121B63EB0503B5
:1006600006434CEA010C49084FEA300092185B41FE
:1006700050EA0107EDD152EA030012D082EA0400E9
:1006800083EA0501084305D0101BAB4106D20122C5
:10069000002306E000224FF0004302E06FF0010269
:1006A00053101AEB06004CEB085110EB0A0041EB1B
:1006B0000B01BDE8F04D00F0A8B8C1F30A52C1F338
:1006C000130140F2FF3341F480119A4202DA002014
:1006D0000146704740F233439A42A2F2334202DCB1
:1006E0005242FFF71ABEFFF709BE000030B5041EE4
:1006F00071F1000404DB4FF00044404264EB01015F
:10070000141E73F1000405DB1C464FF000435242F7
:1007100063EB0403994208BF904230BD064C074D7D
:1007200006E0E06840F0010394E8070098471034C1
:10073000AC42F6D3FFF700FD20EA030840EA0308C5
:10074000202A06DBCB17203A41FA02F043EAE07395
:1007500006E041FA02F3D040C2F120029140084382
:10076000194670470048704754CC03082DE9F05FE4
:1007700082460078002715468B460AF10104B946E7
:10078000302801D09DB113E014F8010B012778281F
:1007900003D0582801D045B10AE00DB1102D07D182
:1007A0000027102514F8010B02E0082500E00A25B7
:1007B0000026B0460EE005FB080005FB06F1012708
:1007C00001EB10461FFA80F8B6F5803F00D3B9461A
:1007D00014F8010B294600F075F80028EBDABBF19C
:1007E000000F05D00FB1641E00E05446CBF8004066
:1007F000B9F1000F06D035F065F902210160C81E7D
:10080000BDE8F09F48EA0640FAE710B5141E73F100
:10081000000408DA401C41F1000192185B411A43C0
:1008200001D120F0010010BD2DE9F04D92469B460C
:1008300011B1B1FA81F202E0B0FA80F220329046B2
:10084000FFF75CFD04460F4640EA0A0041EA0B014F
:1008500053465A46084313D0114653EA010019D0B3
:10086000C8F140025046FFF758FD05460E46504677
:1008700059464246FFF742FD084305D0012004E0F7
:1008800020463946BDE8F08D0020054346EAE07673
:100890002C4337430A986305E40AA0EB08000022C2
:1008A000FD0A44EA47540A3002D500200146E9E730
:1008B000010510196941DDE9084500196941BDE8E4
:1008C000F04DA2E73A2800D2303820F02002412A29
:1008D00001D3A2F13700884201D34FF0FF307047B7
:1008E00070B58C1810F8015B15F0070301D110F8F2
:1008F000013B2A1106D110F8012B03E010F8016B1F
:1009000001F8016B5B1EF9D12B0705D40023521EA1
:100910000DD401F8013BFAE710F8013BCB1A921C09
:1009200003E013F8015B01F8015B521EF9D5A14207
:10093000D8D3002070BD000000B591B001214FF464
:10094000047028F08DFB0121084628F069FB4FF464
:10095000404028F059FB264809F046FD2548019003
:100960002548029000200390032004900020059069
:100970008020069040000790800008902020099079
:1009800000020A9000200B9001A9194809F0D2FD3D
:100990000121174809F01CFD00200C9001208DF862
:1009A00034008DF835004FF460200E9000200F9039
:1009B00003208DF840000CA90E484C3800F034F8A4
:1009C000072301220E210B484C3800F055F807236D
:1009D00002220F2107484C3800F04EF803231A4634
:1009E0000A2104484C3800F047F811B000BD00005F
:1009F000080002404C2401408800002021B1826898
:100A000042F00102826003E0826822F0010282600B
:100A1000704721B1826842F48072826003E082688C
:100A200022F480728260704730B5024600200023B5
:100A300050680F4C20400D790C6844EA052420438F
:100A4000506090680B4C2040D1E902542C434D7902
:100A500044EA450420439060D06A20F470000C7C86
:100A6000641EE4B2234340EA0350D06230BD00006C
:100A7000FFFEF0FFFDF7F1FFF0B504460D46002044
:100A80000021092D11DDE068A5F10A0606EB4607F5
:100A9000072606FA07F18843A5F10A0606EB460683
:100AA00003FA06F10843E0600CE0206905EB450716
:100AB000072606FA07F1884305EB450603FA06F117
:100AC00008432061072A0FDA606B561E06EB860783
:100AD0001F2606FA07F18843561E06EB860605FA1E
:100AE00006F10843606322E00D2A0FDA206BD61F5F
:100AF00006EB86071F2606FA07F18843D61F06EB8A
:100B0000860605FA06F10843206310E0E06AA2F1C8
:100B10000D0606EB86071F2606FA07F18843A2F1A9
:100B20000D0606EB860605FA06F10843E062F0BD05
:100B300021B1826842F4A002826003E0826822F45C
:100B4000A0028260704700002DE9F04105460E4684
:100B5000287800F080004D490870307800F080005F
:100B60004B490870287800F007004A49087030782F
:100B700000F007004849087011214848FFF73EFB84
:100B800011214748FFF73AFB4448D5F801100160AE
:100B9000D5F8051041604248D6F801100160D6F83A
:100BA000051041603B4800783B49097888420FDDD9
:100BB00007E039480078401C37490870384801F090
:100BC00049F834480078344909788842F1DC14E067
:100BD000304800783049097888420EDA07E02D481D
:100BE0000078401C2B4908702C4801F033F8294844
:100BF0000078294909788842F1DB072425E0274855
:100C0000005D2749095D884200DD20E02348005D42
:100C10002349095D884216DA002409E01F48075D70
:100C20001F48005D1D4908551D480755601C04B24A
:100C3000082CF3DB1648077814480078144908702C
:100C40001248077003E0601E04B2002CD7DA00BF20
:100C50000E4800780E490978884202D100F024F845
:100C600001E02DF055FD094800780E49087009F0A3
:100C7000F5F80C480078287008480168C5F801109C
:100C80004068C5F80500BDE8F081000007020020BB
:100C900008020020090200200A020020641A002035
:100CA000751A00200602002070B5002100240020E3
:100CB00030E01A4D2D5C05F00F05184E365C3611EC
:100CC00006EB860605EB4605EAB2154D2D5C05F0F0
:100CD0000F05134E365C361106EB860605EB46050E
:100CE000EBB2D5182544E9B2632904DDA1F164050E
:100CF000E9B2012400E000240A2591FBF5F605FB8A
:100D000016150A2691FBF6F605EB0615034E35542B
:100D1000451C28B21028CCDB70BD0000641A0020EE
:100D2000751A002010B50FF0C5FF174890F8430260
:100D300016490968084415490860002112486130C5
:100D400080F8731A19E01048613090F8731A00F5B2
:100D5000F27000EBC10100F667300A680260496872
:100D6000416000F0ADFA0848613090F8730A401C09
:100D7000C1B20548613080F8731A0348613090F8B9
:100D8000730A0628DFDB10BD672A0020000200205E
:100D900010B50FF0A1FF174890F8780216490968BE
:100DA00008441549086000211248613080F8731A20
:100DB00019E01048613090F8731A00F2192000EB26
:100DC000C10100F632300A6802604968416000F0F3
:100DD00077FA0848613090F8730A401CC1B20548A0
:100DE000613080F8731A0348613090F8730A06285E
:100DF000DFDB10BD672A00200002002010B51A4872
:100E0000B0F8991A6138B0F8AA0281422BDA10F0D2
:100E10002FF81548613890F8AE0214490968084463
:100E2000124908600021104880F8731A16E00E4835
:100E300090F8731A00F2522000EBC10100F6F9207D
:100E40000A6802604968416000F03AFA064890F882
:100E5000730A401CC1B2044880F8731A024890F823
:100E6000730A0628E3DB10BDC82A00200002002018
:100E700010B5204890F8E00340F020011D4880F8AC
:100E8000E01310F045F81C4890F8E6021B49096889
:100E900008441A49086000211748613080F8731A25
:100EA00019E01548613090F8731A00F2872000EBC2
:100EB000C10100F6C4200A6802604968416000F080
:100EC000FFF90D48613090F8730A401CC1B20A481E
:100ED000613080F8731A0848613090F8730A062868
:100EE000DFDB044890F8E00320F02001014880F89F
:100EF000E01310BDC85A0020672A0020000200201D
:100F000010B51A4890F84C1A613890F818038142CD
:100F10002BDA10F00FF81548613890F81B031449CC
:100F200009680844124908600021104880F8731AC3
:100F300016E00E4890F8731A00F52F7000EBC1010F
:100F400000F68F200A6802604968416000F0B8F935
:100F5000064890F8730A401CC1B2044880F8731A1E
:100F6000024890F8730A0628E3DB10BDC82A002067
:100F70000002002010B53448D0F8E0003349086082
:100F800000213148613080F8731A19E02E48613031
:100F900090F8731A00F2AF1000EBC10100F69C301C
:100FA0000A6802604968416000F08AF926486130A9
:100FB00090F8730A401CC1B22348613080F8731A5C
:100FC0002148613090F8730A0628DFDB00212048B1
:100FD00080F8DA13A0F54050B0F89B1A6138B0F8E9
:100FE0004D0381422FDA0FF0EDFF174890F85103BF
:100FF0001649096808441549086000211248613003
:1010000080F8731A19E01048613090F8731A00F2F2
:10101000F22000EBC10100F659200A68026049681D
:10102000416000F04DF90848613090F8730A401CA7
:10103000C1B20548613080F8731A0348613090F8F6
:10104000730A0628DFDB10BD672A0020000200209B
:10105000C85A00207CB529484488294812F04EF926
:10106000274BDA78997818880DF025FC25494881B6
:10107000B4F5006F3DDA4FF4004000EB0415014673
:1010800001EB04101F4A0A32102135F085FC1D497E
:101090000C8000204880009001904FF4804101EBCB
:1010A000C4006A46082135F077FC14484088401C8B
:1010B00012494880C4F3090412480088B0F5806FD3
:1010C00004DA10480089B0F5804F09D00D48008837
:1010D000B0F5806F11DB0B480089B0F5C04F0CD123
:1010E00008481A3000EBC400009901600199416082
:1010F00003E05A21044880F84D1A7CBDDD340020FD
:10110000BD5E0020846B0020C82A002010B510F0BE
:10111000E5FE174890F889031649096808441549FF
:10112000086000211248613080F8731A19E01048F5
:10113000613090F8731A00F23A3000EBC10100F60A
:1011400011200A6802604968416000F0B9F8084857
:10115000613090F8730A401CC1B20548613080F8D4
:10116000731A0348613090F8730A0628DFDB10BD5C
:10117000672A00200002002010B54FF0FF3010F069
:101180008BFF174890F89A031649096808441549D7
:10119000086000211248613080F8731A19E0104885
:1011A000613090F8731A00F26A3000EBC10100F66A
:1011B000E1100A6802604968416000F081F808485F
:1011C000613090F8730A401CC1B20548613080F864
:1011D000731A0348613090F8730A0628DFDB10BDEC
:1011E000672A00200002002010B510F085FF174884
:1011F00090F801041649096808441549086000215F
:101200001248613080F8731A19E01048613090F884
:10121000731A00F2A73000EBC10100F6A4100A68AF
:1012200002604968416000F04BF80848613090F86E
:10123000730A401CC1B20548613080F8731A034834
:10124000613090F8730A0628DFDB10BD672A0020A2
:101250000002002010B510F0D9FF174890F83B04A9
:101260001649096808441549086000211248613090
:1012700080F8731A19E01048613090F8731A00F57D
:10128000777000EBC10100F66F100A6802604968D0
:10129000416000F015F80848613090F8730A401C6E
:1012A000C1B20548613080F8731A0348613090F884
:1012B000730A0628DFDB10BD672A00200002002029
:1012C00070B5934890F85E0A00B170BD904890F8F0
:1012D0004B0D00B9F9E78F48407800B9F5E78C4825
:1012E00090F8660A00B1F0E70024894890F84B0DA9
:1012F00000F0010018B187484078204484B2844847
:1013000090F84B0D00F0020018B18248407820445C
:1013100084B27F4890F84B0D00F0040018B17D486E
:101320004078204484B27A4890F84B0D00F00800D1
:1013300018B178484078204484B22546744890F823
:10134000730A062864D2DFE800F003061D344B62FE
:10135000002400255DE06E486138B0F86C0100B9EA
:10136000B3E76B486138B0F86C116130B0F8950A9A
:10137000081A684385B26648B0F8950A401E604373
:1013800084B246E06248613890F8D70400B99CE71F
:101390005F48613890F8D714613090F8800A081AD5
:1013A000401E684385B25A4890F8800A604384B270
:1013B0002FE05748613890F8080500B985E7544890
:1013C000613890F80815613090F8490A081A401EF3
:1013D000684385B24E4890F8490A604384B218E0E9
:1013E0004B48613890F8090500B96EE74848613804
:1013F00090F80915613090F86B0A081A401E68438E
:1014000085B2434890F86B0A604384B201E05CE720
:1014100000BF00BF4048006820443F4908603C4886
:1014200090F8730AE8B93D4890F8E00300F0200016
:10143000B8B93B4805F076FE20B13949A1F1E10089
:101440002DF0A6F9324890F8680A50B134480930B6
:1014500005F068FE28B132490931A1F1EA002DF00A
:1014600097F92B4890F84B0D00F0010008B100F0FF
:1014700053F9274890F84B0D00F0020030B127488F
:1014800090F8D903012801D000F046F9204890F8DF
:101490004B0D00F0040008B100F03EF91C4890F834
:1014A0004B0D00F0080008B100F036F91A4800684A
:1014B000284419490860164890F8730A28BB154853
:1014C00040781A2803D10021144880F8DA13134811
:1014D00090F8E00300F02000B8B9114805F022FEB2
:1014E00020B10F49A1F1E100FFF72EFB084890F869
:1014F000680A50B10A48093005F014FE28B10849BD
:101500000931A1F1EA00FFF71FFB00BFDDE6000093
:10151000C82A00201338002000020020C85A0020EA
:10152000D45000203EB5184890F8540A58BB1648CD
:1015300090F8510A022826D0134890F85E0A10BB92
:10154000114890F8640A08B1032400E000240F4811
:101550000168009141680191007A8DF808000C48FB
:1015600020440188ADF8011080788DF80300094906
:101570006846FFF7E9FA06482044BDF801100180EB
:101580009DF8031081703EBDC82A0020DCC103080D
:10159000EF340020E5C1030870B504460126244855
:1015A00090F87C0A4440224890F87D0A4440002587
:1015B0000EE004EA060038B105EBC5011D4A8818A3
:1015C000A2F20511FFF7C0FA7006060E681CC5B23C
:1015D000082DEEDBBCB9184901F1FC00FFF7B4FAA5
:1015E000164890F8DC0300F0080060B1104890F84D
:1015F000680A18B90E4890F8520A20B10E4901F154
:10160000F300FFF7A1FA0C4901F18700FFF79CFAFC
:1016100009495A3101F13600FFF796FA044890F86B
:101620007D1A80F87E1A002180F87D1A70BD0000B6
:10163000C82A0020F8500020F34F0020C85A00208C
:1016400010B511F037FE174890F870041649096874
:1016500008441549086000211248613080F8731A67
:1016600019E01048613090F8731A00F2114000EB55
:10167000C10100F63A100A68026049684160FFF74C
:101680001FFE0848613090F8730A401CC1B205483B
:10169000613080F8731A0348613090F8730A0628A5
:1016A000DFDB10BD672A00200002002010B511F01A
:1016B00013FE174890F8A50416490968084415490F
:1016C000086000211248613080F8731A19E0104850
:1016D000613090F8731A00F2464000EBC10100F649
:1016E00005100A68026049684160FFF7E9FD084893
:1016F000613090F8730A401CC1B20548613080F82F
:10170000731A0348613090F8730A0628DFDB10BDB6
:10171000672A00200002002010B5724890F8640A81
:1017200060B1704890F8730A012807D06E4840787D
:101730006E49096808446D49086010BD6B4804682B
:1017400028F028FF69480460664890F8400A58B1BC
:10175000674890F8DA0338B934F0F8F8624840780E
:10176000204462490860BAE0614890F8D903002833
:1017700040D05D482B30C07E00F0800060B15A48F8
:101780002B3090F82D0058492B31C8760846C07E82
:1017900040F08000C8760BE053482B3090F82D00C5
:1017A00051492B31C8760846C07E20F08000C876AB
:1017B0004D495831A1F11200FFF7C6F94A493D31B0
:1017C0004C4802680A6042684A60007A087212391E
:1017D000484802684A6242688A62007A81F82C00AE
:1017E00001F12D0043490A6802604A684260097AA3
:1017F000017272E03E4890F8DA0348B13A48C07985
:1018000000286AD03C4938485830FFF79DF964E019
:101810003548807890B134482B30407A00F0080089
:1018200060B9304890F8820A40B92E4890F8510AC1
:1018300020B932492C482B30FFF786F92A48C07866
:1018400068B129482B30407A00F0830026492B31BB
:1018500048722949483124483430FFF775F9224845
:10186000007928B1244912391F483D30FFF76CF93F
:101870001D48407900B31C480D38807838B91948A4
:1018800090F8730A18B9184840781A2814D01A49E1
:101890006C31154846302CF07BFF13482B30C07E4E
:1018A00000F0800040B11048463012490A680260DA
:1018B0004A684260097A01720B48807928B10E4962
:1018C000093109484F30FFF73FF90748C07920B187
:1018D000094905485830FFF737F934F037F800BFA9
:1018E0002BE70000C82A0020133800200002002047
:1018F000C85A0020DCC1030805500020E5C10308D8
:10190000002070472DE9F04106460C462EB92F48BD
:1019100090F8FE0F00F00F0040B9002E53D02B4876
:1019200090F8FE0F00F0F00000284CD0277800203F
:101930002070264890F8FE0F00F00F051DB92348CF
:1019400090F8FE0F0509012D06D0022D12D0032DAF
:101950001FD0042D35D128E0607800F00F00052855
:1019600003DB1B492046FFF7EFF8607800F0F0003A
:10197000607026E0657800206070742D04DD1549E4
:101980002046FFF7E1F803E0242D01DD50206070D0
:1019900017E0607800F0F00500206070502D03DB48
:1019A0000C492046FFF7D0F80BE0607800F0F00516
:1019B00000206070002D03DD06492046FFF7C4F8C3
:1019C00000BF00BF2770BDE8F0810000C81A0020EA
:1019D000EEC10308F7C1030810B50446314800788A
:1019E00030B920224F213048FEF701FC07F089F979
:1019F0002E4890F88B0A00F01000002839D12F2CC7
:101A000003D13020FFF7E8FF30242E2C1AD12748CD
:101A100090F84A0AA0B90121244880F84A1A2148BE
:101A2000007830BB3020204981F84D002E2081F80D
:101A30004E00002081F84F0002201A49087010BDA6
:101A40000020FCE7194890F84A0A90B1302C10DBCE
:101A5000392C0EDC154890F84A0A032801DD0020D5
:101A6000EDE7124890F84A0A401CC1B20F4880F8CE
:101A70004A1A0C48007828B14E220B49491C481ECE
:101A8000FEF7A3FB084880F84E400020064981F885
:101A90004F0004480078401C02490870084600784E
:101AA000CDE70000A1020020C65E0020C82A002069
:101AB00010B501460A12CBB202F00F00141104EB6C
:101AC000840400EB440000EBC00404EB00104FF66C
:101AD000FF7404EA800203F00F001C1104EB84047D
:101AE00000EB4400104480B210BD00002DE9FF4718
:101AF00082460C4691461D46DDE90D780C9E134842
:101B000090F8C20F012802D0022812D108E02B461B
:101B10004A460FA150468DE8D00133F0ADFF11E0E9
:101B20004B46224612A150468DE8E00133F0A4FF57
:101B300008E04B462A4606A150468DE8D00133F016
:101B40009BFF00BF00BFBDE8FF870000C81A002050
:101B5000253032782D253032782D323025303278CC
:101B600020253032783A253032783A2530327800E4
:101B70003230253032782D253032782D25303278AC
:101B800020253032783A253032783A2530327800C4
:101B90002DE9F047034600252846294606221CE089
:101BA0009C5C992C16DC9C5C04F00F049D5C2D1150
:101BB00005EB850504EB45044FF0640C4FF000097C
:101BC0008046A8FB0C6A01FB0CA700FB0977A01953
:101BD00047EBE471A2F1010422B2002AE0DABDE889
:101BE000F08730B502460C460023062113E0505C16
:101BF00099280EDC505C00F00F00555C2D1105EBB0
:101C0000850500EB450003EBC30505EB031500EB71
:101C10008503481E01B20029E9DA236098B230BD7D
:101C200030B500240F30002101E0401E491C10296E
:101C300002DA0578002DF8D009E005782D072A0E84
:101C400005782B091D1905701446401E491C1029E2
:101C5000F3DB30BD30B50024002109E005782D0705
:101C60002A0E05782B09151905701C46401C491CC5
:101C70001029F3DB30BD0146072005E04A1C125C49
:101C800002B103E0421E10B20028F7DA00BF421C86
:101C900010B200280BDD421E4B1C9A5C0F2A04DA9E
:101CA0000122C2EB400210B201E0420010B20A78F9
:101CB00002F080020AB1421C10B2704708B501461A
:101CC000002000900348009000980844009000987D
:101CD000008808BD006C004008B500220092044A4C
:101CE0000092009A02440092009A116008BD000020
:101CF000006C004010B504461448B0F8BD0800F46C
:101D0000007008BB4CB112491248B0F83F0008807F
:101D10000846007840F0800008700C4890F8BD0834
:101D200000F00100C0F1040002010A4913390A4819
:101D3000FEF74BFA35F0E4F80448B0F8BD0840F47B
:101D400000710248A0F8BD1810BD0000C84A00206C
:101D5000D8010020485300201416002010B50F4869
:101D600090F8DB0F00F007041CB10D4890F84D0A05
:101D700008B1002010BD611EC8B20CF049FD611E03
:101D8000C8B205212AF0C5FE0020064908700649A0
:101D90000870064908800120ECE70000C81A0020FE
:101DA000C82A00207501002074010020780100205D
:101DB00070B5B34890F8DB0F00F007051DB1B148CE
:101DC00090F84D0A08B1002070BDE7E0691EC8B266
:101DD00003F004F930B1691EC8B227F0BBFC044619
:101DE000401C08B90020EFE7A7480088B8BB0020D6
:101DF000A6490870A6490870A6490870012C10D0A1
:101E0000022C12D0062C02D0462C16D111E0691EED
:101E1000C8B211212AF07DFE02209F4908700020DF
:101E2000D2E702209C49087009E000209A49087016
:101E300005E001209849087001E00020C4E700BFD8
:101E40008F4890F8DB0F00F007009349097801F004
:101E50000F0140EA01118A4880F8DB1F30E0FFE7FC
:101E60008D48007802282BD1042C1FD18748007898
:101E700080F00300854908700846007848B9874813
:101E80008078532805D18548008840F20121884296
:101E90000BD0691EC8B20CF0BBFC5521794880F804
:101EA0004D1A0020784908808EE778E07648B0F92E
:101EB0000000012804DD754800786040734908700F
:101EC0007348007838B17048B0F90000704909785B
:101ED000401A012804DC71496B4AB2F900208C5485
:101EE000302C01DB392C01DD2E2C0AD16948007819
:101EF00018B96548007867490870634800786449F4
:101F0000087061480088401C00B25F490880624840
:101F10000078012819D1084600880A2815D15D48A3
:101F2000007818B9084600785A4908705648007871
:101F3000574908702E215448B0F900200088401CF1
:101F400000B2514B1880554881544F48B0F90000F9
:101F50001E2801DA0A2C03D100204B49088033E700
:101F60000D2C1BD14C48007818B94C480078022839
:101F700007D049480078012804D14848007846280D
:101F800000D10CE0691EC8B20CF042FC55213D485E
:101F900080F84D1A00203C49088015E716E700BF7D
:101FA000002006F089FC691EC8B20CF031FC00204C
:101FB0003B490870344908800026002535480078E0
:101FC00033490978884259DA3248047832E04EB908
:101FD0003248005B43F23001884201D0012000E02A
:101FE0000020064626B300212E48A0F825152B48D0
:101FF000055D2E2D06D12448008818B901202249FC
:10200000088008E02048008828B11F480088401C4C
:1020100000B21D4908801C48B0F90000042807DC04
:102020002048A0F823550146B1F8230513F09CFC85
:10203000601C04B2164800788442C8DD00201249B2
:102040000880012000F0CEF90E48B0F8930A8428E9
:1020500004D00C48B0F8930A86280FD1002111480B
:10206000A0F8251540F2D471A0F8231501210548E8
:1020700080F84E1A21F076F80120A5E60020A3E6AC
:10208000C81A0020C82A002078010020760100200C
:1020900075010020740100207A010020E81400205E
:1020A000A4020020C84A002070B5834890F8DD0FD4
:1020B00000F00705814890F84D0A90B97F48B0F8C4
:1020C000930A83280DD07D48B0F8930A8A2808D057
:1020D0007A48B0F8930A872805D1794800781E28F5
:1020E00001D0002070BD002679E05DB1691EC8B244
:1020F00002F074FF30B1691EC8B227F02BFB044612
:10210000401C08B90020EDE7E4B26E4801680068A1
:10211000401C6C4A10606C48445410460068FE280D
:1021200003DB002011460860DCE70A2C11D006DC36
:10213000022C09D0032C31D0092C40D12DE00D2CDC
:102140002AD0242C3BD100E000BF00205D4908606C
:10215000C8E75C480068801E5B49085C0D280AD10E
:1021600058480068801E5749086000205649554A63
:10217000126888540EE053480068401E51490860B8
:10218000002051494F4A126888544E48006808B9E7
:102190000020A7E7012621E000BF00BF49480068F2
:1021A000401E4849086000204749464A1268885442
:1021B0004448006808B9002094E701260EE0202C6E
:1021C00001DB7E2C09DD3F480068401E3D49086068
:1021D00000203D493B4A1268885400BF00BF002ED2
:1021E00083D0002006F068FB00203849087033488F
:1021F000B0F8930A87281CD131480078C8B92F4914
:1022000091F8751A01F0040109B1062100E00421DA
:1022100008462D4916F04AFA06F082FD06F062FDE6
:102220000422114628480AF0D1FA00202549086006
:1022300058E72448007826490870002021490860A2
:102240002449234A1278891A481E21490A781E49CE
:10225000FDF7BBFF0121194880F84F1A03F042FE39
:102260001648B0F8930A84281AD01448B0F8930A94
:10227000862815D000211848A0F823150F4880F8AB
:102280005D1AB0F8930A892804D1144800781449DB
:1022900008700FE0084890F8A50F1149087009E090
:1022A00000210D48A0F8251542F21071A0F8231561
:1022B00020F058FF012015E7C81A0020C82A002086
:1022C0009F0200207C01002006150020A4020020AF
:1022D000A1020020165F0020C84A0020AF020020A3
:1022E0009802002030B502460B460020591E0EE031
:1022F000C40004EB4004555C04EB2510C40004EB5F
:102300004004555C05F00F0560194C1E21B20029F0
:10231000EEDA30BD10B5044611210948FDF76EFF15
:10232000074854F8011F016061684160FFF778FCBD
:1023300003480168216040686060641E10BD0000B1
:10234000641A0020D0F80220C0F80120C288A0F84A
:102350000520017AC17100220272704710B504464F
:1023600011210948FDF74AFF074854F8011F016091
:1023700061684160FFF76EFC0348016821604068B6
:102380006060641E10BD0000641A0020072105E093
:102390004A1E431C9B5C421C5354491E0029F7DC17
:1023A000002242707047000008210C4A1160012889
:1023B00003D10A210A4A11800EE0022803D1282104
:1023C000074A118008E0032803D15021044A1180F4
:1023D00002E00A21024A11807047000014140140F3
:1023E0007600002000B50346D8B2FFF7DDFF0020DD
:1023F00000BD00002DE9FC5F8346894616461C4659
:10240000082E00D90826002C3ED02048D0F800A085
:102410004FF00008601E04B229E0A5B205EB0800E9
:1024200085B26D1005FB09A0184908603146684661
:1024300028F042F832466946584607F0CBFC07467A
:10244000002F03DA2CB2601E04B210E037B10FFA8D
:1024500085F808F101000FFA80F808E00B480068E1
:10246000801B0A490860681C80B2BDE8FC9FA0453B
:10247000D3DD06480068801B04490860002F03DD97
:1024800008460068484408600020EEE7000200208B
:1024900010B588B0044620461D2C7DD00CDCA0F180
:1024A0000F000D2879D2DFE800F0227878211C781F
:1024B0007878262A38343000502832D006DC332889
:1024C00021D03D2809D03F2867D109E0512867D0A5
:1024D00052287DD05328F7D1C1E0002008B010BDAC
:1024E000F1E013F013FD26F059FDECE0EBE013F002
:1024F000F9FC0020F2E700200CF0A0F9E3E0012055
:102500000CF09CF9DFE00020E8E70320FFF74CFF28
:10251000D9E00220FFF748FFD5E00120FFF744FF94
:10252000D1E001A835F097F90798B0F5FA6F02DA13
:102530000020079003E00798A0F5FA6007900A21B1
:10254000049890FBF1F201FB12000A22049991FB1E
:10255000F2F100EB01105D4908700A21069890FB2A
:10256000F1F201FB12000A22069991FBF2F100EB55
:102570000110564948700A21079890FBF1F201FBBF
:1025800012000A22079991FBF2F100EB01104F496A
:1025900088700598C87001E08DE08FE001209DE70C
:1025A00001A835F058F90A21039890FBF1F201FBDC
:1025B00012000A22039991FBF2F100EB0110444949
:1025C00008700A21029890FBF1F201FB120000E072
:1025D00017E00A22029991FBF2F100EB01103C494D
:1025E00048700A21019890FBF1F201FB12000A22C7
:1025F000019991FBF2F100EB011035498870002040
:102600006CE701A835F027F93048807800F00F001A
:102610002E498978091101EB810100EB410000F599
:10262000FA6007902948407800F00F002749497860
:10263000091101EB810100EB41000690234800786D
:1026400000F00F0021490978091101EB810100EB2D
:102650004100049001A835F02AF900203EE701A8C6
:1026600035F0F9F81A48007800F00F001849097899
:10267000091101EB810100EB4100039014484078FF
:1026800000F00F0012494978091101EB810100EBBC
:10269000410002900E48807800F00F000C498978C4
:1026A000091101EB810100EB4100019001A835F017
:1026B000FEF8002012E703F009FE0FE7214605A00F
:1026C00032F072FA00BF00BF002007E700000020D0
:1026D00004000020436F6D6D616E645F31202564DE
:1026E0000A0000002DE9F84F8046894615461E462F
:1026F000DDF828A0314800680090CB46A8F101041D
:10270000B8F1030F57DCBAF1000F02D00020AAF88D
:102710000000D5B909E02EB1284801680098081AD0
:10272000B04202D90020BDE8F88F04EB84102449A0
:1027300001EB0010C06804EB8411214A02EB011187
:1027400089688842E7D00120EDE7681C68B900205D
:1027500004EB84111A4A02EB0111886004EB841126
:1027600002EB0111C8600120DDE7B9F1000F11D1C2
:1027700004EB8410124901EB0010C06804EB8411D3
:102780000F4A02EB01118968884201D00120CAE793
:102790000020C8E700270AE032465946404631F09B
:1027A00051FD08B938B2BEE70BF1010B7F1CAF42F7
:1027B000F2DB2846B7E70020B5E70000E400002080
:1027C000140300202DE9F04705460E4617469946AA
:1027D000B046032D0EDC002407E098F800102846D0
:1027E00031F0CCFE08F10108641CBC42F5DB01208D
:1027F000BDE8F0870020FBE770B5002500BF0E485C
:10280000806800F400544FF47A7035F007F90A48F4
:10281000806800F40056B44204D16D1C1CB1022D36
:1028200001DD02E00025322DE9DB00BF0CB90120FB
:1028300070BD0020FCE700000010014030B50246EA
:1028400000200FE00B7801248440234023B1312481
:10285000431D064DEC5403E03024431D034DEC545E
:10286000431C18B20828EDDB30BD0000305F0020AB
:1028700000BFFEE710B503200EF0C4F908B1012037
:1028800010BD064890F84F0120F01400034981F86C
:102890004F01F52081F84E010020F1E78B35002033
:1028A0002DE9F84F81468846404610F0DDFD0025B1
:1028B00081E020214448FDF7A1FC422042490870F4
:1028C0000E2048704148007828448870B8F1060FFF
:1028D00002D0B8F1050F07D13B48C01C3C490A683B
:1028E00002608988818006E03748C01C39490A683F
:1028F0000260898881803448093037490A6802605B
:10290000898881800224002704E02F48005D384434
:10291000C7B2641C2C484078401CA042F5DC2A4811
:102920004078401C28490F5402200BF071FF00230F
:10293000102225490320FFF745FF4FF0000A00262B
:102940000EE000200090C6F1130002B21E4881196B
:1029500032230320FFF7C6FE304406B20AF1010A13
:10296000BAF10A0F01DA132EEBDB0224002704E090
:102970001548005D3844C7B2641C122CF8DB1248BD
:102980000078422809D110484078112805D10E4816
:10299000807CB84201D1132E04DA00270020C9F848
:1029A00000000DE0012709EB051010220649891CE3
:1029B000FDF70BFC6D1C094800788542FFF679AFE6
:1029C00000BF3846BDE8F88FA71A00207502002026
:1029D0009AC5030894C50308A0C503087602002021
:1029E0002DE9F84380460E460025304610F03CFDA8
:1029F000002464E020213548FDF700FC42203349E3
:102A000008701E2048703248007820448870062ED6
:102A100001D0052E07D12D48C01C2E490A6802603E
:102A20008988818006E02948C01C2B490A68026019
:102A3000898881802548093028490A680260898888
:102A4000818008EB04111022801DFDF7BEFB0227D8
:102A5000002504E01D48C05D2844C5B27F1C1B480A
:102A60004078401CB842F5DC18484078401C1749B3
:102A70000D5402200BF0CCFE00232022134903202A
:102A8000FFF7A0FE0A2516E00020322303220F499B
:102A900000901046FFF726FE0C480078422808D127
:102AA0000A484078012804D108488078592800D184
:102AB00003E0681EC5B2002DE6D100BF641C0848C3
:102AC0000078844296DB2846BDE8F883A71A0020E8
:102AD000750200209AC5030894C50308A0C5030821
:102AE0007602002070B50446062034F0F7FF204639
:102AF00035F008F834F0EAFF0546102102480DF0E1
:102B00007FFF284670BD00000008014010B5192065
:102B100034F0E4FF022034F04FFA34F0D7FF0446DB
:102B200034F0D4FF04EB002084B2102102480DF0F1
:102B300067FF204610BD00000008014070B5002569
:102B40000024272034F0CAFF10210C480DF058FF54
:102B50000FE00A2034F020FA00F07AF80446102C36
:102B600000D007E02846691CCDB2C82801DDFA2054
:102B700070BDEEE700BF2046FAE700000008014004
:102B800070B50446232034F0A9FF002505E014F8B1
:102B9000010B34F0B7FF681CC5B2042DF7DB102120
:102BA00001480DF02DFF70BD0008014070B50446CE
:102BB000222034F093FF002505E014F8010B34F0D7
:102BC000A1FF681CC5B2042DF7DB102101480DF0F0
:102BD00017FF70BD0008014070B50446242034F092
:102BE0007DFF002505E014F8010B34F08BFF681C15
:102BF000C5B2042DF7DB102101480DF001FF70BDB7
:102C00000008014070B50546002600243D2034F040
:102C100065FF284634F076FF10210C480DF0F0FED9
:102C20000FE0052034F0B8F900F012F80446102C3B
:102C300000D007E03046711CCEB2C82801DDFA2072
:102C400070BDEEE700BF2046FAE700000008014033
:102C500010B52C2034F042FF34F038FF0446102128
:102C600002480DF0CDFE204610BD000000080140D6
:102C70002DE9F04107460C4615460CB9BDE8F08138
:102C80003C2034F02BFF384634F03CFFE0B234F007
:102C900039FF201234F036FF012034F08DF9002680
:102CA00005E034F013FF28706D1C701C86B2A6423C
:102CB000F7DB102102480DF0A3FE00BFDEE70000A5
:102CC0000008014070B505463B2034F007FF284658
:102CD00034F018FF34F0FAFE044634F0F7FE04EB4B
:102CE000002084B2102102480DF08AFE204670BDFB
:102CF0000008014070B50446302034F0EFFE204655
:102D000034F000FF022034F057F934F0DFFE0546BE
:102D1000102102480DF074FE284670BD00080140E5
:102D200010B56520FFF7DEFE04469A2C01D0FA208C
:102D300010BD0948FFF73AFF0748001DFFF720FFC5
:102D400005480830FFF748FF642034F025F9FFF705
:102D5000F5FE04462046EBE75890002010B50446E7
:102D6000582034F0BBFE204634F0CCFE10BD10B528
:102D70000446562034F0B2FEE0B234F0C3FEC4F391
:102D8000072034F0BFFEC4F3074034F0BBFE200E32
:102D900034F0B8FE10BD10B50446572034F09EFE46
:102DA000E0B234F0AFFEC4F3072034F0ABFEC4F35E
:102DB000074034F0A7FE200E34F0A4FE10BD000042
:102DC00070B5054600260024352034F087FE2846DD
:102DD00034F098FE10210C480DF012FE0FE0052093
:102DE00034F0DAF8FFF734FF0446102C00D007E087
:102DF0003046711CCEB2C82801DDFA2070BDEEE766
:102E000000BF2046FAE70000000801402DE9F0412C
:102E100007460D461446392034F060FE384634F03B
:102E200071FEE0B234F06EFE201234F06BFE00262C
:102E300005E015F8010B34F065FE701C86B2A64261
:102E4000F7DB102102480DF0DBFDBDE8F08100004A
:102E50000008014070B505460C46312034F03EFEB6
:102E6000284634F04FFE14F8010B34F04BFE14F8F2
:102E7000010B34F047FE14F8010B34F043FE14F854
:102E8000010B34F03FFE102101480DF0B9FD70BD7B
:102E90000008014070B505460C46322034F01EFE95
:102EA000284634F02FFEE0B234F02CFE201234F02D
:102EB00029FE102101480DF0A3FD70BD000801405E
:102EC00070B505460C46342034F008FE284634F030
:102ED00019FE204634F016FE102102480DF090FD38
:102EE00070BD00000008014070B505460C46332057
:102EF00034F0F4FD284634F005FEE0B234F002FE72
:102F0000201234F0FFFD102101480DF079FD70BD55
:102F10000008014010B525490020FFF79BFF022162
:102F20000020FFF7CDFF2148818A0020FFF7B2FF84
:102F30001E48C18A0020FFF7D7FF0020FFF740FF9F
:102F40000446202C0AD10020FFF75CFE04462046F0
:102F500034F02AFB0020FFF733FF0446204634F00C
:102F600023FB03210120FFF7ABFF1148C18A012099
:102F7000FFF7BAFF0120FFF723FF0446202C0AD1F8
:102F80000120FFF73FFE0446204634F00DFB0120F0
:102F9000FFF716FF0446204634F006FB012000F040
:102FA00009F80446204634F0FFFA10BD7C9000205A
:102FB0003890002070B5054600260024362034F0F5
:102FC0008DFD284634F09EFD10210C480DF018FDB3
:102FD0000FE0052033F0E0FFFFF73AFE0446102C27
:102FE00000D007E03046711CCEB2C82801DDFA20BF
:102FF00070BDEEE700BF2046FAE700000008014080
:1030000000B587B00121080326F02AF80121042029
:1030100026F026F818208DF81B0003208DF81A00E2
:10302000A020ADF8180006A920480DF013FC0420DC
:103030008DF81B004020ADF8180006A91B480DF0C4
:1030400009FC1020ADF818008DF81B0003208DF846
:103050001A0006A915480DF0FDFB102113480DF0CC
:10306000CFFC0020ADF804004FF48270ADF80600EC
:103070000020ADF80800ADF80A00ADF80C004FF4E0
:103080000070ADF80E000820ADF810000020ADF87B
:1030900012000720ADF8140001A9054829F078F9BD
:1030A0000121034829F068F907B000BD000801407C
:1030B000003001400FB42DE9F0479AB007464FF0B9
:1030C000000A8C480168039141680491007A8DF8E8
:1030D0001400BDF88C0042F2107188421FDA864855
:1030E000B0F8995ABDF88C00A0F59850893881B293
:1030F0008148A0F8991A2F2200F64D410EA8FDF73D
:1031000064F826F063FB7D4890F823A07A48A0F885
:10311000995A2F220EA97948FDF757F822E0BDF8F9
:103120008C00A0F51C5011381FFA80F87248B0F8D6
:10313000995A404627F034F981B26F48A0F8991A9D
:103140002F226E490EA8FDF740F826F03FFB6B4892
:1031500090F823A06848A0F8995A2F220EA9674832
:10316000FDF733F801260024B5E00AEA060000283E
:103170007ED0614890F87B9A112200F6535109A83D
:10318000FDF723F85C4880F87B4A27F0CFF95948CF
:103190000168069141680791007A8DF8200058482F
:1031A000B0F80D10ADF81910C07B8DF81B00514818
:1031B0000168039141680491007A8DF8140026A8F3
:1031C00007C803AB07C34E48007C00F00100A8B954
:1031D00004208DF8180006A903A814F03BFD002177
:1031E00003A828F00DFA03A90120FEF78BFB9DF838
:1031F0000C0040F080008DF80C0060E00DF18F01B4
:1032000003A814F027FD002103A828F0F9F903A969
:103210000120FEF777FB9DF80C0020F080008DF870
:103220000C0038480168009141680191007A8DF8DE
:103230000800354890F8DC0340F02001324880F85F
:10324000DC13A0F696202B490A6802604A684260A7
:10325000097A0172002003F0F3F82B4890F8DC03A0
:1032600020F02001284880F8DC139DF80C1000E0C5
:103270002DE0A0F5805080F84615224903A82BF0D8
:1032800087FA204800990160019941609DF8081073
:10329000017203A807C88DE807001C4906A8FDF7BE
:1032A00053FC04208DF8180006A968460AF032FE87
:1032B000684628F03DFA694603A82BF069FA0E48E3
:1032C00080F87B9A112209A90D48FCF77EFF700651
:1032D000060E601CC4B2082CFFF647AF0398386096
:1032E000049878609DF8140038721AB0BDE8F007B1
:1032F0005DF814FBDCC10308C82A00201537002044
:103300001B3800200E500020C85A002009C20308B4
:103310002DE9F043CFB005464FF480716846FCF7C5
:103320006DFFFE480168499141684A91007A8DF825
:103330002C01FA481B300168469141684791007A98
:103340008DF82001F5485A30016843914168449155
:10335000007A8DF81401F248B0F8AF8AB0F8999A63
:1033600000269DBBEF4801684C9141684D91007A61
:103370008DF83801EB480168409141684191007A2D
:103380008DF80801E5483630016840914168419167
:10339000007A8DF80801E44940A814F05BFCE3488A
:1033A000407800F0080028B99DF8000180F0800006
:1033B0008DF80001DA4890F8680A002805D09DF8D9
:1033C000000180F080008DF80001CAE0FFE7022DC7
:1033D000FBD1D44801684C9141684D91007A8DF839
:1033E0003801D0480168409141684191007A8DF8D8
:1033F0000801CA4836300168409141684191007A1D
:103400008DF80801002488E0C4EB4411C848084442
:10341000008841F2883188426ADDC4EB4411C44817
:103420000844008842F21071884213DDC4EB441155
:10343000BF4808440088A0F51C50113881B2B84834
:10344000A0F8AF1A26F028FEB548B0F8BD1AA0F8CB
:10345000991A0BE0C4EB4411B54808440088A0F564
:103460009850893881B2AE48A0F8991A26F0AEF982
:10347000AE48407800F0400020B9AC48407800F0F9
:103480008000C0B1A948407800F0400030B1A748A2
:103490002F3890F8220000F0400060B9A34840782F
:1034A00000F0800030B1A1482F3890F8220000F0E1
:1034B000800000B92FE0C4EB44119D48084450F847
:1034C000151F4C9141684D91007A8DF8380106F036
:1034D000020038B19DF8300180F080008DF8300195
:1034E00026F002064CA98D480930FDF72DFB11E0AE
:1034F000C4EB44118E480844008840F22F118842E2
:1035000007D0C4EB44118A4808440088B0F5977F7F
:1035100000D100E000BF601CC4B28148D0F8CB0DE0
:10352000A0423FF771AF834940A814F093FB7B4959
:10353000093140A80AF0EEFC7C48407800F0080011
:1035400028B99DF8000180F080008DF800017448D2
:1035500090F8680A28B19DF8000180F080008DF88D
:1035600000010024EEE1C4EB4411714808440088D6
:1035700041F28831884278DD26F00106C4EB44111F
:103580006B480844008842F21071884215DD46F00D
:103590000106C4EB4411664808440088A0F51C509D
:1035A000113881B25E48A0F8AF1A26F075FD5C486C
:1035B000B0F8BD1AA0F8991A0BE0C4EB44115C48AE
:1035C00008440088A0F59850893881B25448A0F882
:1035D000991A26F0FBF8042D48D154482F3890F85A
:1035E00023001DF80000012807D0002701204F49C3
:1035F0002F3991F823100DF80100484849990160CE
:103600004A9941609DF82C1101724848407800F0B9
:10361000400050B94548407800F0800028B9002F9C
:1036200002D101F069F9012749E14048407800F0F2
:10363000400030B13D482F3890F8220000F04000A3
:1036400068B93A48407800F080000028ECD037484C
:103650002F3890F8220000F080000028E4D0002FDE
:10366000E2D101F049F9012729E1BEE02F48407875
:1036700000F0400020B92D48407800F08000C0B133
:103680002A48407800F0400030B128482F3890F8A0
:10369000220000F0400060B92448407800F080002B
:1036A00030B122482F3890F8220000F0800000B995
:1036B00046E1012D57D1C4EB44111D480144174880
:1036C0001B30CA6802600A694260097D017206F017
:1036D000020038B19DF8300180F080008DF8300193
:1036E00026F00206C4EB441211481044C11C0B48DA
:1036F0001B3014F0AFFAC4EB44120D48104400F133
:10370000150106481B302BF043F8044800F11B015B
:103710000A6802604A684260097A0DE0F34F0020AF
:10372000C82A0020DCC1030812C203084437002065
:103730009738002024C203080172C4EB44119B484F
:1037400001449B4851F8032F02604A684260097A9D
:103750000172A0F2855090F8850580F080019548AF
:1037600080F88515ABE0C4EB44119048084450F84C
:10377000151F4C9141684D91007A8DF8380106F083
:10378000020038B19DF8300180F080008DF83001E2
:1037900026F0020640A94CA814F05CFA86494CA811
:1037A0000AF0B8FB00214CA827F02AFF4CA9012001
:1037B000FEF7A8F87E483F384C9901604D9941606A
:1037C0009DF8381101721B384C9901604D99416088
:1037D0009DF838110172C4EB44127449114401F18F
:1037E00015004CA9FDF7B0F969E0C4EB44116F482E
:1037F00008440088B0F5FA7F1FDDC4EB44116B4824
:1038000008440088B0F5FC7F17DC012D15D1C4EB0E
:1038100044116648014466483F38CA6802600A6934
:103820004260097D01721B3800F11B010A680260C9
:103830004A684260097A017241E0C4EB44115B4876
:1038400008440088B0F5FC7F0ADDC4EB44115748FA
:1038500008440088B0F5FE7F02DC012D00D16FE046
:10386000C4EB4411514808440088B0F5FE7F0ADDDE
:10387000C4EB44114D4808440088B0F5FF7F02DCDA
:10388000012D00D15CE0C4EB441148480844008895
:10389000B0F5977F02D1042D00D051E044483F3865
:1038A00046490A6802604A684260097A01721B3818
:1038B00042490A6802604A684260097A01721DB989
:1038C0003F4890F8680A38B139483C490A680260B4
:1038D0004A684260097A0172042D30D0394890F864
:1038E0002010A0F6AE40B0F84D03814206DA35480C
:1038F00090F820103248A0F89B1A03E000213048CD
:10390000A0F89B1A2E4890F84B0A082804D02C489F
:1039100090F84B0A092809D1FDF72CFB06F00100AD
:1039200008B1FDF761FCFDF769FA08E0FDF722FB3D
:1039300006F0010008B1FDF757FCFDF75FFA00BF84
:10394000601CC4B21E48D0F8CB0DA0423FF70BAEAE
:103950001B4890F8680A38B11848016840914168DE
:103960004191007A8DF8080111485A38499901604F
:103970004A9941609DF82C1101721B3046990160F3
:10398000479941609DF8201101723F3043990160D1
:10399000449941609DF8141101720948A0F8AF8A5A
:1039A000A0F8999A4FB0BDE8F08300009738002046
:1039B0004D500020C84A002024C20308DCC103087F
:1039C000C82A0020153700202DE9F04192B00446A6
:1039D0004FF00008002700251CB9FE490020FDF724
:1039E00091FF062C7ED1FB498739FA48FDF7ACF8E8
:1039F000F8492D3901F13600FDF7A6F8F5485A309F
:103A000003F090FB002853D0F249873901F1A2005E
:103A1000FDF79AF8EF495A31A1F13F002AF0B8FEBC
:103A2000ED4890F8DC0300F00100C8B1EB4890F8D5
:103A30006D04401E00EBC000E6497E31095CE84899
:103A400080F80C16E54991F86D14491E01EBC1018F
:103A500000F5C6628818A2F124012AF099FE1EE042
:103A6000DD4890F8DC0300F00200C0B1DB4890F8BC
:103A70006D04801E00EBC000D6497E31095CD84839
:103A800080F80C16D54991F86D14891E01EBC1011F
:103A900000F5C6628818A2F124012AF079FECD480B
:103AA0004E30D0490A68C2604A680261097A0175DD
:103AB000CA48613090F8680A002858D0C548633079
:103AC00003F030FB002852D0C249873901F1A2002F
:103AD000FDF73AF8BF496331A1F148002AF058FEDA
:103AE000BF4800E046E090F81566BB4890F8DC035C
:103AF00000F00100C8B1B94890F86D04401E00EB19
:103B0000C000B4497E31095CB54880F81516B34948
:103B100091F86D14491E01EBC10100F5C6628818C9
:103B2000A2F11B012AF034FE1EE0AB4890F8DC0342
:103B300000F00200C0B1A94890F86D04801E00EBAF
:103B4000C000A4497E31095CA54880F81516A34938
:103B500091F86D14891E01EBC10100F5C662881849
:103B6000A2F11B012AF014FE9D4880F8156612B0E0
:103B7000BDE8F081052C7DD1974890F8DC0300F07A
:103B80000100A8B3954890F86D04801E00EBC000BA
:103B900090497E31084401680C9141680D91007A8A
:103BA0008DF838008D4890F86D04401E00EBC00081
:103BB00088497E3108440168069141680791007A7E
:103BC0008DF82000482183487E30FCF717FB83489E
:103BD00090F86D04801E00EBC0007E497E310844E1
:103BE0000C9901600D9941609DF8381001723BE01D
:103BF000FFE7794890F8DC0300F00200A0B37748B3
:103C000090F86D04401E00EBC00072497E310844FC
:103C100001680C9141680D91007A8DF838006F4869
:103C200090F86D04801E00EBC0006A497E310844A4
:103C30000168069141680791007A8DF820004821BB
:103C400064487E30FCF7DAFA644890F86D04401E50
:103C500000EBC0005F497E3108440C9901600D996A
:103C600041609DF8381001725E4801680C9141680E
:103C70000D9100E043E2007A8DF83800564890F844
:103C8000DB0338B1564890F8DF0580F080015448D6
:103C900080F8DF15504890F8DC0300F00100E8B12F
:103CA0004E4890F86D04401E00EBC00049497E313B
:103CB000014448482D3002680A6042684A60007A30
:103CC0000872464991F86D14491E01EBC101414A41
:103CD0007E32881806A9FCF737FF22E03E4890F8AC
:103CE000DC0300F00200E0B13C4890F86D04801E57
:103CF00000EBC00037497E31014436482D30026860
:103D00000A6042684A60007A0872344991F86D147A
:103D1000891E01EBC1012F4A7E32881806A9FCF7E3
:103D200013FF3148807800F01000002878D029482F
:103D30000168069141680791007A8DF820002548B6
:103D40002D300168039141680491007A8DF81400C8
:103D500003A906A8FCF7F8FE1F4890F8DC0300F062
:103D6000100020BB2E2019F071F81E480168009148
:103D700041680191007A8DF80800202240211B48FB
:103D8000FCF735FA1AA11948FCF77DFA694617487D
:103D900017F0F0F9202240211448FCF728FA18A166
:103DA0001248FCF770FA6946104817F0E3F90A4820
:103DB00090F8DC0300F0010000287DD02022402193
:103DC0000A48FCF714FA11A10848FCF75CFA0CA9A0
:103DD000064826E07A500020C85A0020672A0020B2
:103DE000C84A0020DCC10308846B0020305F00203B
:103DF00056415441424C452053414C45530000002C
:103E000056415420414D4F554E5400005A45524F93
:103E10002052415445442053414C4553000000007A
:103E2000E0E017F0A7F920224021FC48FCF7DFF979
:103E3000FBA1FA48FCF727FAFE48816E0391C16E98
:103E4000049190F870008DF81400FA480699816684
:103E50000799C1669DF8201080F8701003A906A884
:103E60002AF096FC06A9ED4817F084F9202240219B
:103E7000EA48FCF7BCF9F0A1E848FCF704FAED4980
:103E80005F31E64817F076F9EA48A73003F04AF9BF
:103E900028B1E849A731A1F15A00FCF755FEE548E1
:103EA000553801680C9141680D91007A8DF8380001
:103EB000E0484338016800E02CE00091416801913E
:103EC000007A8DF80800DB4855380699016007999B
:103ED00041609DF820100172123000F1A2010A68C1
:103EE00002604A684260097A01721C2005F092F96A
:103EF000D04855380C9901600D9941609DF83810F3
:103F00000172123000990160019941609DF808101A
:103F1000017267E0CD4890F8DC0300F00200002851
:103F200060D020224021BD48FCF761F9AFF2241196
:103F3000BA48FCF7A8F906A9B84817F01BF92022DF
:103F40004021B648FCF753F9B5A1B448FCF79BF9FA
:103F50000CA9B24817F00EF9B648A73003F0E2F802
:103F600048B1B4489E3000F109010A6802604A680D
:103F70004260097A0172AF4855380168039141687F
:103F80000491007A8DF81400AA4843380168009122
:103F900041680191007A8DF80800A64855380699C5
:103FA0000160079941609DF8201001721230A84904
:103FB0000A6802604A684260097A01721D2005F0B1
:103FC00029F99C48553803990160049941609DF88E
:103FD00014100172123000990160019941609DF83E
:103FE0000810017293495F31A1F12D00FCF7ACFD7F
:103FF00090495F31A1F11B00FCF7A6FD8D495F31AF
:1040000001F11200FCF7A0FD8A485F3090490A6870
:1040100002604A684260097A0172B43801680C9102
:1040200041680D91007A8DF8380082483A3801686D
:10403000069141680791007A8DF820007D4829306B
:104040000168039141680491007A8DF81400794861
:1040500043380168009141680191007A8DF80800A9
:10406000744829307A490A6802604A684260097ACD
:1040700001726C3876490A6802604A684260097ABF
:104080000172123800F1C6010A6802604A68426093
:10409000097A01721B3000F1AB010A6802604A68BC
:1040A0004260097A0172FCF765FF624855380C9945
:1040B00001600D9941609DF8381001721B3006991E
:1040C0000160079941609DF82010017263300399E7
:1040D0000160049941609DF8141001726C380099D8
:1040E0000160019941609DF808100172B43058498F
:1040F0000A6802604A684260097A017237E54D48F1
:1041000000F132010A6842644A688264097A80F8E0
:104110004C10504890F86D0400287DD04D48613017
:1041200090F8580A002877D100BF00214948613033
:1041300080F87B1AFEE226F0F9F94748007C00F08F
:104140000800F0B1022D1AD13A4855380F99016094
:10415000109941609DF8441001723E48613090F81A
:104160007B0A00EBC0003349B03101443148553877
:1041700002680A6042684A60007A087215E0012508
:10418000D0E2022D00D1CDE23248613090F87B0AB6
:1041900000EBC0002749B0310144264855380A6871
:1041A00002604A684260097A01722248433828490D
:1041B0000A6802604A684260097A0172093024493B
:1041C0000A6802604A684260097A01722048016800
:1041D000099141680A91007A8DF82C0015485538EC
:1041E00002F0A0FF00287DD01248401D18490A683F
:1041F00002604A684260097A01721749B1F80D20DD
:10420000A0F80120C97BC1701348007C00F00100B8
:10421000002868D1074821E004E30000305F002057
:10422000564154204558454D50542053414C455318
:104230000000000048500020564154204558454D8C
:10424000505420414D4F554E54000000C85A002094
:10425000DCC10308672A00201B3800204338A0F186
:1042600012010A6802604A684260097A01720421F8
:10427000A0F23D5080F8851500F2855100F23D50C6
:1042800013F0E8FC0021FE4827F0BAF9FC490120B0
:10429000FDF738FBFA4901F18700FCF755FC022CC9
:1042A00027D1F848807800F0100018B3F44901F1E4
:1042B0007500FCF749FCF2480168099141680A91D0
:1042C000007A8DF82C009DF8240040F080008DF8D5
:1042D0002400EB489030099901600A9941609DF8EB
:1042E0002C1001E0F7E01EE0017209A91230FCF782
:1042F0002BFCC0E0E4480168099141680A91007A0A
:104300008DF82C00E0480168069141680791007A19
:104310008DF82000DC480168039141680491007A1F
:104320008DF81400A7E0032C01D0022CE1D1D44871
:10433000A0F112010A6802604A684260097A0172BB
:1043400048304078992813D1CD4848308078992852
:104350000ED1CB484830C078992809D1C8480930D7
:10436000C9490A6802604A684260097A017282E0BB
:10437000C3480930A0F11B010A6802604A68426024
:10438000097A0172C1493F30FCF7DEFB0421C048C5
:1043900080F8851500F2855100F2465009F0BAFD0B
:1043A000B748093027F0C4F9B5490931B4482AF0B3
:1043B000EFF9B3490FA82AF0EBF9B248807800F082
:1043C0001000E0B3AE4812380168099141680A91C3
:1043D000007A8DF82C00AA481238016803914168D0
:1043E0000491007A8DF81400A548483001680691C0
:1043F00041680791007A8DF82000A149483106A84C
:1044000005F082FC002836DC06A903A809F082FD2D
:1044100003A827F08DF903A909A82AF0B9F99DF896
:10442000240040F080008DF824009549123901F1F4
:10443000A200FCF789FB09A99148A23000E002E044
:10444000FCF782FB17E090480168099141680A91E6
:10445000007A8DF82C008C4801680691416807911C
:10446000007A8DF820008848016803914168049122
:10447000007A8DF814000CB1042C2CD1804801680E
:10448000009141680191007A8DF80800814890F808
:104490007B0A062804D07F4890F87B0A072808D1B9
:1044A000774800F190010A6802604A684260097A20
:1044B0000172FDF7C5F8784890F8DC0340F0200160
:1044C000754880F8DC136E480099016001994160DD
:1044D0009DF8081001726A48123802F023FE20B9D4
:1044E0006C4890F87B0A06287ED1022CFCD16B48E0
:1044F000007C00F00200002877D0614802F012FE34
:1045000028B96648007C00F004000028F4D0624816
:1045100090F8DC0340F010015F4880F8DC132E2097
:1045200018F094FC1B2004F075FE5C48007C00F041
:10453000100008B3AFF248715948FBF7A4FE564883
:1045400090F8DC0300F0080060B14F48016800916A
:1045500041680191007A8DF808006946504816F0CC
:1045600009FE1CE04B4890F87B0A062805D1444917
:1045700009314B4816F0FEFD11E04848007C00F080
:10458000010028B93E491239454816F0F3FD06E00E
:104590003B490931424816F0EDFD4FF00108202259
:1045A00040213F48FBF723FE374801680C914168E2
:1045B0000D91007A8DF838003848B0F80D00ADF84C
:1045C00031003748AFF2C8710A6802604A68426039
:1045D000098901810020324988742F4890F8DC0352
:1045E00000F0080078B101E06CE09AE0264801682C
:1045F000009141680191007A8DF8080069462848C9
:1046000016F0B8FD08E0234890F87B0A062803D08E
:104610001B49234816F0AEFD87BB1F4890F8DC030A
:1046200000F0010048BB1C4890F8DC0300F00200D9
:1046300018BB15480168009141680191007A8DF816
:104640000800202240211648FBF7D1FDAFF64401B7
:104650001348FBF718FE6946114816F08BFD20221F
:1046600040210F48FBF7C3FDAFF24C410C48FBF76C
:104670000AFE69460A4816F07DFD13E013E00000CB
:1046800005500020846B0020DCC1030809C2030828
:10469000C84A0020C82A0020C85A00201B38002021
:1046A000305F002001278948807800F01000C0B3F7
:1046B000202240218648FBF79AFD86A18448FBF71B
:1046C000E2FD2EE0032C2CD18548007C00F0010097
:1046D000F0B18348007C00F00200C8B1814802F0CC
:1046E00021FD20B97E48007C00F0040080B17D49A6
:1046F00012317B4816F03EFD7948007C00F0100036
:1047000030B17949D1F8540276491B3116F032FDA7
:104710007448123075490A6802604A684260097A32
:10472000017200BF724890F87B0A401CC1B2704809
:1047300080F87B1A6E4890F87B1A613890F86D0407
:104740008142FFF6F8AC022C56D16A4890F8DC039F
:1047500000F01000F0BB674890F8DC0300F00100A7
:10476000C0BB644890F8DC0300F0020090BB2E2030
:1047700018F06CFB5D480168009141680191007A76
:104780008DF80800202240215148FBF730FDAFF69C
:10479000A0114F48FBF777FD69464D4816F0EAFC3B
:1047A000202240214A48FBF722FDAFF6AC114848D1
:1047B000FBF769FD6946464816F0DCFC20224021E3
:1047C0004348FBF714FDAFF6BC114148FBF75BFD16
:1047D000694600E010E03E4816F0CCFC2022402163
:1047E0003B48FBF704FDAFF2C8513948FBF74BFDDE
:1047F0006946374816F0BEFC012D11D1394999316F
:104800000020FDF77FF837485530416C0F91816CDF
:10481000109190F84C008DF844000225002784E4A4
:1048200000BF00BF2F48F33002F07CFCF0B30CB1A6
:10483000042C40D12B48123001680091416801914D
:10484000007A8DF808002B4890F8DC0300F0010096
:1048500080B10721264880F87B1A2248123000F1E7
:10486000E1010A6802604A684260097A0172FCF755
:10487000E7FE15E01F4890F8DC0300F0020078B175
:1048800006211B4880F87B1A1648123000F1E1011E
:104890000A6802604A684260097A0172FCF7D0FE39
:1048A0001048123000990160019900E003E0416076
:1048B0009DF8081001720E4890F85B0A20B909496A
:1048C00099310020FDF71EF800BF17E4846B00202B
:1048D000305F00204C4553532056415400000000E7
:1048E0001B380020F34F00208CB00308DCC1030804
:1048F000C82A0020C85A002010B58AB05E48407807
:1049000000F00400002853D15C480168019141681F
:104910000291007A8DF80C00594901A813F09AF918
:10492000002442E054482F3890F823000121A14090
:104930000840C0B304EBC4005049CF3108440168BB
:10494000079141680891007A8DF8240001A907A811
:1049500013F080F94B4907A809F0DCFA002107A8F9
:1049600026F04EFE07A90120FCF7CCFF4248407814
:1049700000F0080028B99DF81C0080F080008DF838
:104980001C00414890F8680A28B19DF81C0080F08E
:1049900080008DF81C0004EBC401384ACF3288181F
:1049A00007A9FCF7D1F8601CC4B2082CBADB60E0A0
:1049B00032486138416B0791816B089190F83C0057
:1049C0008DF8240007A802F0ADFB002851D0002488
:1049D0004DE029482F3890F823000121A1400840DC
:1049E000002842D004EBC401244ACF32881802F0D8
:1049F00099FBD0B304EBC401204ACF32881802F0EF
:104A000091FB90B304EBC4001C49CF31084401680A
:104A1000049141680591007A8DF81800194904A89D
:104A200013F018F907A904A809F074FA13493639E4
:104A300004A813F00FF9134904A809F06BFA002138
:104A400004A826F0DDFD9DF8100000F0FC008DF8B4
:104A5000100004A90120FCF755FF04EBC401074A2C
:104A6000CF32881804A9FCF76FF8601CC4B2082C78
:104A7000AFDB0AB010BD00004437002029500020F1
:104A800012C2030824C20308C82A00200246914229
:104A900001DD00207047531A03EBD370C0F34700C9
:104AA000F8E7000010B5464890F8BF0F30B1012874
:104AB00020D002283AD0032871D153E0414890F821
:104AC0004A0A30B1012808D002280AD003280DD1A3
:104AD00008E03D48FDF75AFC0AE03B48FDF73EFC84
:104AE00006E005E03848FDF715FC01E0002010BDA8
:104AF00000BF56E0334890F84A0A30B1012805D08B
:104B000002280BD003280DD104E00DE02E48FDF75C
:104B100001FC09E02C48FDF7FDFB00BF2A48FDF72A
:104B200011FC01E00020E2E700BF3AE0254890F8E0
:104B30004A0A30B1012808D002280AD003280DD132
:104B40000BE02148FDF70AFC00BF1F48FDF71EFCE3
:104B500006E01D48FDF702FC02E001E00020C6E788
:104B600000BF1EE0174890F84A0A30B1012808D06B
:104B7000022807D003280DD108E01348FDF7EEFB0B
:104B80000AE009E01048FDF7C5FB05E00E48FDF717
:104B9000D9FB01E00020AAE700BF02E0FFE7002008
:104BA000A5E700BF094890F8610500F0F801074843
:104BB00080F861150021034880F84A1A012096E721
:104BC000C81A0020C82A002029500020C84A002006
:104BD00010B5124890F84A0A30B1012808D00228CE
:104BE0000AD003280DD108E00D48FDF7CFFB0AE0FD
:104BF0000B48FDF7B3FB06E005E00948FDF78AFB2B
:104C000001E0002010BD00BF0221064880F86115B8
:104C10000021024880F84A1A0120F3E7C82A002040
:104C200029500020C84A002070B50446257805F0B8
:104C30000F0020B1012806D002280CD107E0204641
:104C4000FDF78CFB00BF2046FDF788FB00BF204628
:104C5000FDF784FB00BF00BF257070BD0EB528486E
:104C600090F94E01002802DA4FF0FF300EBD00200F
:104C700026F09CFD2248D0F842010A21B0FBF1F257
:104C800001FB12001E4981F8490102200EF080FF4D
:104C900003200EF07DFF022219499031684631F061
:104CA0002BFF18496846FBF74FFF0222694614485C
:104CB000903009F095FD04200EF06AFFFF211048A6
:104CC00080F82A1001200EF063FF0F210C48CE302F
:104CD00026F039FD0A4981F8DD0004210A48FDF774
:104CE0007FFE10B96FF00800C0E705210648FDF708
:104CF00077FE10B90120FDF775FB0120B6E7000033
:104D00008B350020E5C10308A93600202DE9F047C6
:104D100006460C4615461F46681E00F00F0101208E
:104D2000884000F0FF0801203049087030480078C2
:104D300048B9207800EA080008B1012000E000200E
:104D4000401C2B4908702A480078022802DD012007
:104D50002749087026480078022808D187F0790092
:104D600024494871207840EA0800207007E087F065
:104D70006E0020494871207820EA080020701D4804
:104D80004079792807D11C48D0F83C151948C01C37
:104D9000FBF779FA06E01848D0F840151548C01C12
:104DA000FBF771FA154890F8BF1800231A460A203D
:104DB00028F02AF8104901EB86010868FF2200213B
:104DC00007F004FD05F0800068B10B4901EB860196
:104DD0000868FBF736FA814605F00F000123FF2231
:104DE000494608F075F8BDE8F0870000A2020020EF
:104DF000A0020020305F00208CB00308C84A0020C9
:104E000010B500F007F8024890F84D0A10BD0000F8
:104E1000C82A002010B510F049FD002856D00EF029
:104E2000DFFB0446412C3EDD802C13DA2848A0F835
:104E3000934A09E00EF0D4FB0446412C04DD802C9B
:104E400002DA2348A0F8934A2148B0F8930A83284D
:104E5000F0D03BE0802C0AD11D4890F8460A08B3F8
:104E600000211B4880F8461AA0F8971A2EE018482F
:104E700090F8460AA04229D0154880F8464AA4F185
:104E8000800081B21248A0F8971AB0F8971A6138DA
:104E9000B0F86C01814219DD00210D48A0F8971A85
:104EA00080F8461A12E00B4890F89F0FA0420DD1EF
:104EB000074890F8630A8A2808D0054890F8760ACF
:104EC00020B91B21024880F84D1A10BD00BFFCE735
:104ED000C82A0020C81A00207FB500216846FDF7C7
:104EE000DFFC0546CDB100240BE01DF8041004FBE7
:104EF00004F00A300A4A105C41400DF80410601CAE
:104F000004B2042CF1DB009E0648D0F84201B04206
:104F100001D1012000E000200546E8B204B070BDD8
:104F2000CBC503088B3500202A4A92F8E02F02F007
:104F30000F0100294CD097282ED008DC15280FD05F
:104F4000812813D0822817D0852837D11EE09A28CF
:104F500028D0CF282CD0E1282CD0F8282ED12BE037
:104F6000012901D15D2000E0402030E0022901D17B
:104F70007D2000E07E202AE0012901D17B2004E091
:104F8000062901D15D2000E0602020E0062901D142
:104F90007B2000E040201AE0062901D1602000E0DB
:104FA0007C2014E0022901D15D2000E05E200EE0AB
:104FB00024200CE07E200AE05B2008E07F2805DD4D
:104FC000B02803DA00F07F02034B985C00BF00BFFB
:104FD00070470000C81A002064CB030810B50446CF
:104FE000611CC8B2002211462FF02CF910BD000040
:104FF000F0B585B0044614B9474890F84D4AFF2CE7
:105000000CD10020FDF7EEF9434890F84D0AFF2837
:1050100003D10021404880F84D1A7BE03F480078DA
:10502000A0420DD1002C75D03D480068002871D1F8
:105030004FF4FA703A4908600120FDF7D3F969E0AE
:10504000002544B935480078002861D00021084681
:1050500032F0B2F85CE0AA1CD1B2E8B232F0ACF89F
:105060003049D1F8DC02FBF7ECF8C7B239460E2024
:10507000FFF70CFD401CC6B2EAB22A49D1F8DC02A7
:10508000314632F080F8002C1CDD642C1ADC04F16F
:10509000CE01244A02EB81010868FBF7D2F8C7B2BF
:1050A00039460E20FFF7F2FC401CC6B2691CCAB29A
:1050B00004F1CE011B4B03EB81010868314632F04D
:1050C00062F81EE0002000900190029003901549C4
:1050D000D1F8DC02FBF7B5F806461248D0F8DC122E
:1050E00032466846FBF771F8214668462FF04DFFBF
:1050F00000208DF80E00681CC2B20721684632F00D
:1051000042F84FF4FA70064908600120FDF76AF989
:105110000248047005B0F0BDC82A002074020020C7
:10512000EC0000208CB0030870B5FD4890F8695A77
:10513000A0F5805090F89F0FA84206D14FF4FA6175
:10514000F848A0F82315002070BDF548B0F8930A80
:1051500000F47F40B0F5706F03D0F14890F84D0A2D
:1051600008B10120F0E7F048007858B10021ED487F
:1051700080F861150822ED4900F2625029F082FAA8
:105180000EF0C6F9284615F0FFF908B10120DBE75B
:10519000E548007848B1E6480078162805D1E5488A
:1051A0000078022801D1062412E0E1480078162890
:1051B0000AD1E0480078042806D10624DD480078AA
:1051C000401EDC49087003E028460BF0E7FE044669
:1051D000D34890F83D0A38B10E2C05D00021D048B4
:1051E00080F8691A0120AFE7CD4890F8620A18B933
:1051F000CB4890F8540A58B1102C09DACE48007BFD
:105200001E2805D00E21C64880F84D1A01209BE7C4
:10521000C5480078A8B9C248B0F9890A00280CDA54
:10522000BF49B1F9890A002801DB014600E041428B
:105230000AB2BB49A1F8892A03E00021B848A0F8C6
:10524000891AE01E0C286FD2DFE810F074050C00FC
:105250002A05FD006E002905730526046E006E0008
:105260006E002904AE48B0F8930A00F47060D0B123
:10527000AB48B0F8930A00F47060B0F5706F0CD0D2
:105280000C220421084603F019FDAB48807A401E29
:10529000A7490978081AA64908708721A048A0F8EC
:1052A000931A012050E79E48B0F8930A892804D049
:1052B0009B48B0F8930A8A2837D1994890F82E0A6B
:1052C000401CC1B2964880F82E1A90F82E0A9A49CE
:1052D0000979884203DD0121914880F82E1A92480D
:1052E000007878B18E48B0F8890A30B18C48B0F9AE
:1052F000890A91490979884209DD0121884880F8A5
:105300004D1A10E3864890F82E1AA0F8891A84489E
:1053100090F8891A80F82E1A042008F031FB00203A
:1053200003F0CAFA01200FE7FEE381480078002865
:1053300034DD80480078002830DD8048007800287F
:105340002CDD7F48007818B101207749087004E00F
:105350000121734880F84D1AD3E779480078401C42
:105360007749087001207549087007F019FF08B9DE
:105370000020E9E66A4890F84D0A70B9714B1A7935
:10538000684B93F8BF186F4B987803F097FC6D4803
:105390008178FF226C4807F019FAB2E76048B0F94B
:1053A000890A66281ADD5E48B0F9890A6C2815DA80
:1053B0005B48B0F8890A6B2809D15948B0F8930ABC
:1053C000872804D00121564880F84D1A05E0544939
:1053D000B1F8891A88B201F061FF92E75048B0F83D
:1053E000890A40B14E4890F8890A401E5049087019
:1053F0000020524908704E48007810B14F4800789C
:1054000088B94D4800794A490978884202DD484800
:10541000007818B901204649087004E04448007833
:10542000401C434908700E2048490870042008F0C9
:10543000A7FA002041490870454908803D49087095
:105440003F4908705DE73648D0F88B0A20F4803178
:105450003348C0F88B1AB0F8930A892804D0304832
:10546000B0F8930A8A2835D12F480078A0B12C488B
:10547000B0F8890A30B12A48B0F9890A2E49097969
:10548000884204DD0121264880F84D1A39E7244876
:1054900090F8891A80F82E1A2148B0F8930A8928C2
:1054A00008D11F4991F82E1A01F2312188B21EF05D
:1054B000E9FD07E01A4991F82E1A01F2352188B268
:1054C0001EF030FE0121164880F82E1AFF2008F049
:1054D00057FA16E71248B0F8930A87287ED1164883
:1054E000007BE0B91448807A134908800846C07AE6
:1054F0000871002048710E48C1F8060001200873A9
:1055000014481549086003F0FCFB312008F038FA14
:105510000E200E490870002008490870F1E61DE0D1
:10552000C82A0020C84A0020A1020020145F0020E1
:105530009F0200209D020020AD5E00209E02002000
:10554000A002002004160020305F0020A2020020EC
:105550009602002081D9000868020020FE48007BE6
:105560001E2815D0FD48007890B9FB48D0F80600F9
:105570000178F948807A401E0844F94908700020F3
:10558000F8490880F8490870F8490870F849087027
:10559000F3480078002821D0F348007801287CD116
:1055A000F3480078002878D0EC48007810B901F072
:1055B00057FDE4E30021EF4880F86115E8480078E2
:1055C0001E2876D1EC4890F8020490B3EA48613086
:1055D000A0F8AF1A613890F8020400E093E1E449C2
:1055E0000978B1EB400F5FDC00221146E3A007F021
:1055F000EDF8E549DE4A1278891A481E0122022197
:1056000007F0E4F8E14901200CF05CFDDA49613172
:10561000A1F8AF0A0846B0F8AF0AA0B900210846C1
:1056200002F0DCF930B9DA4890F8AD0FD9490870CA
:10563000A5E33EE0D54900200CF044FDCE496131A0
:10564000A1F8AF0A1EE0CC486130B0F8930A89286F
:1056500018D0C948B0F8FD0301B2C7486130A0F8BE
:10566000891A0021012002F0B9F9C348B0F8FD13EE
:105670006130B0F9890A814204DAC54890F8AD0F6B
:10568000C4490870BC486130B0F8AF0A01B2BA48EA
:105690006130A0F8891A002000E02BE003F070F9D7
:1056A000012003F06DF904E00021B3486130A0F857
:1056B000891AB1486130B0F8890A40B1AE4861300A
:1056C000B0F8890A401E00B2A649088005E0012111
:1056D000A948613080F84D1A51E30020A3490870B1
:1056E000A34908700021A448613080F84D1A0120B8
:1056F0009A49087000259A480078462816D00CDC94
:105700003F2820D004DC182828D03B281AD175E087
:10571000402877D04528F9D184E0472858D0482838
:1057200074D04B2878D04C28F0D155E09A49D1F864
:10573000180100212FF0A8FC18B100218E48A0F814
:10574000FD130325BAE09449D1F8980801212FF000
:105750009BFC08B102F0D0FF0325AFE001238FA22C
:1057600019461A2011F090F80446012C06D18248FF
:1057700090F886030A2804DD672402E0022C00D199
:105780006624672C01D0662C20D1834901EB84016B
:10579000086801212FF078FCC0B1672C06D1802267
:1057A000824975486030FAF710FD05E08022804993
:1057B00071486030FAF709FD6F486130D0F88B0A04
:1057C00020F400716C486130C0F88B1A032575E035
:1057D00016F0A0FC032571E019F068FE89201AF08C
:1057E000BFFE8A201AF0BCFE17F060FB062023F0F3
:1057F000B9FE032562E005E008E00DE017F0DAF8F5
:1058000003255BE009F028F9032557E04FF48050A9
:105810000EF040F8032551E04FF400500EF03AF836
:1058200003254BE000BF012362A20021452011F0B7
:105830002BF80446002C3BDD0A2C39DC04F14C002B
:1058400084B2A4F14D000A2831D2DFE800F0050946
:105850000E12161A1E22262B02200EF01BF826E02E
:105860004FF480400EF016F821E001200EF012F8FF
:105870001DE008200EF00EF819E004200EF00AF8E2
:1058800015E010200EF006F811E020200EF002F8CE
:105890000DE040200DF0FEFF09E04FF480600DF0B8
:1058A000F9FF04E04FF400600DF0F4FF00BF00BF0B
:1058B0004FF6FE708442B6D1032500BF00BF15B37A
:1058C000032D14D12448807A401E25490978081AEE
:1058D0002349087000202149087022490880224984
:1058E00008702249087002F0E7FF01202CE4002133
:1058F0002148613080F83D1A254890F8AD0F2549C0
:105900000870012020E42E482E49086018480078CD
:1059100000BB1348007830B11748613090F88B0A0B
:1059200000F0080000B12AE20F480078401C0E4940
:10593000087000200D4908700B48007802285ADDD5
:10594000012026F037FF0B4890F8BF08032841D10B
:10595000012039E044E00000AD5E00209E020020FE
:105960009F020020960200209D020020A00200203D
:10597000A1020020C84A0020672A0020504C552070
:10598000434F444500000000165F00202A500020CD
:10599000C81A0020980200208CB003084B2E424FFA
:1059A000415244205459504500000000D4AD030832
:1059B000B19E030853454C454354204954454D007E
:1059C0007DD900086802002026F002FF0221002095
:1059D0000DF03EFEF24890F8BF08F249C8700AE0A8
:1059E000F148007810B9F148007820B90121F04859
:1059F00080F84D1AC3E10120EE49087007F0D0FB92
:105A000008B900204EE4EA4890F84D0AB0BBEA48D5
:105A1000007800283FDDE548007816283BD0E648AE
:105A2000007801280BDDDF4B1A79D978987803F0DC
:105A300045F9DC48C2788178E04806F0C7FEE048C6
:105A40000078D8B1DC480078401CDB4908700120A0
:105A500026F0B0FED24890F8BF08032806D10120F6
:105A600026F0B6FE022100200DF0F2FD002002F02B
:105A700023FF07F095FB10B9002013E40BE0CC489E
:105A8000B0F88B0A00F4807028B9C6488178FF22EC
:105A9000CA4806F09BFE72E123F066F86FE1C44845
:105AA000D0F88B0AC7490840C149C1F88B0A08469B
:105AB000B0F8930A4FF2860188421FD18621BC4874
:105AC000A0F8931A0020B9490870BF4890F84F0118
:105AD00000F00800BC4981F84F01002002F0ECFE04
