:020000040800F2
:10000000C0D00020450100086D7B01086D35010856
:10001000B17801081D290008E1470308000000002D
:1000200000000000000000000000000095DE020853
:1000300009A200080000000025A401080D0B030818
:100040005F0100085F0100085F0100085F01000810
:100050005F0100085F0100085F0100085F01000800
:1000600041E200085F0100085F0100085F0100082D
:100070005F0100085F0100085F0100085F010008E0
:100080005F0100085F0100085F0100085F010008D0
:10009000213E03085F0100085F01000879E20008C3
:1000A0005F0100085F0100085F0100085F010008B0
:1000B000250C0308DD0D03085F0100085F0100083F
:1000C0005F0100085F0100085F0100085F01000890
:1000D0005F010008B136030881370308713803084F
:1000E0005F0100085F010008B53B03085F010008DD
:1000F0005F0100085F0100085F0100085F01000860
:100100005F01000815D202085F0100085F010008C6
:100110005F0100085F010008ED0E030819100308D5
:100120005F0100085F0100085F0100085F0100082F
:10013000DFF80CD000F0EAFA00480047ED70030841
:10014000C0D000200648804706480047FEE7FEE78B
:10015000FEE7FEE7FEE7FEE7FEE7FEE7FEE7FEE777
:10016000950B0308310100082DE9F05F05460020DA
:1001700092469B4688460646814640241BE0284618
:1001800041464746224600F0C4F853465A46C01A34
:10019000914110D311461846224600F0ABF82D1AB3
:1001A00067EB01084F4622460120002100F0A2F82B
:1001B00017EB00094E41201EA4F10104DFDC484684
:1001C00031462A464346BDE8F09F40EA01039B07BB
:1001D00003D009E008C9121F08C0042AFAD203E0BC
:1001E00011F8013B00F8013B521EF9D27047D2B220
:1001F00001E000F8012B491EFBD270470022F6E710
:1002000010B513460A4604461946FFF7F0FF20468C
:1002100010BD421E12F8013F002BFBD111F8013B2B
:1002200002F8013B002BF9D1704710B5044604E0F9
:100230000B7800F8013B03B1491C521EF8D220464E
:1002400010BDCAB2401E10F8011F8A4202D0002918
:10025000F9D100207047421C10F8011B0029FBD186
:10026000801A704730B504460020034600E05B1C4E
:10027000934203D2E05CCD5C401BF8D030BD034616
:1002800011F8012B00F8012B002AF9D1184670470C
:1002900030B505460020034600E05B1C934205D2C2
:1002A000EC5CC85C201A01D1002CF6D130BD70B5D1
:1002B000064635F0F7F9046805460A220021304663
:1002C00000F037F82C6070BD30B50B4601460020B9
:1002D0002022012409E021FA02F59D4205D303FA08
:1002E00002F5491B04FA02F52844151EA2F1010289
:1002F000F1DC30BD202A04DB203A00FA02F10020B4
:1003000070479140C2F1200320FA03F31943904053
:100310007047202A04DB203A21FA02F000217047BE
:1003200021FA02F3D040C2F120029140084319465D
:1003300070472DE9F04791460F4680460446002657
:1003400014F8015B2DB100F005FA0068405DC007AC
:10035000F6D12B2D02D02D2D18D0641E4A463946D9
:10036000204600F0FBF927B13968A14201D1C7F856
:10037000008071054FF002040BD54042002803DDD8
:1003800035F090F90460A007BDE8F08746F4806678
:10039000E4E70028F8DA35F085F904606FF00040F2
:1003A000F2E72DE9FE4F804681EA0300C00F0C46BC
:1003B000009021F0004123F00045B8EB0200A94174
:1003C00005D24046214690461C460B46024623F085
:1003D0000040104304D14046214603B0BDE8F08FF1
:1003E000270DC7F30A00C3F30A510290401A019087
:1003F000402866DAC3F3130040F4801B009892464D
:1004000020B10023D2EB030A63EB0B0B0198594692
:10041000C0F140025046FFF76DFF06460D465046BC
:100420005946019A00F084F910EB0800614100245C
:1004300087EA115284EAE7731A433BD0009A3AB331
:10044000019A012A4FEA075210DC001B61EB0201FE
:100450004FF0004202EA0752CDE90042001C41F58C
:10046000801132462B4600F0D5F9B6E7001B61EB50
:100470000201001C41F5801300185B412018A2F511
:10048000001747EB030140EAD570B6196D4111E042
:100490006D084FEA360645EAC0754FEA0752001B61
:1004A00061EB0201001C41F5801149084FEA300060
:1004B0000019514132462B4603B0BDE8F04F00F021
:1004C0009CB90098012240000023D0EB020263EBAC
:1004D000E073009821464FEAE074B8EB000061EB4E
:1004E0000401E9E783F000435BE781F0004158E74E
:1004F0002DE9FE4F81EA030404F0004421F000419D
:1005000000944FF0000B23F0004350EA010402D0A6
:1005100052EA030404D10020014603B0BDE8F08F85
:10052000C3F30A54C1F30A552C44A4F2F3340194E2
:10053000A0FB0254C1F3130141F48011C3F3130370
:1005400043F4801301FB024400FB034E840A970A24
:1005500044EA815447EA8357A4FB076802958D0A51
:1005600005FB07854FEA932C04FB0C542705029DDD
:100570004FEA065847EA1637B5EB08056EEB070C4D
:10058000870E920E47EA811742EA8312A7FB020107
:10059000B6EB0B0164EB00042B0D43EA0C335E1841
:1005A00044EB1C50DA465146E7FB0201C5F3130445
:1005B0004FEA0B3343EA14534FEA0432019C43EAF7
:1005C0000603A4F10C040294009CCDE900B400F0F1
:1005D00021F9A2E72DE9F04D81EA030404F0004B74
:1005E00021F0004514464FF0000A23F0004150EA84
:1005F000050220D054EA01021DD0C5F30A57024675
:10060000C5F31303C1F31300C1F30A5640F4801578
:1006100043F48013A7EB0608101BD64608F2FD38FA
:1006200073EB050002D308F1010801E092185B4169
:10063000B8F1000F03DA00200146BDE8F08D00207C
:100640004FF48011064684460EE0171B73EB050736
:1006500005D3121B63EB050306434CEA010C490862
:100660004FEA300092185B4150EA0107EDD152EA9F
:10067000030012D082EA040083EA0501084303D193
:1006800000224FF0004308E0101BAB4102D20122D0
:10069000002302E06FF0010253101AEB06004CEB4E
:1006A000085110EB0A0041EB0B01BDE8F04D00F0E2
:1006B000A4B8C1F30A52C1F3130140F2FF3341F46D
:1006C00080119A4202DA00200146704740F233431B
:1006D0009A42A2F2334202DC5242FFF71ABEFFF7FF
:1006E00009BE000030B5002904DB4FF00044404251
:1006F00064EB0101002B04DB4FF00044524264EB39
:100700000303994208BF904230BD0000064C074DDC
:1007100006E0E06840F0010394E8070098471034D1
:10072000AC42F6D3FFF708FD78F3040898F3040809
:10073000202A06DBCB17203A41FA02F043EAE073A5
:1007400006E041FA02F3D040C2F120029140084392
:10075000194670470048704700DA04082DE9F05F39
:1007600082460078002715468B460AF10104B946F7
:10077000302801D09DB113E014F8010B012778282F
:1007800003D0582801D045B10AE00DB1102D07D192
:100790000027102514F8010B02E0082500E00A25C7
:1007A0000026B0460EE005FB080005FB06F1012718
:1007B00001EB10461FFA80F8B6F5803F00D3B9462A
:1007C00014F8010B294600F077F80028EBDABBF1AA
:1007D000000F05D00FB1641E00E05446CBF8004076
:1007E000B9F1000F06D034F05DFF02210160C81E90
:1007F000BDE8F09F48EA0640FAE710B5002B08DA9A
:10080000401C41F1000192185B411A4301D120F0D4
:10081000010010BD2DE9F04D92469B4611B1B1FA91
:1008200081F202E0B0FA80F220329046FFF762FDDA
:1008300004460F4640EA0A0041EA0B0153465A4675
:10084000084303D120463946BDE8F08D114653EAEE
:10085000010015D0C8F140025046FFF75AFD054689
:100860000E46504659464246FFF744FD084301D024
:10087000012000E00020054346EAE0762C433743A0
:100880000A984FEA4453A0EB08004FEAD4240A30F8
:100890004FF0000244EA47544FEAD72502D5002022
:1008A0000146D1E7010510196941DDE90845001944
:1008B0006941BDE8F04DA0E73A2800D2303820F079
:1008C0002002412A01D3A2F13700884201D34FF020
:1008D000FF30704770B501EB020410F8015B15F0B2
:1008E000070301D110F8013B2A1106D110F8012BA2
:1008F00003E010F8016B01F8016B5B1EF9D12B07C7
:1009000005D40023521E0FD401F8013BFAE710F87A
:10091000013B02F10202A1EB030303E013F8015BC8
:1009200001F8015B521EF9D5A142D6D3002070BD5B
:1009300000B591B001214FF4047029F0E9FD0121C7
:10094000084629F0C5FD4FF4404029F0B5FD264882
:1009500009F0BAF82548019025480290002003903C
:10096000032004900020059080200690400007900E
:10097000800008902020099000020A9000200B902F
:1009800001A9194809F046F90121174809F090F822
:1009900000200C9001208DF834008DF835004FF4C4
:1009A00060200E9000200F9003208DF840000CA9CD
:1009B0000E484C3800F034F8072301220E210B4872
:1009C0004C3800F055F8072302220F2107484C3815
:1009D00000F04EF803231A460A2104484C3800F070
:1009E00047F811B000BD0000080002404C2401404F
:1009F000D000002021B1826842F00102826003E051
:100A0000826822F001028260704721B1826842F45C
:100A10008072826003E0826822F480728260704794
:100A200030B502460020002350680F4C20400D795D
:100A30000C6844EA05242043506090680B4C204029
:100A4000D1E902542C434D7944EA45042043906097
:100A5000D06A20F470000C7C641EE4B2234340EAA8
:100A60000350D06230BD0000FFFEF0FFFDF7F1FF44
:100A7000F0B504460D4600200021092D11DDE06887
:100A8000A5F10A0606EB4607072606FA07F1884392
:100A9000A5F10A0606EB460603FA06F10843E060F4
:100AA0000CE0206905EB4507072606FA07F18843A5
:100AB00005EB450603FA06F108432061072A0FDA21
:100AC000606B561E06EB86071F2606FA07F1884361
:100AD000561E06EB860605FA06F10843606322E01F
:100AE0000D2A0FDA206BD61F06EB86071F2606FAA3
:100AF00007F18843D61F06EB860605FA06F1084380
:100B0000206310E0E06AA2F10D0606EB86071F26BF
:100B100006FA07F18843A2F10D0606EB860605FAF0
:100B200006F10843E062F0BD21B1826842F4A00200
:100B3000826003E0826822F4A002826070470000B5
:100B40002DE9F04105460E46287800F080004D4919
:100B50000870307800F080004B490870287800F069
:100B600007004A490870307800F0070048490870CB
:100B700011214848FFF742FB11214748FFF73EFB90
:100B80004448D5F801100160D5F80510416042488D
:100B9000D6F801100160D6F8051041603B48007896
:100BA0003B49097888420FDD07E039480078401C4E
:100BB00037490870384800F0F3FF3448007834496A
:100BC00009788842F1DC14E030480078304909782F
:100BD00088420EDA07E02D480078401C2B49087047
:100BE0002C4800F0DDFF294800782949097888421F
:100BF000F1DB072425E02748005D2749095D88428D
:100C000000DD20E02348005D2349095D884216DAB3
:100C1000002409E01F48075D1F48005D1D49085575
:100C20001D480755601C04B2082CF3DB16480778F2
:100C300014480078144908701248077003E0601ED9
:100C400004B2002CD7DA00BF0E4800780E490978AC
:100C5000884202D100F024F801E02FF0C1FB0948DE
:100C600000780E49087008F025FA0C4800782870C2
:100C700008480168C5F801104068C5F80500BDE8DE
:100C8000F081000063020020640200206502002061
:100C900066020020041D0020151D002062020020B5
:100CA00070B500210024002030E01A4D2D5C05F0C5
:100CB0000F05184E365C361106EB860605EB460529
:100CC000EAB2154D2D5C05F00F05134E365C36115A
:100CD00006EB860605EB4605EBB2D5182544E9B2CE
:100CE000632904DDA1F16405E9B2012400E00024D8
:100CF0000A2591FBF5F605FB16150A2691FBF6F67B
:100D000005EB0615034E3554451C28B21028CCDBE4
:100D100070BD0000041D0020151D002010B50FF04F
:100D20009DFE154890F8C206144909680844134905
:100D300008600021104880F8291F16E00E4890F83E
:100D4000291F00F2C46000EBC10100F63C300A68C4
:100D500002604968416000F06BFA074890F8290F7B
:100D6000401CC1B2044880F8291F034890F8290F9D
:100D70000628E3DB10BD0000681D00205C02002097
:100D800010B50FF07BFE154890F8F7061449096876
:100D90000844134908600021104880F8291F16E014
:100DA0000E4890F8291F00F2F96000EBC10100F62F
:100DB00007300A6802604968416000F039FA074864
:100DC00090F8290F401CC1B2044880F8291F03483D
:100DD00090F8290F0628E3DB10BD0000681D0020F5
:100DE0005C02002010B51948B0F84F1FB0F8290771
:100DF00081422ADA0FF00CFF144890F82D071449AD
:100E000009680844124908600021104880F8291F29
:100E100016E00E4890F8291F00F2327000EBC10175
:100E200000F6CE200A6802604968416000F000FACE
:100E3000064890F8290F401CC1B2044880F8291FC9
:100E4000024890F8290F0628E3DB10BD681D00203A
:100E50005C02002010B50FF029FF154890F86507D7
:100E6000144909680844134908600021104880F8B3
:100E7000291F16E00E4890F8291F00F2677000EB5A
:100E8000C10100F699200A6802604968416000F0DB
:100E9000CFF9074890F8290F401CC1B2044880F8E8
:100EA000291F034890F8290F0628E3DB10BD000036
:100EB000681D00205C02002010B5194890F8021F40
:100EC00090F8970781422ADA0FF000FF144890F853
:100ED0009A0714490968084412490860002110481B
:100EE00080F8291F16E00E4890F8291F00F29C7028
:100EF00000EBC10100F664200A68026049684160A5
:100F000000F096F9064890F8290F401CC1B2044839
:100F100080F8291F024890F8290F0628E3DB10BD4E
:100F2000681D00205C02002010B52C48D0F8A104F8
:100F30002B4908600021294880F8291F16E027481E
:100F400090F8291F00F28F6000EBC10100F67130AC
:100F50000A6802604968416000F06AF91F4890F829
:100F6000290F401CC1B21D4880F8291F1B4890F86A
:100F7000290F0628E3DB1948B0F8511FB0F8CC0759
:100F800081422ADA0FF016FF144890F8D00714496E
:100F900009680844124908600021104880F8291F98
:100FA00016E00E4890F8291F00F2D27000EBC10144
:100FB00000F62E200A6802604968416000F038F9A6
:100FC000064890F8290F401CC1B2044880F8291F38
:100FD000024890F8290F0628E3DB10BD681D0020A9
:100FE0005C0200201CB52A48B0F8CD4E294811F00B
:100FF000B9FF284BDA78997818880DF084FA2649D9
:101000004881B4F5006F3DDA4FF4004101EB041064
:10101000214A0A32102135F0B5FA1F490C80002010
:101020004880009001904FF4804101EBC4006A4673
:10103000082135F0A7FA1648B0F8CD0E401C81B251
:101040001348A0F8CD1EC4F3090413480088B0F576
:10105000806F04DA10480089B0F5804F09D00E483F
:101060000088B0F5806F11DB0B480089B0F5C04FE8
:101070000CD109481A3000EBC400009901600199B5
:10108000416003E05A21024880F8031F1CBD0000A4
:10109000681D0020F94C00206459002010B510F0A4
:1010A000EBFC154890F808081449096808441349EE
:1010B00008600021104880F8291F16E00E4890F8BB
:1010C000291F00F61A0000EBC10100F6E6100A68BD
:1010D00002604968416000F0ABF8074890F8290FBA
:1010E000401CC1B2044880F8291F034890F8290F1A
:1010F0000628E3DB10BD0000681D00205C02002014
:1011000010B54FF0FF3010F07FFD154890F819082A
:10111000144909680844134908600021104880F800
:10112000291F16E00E4890F8291F00F64A0000EB30
:10113000C10100F6B6100A6802604968416000F01B
:1011400077F8074890F8290F401CC1B2044880F88E
:10115000291F034890F8290F0628E3DB10BD000083
:10116000681D00205C02002010B510F07DFD1548C0
:1011700090F8800814490968084413490860002160
:10118000104880F8291F16E00E4890F8291F00F635
:10119000870000EBC10100F679100A680260496817
:1011A000416000F045F8074890F8290F401CC1B293
:1011B000044880F8291F034890F8290F0628E3DB2C
:1011C00010BD0000681D00205C02002010B510F06A
:1011D000CFFD154890F8BA08144909680844134926
:1011E00008600021104880F8291F16E00E4890F88A
:1011F000291F00F6BC0000EBC10100F644100A688C
:1012000002604968416000F013F8074890F8290F20
:10121000401CC1B2044880F8291F034890F8290FE8
:101220000628E3DB10BD0000681D00205C020020E2
:1012300070B5644890F8140F00B170BD624890F822
:10124000000200B9F9E76148407800B9F5E75D4868
:1012500090F81C0F00B1F0E700245B4890F8000202
:1012600010F0010F03D059484078204484B256480A
:1012700090F8000210F0020F03D054484078204448
:1012800084B2514890F8000210F0040F03D04F4888
:101290004078204484B24C4890F8000210F0080FC7
:1012A00003D04A484078204484B22546454890F807
:1012B000290F062858D2DFE800F003061A2E4256FE
:1012C0000024002551E03F48B0F82D0500B9B4E7EF
:1012D0003C48B0F82D15B0F84B0F081A684385B29A
:1012E0003848B0F84B0F401E604384B23DE03548AB
:1012F00090F8560900B9A0E7324890F8561990F8CE
:10130000360F081A401E684385B22E4890F8360FF3
:10131000604384B229E02B4890F8870900B98CE734
:10132000284890F8871990F8FF0E081A401E684365
:1013300085B2244890F8FF0E604384B215E021483E
:1013400090F8880900B978E71E4890F8881990F855
:10135000210F081A401E684385B21A4890F8210FE1
:10136000604384B201E068E700BF00BF184800682E
:10137000204417490860144890F8000210F0010F4B
:1013800001D000F0FBF8104890F8000210F0020FB6
:1013900001D000F0F3F80C4890F8000210F0040FB0
:1013A00001D000F0EBF8084890F8000210F0080FA8
:1013B00001D000F0E3F806480068284404490860BA
:1013C00000BF3AE7681D0020682D0020682F00202C
:1013D0005C0200203EB5184890F80A0F58BB16482A
:1013E00090F8070F022826D0134890F8140F10BB6E
:1013F000114890F81A0F08B1032400E000240F48A8
:101400000168009141680191007A8DF808000C484C
:1014100020440188ADF8011080788DF80300094957
:101420006846FFF78DFB06482044BDF80110018097
:101430009DF8031081703EBD681D0020A8B603080A
:10144000452C0020B1B6030870B5044601261748A4
:1014500090F8320F4440154890F8330F444000256F
:101460000DE0344207D005EBC501114A8818A2F1FE
:10147000A201FFF765FB7006060E681CC5B2082DB9
:10148000EFDB0B49A23901F18700FFF759FB08494F
:10149000483901F13600FFF753FB044890F8331F39
:1014A00080F8341F002180F8331F70BD681D0020B4
:1014B000643C002010B511F035FD154890F8EF0898
:1014C000144909680844134908600021104880F84D
:1014D000291F16E00E4890F8291F00F6F10000EBD6
:1014E000C10100F60F100A68026049684160FFF709
:1014F0009FFE074890F8290F401CC1B2044880F8AD
:10150000291F034890F8290F0628E3DB10BD0000CF
:10151000681D00205C02002010B511F013FD154875
:1015200090F8240914490968084413490860002107
:10153000104880F8291F16E00E4890F8291F00F681
:10154000261000EBC10100F6DA000A680260496863
:101550004160FFF76DFE074890F8290F401CC1B2AB
:10156000044880F8291F034890F8290F0628E3DB78
:1015700010BD0000681D00205C02002010B540482E
:1015800090F81A0F60B13E4890F8290F012807D053
:101590003C4840783C49096808443B49086010BD14
:1015A000394804682AF066FB37480460344890F8EC
:1015B000F60E38B133F0C0FF32484078204432494B
:1015C00008605AE02F48807890B12E482B30407A3E
:1015D00010F0080F0CD12A4890F8380F40B928486D
:1015E00090F8070F20B9294926482B30FFF7A8FAB1
:1015F0002448C07868B123482B30407A00F083003B
:1016000020492B31487201F68941A1F54860FFF766
:1016100097FA1C48007920B11D49A1F61D40FFF73B
:101620008FFA18484079A0B119497E31A1F692404D
:101630002EF016FF13482B30C07E10F0800F08D01C
:1016400010494631134802680A6042684A60007ACD
:1016500008720C48807928B10D491B31A1F626404B
:10166000FFF76EFA0748C07928B109491231A1F68F
:101670001440FFF765FA33F05FFF00BF8FE700000B
:10168000681D0020682F00205C020020B1B603080E
:10169000C23B0020A8B6030838B50546681E00B254
:1016A0006049088000206049087000215F4880F888
:1016B000031F80F8F31E02205D49087001205D4978
:1016C00008701F205C49087047215848A0F8491F3E
:1016D0001F205A490873002006F04EF935F0B4F97E
:1016E000012035F047FC27F07BF900BF002005F012
:1016F0009BFF0090002002F025FDBDF8000000B91E
:10170000F4E7BDF80010C8B20FF044FB04460E2CFD
:1017100000D14DE00C2C12D1444890F8410F10F04C
:10172000100F14D04648007810F0200F03D003208B
:1017300005F07AFF02E0022005F076FFD6E734B923
:10174000009814F031FB012006F016F9CEE7BDF841
:10175000000000F47F40B0F5807F21D13848007848
:1017600010F0200F1CD1BDF80000C0B2402816DADE
:10177000BDF80000C1B22D4880F81F1F90F81F1F50
:1017800000F2214000EB410000882E49088002F061
:1017900075FD28B12648007800B909E0A6E7A5E75D
:1017A000009814F001FB28488079284908709DE7CB
:1017B00000BF1E48D0F8410F20F488711B48C0F8C4
:1017C000411F032005F030FF35F03EF94321174853
:1017D000A0F8491F0146D1F8750F082200210AF030
:1017E00081FC0020104908700021104880F8031F78
:1017F0000020124908730E4908700E4908700E49FE
:10180000087006F0B9F842F210700E490880002105
:10181000064880F8131F4E200D490870002035F04F
:10182000A9FB38BD960200209E020020681D002002
:101830009B0200209C0200209D020020E94C002019
:10184000E04C0020BA3B0020281800209F02002016
:10185000A0020020002070472DE9F04106460C460A
:101860002EB92E4890F8200410F00F0F07D1002E4B
:1018700052D02A4890F8200410F0F00F4CD027786E
:1018800000202070254890F8200400F00F051DB9B5
:10189000224890F820040509012D06D0022D12D00F
:1018A000032D1FD0042D35D128E0607800F00F0003
:1018B000052803DB1A492046FFF742F9607800F05B
:1018C000F000607026E0657800206070742D04DD03
:1018D00014492046FFF734F903E0242D01DD5020A0
:1018E000607017E0607800F0F00500206070502D07
:1018F00003DB0C492046FFF723F90BE0607800F08A
:10190000F00500206070002D03DD06492046FFF73A
:1019100017F900BF00BF2770BDE8F081681D0020E7
:10192000BAB60308C3B6030810B5044630480078B9
:1019300030B920224F212F48FEF759FC06F051FA0A
:101940002D4890F8410F10F0100F39D12F2C03D1F2
:101950003020FFF7E9FF30242E2C1AD1264890F8CA
:10196000000FA0B90121244880F8001F204800780A
:1019700030BB30201F4981F84D002E2081F84E00E9
:10198000002081F84F0002201949087010BD002086
:10199000FCE7194890F8000F90B1302C10DB392C7F
:1019A0000EDC154890F8000F032801DD0020EDE75C
:1019B000114890F8000F401CC1B20F4880F8001F7A
:1019C0000B48007828B14E220A49491C481EFEF7F0
:1019D000FCFB084880F84E400020064981F84F0083
:1019E00003480078401C0249087008460078CDE79B
:1019F0009F020020024D0020681D002010B5014606
:101A00000A12CBB202F00F00141104EB840400EBB5
:101A1000440000EBC00404EB00104FF6FF7404EA2E
:101A2000800203F00F001C1104EB840400EB44005F
:101A3000104480B210BD00002DE9FF4782460C46DD
:101A400091461D46DDE90D780C9E134890F8E4039D
:101A5000012802D0022812D108E02B464A460FA1E5
:101A600050468DE8D00133F0F7FD11E04B46224699
:101A700012A150468DE8E00133F0EEFD08E04B4640
:101A80002A4606A150468DE8D00133F0E5FD00BF9F
:101A900000BFBDE8FF870000681D002025303278B8
:101AA0002D253032782D32302530327820253032D5
:101AB000783A253032783A25303278003230253085
:101AC00032782D253032782D25303278202530326D
:101AD000783A253032783A25303278002DE9F047CF
:101AE000034600252846294606221CE09C5C992CCA
:101AF00016DC9C5C04F00F049D5C2D1105EB850544
:101B000004EB45044FF0640C4FF000098046A8FB3D
:101B10000C6A01FB0CA700FB0977A01947EBE471E5
:101B2000A2F1010422B2002AE0DABDE8F08730B564
:101B300002460C460023062113E0505C99280EDC77
:101B4000505C00F00F00555C2D1105EB850500EB96
:101B5000450003EBC30505EB031500EB8503481EA9
:101B600001B20029E9DA236098B230BD30B5002413
:101B70000F30002101E0401E491C102902DA0578CF
:101B8000002DF8D009E005782D072A0E05782B09DD
:101B90001D1905701446401E491C1029F3DB30BD89
:101BA00030B50024002109E005782D072A0E0578BC
:101BB0002B09151905701C46401C491C1029F3DB24
:101BC00030BD0146072005E04A1C125C02B103E06B
:101BD000421E10B20028F7DA00BF421C10B20028E3
:101BE0000BDD421E4B1C9A5C0F2A04DA0122C2EB69
:101BF000400210B201E0420010B20A7812F0800FE9
:101C000001D0421C10B2704708B501460020009078
:101C1000034800900098084400900098008808BD90
:101C2000006C004008B500220092044A0092009A1D
:101C300002440092009A116008BD0000006C004050
:101C400010B504461448008810F4007F22D154B126
:101C5000124911487838B0F87A00088008460078B0
:101C600040F0800008700C48007800F00100C0F1DE
:101C70000800C0EBC00000EB40020749BD3908482E
:101C8000FEF7A3FA34F0E0FE0348008840F4007049
:101C90000149088010BD0000E04C0020DD0100205B
:101CA0003818002010B50F4890F8FD0300F0070425
:101CB0001CB10C4890F8030F08B1002010BD611E44
:101CC000C8B20CF0C5FB611EC8B205212CF0F0FBB8
:101CD0000020054908700549087005490880012061
:101CE000ECE70000681D00207C0100207B01002043
:101CF0007801002070B5B24890F8FD0300F00705A8
:101D00001DB1AF4890F8030F08B1002070BDE7E0A7
:101D1000691EC8B202F00CFA30B1691EC8B229F0CF
:101D2000A3F80446401C01D10020EFE7A548008835
:101D3000B8BB0020A4490870A4490870A4490870E1
:101D4000012C10D0022C12D0062C02D0462C16D119
:101D500011E0691EC8B211212CF0AAFB02209D4996
:101D600008700020D2E702209A49087009E000209C
:101D70009849087005E001209649087001E00020AC
:101D8000C4E700BF8E4890F8FD0300F007009149BA
:101D9000097801F00F0140EA0111894880F8FD132C
:101DA00030E0FFE78B48007802282BD1042C1FD1AC
:101DB0008548007880F00300834908700846007861
:101DC00048B985488078532805D183480088A0F514
:101DD000007101390BD0691EC8B20CF039FB5521D6
:101DE000774880F8031F0020764908808EE778E066
:101DF0007448B0F90000012804DD734800786040A1
:101E0000714908707148007838B16E48B0F9000027
:101E10006E490978401A012804DC6F49694AB2F911
:101E200000208C54302C01DB392C01DD2E2C0AD102
:101E30006748007818B963480078654908706148B8
:101E40000078624908705F480088401C00B25D4914
:101E5000088060480078012819D1084600880A28BF
:101E600015D15B48007818B90846007858490870C1
:101E700054480078554908702E215248B0F9002086
:101E80000088401C00B24F4B1880534881544D4885
:101E9000B0F900001E2801DA0A2C03D100204949BC
:101EA000088033E70D2C1BD14A48007818B94A48FE
:101EB0000078022807D047480078012804D1464816
:101EC0000078462800D10CE0691EC8B20CF0C0FAB8
:101ED00055213B4880F8031F00203A49088015E748
:101EE00016E700BF002005F047FD691EC8B20CF0E0
:101EF000AFFA0020394908703249088000260025D1
:101F00003348007831490978884256DA30480478F5
:101F100030E04EB93048005BA0F54051303901D077
:101F2000012000E00020064616B300202C4908805E
:101F30002948055D2E2D06D12248008818B90120B8
:101F40002049088008E01F48008828B11D48008803
:101F5000401C00B21B4908801A48B0F90000042850
:101F600006DC1F48801E05800146088813F056FBDA
:101F7000601C04B2154800788442CADD0020114973
:101F80000880012000F0CAF90D48B0F8490F432835
:101F900004D00B48B0F8490F45280ED10020104955
:101FA000088040F2D470891E08800121044880F81E
:101FB000041F20F0B9FF0120A8E60020A6E60000DB
:101FC000681D0020780100207D0100207C01002098
:101FD0007B0100207A0100200C170020A2020020C3
:101FE000BC3B002070B5834890F8FF0300F0070564
:101FF000804890F8030F90B97E48B0F8490F422806
:102000000DD07C48B0F8490F462808D07948B0F880
:10201000490F472805D1784800781F2801D00020B3
:1020200070BD002679E05DB1691EC8B202F080F88B
:1020300030B1691EC8B228F017FF0446401C01D118
:102040000020EDE7E4B26D4801680068401C6B4A6F
:1020500010606B48445410460068FE2803DB0020E3
:1020600011460860DCE70A2C11D006DC022C09D0EE
:10207000032C31D0092C40D12DE00D2C2AD0242C5A
:102080003BD100E000BF00205C490860C8E75B4826
:102090000068801E5A49085C0D280AD1574800681C
:1020A000801E5649086000205549544A12688854D9
:1020B0000EE052480068401E504908600020504918
:1020C0004E4A126888544D48006808B90020A7E7B6
:1020D000012621E000BF00BF48480068401E474974
:1020E000086000214648454A126881544348006808
:1020F00008B9002094E701260EE0202C01DB7E2C9D
:1021000009DD3E480068401E3C49086000203C490B
:102110003A4A1268885400BF00BF002E83D00020C6
:1021200005F02AFC0020374908703248B0F8490F02
:1021300047281CD130480078C8B92E4991F82B1F88
:1021400011F0040F01D0062100E0042108462C49BB
:1021500016F03AF905F056FE05F032FE0822042189
:10216000274809F0BFFF00202449086058E72348AA
:102170000078254908700020204908602349224A38
:102180001278891A481E20490A781D49FEF71DF861
:102190000121184880F8051F02F062FF1548B0F8C9
:1021A000490F43281AD01348B0F8490F452815D0D5
:1021B00000201749088000210E4880F8131FB0F84E
:1021C000490F442804D113480078134908700FE0E0
:1021D000084890F8C7031049087009E000200C492E
:1021E000891C088042F21070891E088020F09CFE35
:1021F000012015E7681D00209D02002080010020BD
:102200002A170020A20200209F020020524D002029
:10221000BA3B0020A70200207C02002030B5024615
:102220000B460020591E0EE0C40004EB4004555C30
:1022300004EB2510C40004EB4004555C05F00F05C9
:1022400060194C1E21B20029EEDA30BD10B50446EB
:1022500011210948FDF7D2FF074854F8011F01601A
:1022600061684160FFF782FC0348016821604068B3
:102270006060A4F1010410BD041D0020D0F802200C
:10228000C0F80120C288A0F80520017AC17100229F
:102290000272704710B5044611210948FDF7AEFFE0
:1022A000074854F8011F016061684160FFF778FC3E
:1022B00003480168216040686060A4F1010410BD1A
:1022C000041D0020072105E04A1E431C9B5C421CA4
:1022D0005354491E0029F7DC002242707047000069
:1022E00008210C4A1160012803D10A210A4A1180F1
:1022F0000EE0022803D12821074A118008E00328B4
:1023000003D15021044A118002E00A21024A1180BF
:1023100070470000141401406600002000B5034619
:10232000D8B2FFF7DDFF002000BD00002DE9FC5F03
:102330008346894616461C46082E00D90826002CDE
:102340003ED02048D0F800A04FF00008601E04B234
:1023500029E0A5B205EB080085B26D1005FB09A0C8
:10236000184908603146684629F09AFB32466946AA
:10237000584606F077FD0746002F03DA2CB2601EA0
:1023800004B210E037B10FFA85F808F101000FFA36
:1023900080F808E00B480068801B0A490860681C48
:1023A00080B2BDE8FC9FA045D3DD06480068801BD5
:1023B00004490860002F03DD0846006848440860AF
:1023C0000020EEE75C0200202DE9F84381460F462D
:1023D00090461C46B9F13C0F70D009DCB9F1340FBE
:1023E00011D0B9F1350F0DD0B9F1360F70D10DE024
:1023F000B9F1440F0CD0B9F1450F7AD0B9F1460FBD
:1024000078D15CE07BE00020BDE8F8830020FBE7AA
:102410003C48B0F8410F10F4006F4CD1F8B28DF881
:102420000000022618F0010F33D03748007818B9A1
:1024300030208DF8010032E02CB1202C03DCE0B21A
:102440008DF80200032631208DF801001422314658
:10245000684628F01DFA002509E005EB45112A4AD7
:10246000881804221F2128F013FA681CC5B2082D11
:1024700005DA05EB45102449085C0028EDD1002061
:102480008DF8000004220121684628F001FA01209D
:10249000BAE718F0020F02D032208DF801002CB1FB
:1024A000202C03DCE0B28DF8020003261422314612
:1024B000684628F0EDF90120A6E7FFE71FE04FB1DD
:1024C0003846FDF7C8FEC6B2202E04DD202602E005
:1024D00010E00EE000260B48B0F8410F10F4006F3A
:1024E00005D108F0FF023146384628F0D1F9012025
:1024F0008AE704E0494605A031F01AFB00BF00BF9F
:10250000002081E7681D0020313D0020436F6D6D84
:10251000616E642025640A0010B588B00446204628
:102520001D2C7DD00CDCA0F10F000D2879D2DFE846
:1025300000F0317878302B787878353947433F0090
:10254000502841D006DC332830D03D2809D03F2820
:1025500067D10DE0512878D0522875D05328F7D193
:10256000D0E010F05FFE00908248008808B010BDF7
:102570008148B0F8410F10F4006F04D1802200218F
:10258000084628F085F9F1E013F012FB27F064FF0C
:10259000ECE0EBE013F0FAFA0020E7E700200BF0A4
:1025A00075FFE3E001200BF071FFDFE00020DDE7C5
:1025B0000320FFF795FED9E00220FFF791FED5E05A
:1025C0000120FFF78DFED1E001A834F046FF079807
:1025D000B0F5FA6F02DA0020079003E00798A0F543
:1025E000FA6007900A21049890FBF1F201FB1200B7
:1025F0000A22049991FBF2F100EB01105F49087087
:102600000A21069890FBF1F201FB12000A220699BA
:1026100091FBF2F100EB0110584948700A2101E0EA
:102620009CE09EE0079890FBF1F201FB12000A2269
:10263000079991FBF2F100EB011050498870059861
:10264000C870012092E700E02EE001A834F005FFF9
:102650000A21039890FBF1F201FB12000A22039970
:1026600091FBF2F100EB0110454908700A21029834
:1026700090FBF1F201FB12000A22029991FBF2F1A8
:1026800000EB01103E4948700A21019890FBF1F2DD
:1026900001FB12000A22019991FBF2F100EB0110FB
:1026A00037498870002061E701A834F0D6FE33482E
:1026B000807800F00F0031498978091101EB810120
:1026C00000EB410000F5FA6007902C48407800F0DC
:1026D0000F002A494978091101EB810100EB410003
:1026E00006902648007800F00F0024490978091167
:1026F00001EB810100EB4100049001A834F0D9FE08
:10270000002033E701A834F0A8FE1D48007800F04F
:102710000F001B490978091101EB810100EB410011
:1027200003901748407800F00F00154949780911C7
:1027300001EB810100EB410002901148807800F02C
:102740000F000F498978091101EB810100EB41006D
:10275000019001A834F0ADFE002007E702F06CFE06
:1027600004E7214607A031F0E3F900BF00BF0020D5
:10277000FCE60000B2030020681D00200C000020D1
:1027800010000020436F6D6D616E645F3120256421
:102790000A0000002DE9F84F8046894615461E467E
:1027A000DDF828A0304800680090CB46A8F101046D
:1027B000B8F1030F56DCBAF1000F02D00020AAF8DE
:1027C0000000D5B909E02EB1274801680098081A21
:1027D000B04202D90020BDE8F88F04EB84102349F1
:1027E00001EB0010C06804EB8411204A02EB0111D8
:1027F00089688842E7D00120EDE7681C0CD104EB22
:1028000084111A4A02EB0111886004EB841102EB77
:102810000111C8600120DEE7B9F1000F11D104EB0E
:102820008410124901EB0010C06804EB84110F4AB8
:1028300002EB01118968884201D00120CBE700201A
:10284000C9E700270AE032465946404630F0B8FC56
:1028500008B938B2BFE70BF1010B7F1CAF42F2DBC6
:102860002846B8E70020B6E7D80000201006002070
:102870002DE9F04705460E4617469946B046032D0A
:102880000EDC002407E098F80010284630F038FEEF
:1028900008F10108641CBC42F5DB0120BDE8F087AB
:1028A0000020FBE770B5002500BF0E48806800F4EB
:1028B00000544FF47A7034F0DFFF0A48806800F467
:1028C0000056B44204D16D1C1CB1022D01DD02E0A2
:1028D0000025322DE9DB00BF0CB9012070BD0020BE
:1028E000FCE700000010014030B5024600200FE078
:1028F0000B7801248440234204D03124431D064D2B
:10290000EC5403E03024431D034DEC54431C18B237
:102910000828EDDB30BD00006C4D002000BFFEE755
:102920000146CAB20B1243EA0220704710B50320D9
:102930000EF03EF808B1012010BD064890F84F0196
:1029400020F01401034880F84F11F52180F84E1152
:102950000020F1E7E12C00202DE9F84F8146884660
:10296000404610F0A5FB002581E020214448FDF7FA
:1029700045FC4220424908700E20487041480078CA
:1029800028448870B8F1060F02D0B8F1050F07D1BE
:102990003B48C01C3C490A6802608988818006E087
:1029A0003748C01C39490A680260898881803448E8
:1029B000093037490A68026089888180022400272B
:1029C00004E02F48005D3844C7B2641C2C484078AE
:1029D000401CA042F5DC2A484078401C28490F548E
:1029E00002200BF035FD0023102225490320FFF7BC
:1029F0003FFF4FF0000A00260EE000200090C6F1D5
:102A0000130002B21E48811932230320FFF7C2FED1
:102A1000304406B20AF1010ABAF10A0F01DA132EA4
:102A2000EBDB0224002704E01548005D3844C7B200
:102A3000641C122CF8DB12480078422809D1104897
:102A40004078112805D10E48807CB84201D1132E60
:102A500004DA00270020C9F800000DE0012709EB87
:102A6000051010220649891CFDF7AFFB6D1C0948B3
:102A700000788542FFF679AF00BF3846BDE8F88F91
:102A8000471D00207502002076C8030870C803089F
:102A90007CC80308760200202DE9F84380460E46E4
:102AA0000025304610F004FB002464E02021354866
:102AB000FDF7A4FB4220334908701E2048703248BD
:102AC000007820448870062E01D0052E07D12D48AD
:102AD000C01C2E490A6802608988818006E0294866
:102AE000C01C2B490A68026089888180254809300A
:102AF00028490A6802608988818008EB0411102245
:102B0000801DFDF762FB0227002504E01D48C05D23
:102B10002844C5B27F1C1B484078401CB842F5DCF5
:102B200018484078401C17490D5402200BF090FCC7
:102B30000023202213490320FFF79AFE0A2516E0FE
:102B40000020322303220F4900901046FFF722FE97
:102B50000C480078422808D10A484078012804D15E
:102B600008488078592800D103E0681EC5B2002DBE
:102B7000E6D100BF641C08480078844296DB2846F2
:102B8000BDE8F883471D00207502002076C80308C1
:102B900070C803087CC803087602002010B5002026
:102BA0000349086003202BF013FF012010BD000033
:102BB000740100202DE9F04106460C4600271FE075
:102BC00002E0052034F058FE104800680028F8D0D4
:102BD00000200E490860402C01DD402500E025461C
:102BE000F0192A46C02131F0FDFD294601202BF0C5
:102BF00015FF01202BF03CFF601BC4B2781987B28F
:102C0000002CDDDC0120BDE8F08100007001002017
:102C100008B50020009015E19048008800F00F00F2
:102C20008F4908700846007800287DD18D480068DB
:102C30008D4908800846008800F030008B490880E4
:102C40008948008800F44050874908808549096810
:102C50004BF6BF7201EA020080F4005080F02000C1
:102C600040F4004141F080017E4A11607B480088B9
:102C700010F0100F32D11046006848F60F7108406E
:102C80001146086010F09EFE764909684BF6BF7247
:102C900001EA02007449098811F4805F01D080F4D0
:102CA00080507149098811F4005F01D080F4005010
:102CB0006E49098811F0100F01D080F010006B49A7
:102CC000098811F0200F01D080F0200081B241F47A
:102CD000004141F08001634A116008BD614800680D
:102CE00080B20090BDF8000010F4006F36D05D484F
:102CF0000068C0F30E0048F68F710840594908601B
:102D00002CF090FB574909684BF6BF7201EA0200AC
:102D10005549098811F4805F01D080F480505249F0
:102D2000098811F4005F00E052E001D080F4005007
:102D30004E49098811F0100F01D080F010004B4966
:102D4000098811F0200F01D080F0200081B241F4F9
:102D5000004141F08001434A1160BEE7BDF8000028
:102D600010F4004F6ED03F480068C0F30E0048F6E4
:102D70008F7108403B49086015F0FEFA394909682F
:102D80004BF6BF7201EA02003749098811F4805FEF
:102D900001D080F480503449098811F4005F01D0DB
:102DA00080F400503149098811F0100F01D080F0F3
:102DB00010002E49098811F0200F01D080F020006A
:102DC00081B241F4004141F08001264A116084E75C
:102DD00023480078234951F8200080B20090BDF8C4
:102DE000000010F4004F14D01D48007851F8200066
:102DF000C0F30E0048F68F71084019490978194A46
:102E000042F8210016490978491E194A52F8210052
:102E10008047BDF8000010F0800F13D010480078F4
:102E2000104951F8200048F60F7108400C49097804
:102E30000C4A42F821000A490978491E0D4A52F805
:102E40002100804707484430006880B20349088069
:102E500010F4004F7FF4E0AE00BF3EE78404002092
:102E600020050020005C00403405002036050020CD
:102E7000680400204C0400202DE9F04190B0054684
:102E8000FE4801680A9141680B91007A8DF8300084
:102E9000FA481B300168079141680891007A8DF863
:102EA0002400F6482630416B0491816B059190F81F
:102EB0003C008DF81800F248B0F8657FB0F84F8FED
:102EC00000269DBBEF4801680D9141680E91007A84
:102ED0008DF83C00EB480168019141680291007A4D
:102EE0008DF80C00E5482630016901914169029195
:102EF000007E8DF80C00E44901A814F0F3FCE348CF
:102F0000407810F0080F05D19DF8040080F0800093
:102F10008DF80400DA4890F81E0F002805D09DF8BF
:102F2000040080F080008DF80400D2E0FFE7022D5D
:102F3000FBD1D44801680D9141680E91007A8DF85B
:102F40003C00D0480168019141680291007A8DF8F7
:102F50000C00CA4826300169019141690291007E46
:102F60008DF80C00002490E0C4EB0411C84800EB7D
:102F70004100008841F2883188426FDDC4EB0411C2
:102F8000C34800EB4100008842F21071884214DD12
:102F9000C4EB0411BE4800EB41000088A0F51C50B2
:102FA000113881B2B648A0F8651F28F0D7FBB448A5
:102FB000B0F8731FA0F84F1F0CE0C4EB0411B44825
:102FC00000EB41000088A0F59850893881B2AC48E8
:102FD000A0F84F1F27F086FFAC48407810F0400F54
:102FE00004D1AA48407810F0800F18D0A748407844
:102FF00010F0400F06D0A5482F3890F8220010F0AE
:10300000400F0CD1A148407810F0800F06D09F48A7
:103010002F3890F8220010F0800F00D133E0C4EB7D
:1030200004119B4800EB410050F8151F0D914168B9
:103030000E91007A8DF83C0016F0020F07D09DF833
:10304000340080F080008DF8340026F002060DA9CF
:103050008A480930FDF774FD14E0FFE7C4EB041162
:103060008B4800EB41000088A0F580712F3908D013
:10307000C4EB0411864800EB41000088B0F5977F4F
:1030800000D100E000BF601CC4B28248D0F87F02CB
:10309000A0423FF769AF804901A814F023FC7749AB
:1030A000093101A80AF078FC7848407810F0080F40
:1030B00005D19DF8040080F080008DF80400704870
:1030C00090F81E0F28B19DF8040080F080008DF864
:1030D00004000024C2E1C4EB04116D4800EB410080
:1030E000008841F2883188427EDD26F00106C4EB7B
:1030F0000411674800EB4100008842F210718842D9
:1031000016DD46F00106C4EB0411614800EB4100F6
:103110000088A0F51C50113881B25948A0F8651FED
:1031200028F01CFB5648B0F8731FA0F84F1F0CE0A6
:10313000C4EB0411564800EB41000088A0F59850FC
:10314000893881B24E48A0F84F1F27F0CBFE042DDE
:103150002FD14A480A9901600B9941609DF83010BF
:1031600001724A48407810F0400F07D14748407834
:1031700010F0800F02D100F09DFB3FE14348407802
:1031800010F0400F06D041482F3890F8220010F080
:10319000400F0BD13D48407810F0800FEDD03B48F8
:1031A0002F3890F8220010F0800FE6D000F082FB5C
:1031B00024E13648407810F0400F04D1334840787D
:1031C00010F0800F1AD03148407810F0400F06D030
:1031D0002E482F3890F8220010F0400F0ED12B48C7
:1031E000407810F0800F00E0ABE006D027482F3881
:1031F00090F8220010F0800F00D12DE1012D5CD15C
:10320000C4EB0411224800EB410100F6F230CA6819
:1032100002600A694260097D017216F0020F07D050
:103220009DF8340080F080008DF8340026F002060E
:10323000C4EB0412164800EB4200C11C0F481B30BF
:1032400014F050FBC4EB0412114800EB420000F1F3
:1032500015010A481B302DF003F9084800F11B0145
:103260000A6802604A684260097A0172C4EB04117C
:10327000074800EB410100F6FD300FE0C23B0020A3
:10328000681D0020A8B60308DEB60308992E0020AA
:10329000EB2F0020682D0020F0B6030851F8032F13
:1032A00042634A688263097A80F83C1034300078BF
:1032B00080F0800083490870A0E0C4EB04118248CC
:1032C00000EB410050F8151F0D9141680E91007AF6
:1032D0008DF83C0016F0020F07D09DF8340080F006
:1032E00080008DF8340026F0020601A90DA814F024
:1032F000F9FA76490DA80AF04FFB00210DA829F034
:1033000065FD0DA90120FEF7A7FA6E483F380D991B
:1033100001600E9941609DF83C1001721B380D99B7
:1033200001600E9941609DF83C100172C4EB0412DB
:10333000654901EB420101F115000DA9FDF700FC03
:103340005CE0C4EB0411604800EB41000088B0F57C
:10335000FA7F21DDC4EB04115B4800EB41000088DB
:10336000B0F5FC7F18DC012D16D1C4EB04115648D2
:1033700000EB410100F6F230CA6802600A6942605F
:10338000097D01721B3800F11B010A6802604A685E
:103390004260097A017231E0C4EB04114A4800EB43
:1033A00041000088B0F5FC7F0BDDC4EB04114648FA
:1033B00000EB41000088B0F5FE7F02DC012D00D15A
:1033C0004AE0C4EB0411404800EB41000088B0F52E
:1033D000977F02D1042D00D03EE03A483F383C4967
:1033E0000A6802604A684260097A01721B383849EB
:1033F0000A6802604A684260097A01721DB935485C
:1034000090F81E0F48B12F48343831490A6842639A
:103410004A688263097A80F83C10042D1BD02E483C
:1034200090F820102B48B0F8CC07814206DA2A48E1
:1034300090F820102748A0F8511F03E000212548EC
:10344000A0F8511FFDF770FD16F0010F01D0FDF738
:103450008BFEFDF7C7FC00BF601CC4B21F48D0F84C
:103460007F02A0423FF737AE1A4890F81E0F38B1DE
:1034700017480168019141680291007A8DF80C00AB
:1034800010485A380A9901600B9941609DF8301034
:1034900001721B3007990160089941609DF8241062
:1034A00001720B3004994163059981639DF81810EE
:1034B00080F83C100748A0F8657FA0F84F8F10B047
:1034C000BDE8F0811C3C0020EB2F0020F0B6030883
:1034D000A8B60308681D00206A2E0020682D002071
:1034E0002DE9F04186B00446002700251CB9EA49C1
:1034F0000020FEF7B1F9E8481230E7490A68026097
:103500004A684260097A0172E44890F8EC080028A1
:103510007ED0E24890F80E0F002879D100BF00213C
:10352000DE4880F8311F8DE128F070FBDC48007C1C
:1035300010F0080F1DD0022D19D1D74887380399F4
:103540000160049941609DF814100172D34890F80D
:10355000310F00EBC000D0491B310144CE48873801
:1035600002680A6042684A60007A087214E0012525
:1035700060E1022D00D15DE1C84890F8310F00EB09
:10358000C000C5491B310144C34887380A6802603E
:103590004A684260097A0172BF48E138C1490A6845
:1035A000C2664A680267097A80F874105A3002F0DD
:1035B000B5FE00287ED0B8486138BA490A6842632F
:1035C0004A688263097A80F83C103430B449B1F813
:1035D0000D20A0F80120C97BC170B148007C10F01B
:1035E000010F25D1AC48E13800F15A010A68C266E2
:1035F0004A680267097A80F874100420A6492D39B8
:103600000870A1F1480014F06DF90021A24800E013
:1036100035E1753829F0DAFB9F4975390120FEF74D
:103620001BF99D49753901F18700FDF789FA4DE0D5
:10363000032C01D0022C49D19748E13800F15A01FE
:103640000A68C2664A680267097A80F87410B43062
:103650004078992813D190482D38807899280ED138
:103660008D482D38C078992809D18B486C388D4900
:103670000A6802604A684260097A017226E0864858
:103680006C38A0F11B010A6802604A684260097A3E
:10369000017285493F30FDF753FA04207E492D39E8
:1036A0000870A1F13F000AF077F97B486C3829F0E7
:1036B00025FC00E00FE078496C39A1F109002CF0FD
:1036C000CFFE7549753903A82CF0CAFE0CB1042C45
:1036D00001D1FDF7EFFE022C7AD17148007C10F089
:1036E000020F73D06C48753802F018FE20B96C4890
:1036F000007C10F0040FF4D07FB9022D06D16B4985
:10370000D1F87C0103A917F0DBFC05E06749D1F88B
:103710007C01614917F0D4FC01271B2004F0E8FD6F
:103720005F48007C10F0100F23D05D496048FCF723
:10373000A6FD5F48FCF78FFD064620223046761C2A
:103740005B490A54594AD2F86412594A9019FCF755
:1037500096FD5348007C10F0010F05D14E49873982
:10376000534817F0ADFC04E04B496C39504817F052
:10377000A7FC202240214E48FCF739FD494801684A
:10378000009141680191007A8DF808004448B0F832
:103790000D00ADF801004248FCF75DFD8046424651
:1037A0003F494348FCF711FD02208DF800006946AF
:1037B0003F4810300CF086FE25203D49487400201B
:1037C0008874354975393A4817F07AFC31E0FFE7DB
:1037D000032C2ED13248007C10F0010F1FD030484E
:1037E000007C10F0020F1AD02B48873802F096FDAB
:1037F00020B92B48007C10F0040F10D026497539F1
:10380000274817F05DFC2648007C10F0100F06D00A
:103810002649D1F8640220496C3917F051FC1E4842
:10382000E13820490A68C2664A680267097A80F866
:10383000741000BF194890F8310F401CC1B21748EE
:1038400080F8311F154890F8311F90F8EC0881423C
:10385000FFF66AAE012D10D10F4912310020FDF79D
:10386000FBFF0D4812300168039141680491007A12
:103870008DF814000225002751E600BF00BF07485D
:1038800090F8110F20B9044912310020FDF7E4FF30
:1038900006B0BDE8F0810000493C0020681D002012
:1038A000702F0020A8B60308D5B6030850A503085A
:1038B0006C4D002010B58AB05C48407810F0040FC1
:1038C00053D15B480169019141690291007E8DF8F5
:1038D0000C00584901A814F005F8002442E05348B0
:1038E0002F3890F823000121A140084238D004EB82
:1038F000C4004F497C310844016807914168089130
:10390000007A8DF8240001A907A813F0EBFF4A49BB
:1039100007A80AF041F8002107A829F057FA07A9DB
:103920000120FDF799FF4148407810F0080F05D1BC
:103930009DF81C0080F080008DF81C003F4890F836
:103940001E0F28B19DF81C0080F080008DF81C002F
:1039500004EBC401364A7C32881807A9FDF7F0F859
:10396000601CC4B2082CBADB5EE031481D38016827
:10397000079141680891007A8DF8240007A802F0A9
:10398000CDFC002850D000244CE028482F3890F877
:1039900023100120A040014242D004EBC401244A7C
:1039A0007C32881802F0BAFCD0B304EBC401204A80
:1039B0007C32881802F0B2FC90B304EBC4001C49BE
:1039C0007C3108440168049141680591007A8DF8C2
:1039D0001800194904A813F085FF07A904A809F0E5
:1039E000DBFF1349263904A813F07CFF124904A811
:1039F00009F0D2FF002104A829F0E8F99DF8100091
:103A000000F0FC008DF8100004A90120FDF724FF50
:103A100004EBC401064A7C32881804A9FDF790F82B
:103A2000601CC4B2082CB0DB0AB010BD992E002077
:103A3000E83B0020DEB60308F0B60308681D00204E
:103A40000246914201DD00207047531A03EBD37008
:103A5000C0F34700F8E700002DE9FC5F664F6748B8
:103A6000007858B94FF0050800206449A1F8050016
:103A70001820C8710846B0F808A004E05F48B0F804
:103A800005A04FF00A084FF0000901E008F1010815
:103A900017F808000028F9D108F1010857484078C4
:103AA000C0000C2190FBF1F0554908805348C078C4
:103AB00088800C20C88018200881488100240020BC
:103AC00001904E48B0F80500002861D000204880E1
:103AD0004A48B0F8055000264DE0A146785DA8B9E7
:103AE000474A5189474A10192022FCF780FB444875
:103AF0004089044400222046641C42490A546D1C3B
:103B00003F484088401C3E49488034E0785D0128A9
:103B100001D1AD1C2FE000260AE039484089B042AF
:103B200005DD7A5D2046641C36490A54761C6D1CFE
:103B300032480089A84202DD785D0028EDD16D1C75
:103B4000F0B2009005E020222046641C2D490A5462
:103B5000761C2B484089B042F5DC2146641C294A7A
:103B60000098505426484088401C254948800198B8
:103B7000401CC0B2019021480089A842ADDC204819
:103B800040881F494989491C48431D49C86003E0D2
:103B900000201B494880C86025464FF000091EE000
:103BA00009EB0806B85D98B9761C4FF0000B06E0EB
:103BB00000222046641C13490A540BF1010BB85D26
:103BC000584502DDB4F5005FF2D309F1020906E0C1
:103BD000BA5D2046641C0B490A5409F10109D1451C
:103BE00002DAB4F5005FDBD30548C068611B084406
:103BF0000349C860BDE8FC9F00F0036400F0036463
:103C0000187C0020287C002010B5454890F8E1037E
:103C100030B1012820D002283AD0032871D153E0D6
:103C20003F4890F8000F30B1012808D002280AD090
:103C300003280DD108E03B48FEF744FB0AE0394871
:103C4000FEF728FB06E005E03648FEF7FFFA01E044
:103C5000002010BD00BF56E0314890F8000F30B191
:103C6000012805D002280BD003280DD104E00DE077
:103C70002C48FEF7EBFA09E02A48FEF7E7FA00BF06
:103C80002848FEF7FBFA01E00020E2E700BF3AE037
:103C9000234890F8000F30B1012808D002280AD03C
:103CA00003280DD10BE01F48FEF7F4FA00BF1D48B2
:103CB000FEF708FB06E01B48FEF7ECFA02E001E025
:103CC0000020C6E700BF1EE0154890F8000F30B195
:103CD000012808D0022807D003280DD108E0114898
:103CE000FEF7D8FA0AE009E00E48FEF7AFFA05E061
:103CF0000C48FEF7C3FA01E00020AAE700BF02E08B
:103D0000FFE70020A5E700BF0648007800F0F800B4
:103D1000044908700021024880F8001F012098E73C
:103D2000681D0020F83B002010B5124890F8000FE5
:103D300030B1012808D002280AD003280DD108E0AC
:103D40000D48FEF7BFFA0AE00B48FEF7A3FA06E0BB
:103D500005E00948FEF77AFA01E0002010BD00BF37
:103D60000220054908700021024880F8001F012048
:103D7000F4E70000681D0020F83B002070B5044601
:103D8000257815F00F0004D0012806D002280CD1A8
:103D900007E02046FEF77EFA00BF2046FEF77AFADB
:103DA00000BF2046FEF776FA00BF00BF257070BD49
:103DB0000EB5294890F94E01002802DA4FF0FF3085
:103DC0000EBD002029F0D8F82348D0F842010A217E
:103DD000B0FBF1F201FB12011F4880F849110220EB
:103DE0000FF026FD03200FF023FD02221A49903127
:103DF000684632F078FC19496846FCF7A1FE0222B9
:103E00006946154890300AF00BFB04200FF010FDB6
:103E1000FF21134880F8A31F01200FF009FD0F2197
:103E20000D48CE3029F075F801460B4880F8DD10BA
:103E3000042100F58F70FEF72FFE10B96FF0080017
:103E4000BEE705210748FEF727FE10B90120FEF75F
:103E500065FA0120B4E70000E12C0020B1B60308A8
:103E6000681D0020FF2D00202DE9F04706460C4676
:103E700015461F46681E00F00F010120884000F023
:103E8000FF0801202F4908702F48007848B9207892
:103E900010EA080F01D0012000E00020401C2A4950
:103EA000087029480078022802DD012026490870A0
:103EB00025480078022808D187F079002349C87185
:103EC000207840EA0800207007E087F06E001F4964
:103ED000C871207820EA080020701C48C079792831
:103EE00007D11B48D0F84C151848401DFCF7C7F9FE
:103EF00006E01748D0F850151448401DFCF7BFF9EC
:103F00001448017800231A460D202AF0D5FD1049E7
:103F100001EB86010868FF22002108F0E3F815F0A4
:103F2000800F0DD00A4901EB86010868FCF793F970
:103F3000814605F00F000123FF22494608F042FCAC
:103F4000BDE8F087A00200209E0200206C4D0020FA
:103F500050A50308E24C002010B500F007F8024815
:103F600090F8030F10BD0000681D002010B511F07F
:103F7000EBFA002855D00FF0BBF90446412C3DDD8B
:103F8000482C13DA2848A0F8494F09E00FF0B0F99F
:103F90000446412C04DD482C02DA2348A0F8494F9E
:103FA0002148B0F8490F4228F0D03AE0482C0AD115
:103FB0001D4890F8FC0E00B300211B4880F8FC1E41
:103FC000A0F84D1F2DE0184890F8FC0EA04228D014
:103FD000154880F8FC4EA4F1480081B21248A0F8C0
:103FE0004D1FB0F84D1FB0F82D05814219DD00219D
:103FF0000D48A0F84D1F80F8FC1E12E00A4890F80A
:10400000C103A0420DD1084890F8190F462808D0E6
:10401000054890F82C0F20B91B21034880F8031F96
:1040200010BD00BFFCE70000681D00207FB5002127
:104030006846FEF791FC0546CDB100240BE01DF863
:10404000041004FB04F00A300A4A105C41400DF8E9
:104050000410601C04B2042CF1DB009E0648D0F86A
:104060004201B04201D1012000E000200546E8B243
:1040700004B070BDA7C80308E12C00202A4A92F8BA
:10408000022402F00F0100294CD097282ED008DC22
:1040900015280FD0812813D0822817D0852837D132
:1040A0001EE09A2828D0CF282CD0E1282CD0F82840
:1040B0002ED12BE0012901D15D2000E0402030E02D
:1040C000022901D17D2000E07E202AE0012901D1D2
:1040D0007B2004E0062901D15D2000E0602020E083
:1040E000062901D17B2000E040201AE0062901D1F9
:1040F000602000E07C2014E0022901D15D2000E076
:104100005E200EE024200CE07E200AE05B2008E028
:104110007F2805DDB02803DA00F07F02034B985CAE
:1041200000BF00BF70470000681D00203ECE03089E
:1041300010B50446611CC8B2002211462FF040F8A9
:1041400010BD0000F0B587B0044614B9474890F898
:10415000034FFF2C0CD10020FEF7E0F8434890F805
:10416000030FFF287FD10021404880F8031F7AE029
:104170003F480078A0420DD1002C74D03D48006823
:10418000002870D14FF4FA703A4908600120FEF718
:10419000C5F868E0022544B935480078002860D0A9
:1041A0000021084632F064FD5BE0AA1CD1B2E8B2FF
:1041B00032F05EFD3049D1F8EC02FCF74CF8C7B2A2
:1041C00039461320FFF73CFC401CC6B2EAB22A492C
:1041D000D1F8EC02314632F032FD002C1CDD642CAB
:1041E0001ADC04F1D201244A02EB81010868FCF7D1
:1041F00032F8C7B239461320FFF722FC401CC6B282
:10420000691CCAB204F1D2011B4B03EB810108689F
:10421000314632F014FD1DE0152101A8FBF7EEFF39
:104220001549D1F8EC02FCF716F806461248D0F80A
:10423000EC12324601A8FBF7C8FF214601A830F076
:104240007AFC00208DF81700681CC2B2092101A871
:1042500032F0F5FC4FF4FA70064908600120FEF7D1
:104260005DF80348047007B0F0BD0000681D002031
:1042700074020020E000002050A5030870B5FB4840
:1042800090F81F5F90F8C103A84205D14FF4FA607F
:10429000F7490880002070BDF448B0F8490F00F4D9
:1042A0007F40B0F5706F03D0F04890F8030F08B16D
:1042B0000120F0E7EF48007858B10020EC493E318A
:1042C00008700822EC49EA483F302CF045F80EF01F
:1042D00043FF284616F0B8F808B10120DBE7E548AF
:1042E000007848B1E5480078172805D1E4480078FF
:1042F000022801D1062412E0E048007817280AD1EC
:10430000DF480078042806D10624DD480078401EE6
:10431000DB49087003E028460CF03CFD0446D34816
:1043200090F8F30E38B10E2C05D00021CF4880F85C
:104330001F1F0120AFE7CD4890F8180F18B9CB48E0
:1043400090F80A0F58B1102C09DACE48007B1F28CC
:1043500005D00E21C54880F8031F01209BE7C54802
:104360000078A8B9C148B0F93F0F00280CDABF495E
:10437000B1F93F0F002801DB014600E041420AB2DB
:10438000BA49A1F83F2F03E00021B848A0F83F1F29
:10439000E01E0C286FD2DFE810F08B050C004805FA
:1043A000FC006E0047058A0545046E006E006E0035
:1043B0004804AE48B0F8490F10F4706F1AD0AB48FB
:1043C000B0F8490F00F47060B0F5706F0CD0112296
:1043D0000821042003F0E0FCAA48807A401EA74987
:1043E0000978081AA54908704721A048A0F8491F74
:1043F000012050E79D48B0F8490F442804D09B485D
:10440000B0F8490F462837D1984890F8E40E401C80
:10441000C1B2964880F8E41E90F8E40E99490979F3
:10442000884203DD0121914880F8E41E914800781C
:1044300078B18E48B0F83F0F30B18C48B0F93F0FDB
:1044400090490979884209DD0121884880F8031FD5
:104450006DE3864890F8E41EA0F83F1F834890F86B
:104460003F1F80F8E41E042008F054FE002003F0F3
:1044700083FA01200FE7FDE380480078002833DD50
:104480007F48007800282FDD7F48007800282BDD4A
:104490007E48007818B101207649087004E00121B7
:1044A000724880F8031FD3E778480078401C7749AA
:1044B000087001207449087008F048FA08B9002013
:1044C000E9E66A4890F8030F68B9714B1A79714BA5
:1044D00019786F4B987803F05FFC6D488178FF2264
:1044E0006D4807F0FFFDB3E76048B0F93F0F66285D
:1044F0001ADD5E48B0F93F0F6C2815DA5B48B0F85A
:104500003F0F6B2809D15948B0F8490F472804D00C
:104510000121564880F8031F05E05449B1F83F1FB8
:1045200088B201F0B5FF93E75048B0F83F0F40B1B3
:104530004E4890F83F0F401E5049087000205249E5
:1045400008704E48007810B14F48007888B94D483F
:1045500000794A490978884202DD4848007818B94C
:1045600001204649087004E044480078401C434953
:1045700008700E2049490870042008F0CBFD002087
:1045800041490870464908803D4908703F49087014
:104590005EE73648D0F8410F20F480313348C0F848
:1045A000411FB0F8490F442804D03048B0F8490FF3
:1045B000462835D12F480078A0B12C48B0F83F0FDD
:1045C00030B12A48B0F93F0F2E490979884204DDFD
:1045D0000121264880F8031F3AE7244890F83F1F3E
:1045E00080F8E41E2148B0F8490F442808D11F493B
:1045F00091F8E41E01F2352188B221F023F907E099
:104600001A4991F8E41E01F2392188B221F07CF9AF
:104610000121164880F8E41EFF2008F07BFD17E713
:104620001248B0F8490F47287ED11648007BE0B900
:104630001448807A134908800846C07A087100201F
:1046400048710E48C1F80600012008731548164944
:10465000086003F0C6FB312008F05CFD0E200F4916
:104660000870002008490870F2E61FE0681D00206D
:10467000BA3B00209F020020504D00209D020020E8
:104680009B020020E94C00209C0200209E0200209A
:1046900028180020E24C00206C4D0020A0020020D1
:1046A0009602002015D1000868020020FA48007B1D
:1046B0001F2815D0F948007890B9F748D0F80600BF
:1046C0000178F548807A401E0844F54908700020BA
:1046D000F4490880F4490870F4490870F4490870F6
:1046E000EF48007800281FD0EF48007801287AD1E1
:1046F000EF480078002876D0E848007810B901F03B
:10470000AFFDA5E60020EB490870E54800781F28BA
:104710006ED1E94890F8810888B30021E648A0F8F6
:10472000651F90F8810800E0B5E1E1490978B1EB37
:10473000400F59DC00221146E0A007F0D3FCE2490B
:10474000DB4A1278891A481E0122072107F0CAFCA9
:10475000D849491C01200DF06DFAD749A1F8650F21
:104760000846B0F8650FA0B90021084602F01AF912
:1047700030B9D14890F8CF03D4490870E7E337E067
:10478000CC49491C00200DF055FACB49A1F8650F22
:104790001BE0C948B0F8490F442816D0C648B0F805
:1047A0007C0801B2C448A0F83F1F0021012002F09C
:1047B000F9F8C148B0F87C18B0F93F0F814204DA2B
:1047C000BD4890F8CF03C1490870BB48B0F8650FE9
:1047D00001B2B948A0F83F1F002003F031F90120D1
:1047E00003F02EF904E020E00021B348A0F83F1FB9
:1047F000B148B0F83F0F38B1AF48B0F83F0F401E96
:1048000000B2A849088004E00121AB4880F8031FEA
:104810009DE30020A5490870A54908700021A6481D
:1048200080F8031F01209D49087000259C480078EE
:10483000482876D010DC412874D006DC19282CD00A
:104840003C2870D040281CD11CE045285BD046286D
:104850006BD04728F7D176E04938082811D2DFE835
:1048600000F0B5048EA91010AF929949D1F8280133
:10487000002130F0DFF918B100218F48A0F87C1832
:104880000325EFE09249D1F8A808012130F0D2F9D0
:1048900008B102F069FF0325E4E001238DA2194667
:1048A0001B2011F059FE0446012C06D1824890F8D5
:1048B00005080A2804DD6B2402E0022C00D16A24DA
:1048C0006B2C01D06A2C1CD1814901EB8401086852
:1048D000012130F0AFF9A0B16B2C05D180228149C4
:1048E0008148FBF772FC04E0802280497E48FBF798
:1048F0006CFC7148D0F8410F20F400716E48C0F88C
:10490000411F0325AEE07249D1F814017649EA311E
:104910002AF08CFA18B92421674880F8031F032570
:10492000A0E01EE042E03DE0FFE76949D1F8180150
:104930006D49DC312AF07AFA18B924215E4880F8F2
:10494000031F03258EE06249D1F81C016649E3315B
:104950002AF06CFA18B92421574880F8031F032560
:1049600080E05B49D1F820015F49F1312AF05EFA1D
:1049700018B92421504880F8031F032572E017F06E
:104980001FFB03256EE01AF077FC44201BF096FB1A
:1049900046201BF093FB18F0F5F9062025F068FF80
:1049A00003255FE017F046FF03255BE009F066FF93
:1049B000032557E04FF480500EF0DAFD032551E057
:1049C0004FF400500EF0D4FD03254BE000BF01234F
:1049D00047A20021492011F0BFFD0446002C3BDD19
:1049E0000A2C39DC04F1500084B2A4F151000A28E9
:1049F00031D2DFE800F005090E12161A1E22262B0E
:104A000002200EF0B5FD26E04FF480400EF0B0FD20
:104A100021E001200EF0ACFD1DE008200EF0A8FD05
:104A200019E004200EF0A4FD15E010200EF0A0FD0A
:104A300011E020200EF09CFD0DE040200EF098FDCE
:104A400009E04FF480600EF093FD04E04FF4006045
:104A50000EF08EFD00BF00BFA4F57F40FE38B6D13A
:104A6000032500BF00BFB5B1032D47D10A48807AA6
:104A7000401E0B490978081A0949087000200749A7
:104A8000087008490880084908700849087002F051
:104A900073FF01200DE43BE0E94C00209C02002064
:104AA0009D020020960200209B0200209E02002012
:104AB0009F020020F83B0020681D0020504C55202C
:104AC000434F444500000000524D00207C0200206E
:104AD00050A503084B4559424F4152442054595068
:104AE0004500000098A203088921002015930308BF
:104AF00053454C454354204954454D000021FA4844
:104B000080F8F31E90F8CF03F8490870012011E4F3
:104B1000F748F8490860F848007840BBF748007843
:104B200028B1F14890F8410F10F0080F00D00EE2C4
:104B3000F3480078401CF24908700020F1490870E1
:104B4000EF48007802281DDD012029F09FFAEE4889
:104B50000078072806D1012029F0A6FA06210020B6
:104B60000EF0F6FBE8480078E849C8700AE0E5482E
:104B7000007810B9E148007820B90121DA4880F8BE
:104B8000031FE4E10120E249087007F0DFFE08B9E5
:104B900000202EE4D44890F8030FA8BBD848007832
:104BA00000283EDDD548007817283AD0D448007850
:104BB00001280BDDD54B1A79D978987803F0ECF8F9
:104BC000D248C2788178D34807F08CFACA48007876
:104BD000D0B1CB480078401CC9490870012029F0A9
:104BE00055FAC9480078072806D1012029F05CFA57
:104BF000062100200EF0ACFB002002F0BDFE07F005
:104C0000A5FE10B9002035E40BE0B748B0F8410F1D
:104C100010F4807F05D1BD488178FF22BD4807F0A0
:104C200061FA94E125F0FEF991E1AF48D0F8410F27
:104C3000B9490840AC49C1F8410F0846B0F8490FDE
:104C4000A0F57041453921D14521A748A0F8491F59
:104C50000020AA490870B14890F84F0100F00801FF
:104C6000AE4880F84F11002002F086FE31F0ECFED5
:104C7000082000E02AE102F0E3FE9B49D1F8750F1D
:104C80000822002107F02EFA452019E49648B0F8D2
:104C9000490F10F4706F12D043219348A0F8491FB8
:104CA000002002F069FE082002F0CAFE8E49D1F809
:104CB000750F0822002107F015FA4320EAE698480C
:104CC0008C4908608E48007878BB9148007860BBBA
:104CD0008548B0F8490F442804D08348B0F8490FFC
:104CE000462809D1002085490870FF2008F012FAF3
:104CF0000E208C4908702AE108F018FC00217A483F
:104D000080F8F31E4721A0F8491F874801697648BB
:104D1000C0F8751F0146D1F8750F0822002107F071
:104D2000E1F904207F49087011E1FFE7734800783A
:104D3000C0B373480078012835DD70480078322808
:104D400031DA6E48007837282DDD6C480078BF28AE
:104D500029DA6A480078C22825DD684800782328C7
:104D600021DA6648007824281DDD6448007815287B
:104D700019D062480078162815D0604800781328AA
:104D800011D00020694908805D4908705D490870AC
:104D900059490870544890F8C71380F81F1FFFF74F
:104DA0006DFA3FE0FFE7002032F0E4F86048007B56
:104DB000D0B152480078B8B95E4800885C49088094
:104DC0005C4880780871002048714C48C1F80600A2
:104DD0000020087357480079887256488079C87255
:104DE00001204649087007E05148807A401E434937
:104DF0000978081A4149087000213B4880F8031FD0
:104E000000203D4908703D4909783031C8B208F0AA
:104E100081F900203E4908704449088038490870EB
:104E200038490870012035E600BF2F48D0F8410FFF
:104E300010F4803F3AD12C48B0F8490F472835D1BB
:104E40003348007888B33C48007802282EDD3A4881
:104E50000078401E2A4908702B48007800280CDD95
:104E60002949087802F0ECFD27480078401E2649C1
:104E70000870084600782549C8702349087802F070
:104E8000DFFD00201C4908701E49087007F05EFD18
:104E900048B1154890F8030F28B91C488178FF22C3
:104EA0001C4807F01FF90120F4E5FFE700BF00BF31
:104EB0000D48D0F8410F10F4803F05D0E0B20D4905
:104EC000096888470120E5E50020E3E51B480088E4
:104ED00040F6B731884233DD1848008840F61C415F
:104EE00088422DDA0020D5E5681D00207C020020D4
:104EF00011D10008680200209F0200209D020020BE
:104F00009B0200209E020020E24C00202818002076
:104F10009C0200206C4D0020C7FFFEFFE12C00200A
:104F200015D10008A002002050A503089602002019
:104F3000E94C002096C703089A020020BA3B0020E3
:104F40000B48407808B10120A4E50020A2E500BF8D
:104F500008480078022808D0074890F8410F10F060
:104F6000100F02D1002002F007FD012092E50000A1
:104F7000BA3B00209B020020681D002010B523488A
:104F80000088B0F57A7F3EDA20480088642190FBE3
:104F9000F1F201FB120090BB1D48B0F83F0F20B1A9
:104FA0001B48B0F93F0F632805DD0121184880F840
:104FB000031F012010BD154801881548B0F83F0FA8
:104FC000084412490880124890F8220FC0B101F13C
:104FD0006200007800F003010D4880F8001F00F522
:104FE000F45001464A6B02618A6B426191F83C10B1
:104FF00001760021064880F8221F0EF0ADF802E08D
:105000000020044908700020D4E70000BA3B0020CB
:10501000681D00209F02002010B50F4890F8490F2E
:10502000452804D00C48B0F8490F432812D102F0AB
:10503000A7F978B1002009490870074890F8030FD4
:1050400040B9082032F004F8002016F06DF9012074
:10505000FDF764F910BD0000681D0020A2020020C9
:1050600010B5774890F8F80310F0080F7ED0754817
:1050700000780D2803D0734800780C2876D1714849
:1050800000780C2803D130206F4981F842006E4827
:1050900090F84310303990F8420001EB0010C4B290
:1050A000262C14D008DC022C0FD0202C0ED0212C62
:1050B00016D0252C36D128E0272C27D0282C07D035
:1050C000292C24D0372C2DD10FE000BF00BF00BF0A
:1050D0005B4890F8FF0310F0800F00D123E000BF81
:1050E0000321574880F8051F1DE0554890F8FF033D
:1050F00010F0100F08D0544890F84400392803D11C
:1051000002214F4880F8051F0DE000BF00BF4C484A
:1051100090F8FF0310F0400F03D00421484880F8B6
:10512000051F00E000BF00BF454890F8050F0128AB
:105130001CDD464846490A6802614A684261097AAC
:105140000176414890F84D10303990F84C0001EB51
:1051500000103E49103148703B4890F84B103039F0
:1051600090F84A0001EB0010C1B200E066E0374859
:1051700010308170344890F849003038C1B233485B
:105180001030C1702E4890F8050F042811D12F4817
:1051900001460A6942634A698263097E80F83C10CD
:1051A00003202A49343108700121254880F8221F44
:1051B00010E0234890F8130F60B924482B3023499E
:1051C0000A6902604A694260097E017201211C4835
:1051D00080F8131F1A4890F8050F022803D1072002
:1051E0001849087011E02020174981F8430081F820
:1051F0004200134890F8050F042803D000211048FE
:1052000080F8221F05200F49087000240DE0C4F12A
:1052100048000D49085CC4F14E010B4A505420204F
:10522000C4F148015054601CC4B2072CEFDB0822C3
:1052300005494E31054811302BF08EF810BD0000A5
:10524000681D00209F020020024D0020E83B002046
:10525000A8B6030870B510F077F908B9002070BD42
:105260000EF046F804466B4981F81F0F6A48007833
:1052700010F0200F74D020460BF08CFD0C2829D0A4
:1052800005DC48B104281BD006286AD11CE00E2892
:1052900069D00F28F9D114E06048007878B1202057
:1052A0005F498870487008700020C8700822032188
:1052B0005B4806F017FF002058490870CFE700BF91
:1052C00000BF04F58070CAE7032002F0ADF904F5D1
:1052D0008070C4E70020534908704F48008820F0D0
:1052E00040004D49088050480078401C4E490870E5
:1052F0000846007840B101280CD0022810D00328BD
:1053000014D00020087000BF08220021612005F0A1
:10531000F1FD22E008220021412005F0EBFD1CE018
:10532000082200212A2005F0E5FD16E020203C4956
:105330008870487008700020C8700822032138481F
:1053400006F0D0FE08220021402005F0D3FD002009
:10535000324908703249087000BF00BF00207EE764
:105360003BE02BE0FFE72D48007820B9294890F872
:10537000CF032E4908702948007870B120202849B1
:105380008870487008700020C870082203212448E3
:1053900006F0A8FE0020214908701F48008820F070
:1053A00020001D490880152221491B481538FAF7AD
:1053B0000CFF082031F04CFE002050E7194800781F
:1053C00058B919480078032803D120460FF076FE1B
:1053D00045E720460BF0EEFE41E7402C16DA154873
:1053E00000EB44000588302D01DB392D01DD2E2D29
:1053F00001D1284633E72F2D08D1064890F8410FF8
:1054000010F0100F02D143F2300028E744F480700E
:1054100025E70000681D0020E04C0020E40100208A
:10542000E0010020E8010020E50100207C020020CE
:10543000E01800208921002010B5084800780849AC
:105440000978884201D1002010BD31F0F3FD10F041
:10545000AFFB044802490978405CF5E75D00002095
:105460005E0000203C05002010B52B4880682A49CA
:105470000968884208D32848806827490968401A83
:10548000254949690C1A04E02348006822498968C3
:10549000441AB4F5806F2AD21F48007E022826DA0B
:1054A00002F0B0FC1D49D1F83C030822092106F0A6
:1054B00019FE0320FCF732FF08E0194991F8F513B3
:1054C000491EC8B2FEF734FE00B10AE010F03CF805
:1054D0000028F2D00DF00CFF114991F8C113884259
:1054E000EBD100BF0C48007E401C0B4908760A48EF
:1054F000806809490968884208D3074880680649D6
:105500000968401A04494969081A10BD0248006830
:1055100001498968401AF8E7B53C002050A5030806
:10552000681D0020FEB506460C460CB90020FEBDE5
:1055300018480168009141680191007A8DF80800CF
:105540000A2194FBF1F201FB124000EBD071C1F390
:1055500047050A2094FBF0F0C1B20DF1010041555E
:10556000204604EBD0714910B4EB410107D00DF196
:105570000100405D0007010E0DF101004155694633
:10558000304603F009FC012801DA0020CFE70120B2
:10559000CDE70000A8B6030870B58AB00446AB4852
:1055A00090F8F80310F0040F74D0A84890F885081C
:1055B00028B9A64890F8410F10F0060FF4D0002546
:1055C000A24890F8410F10F0020F7DD0A04801686A
:1055D000079141680891007A8DF824009B4890F863
:1055E00084289C490DF11D00FAF7EFFD07A800F093
:1055F00095FE08B90AB070BD012C12D196489449A5
:105600000A6802604A684260097A01728F4890F81D
:10561000F76E032180F8F71E2AF086FA8B4880F88F
:10562000F76E8D480168049141680591007A8DF804
:10563000180000208DF8100085480168019141682C
:105640000291007A8DF80C0007E007A904A82AF05F
:1056500007FF824901A8FBF773FA07A904A803F022
:105660009BFB0028F1DA7C4800788DF804007A4929
:105670001B317948FBF764FA7748067800207649B1
:10568000087073480168049141680591007A8DF8AB
:10569000180008E0D7E007A96F482AF0E1FE6F493B
:1056A00004A8FBF74DFA07A96B4803F075FB002827
:1056B000F1DA8DF8106001A904A82AF0D1FE0021CA
:1056C00004A827F083FB00E027E004A800F026FEF2
:1056D000002859D0604824385D490A6802604A6849
:1056E0004260097A0172594890F8842859490F3963
:1056F00001F6B340FAF769FD04A95748243812F0BF
:10570000F1F855482438007880F080005249243957
:105710000870022C38D0052536E04C4890F8410F2F
:1057200010F0040F30D04C48243849490A68026010
:105730004A684260097A0172444890F884284549D1
:105740000F3901F6B340FAF740FD042042492439ED
:1057500008703631A1F1360012F0C4F83E491B3111
:10576000A1F13F0012F0BEF800213B48243827F099
:105770002DFB39482438007880F0800036492439E0
:105780000870022C00D01125002D5CD0324924393C
:10579000A1F1B20015F094FC00212C4880F8011F03
:1057A00011E00BF083FA25F0DFFB2A48A13840789E
:1057B000A84200D10EE0254890F8010F401CC1B26C
:1057C000224880F8011F214890F8011F90F86207D5
:1057D0008142E6DB00BF1D48D0F8410F40F00401D4
:1057E0001A48C0F8411F1C483F38016807914168BA
:1057F0000891007A8DF8240017483F3800F11B010A
:105800000A6802604A684260097A01720F4890F89B
:10581000842810490F3901F6CE40FAF7D6FCFBF781
:1058200019FB0D483F3807990160089941609DF8C0
:10583000241001721CB100F11B01FBF781F9012159
:10584000024880F8391F00BFD4E60000681D002020
:10585000A8B603083A2F0020013C0020B1B6030887
:105860002DE9F0410026FE4890F81F5F90F81F1FB9
:1058700090F8D003814204D10FF060FE0120BDE812
:10588000F081F74890F8030F08B10020F7E72846A9
:105890000BF080FA0446102C01DB0020EFE7022C0D
:1058A00003D1F0480078002802DD0020EE4908709E
:1058B000EB4890F8F30E28B30E2C1CD131F0C4F84D
:1058C0000021E74880F8F31E0020E849088002F034
:1058D00053F80020E6490870E648807A401EE64901
:1058E0000978081AE449087009783031C8B207F01D
:1058F00011FC0120C3E7062C04D00020DB490880FE
:105900000120BCE70B2C30D006DC012C7ED0022C11
:105910007DD0062C7CD1F7E00C2C7AD00D2C79D0E0
:105920000E2CF7D1CE48B0F8490F10F4706F1AD092
:10593000CB48B0F8490F00F47060B0F5706F12D02A
:1059400011220821042002F027FACA48807A401E5A
:10595000C9490978081AC84908704721C048A0F801
:10596000491F01208BE7002089E7BD48B0F8490FA7
:10597000432804D0BA48B0F8490F45284FD1B84859
:1059800090F8F50E80F08001B54880F8F51E2022D1
:105990001521BA48FAF72BFCB949D1F88000FAF77B
:1059A0005AFC0746B648D0F880103A46B348FAF792
:1059B0000CFCAB4890F8F50E10F0800F13D0A848FF
:1059C00090F8F00E411CAD48C01D2FF099F82D2025
:1059D000AA490872A24890F8F00E4100A748093081
:1059E0002FF0A9F80EE00121A448C01D2FF088F87F
:1059F0002D20A24908729A4890F8F01E9F4809305D
:105A00002FF099F8082209219C4804E046E02AE09A
:105A1000A5E306E099E106F065FB01202FE70020F1
:105A20002DE78F48B0F8490F472806D08C48B0F8CA
:105A3000490FA0F57041453913D1894890F8410FBD
:105A400010F0100F0DD08F48007810F0200F03D009
:105A5000032001F0E9FD02E0022001F0E5FD012054
:105A60000DE700200BE77E48B0F8490F432813D11B
:105A70007B4890F8F603401C7B49097808437A4933
:105A80000870012001F080F97748007880F08000EC
:105A9000754908700120F2E60020F0E6704890F8A1
:105AA000FA0310F0200F2DD06E48007850BB6C48E0
:105AB000B0F8410F10F4006F11D102F081F9704974
:105AC000D1F8E0070822042106F00CFB6448D0F866
:105AD000410F40F400616248C0F8411F10E002F03D
