:020000040800F2
:10000000E8C0002045010008298301086D3C010873
:100010009D800108A52800084D5603080000000037
:1000200000000000000000000000000095CC020865
:100030001DA7000800000000B1A9010885F402080E
:100040005F0100085F0100085F0100085F01000810
:100050005F0100085F0100085F0100085F01000800
:1000600065E900085F0100085F0100085F01000802
:100070005F0100085F0100085F0100085F010008E0
:100080005F0100085F0100085F0100085F010008D0
:10009000455303085F0100085F0100089DE900085F
:1000A0005F0100085F0100085F0100085F010008B0
:1000B0005F0100085F0100085F0100085F010008A0
:1000C0005F0100085F0100085F0100085F01000890
:1000D0005F010008914E0308614F03085150030867
:1000E0005F0100085F010008395303085F01000841
:1000F0005F0100085F0100085F0100085F01000860
:100100005F01000855C002085F0100085F01000898
:100110005F0100085F0100089DF60208CDF70208A4
:100120005F0100085F0100085F0100085F0100082F
:10013000DFF80CD000F0F2FA00480047F17D030828
:10014000E8C000200648804706480047FEE7FEE773
:10015000FEE7FEE7FEE7FEE7FEE7FEE7FEE7FEE777
:10016000E5F40208310100082DE9F05F05460020A2
:1001700092469B4688460646814640241BE0284618
:1001800041464746224600F0C8F853465A46C01A30
:10019000914110D311461846224600F0AFF82D1AAF
:1001A00067EB01084F4622460120002100F0A6F827
:1001B00017EB00094E41201EA4F10104DFDC484684
:1001C00031462A464346BDE8F09F40EA01039B07BB
:1001D00003D009E008C9121F08C0042AFAD203E0BC
:1001E00011F8013B00F8013B521EF9D27047D2B220
:1001F00001E000F8012B491EFBD270470022F6E710
:1002000010B513460A4604461946FFF7F0FF20468C
:1002100010BD421E12F8013F002BFBD111F8013B2B
:1002200002F8013B002BF9D1704710B5044604E0F9
:100230000B7800F8013B03B1491C521EF8D220464E
:1002400010BD421C10F8011B0029FBD1801A704719
:1002500010B5002200E0521C835C8C5CA34201D1EB
:10026000002BF8D1D8B2E1B2401A10BD30B5044627
:100270000020034600E05B1C934203D2E05CCD5CAF
:10028000401BF8D030BD034611F8012B00F8012BBC
:10029000002AF9D11846704730B5054600200346BC
:1002A00000E05B1C934205D2EC5CC85C201A01D1D3
:1002B000002CF6D130BD70B5064636F00FF8046854
:1002C00005460A220021304600F037F82C6070BD48
:1002D00030B50B46014600202022012409E021FA16
:1002E00002F59D4205D303FA02F5491B04FA02F513
:1002F0002844151EA2F10102F1DC30BD202A04DBE6
:10030000203A00FA02F1002070479140C2F1200328
:1003100020FA03F3194390407047202A04DB203A67
:1003200021FA02F00021704721FA02F3D040C2F115
:10033000200291400843194670472DE9F047914645
:100340000F4680460446002614F8015B2DB100F0EC
:1003500009FA0068405DC007F6D12B2D02D02D2D83
:1003600018D0641E4A463946204600F0FFF927B1EE
:100370003968A14201D1C7F8008071054FF002042D
:100380000BD54042002803DD35F0A8FF0460A0072C
:10039000BDE8F08746F48066E4E70028F8DA35F037
:1003A0009DFF04606FF00040F2E72DE9FE4F8046AC
:1003B00081EA0300C00F0C46009021F0004123F0B9
:1003C0000045B8EB0200A94105D2404621469046BF
:1003D0001C460B46024623F00040104347D0270D31
:1003E000C7F30A00C3F30A510290401A0190402853
:1003F0006BDAC3F3130040F4801B0098924620B1DF
:100400000023D2EB030A63EB0B0B01985946C0F1B2
:1004100040025046FFF772FF06460D4650465946C9
:10042000019A00F08DF910EB08006141002487EA81
:10043000115284EAE7731A4340D0009A62B3019ADA
:10044000012A4FEA075215DC001B61EB02014FF055
:10045000004202EA0752CDE90042001C41F580113A
:1004600032462B4600F0E0F903B0BDE8F08F40467D
:100470002146F9E7001B61EB0201001C41F58013E6
:1004800000185B412018A2F5001747EB030140EA72
:10049000D570B6196D4111E06D084FEA360645EA90
:1004A000C0754FEA0752001B61EB0201001C41F5C9
:1004B000801149084FEA30000019514132462B465D
:1004C00003B0BDE8F04F00F0A0B900980122400051
:1004D0000023D0EB020263EBE073009821464FEA61
:1004E000E074B8EB000061EB0401E9E783F000433E
:1004F0005BE781F0004158E72DE9FE4F81EA0304F4
:1005000004F0004421F0004100944FF0000B23F070
:10051000004350EA01045ED052EA03045BD0C3F307
:100520000A54C1F30A552C44A4F2F3340194A0FBFD
:100530000254C1F3130141F48011C3F3130343F4D4
:10054000801301FB024400FB034E840A970A44EA2D
:10055000815447EA8357A4FB076802958D0A05FB7F
:1005600007854FEA932C04FB0C542705029D4FEAA4
:10057000065847EA1637B5EB08056EEB070C870EF1
:10058000920E47EA811742EA8312A7FB0201B6EBFB
:100590000B0164EB00042B0D43EA0C335E1844EBB3
:1005A0001C50DA465146E7FB0201C5F313044FEA3B
:1005B0000B3343EA14534FEA0432019C43EA060327
:1005C000A4F10C040294009CCDE900B400F02CF9D5
:1005D00003B0BDE8F08F00200146F9E72DE9F04DAA
:1005E00081EA030404F0004B21F0004514464FF06B
:1005F000000A23F0004150EA050220D054EA01022B
:100600001DD0C5F30A570246C5F31303C1F3130007
:10061000C1F30A5640F4801543F48013A7EB060893
:10062000101BD64608F2FD3873EB050002D308F123
:10063000010801E092185B41B8F1000F03DA0020D5
:100640000146BDE8F08D00204FF480110646844637
:100650000EE0171B73EB050705D3121B63EB0503B5
:1006600006434CEA010C49084FEA300092185B41FE
:1006700050EA0107EDD152EA030012D082EA0400E9
:1006800083EA0501084305D0101BAB4106D20122C5
:10069000002306E000224FF0004302E06FF0010269
:1006A00053101AEB06004CEB085110EB0A0041EB1B
:1006B0000B01BDE8F04D00F0A8B8C1F30A52C1F338
:1006C000130140F2FF3341F480119A4202DA002014
:1006D0000146704740F233439A42A2F2334202DCB1
:1006E0005242FFF71ABEFFF709BE000030B5041EE4
:1006F00071F1000404DB4FF00044404264EB01015F
:10070000141E73F1000405DB1C464FF000435242F7
:1007100063EB0403994208BF904230BD064C074D7D
:1007200006E0E06840F0010394E8070098471034C1
:10073000AC42F6D3FFF700FD3CFA03085CFA03086D
:10074000202A06DBCB17203A41FA02F043EAE07395
:1007500006E041FA02F3D040C2F120029140084382
:10076000194670470048704730D503082DE9F05FFF
:1007700082460078002715468B460AF10104B946E7
:10078000302801D09DB113E014F8010B012778281F
:1007900003D0582801D045B10AE00DB1102D07D182
:1007A0000027102514F8010B02E0082500E00A25B7
:1007B0000026B0460EE005FB080005FB06F1012708
:1007C00001EB10461FFA80F8B6F5803F00D3B9461A
:1007D00014F8010B294600F075F80028EBDABBF19C
:1007E000000F05D00FB1641E00E05446CBF8004066
:1007F000B9F1000F06D035F071FD02210160C81E6D
:10080000BDE8F09F48EA0640FAE710B5141E73F100
:10081000000408DA401C41F1000192185B411A43C0
:1008200001D120F0010010BD2DE9F04D92469B460C
:1008300011B1B1FA81F202E0B0FA80F220329046B2
:10084000FFF75CFD04460F4640EA0A0041EA0B014F
:1008500053465A46084313D0114653EA010019D0B3
:10086000C8F140025046FFF758FD05460E46504677
:1008700059464246FFF742FD084305D0012004E0F7
:1008800020463946BDE8F08D0020054346EAE07673
:100890002C4337430A986305E40AA0EB08000022C2
:1008A000FD0A44EA47540A3002D500200146E9E730
:1008B000010510196941DDE9084500196941BDE8E4
:1008C000F04DA2E73A2800D2303820F02002412A29
:1008D00001D3A2F13700884201D34FF0FF307047B7
:1008E00070B58C1810F8015B15F0070301D110F8F2
:1008F000013B2A1106D110F8012B03E010F8016B1F
:1009000001F8016B5B1EF9D12B0705D40023521EA1
:100910000DD401F8013BFAE710F8013BCB1A921C09
:1009200003E013F8015B01F8015B521EF9D5A14207
:10093000D8D3002070BD000000B591B001214FF464
:10094000047028F09FFC0121084628F07BFC4FF43E
:10095000404028F06BFC264809F044FD25480190F2
:100960002548029000200390032004900020059069
:100970008020069040000790800008902020099079
:1009800000020A9000200B9001A9194809F0D0FD3F
:100990000121174809F01AFD00200C9001208DF864
:1009A00034008DF835004FF460200E9000200F9039
:1009B00003208DF840000CA90E484C3800F034F8A4
:1009C000072301220E210B484C3800F055F807236D
:1009D00002220F2107484C3800F04EF803231A4634
:1009E0000A2104484C3800F047F811B000BD00005F
:1009F000080002404C2401408800002021B1826898
:100A000042F00102826003E0826822F0010282600B
:100A1000704721B1826842F48072826003E082688C
:100A200022F480728260704730B5024600200023B5
:100A300050680F4C20400D790C6844EA052420438F
:100A4000506090680B4C2040D1E902542C434D7902
:100A500044EA450420439060D06A20F470000C7C86
:100A6000641EE4B2234340EA0350D06230BD00006C
:100A7000FFFEF0FFFDF7F1FFF0B504460D46002044
:100A80000021092D11DDE068A5F10A0606EB4607F5
:100A9000072606FA07F18843A5F10A0606EB460683
:100AA00003FA06F10843E0600CE0206905EB450716
:100AB000072606FA07F1884305EB450603FA06F117
:100AC00008432061072A0FDA606B561E06EB860783
:100AD0001F2606FA07F18843561E06EB860605FA1E
:100AE00006F10843606322E00D2A0FDA206BD61F5F
:100AF00006EB86071F2606FA07F18843D61F06EB8A
:100B0000860605FA06F10843206310E0E06AA2F1C8
:100B10000D0606EB86071F2606FA07F18843A2F1A9
:100B20000D0606EB860605FA06F10843E062F0BD05
:100B300021B1826842F4A002826003E0826822F45C
:100B4000A0028260704700002DE9F04105460E4684
:100B5000287800F080004D490870307800F080005F
:100B60004B490870287800F007004A49087030782F
:100B700000F007004849087011214848FFF73EFB84
:100B800011214748FFF73AFB4448D5F801100160AE
:100B9000D5F8051041604248D6F801100160D6F83A
:100BA000051041603B4800783B49097888420FDDD9
:100BB00007E039480078401C37490870384801F090
:100BC00063F834480078344909788842F1DC14E04D
:100BD000304800783049097888420EDA07E02D481D
:100BE0000078401C2B4908702C4801F04DF829482A
:100BF0000078294909788842F1DB072425E0274855
:100C0000005D2749095D884200DD20E02348005D42
:100C10002349095D884216DA002409E01F48075D70
:100C20001F48005D1D4908551D480755601C04B24A
:100C3000082CF3DB1648077814480078144908702C
:100C40001248077003E0601E04B2002CD7DA00BF20
:100C50000E4800780E490978884202D100F024F845
:100C600001E02EF0FDF8094800780E49087009F0FF
:100C7000ADF80C480078287008480168C5F80110E4
:100C80004068C5F80500BDE8F081000007020020BB
:100C900008020020090200200A020020641A002035
:100CA000751A00200602002070B5002100240020E3
:100CB00030E01A4D2D5C05F00F05184E365C3611EC
:100CC00006EB860605EB4605EAB2154D2D5C05F0F0
:100CD0000F05134E365C361106EB860605EB46050E
:100CE000EBB2D5182544E9B2632904DDA1F164050E
:100CF000E9B2012400E000240A2591FBF5F605FB8A
:100D000016150A2691FBF6F605EB0615034E35542B
:100D1000451C28B21028CCDB70BD0000641A0020EE
:100D2000751A002010B510F09DF9174890F8690267
:100D300016490968084415490860002112486130C5
:100D400080F8A21A19E01048613090F8A21A00F257
:100D50000A2000EBC10100F671300A6802604968A0
:100D6000416000F0ADFA0848613090F8A20A401CDA
:100D7000C1B20548613080F8A21A0348613090F88A
:100D8000A20A0628DFDB10BD672A0020000200202F
:100D900010B510F079F9174890F89E0216490968C5
:100DA00008441549086000211248613080F8A21AF1
:100DB00019E01048613090F8A21A00F23F2000EBD1
:100DC000C10100F63C300A6802604968416000F0E9
:100DD00077FA0848613090F8A20A401CC1B2054871
:100DE000613080F8A21A0348613090F8A20A062800
:100DF000DFDB10BD672A00200002002010B51A4872
:100E0000B0F8C91A6138B0F8D00281422BDA10F07C
:100E100007FA1548613890F8D40214490968084463
:100E2000124908600021104880F8A21A16E00E4806
:100E300090F8A21A00F51E7000EBC10100F6033015
:100E40000A6802604968416000F03AFA064890F882
:100E5000A20A401CC1B2044880F8A21A024890F8C5
:100E6000A20A0628E3DB10BDC82A002000020020E9
:100E700010B5204890F8220440F020011D4880F869
:100E8000221410F01DFA1C4890F80C031B49096845
:100E900008441A49086000211748613080F8A21AF6
:100EA00019E01548613090F8A21A00F2AD2000EB6D
:100EB000C10100F6CE200A6802604968416000F076
:100EC000FFF90D48613090F8A20A401CC1B20A48EF
:100ED000613080F8A21A0848613090F8A20A06280A
:100EE000DFDB044890F8220420F02001014880F85C
:100EF000221410BDC85A0020672A002000020020DA
:100F000010B51A4890F87B1A613890F83E03814278
:100F10002BDA10F0E7F91548613890F841031449CD
:100F200009680844124908600021104880F8A21A94
:100F300016E00E4890F8A21A00F2E22000EBC10180
:100F400000F699200A6802604968416000F0B8F92B
:100F5000064890F8A20A401CC1B2044880F8A21AC0
:100F6000024890F8A20A0628E3DB10BDC82A002038
:100F70000002002010B53448D0F8E0003349086082
:100F800000213148613080F8A21A19E02E48613002
:100F900090F8A21A00F2D51000EBC10100F6A630BD
:100FA0000A6802604968416000F08AF926486130A9
:100FB00090F8A20A401CC1B22348613080F8A21AFE
:100FC0002148613090F8A20A0628DFDB0021204882
:100FD00080F81C14A0F54050B0F8CB1A6138B0F876
:100FE000730381422FDA10F0C5F9174890F87703A0
:100FF0001649096808441549086000211248613003
:1010000080F8A21A19E01048613090F8A21A00F591
:10101000467000EBC10100F663200A68026049686F
:10102000416000F04DF90848613090F8A20A401C78
:10103000C1B20548613080F8A21A0348613090F8C7
:10104000A20A0628DFDB10BD672A0020000200206C
:10105000C85A00207CB529484488294812F026FB4C
:10106000274BDA78997818880DF0E9FD25494881F1
:10107000B4F5006F3DDA4FF4004000EB0415014673
:1010800001EB04101F4A0A32102136F091F81D4975
:101090000C8000204880009001904FF4804101EBCB
:1010A000C4006A46082136F083F814484088401C82
:1010B00012494880C4F3090412480088B0F5806FD3
:1010C00004DA10480089B0F5804F09D00D48008837
:1010D000B0F5806F11DB0B480089B0F5C04F0CD123
:1010E00008481A3000EBC400009901600199416082
:1010F00003E05A21044880F87C1A7CBD03350020A7
:10110000045F0020CB6B0020C82A002010B511F02E
:10111000BDF8174890F8AF03164909680844154907
:10112000086000211248613080F8A21A19E01048C6
:10113000613090F8A21A00F5587000EBC10100F67A
:101140001B200A6802604968416000F0B9F808484D
:10115000613090F8A20A401CC1B20548613080F8A5
:10116000A21A0348613090F8A20A0628DFDB10BDFE
:10117000672A00200002002010B54FF0FF3011F068
:1011800063F9174890F8C0031649096808441549DF
:10119000086000211248613080F8A21A19E0104856
:1011A000613090F8A21A00F5647000EBC10100F6FE
:1011B000EB100A6802604968416000F081F8084855
:1011C000613090F8A20A401CC1B20548613080F835
:1011D000A21A0348613090F8A20A0628DFDB10BD8E
:1011E000672A00200002002010B511F05DF91748B1
:1011F00090F8270416490968084415490860002139
:101200001248613080F8A21A19E01048613090F855
:10121000A21A00F2CD3000EBC10100F6AE100A6850
:1012200002604968416000F04BF80848613090F86E
:10123000A20A401CC1B20548613080F8A21A0348D6
:10124000613090F8A20A0628DFDB10BD672A002073
:101250000002002010B511F0B1F9174890F86104B0
:101260001649096808441549086000211248613090
:1012700080F8A21A19E01048613090F8A21A00F222
:10128000024000EBC10100F679100A68026049686B
:10129000416000F015F80848613090F8A20A401C3F
:1012A000C1B20548613080F8A21A0348613090F855
:1012B000A20A0628DFDB10BD672A002000020020FA
:1012C00070B56A4890F88D0A00B170BD674890F813
:1012D0007B0D00B9F9E76648407800B9F5E7634847
:1012E00090F8950A00B1F0E70024604890F87B0D73
:1012F00000F0010018B15E484078204484B25B4899
:1013000090F87B0D00F0020018B159484078204455
:1013100084B2564890F87B0D00F0040018B1544890
:101320004078204484B2514890F87B0D00F00800CA
:1013300018B14F484078204484B225464B4890F875
:10134000A20A062864D2DFE800F003061D344B62CF
:10135000002400255DE045486138B0F86C0100B913
:10136000B3E742486138B0F86C116130B0F8C50A93
:10137000081A684385B23D48B0F8C50A401E60436C
:1013800084B246E03948613890F8FD0400B99CE722
:101390003648613890F8FD14613090F8AF0A081AA9
:1013A000401E684385B2314890F8AF0A604384B26A
:1013B0002FE02E48613890F82E0500B985E72B48BC
:1013C000613890F82E15613090F8780A081A401E9E
:1013D000684385B2254890F8780A604384B218E0E3
:1013E0002248613890F82F0500B96EE71F48613830
:1013F00090F82F15613090F89A0A081A401E684339
:1014000085B21A4890F89A0A604384B201E05CE71A
:1014100000BF00BF17480068204416490860134801
:1014200090F87B0D00F0010008B100F015F90F48AD
:1014300090F87B0D00F0020008B100F00DF90B48A8
:1014400090F87B0D00F0040008B100F005F90748A2
:1014500090F87B0D00F0080008B100F0FDF8054899
:10146000006828440349086000BF2EE7C82A00200E
:1014700043380020000200203EB5204890F8830A3F
:1014800000283AD11D4890F8800A022835D01B4820
:1014900090F88D0A00BB194890F8930A08B104240B
:1014A00000E0002416480168009141680191007A2B
:1014B0008DF80800134890F8230400F0010060B193
:1014C0001148406DCDF8010010496846FFF73CFB1C
:1014D0000D48DDF8011041650FE00B484D30204408
:1014E0000068CDF8010009496846FFF72DFB064862
:1014F0004D302044DDF8011001603EBDC82A0020B7
:10150000B8CA0308C85A0020C8340020C1CA03085A
:1015100070B504460126174890F8AB0A44401548B8
:1015200090F8AC0A444000250EE004EA060038B109
:1015300005EBC501104A8818A2F21711FFF704FB4A
:101540007006060E681CC5B2082DEEDB0B4901F1D2
:101550008700FFF7F9FA09495A3101F13600FFF720
:10156000F3FA044890F8AC1A80F8AD1A002180F81C
:10157000AC1A70BDC82A00203A5100202350002028
:1015800010B512F06FF8174890F8960416490968DC
:1015900008441549086000211248613080F8A21AF9
:1015A00019E01048613090F8A21A00F2374000EBC1
:1015B000C10100F644100A68026049684160FFF703
:1015C0007FFE0848613090F8A20A401CC1B205486D
:1015D000613080F8A21A0348613090F8A20A062808
:1015E000DFDB10BD672A00200002002010B512F0DA
:1015F0004BF8174890F8CB04164909680844154978
:10160000086000211248613080F8A21A19E01048E1
:10161000613090F8A21A00F26C4000EBC10100F6B4
:101620000F100A68026049684160FFF749FE0848E8
:10163000613090F8A20A401CC1B20548613080F8C0
:10164000A21A0348613090F8A20A0628DFDB10BD19
:10165000672A00200002002010B5404890F8930A45
:1016600060B13E4890F8A20A012807D03C48407873
:101670003C49096808443B49086010BD3948046882
:1016800029F0BAF837480460344890F86F0A38B146
:1016900034F06EFD324840782044324908605AE008
:1016A0002F48807890B12E482B30407A00F0080007
:1016B00060B92A4890F8B10A40B9284890F8800AE1
:1016C00020B9294926482B30FFF73EFA2448C07834
:1016D00060B123482B30407A00F0830020492B3141
:1016E000487222491E483430FFF72EFA1C48007910
:1016F00028B11E495A391A483D30FFF725FA1848D3
:101700004079A0B119492431154846302DF0E8FB45
:1017100013482B30C07E00F0800040B110484630A6
:1017200013490A6802604A684260097A01720C48EB
:10173000807928B10D493F3909484F30FFF704FA45
:101740000748C07928B10949483905485830FFF79A
:10175000FBF934F00DFD00BF8FE70000C82A002020
:101760004338002000020020C1CA03087D50002039
:10177000B8CA030838B50546681E00B26249088039
:101780000020624908700021614880F87C1A80F8C6
:101790006C1A02205F49087001205F4908701E2002
:1017A0005E49087087215A48A0F8C31A1E205C4978
:1017B0000873002007F03EF835F0AEFF012036F048
:1017C00037FA25F047FF00BF002006F0ADFE00907D
:1017D000002003F091FBBDF8000000B9F4E7BDF86C
:1017E0000010C8B20FF0B2FD04460E2C00D14FE03D
:1017F0000C2C13D1464890F8BB0A00F01000A8B199
:10180000484890F8FF0800F0200018B1032006F0C7
:101810008BFE02E0022006F087FED5E734B900987F
:1018200014F07AFE012007F005F8CDE7BDF80000BE
:1018300000F47F40B0F5807F22D13A4890F8FF084D
:1018400000F02000E0B9BDF80000C0B2402816DA70
:10185000BDF80000C1B22E4880F8981A90F8981A86
:10186000401E00EB410001882E48A0F8531503F0FC
:10187000DFFB28B12748007800B909E0A4E7A3E717
:10188000009814F049FE28488079284908709BE7A1
:1018900000BF1F48D0F8BB0A20F488711C48C0F86C
:1018A000BB1A032006F040FE35F036FF84211848AD
:1018B000A0F8C31A0146D1F8EF0A042200210AF069
:1018C00075FF0020114908700021114880F87C1A2A
:1018D0000020134908730F4908700F4908700F4919
:1018E000087006F0A7FF42F210710E48A0F85315D9
:1018F0000021074880F88C1A4E200D4908700020FE
:1019000036F096F938BD000096020020A0020020B3
:10191000C82A00209D0200209E0200209F02002075
:10192000F45E0020C84A002004160020A102002016
:10193000A2020020002070472DE9F04106460C4627
:101940002EB92F4890F8FE0F00F00F0040B9002E7E
:1019500053D02B4890F8FE0F00F0F00000284CD038
:10196000277800202070264890F8FE0F00F00F0521
:101970001DB9234890F8FE0F0509012D06D0022D50
:1019800012D0032D1FD0042D35D128E0607800F04F
:101990000F00052803DB1B492046FFF7D5F86078C8
:1019A00000F0F000607026E0657800206070742D13
:1019B00004DD15492046FFF7C7F803E0242D01DDBB
:1019C0005020607017E0607800F0F0050020607033
:1019D000502D03DB0C492046FFF7B6F80BE060788A
:1019E00000F0F00500206070002D03DD0649204660
:1019F000FFF7AAF800BF00BF2770BDE8F081000024
:101A0000C81A0020CACA0308D3CA030810B504467E
:101A10003148007830B920224F213048FEF7E7FBEB
:101A200007F02DF92E4890F8BB0A00F010000028AE
:101A300039D12F2C03D13020FFF7E8FF30242E2C92
:101A40001AD1274890F8790AA0B90121244880F8D2
:101A5000791A2148007830BB3020204981F84D00A8
:101A60002E2081F84E00002081F84F0002201A49F4
:101A7000087010BD0020FCE7194890F8790A90B171
:101A8000302C10DB392C0EDC154890F8790A03282D
:101A900001DD0020EDE7124890F8790A401CC1B240
:101AA0000F4880F8791A0C48007828B14E220B496B
:101AB000491C481EFEF789FB084880F84E4000206C
:101AC000064981F84F0004480078401C024908701C
:101AD00008460078CDE70000A10200200D5F00203D
:101AE000C82A002010B501460A12CBB202F00F003E
:101AF000141104EB840400EB440000EBC00404EB7D
:101B000000104FF6FF7404EA800203F00F001C116E
:101B100004EB840400EB4400104480B210BD0000CC
:101B20002DE9FF4782460C4691461D46DDE90D78BA
:101B30000C9E134890F8C20F012802D0022812D13F
:101B400008E02B464A460FA150468DE8D00134F0FC
:101B50009FFB11E04B46224612A150468DE8E00162
:101B600034F096FB08E04B462A4606A150468DE825
:101B7000D00134F08DFB00BF00BFBDE8FF8700003F
:101B8000C81A0020253032782D253032782D323099
:101B90002530327820253032783A253032783A258F
:101BA000303278003230253032782D253032782DA1
:101BB0002530327820253032783A253032783A256F
:101BC000303278002DE9F0470346002528462946A3
:101BD00006221CE09C5C992C16DC9C5C04F00F0433
:101BE0009D5C2D1105EB850504EB45044FF0640C5D
:101BF0004FF000098046A8FB0C6A01FB0CA700FB14
:101C00000977A01947EBE471A2F1010422B2002A7E
:101C1000E0DABDE8F08730B502460C460023062125
:101C200013E0505C99280EDC505C00F00F00555C0E
:101C30002D1105EB850500EB450003EBC30505EB16
:101C4000031500EB8503481E01B20029E9DA236081
:101C500098B230BD30B500240F30002101E0401EA5
:101C6000491C102902DA0578002DF8D009E0057822
:101C70002D072A0E05782B091D1905701446401EE4
:101C8000491C1029F3DB30BD30B50024002109E0E8
:101C900005782D072A0E05782B09151905701C46A5
:101CA000401C491C1029F3DB30BD0146072005E02C
:101CB0004A1C125C02B103E0421E10B20028F7DA9F
:101CC00000BF421C10B200280BDD421E4B1C9A5C68
:101CD0000F2A04DA0122C2EB400210B201E04200F6
:101CE00010B20A7802F080020AB1421C10B27047AA
:101CF00008B5014600200090034800900098084471
:101D000000900098008808BD006C004008B50022D3
:101D10000092044A0092009A02440092009A1160D4
:101D200008BD0000006C004010B504461448B0F82F
:101D3000FF0800F4007008BB4CB112491248B0F81B
:101D4000010008800846007840F0800008700C48C8
:101D500090F8FF0800F00100C0F1040002010A49F8
:101D600051390A48FEF731FA35F0D6FC0448B0F88C
:101D7000FF0840F400710248A0F8FF1810BD0000F1
:101D8000C84A0020D8010020C853002014160020A3
:101D900010B50F4890F8DB0F00F007041CB10D4898
:101DA00090F87C0A08B1002010BD611EC8B20CF08A
:101DB000F3FE611EC8B205212BF0B5F900200649DB
:101DC000087006490870064908800120ECE7000009
:101DD000C81A0020C82A00207501002074010020C4
:101DE0007801002070B5B34890F8DB0F00F00705CC
:101DF0001DB1B14890F87C0A08B1002070BDE7E041
:101E0000691EC8B203F06EF830B1691EC8B227F07F
:101E1000D7FD0446401C08B90020EFE7A74800881A
:101E2000B8BB0020A6490870A6490870A6490870EA
:101E3000012C10D0022C12D0062C02D0462C16D128
:101E400011E0691EC8B211212BF06DF902209F49E3
:101E500008700020D2E702209C49087009E00020A9
:101E60009A49087005E001209849087001E00020B7
:101E7000C4E700BF8F4890F8DB0F00F007009349DC
:101E8000097801F00F0140EA01118A4880F8DB1F50
:101E900030E0FFE78D48007802282BD1042C1FD1B9
:101EA0008748007880F0030085490870084600786C
:101EB00048B987488078532805D18548008840F282
:101EC000012188420BD0691EC8B20CF065FE552175
:101ED000794880F87C1A0020784908808EE778E0FD
:101EE0007648B0F90000012804DD754800786040AC
:101EF000734908707348007838B17048B0F9000031
:101F000070490978401A012804DC71496B4AB2F91A
:101F100000208C54302C01DB392C01DD2E2C0AD111
:101F20006948007818B965480078674908706348BF
:101F300000786449087061480088401C00B25F491D
:101F4000088062480078012819D1084600880A28CC
:101F500015D15D48007818B9084600785A490870CC
:101F600056480078574908702E215448B0F900208F
:101F70000088401C00B2514B1880554881544F488E
:101F8000B0F900001E2801DA0A2C03D100204B49C9
:101F9000088033E70D2C1BD14C48007818B94C4809
:101FA0000078022807D049480078012804D1484821
:101FB0000078462800D10CE0691EC8B20CF0ECFD98
:101FC00055213D4880F87C1A00203C49088015E7DF
:101FD00016E700BF002006F02DFC691EC8B20CF009
:101FE000DBFD00203B4908703449088000260025AD
:101FF0003548007833490978884259DA32480478FC
:1020000032E04EB93248005B43F23001884201D0E1
:10201000012000E00020064626B300212E48A0F84B
:1020200055152B48055D2E2D06D12448008818B97A
:1020300001202249088008E02048008828B11F4874
:102040000088401C00B21D4908801C48B0F90000FF
:10205000042807DC2048A0F853550146B1F8530581
:1020600013F09CFE601C04B2164800788442C8DD60
:10207000002012490880012000F0CEF90E48B0F887
:10208000C30A842804D00C48B0F8C30A86280FD1AC
:1020900000211148A0F8551540F2D471A0F853154D
:1020A0000121054880F87D1A21F0B4F80120A5E649
:1020B0000020A3E6C81A0020C82A002078010020CA
:1020C0007601002075010020740100207A010020B3
:1020D000E8140020A4020020C84A002070B58348FC
:1020E00090F8DD0F00F00705814890F87C0A90B960
:1020F0007F48B0F8C30A83280DD07D48B0F8C30AE2
:102100008A2808D07A48B0F8C30A872805D17948C8
:1021100000781E2801D0002070BD002679E05DB156
:10212000691EC8B202F0DEFE30B1691EC8B227F0E7
:1021300047FC0446401C08B90020EDE7E4B26E48B5
:1021400001680068401C6C4A10606C48445410469A
:102150000068FE2803DB002011460860DCE70A2C3B
:1021600011D006DC022C09D0032C31D0092C40D12F
:102170002DE00D2C2AD0242C3BD100E000BF002004
:102180005D490860C8E75C480068801E5B49085CE0
:102190000D280AD158480068801E57490860002061
:1021A0005649554A126888540EE053480068401E4C
:1021B00051490860002051494F4A126888544E48DE
:1021C000006808B90020A7E7012621E000BF00BF92
:1021D00049480068401E4849086000204749464A6F
:1021E000126888544448006808B9002094E7012622
:1021F0000EE0202C01DB7E2C09DD3F480068401EEC
:102200003D49086000203D493B4A1268885400BFA0
:1022100000BF002E83D0002006F00CFB00203849C0
:1022200008703348B0F8C30A87281CD131480078B9
:10223000C8B92F4991F8A41A01F0040109B1062187
:1022400000E0042108462D4916F056FC06F026FD54
:1022500006F006FD0422114628480AF0A7FA0020DD
:102260002549086058E7244800782649087000206E
:10227000214908602449234A1278891A481E2149B5
:102280000A781E49FDF7A1FF0121194880F87E1A3E
:1022900003F0B2FD1648B0F8C30A84281AD01448D7
:1022A000B0F8C30A862815D000211848A0F85315A5
:1022B0000F4880F88C1AB0F8C30A892804D1144852
:1022C0000078144908700FE0084890F8A50F1149EC
:1022D000087009E000210D48A0F8551542F2107170
:1022E000A0F8531520F096FF012015E7C81A00202A
:1022F000C82A00209F0200207C0100200615002033
:10230000A4020020A10200205D5F0020C84A002036
:10231000AF0200209802002030B502460B46002094
:10232000591E0EE0C40004EB4004555C04EB25107C
:10233000C40004EB4004555C05F00F0560194C1E09
:1023400021B20029EEDA30BD10B50446112109484A
:10235000FDF754FF074854F8011F016061684160B0
:10236000FFF778FC03480168216040686060641EE4
:1023700010BD0000641A0020D0F80220C0F801202F
:10238000C288A0F80520017AC1710022027270474C
:1023900010B5044611210948FDF730FF074854F8ED
:1023A000011F016061684160FFF76EFC034801682E
:1023B000216040686060641E10BD0000641A002047
:1023C000072105E04A1E431C9B5C421C5354491ED6
:1023D0000029F7DC002242707047000008210C4AF7
:1023E0001160012803D10A210A4A11800EE0022857
:1023F00003D12821074A118008E0032803D1502186
:10240000044A118002E00A21024A1180704700004C
:10241000141401407600002000B50346D8B2FFF73F
:10242000DDFF002000BD00002DE9FC5F83468946EA
:1024300016461C46082E00D90826002C3ED02048FF
:10244000D0F800A04FF00008601E04B229E0A5B249
:1024500005EB080085B26D1005FB09A0184908605E
:102460003146684628F05AF932466946584607F020
:1024700069FC0746002F03DA2CB2601E04B210E09C
:1024800037B10FFA85F808F101000FFA80F808E07B
:102490000B480068801B0A490860681C80B2BDE8D0
:1024A000FC9FA045D3DD06480068801B04490860F6
:1024B000002F03DD08460068484408600020EEE76E
:1024C0000002002010B588B0044620461D2C7DD0A7
:1024D0000CDCA0F10F000D2879D2DFE800F02278A3
:1024E00078211C787878262A38343000502832D069
:1024F00006DC332821D03D2809D03F2867D109E0E8
:10250000512867D052287DD05328F7D1C1E0002050
:1025100008B010BDF1E013F013FF26F051FEECE01F
:10252000EBE013F0F9FE0020F2E700200CF04AFB8C
:10253000E3E001200CF046FBDFE00020E8E70320A9
:10254000FFF74CFFD9E00220FFF748FFD5E001205C
:10255000FFF744FFD1E001A835F089FD0798B0F5F9
:10256000FA6F02DA0020079003E00798A0F5FA60FE
:1025700007900A21049890FBF1F201FB12000A2255
:10258000049991FBF2F100EB01105D4908700A21FA
:10259000069890FBF1F201FB12000A22069991FBCA
:1025A000F2F100EB0110564948700A21079890FBA0
:1025B000F1F201FB12000A22079991FBF2F100EB04
:1025C00001104F4988700598C87001E08DE08FE0D8
:1025D00001209DE701A835F04AFD0A21039890FBF0
:1025E000F1F201FB12000A22039991FBF2F100EBD8
:1025F0000110444908700A21029890FBF1F201FB96
:10260000120000E017E00A22029991FBF2F100EBC0
:1026100001103C4948700A21019890FBF1F201FB3E
:1026200012000A22019991FBF2F100EB01103549E9
:10263000887000206CE701A835F019FD30488078DB
:1026400000F00F002E498978091101EB810100EBA0
:10265000410000F5FA6007902948407800F00F002B
:1026600027494978091101EB810100EB41000690EF
:102670002348007800F00F0021490978091101EB87
:10268000810100EB4100049001A835F01CFD002001
:102690003EE701A835F0EBFC1A48007800F00F0087
:1026A00018490978091101EB810100EB4100039001
:1026B0001448407800F00F0012494978091101EBE5
:1026C000810100EB410002900E48807800F00F007D
:1026D0000C498978091101EB810100EB410001905F
:1026E00001A835F0F0FC002012E703F07BFD0FE7B6
:1026F000214605A032F00CFE00BF00BF002007E716
:102700000000002004000020436F6D6D616E645F67
:10271000312025640A0000002DE9F84F80468946E3
:1027200015461E46DDF828A0314800680090CB46CB
:10273000A8F10104B8F1030F57DCBAF1000F02D081
:102740000020AAF80000D5B909E02EB12848016898
:102750000098081AB04202D90020BDE8F88F04EBB7
:102760008410244901EB0010C06804EB8411214A55
:1027700002EB011189688842E7D00120EDE7681C6F
:1027800068B9002004EB84111A4A02EB0111886039
:1027900004EB841102EB0111C8600120DDE7B9F1FF
:1027A000000F11D104EB8410124901EB0010C06836
:1027B00004EB84110F4A02EB01118968884201D0B1
:1027C0000120CAE70020C8E700270AE03246594640
:1027D000404632F0EBF808B938B2BEE70BF1010B16
:1027E0007F1CAF42F2DB2846B7E70020B5E70000C8
:1027F000E4000020140300202DE9F04705460E46B2
:1028000017469946B046032D0EDC002407E098F8E1
:102810000010284632F066FA08F10108641CBC4238
:10282000F5DB0120BDE8F0870020FBE770B500254F
:1028300000BF0E48806800F400544FF47A7035F001
:10284000F9FC0A48806800F40056B44204D16D1CBB
:102850001CB1022D01DD02E00025322DE9DB00BFB5
:102860000CB9012070BD0020FCE700000010014001
:1028700030B5024600200FE00B780124844023404D
:1028800023B13124431D064DEC5403E03024431D95
:10289000034DEC54431C18B20828EDDB30BD00009A
:1028A000775F002000BFFEE710B503200EF082FB2B
:1028B00008B1012010BD064890F84F0120F0140027
:1028C000034981F84F01F52081F84E010020F1E71E
:1028D000BB3500202DE9F84F81468846404610F070
:1028E0009BFF002581E020214448FDF787FC422022
:1028F000424908700E20487041480078284488708A
:10290000B8F1060F02D0B8F1050F07D13B48C01C43
:102910003C490A6802608988818006E03748C01C0B
:1029200039490A680260898881803448093037490A
:102930000A680260898881800224002704E02F4809
:10294000005D3844C7B2641C2C484078401CA0424B
:10295000F5DC2A484078401C28490F5402200CF02E
:102960001BF90023102225490320FFF745FF4FF0F4
:10297000000A00260EE000200090C6F1130002B20B
:102980001E48811932230320FFF7C6FE304406B2E9
:102990000AF1010ABAF10A0F01DA132EEBDB022465
:1029A000002704E01548005D3844C7B2641C122CAF
:1029B000F8DB12480078422809D1104840781128E5
:1029C00005D10E48807CB84201D1132E04DA0027CD
:1029D0000020C9F800000DE0012709EB05101022C6
:1029E0000649891CFDF7F1FB6D1C094800788542FA
:1029F000FFF679AF00BF3846BDE8F88FA71A002070
:102A00007502002076CE030870CE03087CCE030842
:102A1000760200202DE9F84380460E460025304618
:102A200010F0FAFE002464E020213548FDF7E6FBB3
:102A30004220334908701E204870324800782044F4
:102A40008870062E01D0052E07D12D48C01C2E49B6
:102A50000A6802608988818006E02948C01C2B49E9
:102A60000A680260898881802548093028490A68F7
:102A700002608988818008EB04111022801DFDF717
:102A8000A4FB0227002504E01D48C05D2844C5B210
:102A90007F1C1B484078401CB842F5DC1848407841
:102AA000401C17490D5402200CF076F80023202218
:102AB00013490320FFF7A0FE0A2516E00020322369
:102AC00003220F4900901046FFF726FE0C480078BD
:102AD000422808D10A484078012804D10848807863
:102AE000592800D103E0681EC5B2002DE6D100BF11
:102AF000641C08480078844296DB2846BDE8F883C9
:102B0000A71A00207502002076CE030870CE0308B5
:102B10007CCE03087602002070B50446062035F00E
:102B2000E9FB204635F0FAFB35F0DCFB05461021C9
:102B300002480EF03DF9284670BD00000008014033
:102B400010B5192035F0D6FB022034F041FE35F0E7
:102B5000C9FB044635F0C6FB04EB002084B210210B
:102B600002480EF025F9204610BD00000008014083
:102B700070B50446402035F0BDFB002505E035F07A
:102B8000B1FB04F8010B681CC5B2062DF7DB102160
:102B900001480EF00DF970BD0008014070B5002528
:102BA0000024272035F0A6FB10210C480EF000F978
:102BB0000FE00A2034F0FCFD00F07AF80446102CF7
:102BC00000D007E02846691CCDB2C82801DDFA20F4
:102BD00070BDEEE700BF2046FAE7000000080140A4
:102BE00070B50446232035F085FB002505E014F878
:102BF000010B35F093FB681CC5B2042DF7DB1021E7
:102C000001480EF0D5F870BD0008014070B50446CB
:102C1000222035F06FFB002505E014F8010B35F09C
:102C20007DFB681CC5B2042DF7DB102101480EF0B6
:102C3000BFF870BD0008014070B50446242035F08F
:102C400059FB002505E014F8010B35F067FB681C03
:102C5000C5B2042DF7DB102101480EF0A9F870BDB4
:102C60000008014070B50546002600243D2035F0DF
:102C700041FB284635F052FB10210C480EF098F825
:102C80000FE0052034F094FD00F012F80446102CFB
:102C900000D007E03046711CCEB2C82801DDFA2012
:102CA00070BDEEE700BF2046FAE7000000080140D3
:102CB00010B52C2035F01EFB35F014FB0446102116
:102CC00002480EF075F8204610BD000000080140D3
:102CD0002DE9F04107460C4615460CB9BDE8F081D8
:102CE0003C2035F007FB384635F018FBE0B235F0F4
:102CF00015FB201235F012FB012034F069FD00268F
:102D000005E035F0EFFA28706D1C701C86B2A64203
:102D1000F7DB102102480EF04BF800BFDEE70000A1
:102D20000008014070B505463B2035F0E3FA28461F
:102D300035F0F4FA35F0D6FA044635F0D3FA04EB60
:102D4000002084B2102102480EF032F8204670BDF7
:102D50000008014070B50446302035F0CBFA20461B
:102D600035F0DCFA022034F033FD35F0BBFA0546CD
:102D7000102102480EF01CF8284670BD00080140E2
:102D800010B56520FFF7C8FE04469A2C01D0FA2042
:102D900010BD0948FFF73AFF0748001DFFF720FF65
:102DA00005480830FFF748FF642034F001FDFFF7C5
:102DB000F5FE04462046EBE7A090002010B504463F
:102DC000582035F097FA204635F0A8FA10BD10B516
:102DD0000446562035F08EFAE0B235F09FFAC4F37F
:102DE000072035F09BFAC4F3074035F097FA200E20
:102DF00035F094FA10BD10B50446572035F07AFA34
:102E0000E0B235F08BFAC4F3072035F087FAC4F34B
:102E1000074035F083FA200E35F080FA10BD00002F
:102E200070B5054600260024352035F063FA2846A3
:102E300035F074FA10210C480DF0BAFF0FE00520B0
:102E400034F0B6FCFFF734FF0446102C00D007E046
:102E50003046711CCEB2C82801DDFA2070BDEEE705
:102E600000BF2046FAE70000000801402DE9F041CC
:102E700007460D461446392035F03CFA384635F001
:102E80004DFAE0B235F04AFA201235F047FA002642
:102E900005E015F8010B35F041FA701C86B2A64228
:102EA000F7DB102102480DF083FFBDE8F081000040
:102EB0000008014070B505460C46312035F01AFA7D
:102EC000284635F02BFA14F8010B35F027FA14F8E0
:102ED000010B35F023FA14F8010B35F01FFA14F842
:102EE000010B35F01BFA102101480DF061FF70BD98
:102EF0000008014070B505460C46322035F0FAF95D
:102F0000284635F00BFAE0B235F008FA201235F019
:102F100005FA102101480DF04BFF70BD000801407B
:102F200070B505460C46342035F0E4F9284635F0F6
:102F3000F5F9204635F0F2F9102102480DF038FF7E
:102F400070BD00000008014070B505460C463320F6
:102F500035F0D0F9284635F0E1F9E0B235F0DEF988
:102F6000201235F0DBF9102101480DF021FF70BD72
:102F70000008014010B525490020FFF79BFF022102
:102F80000020FFF7CDFF2148818A0020FFF7B2FF24
:102F90001E48C18A0020FFF7D7FF0020FFF740FF3F
:102FA0000446202C0AD10020FFF75CFE0446204690
:102FB00034F006FF0020FFF733FF0446204634F0CC
:102FC000FFFE03210120FFF7ABFF1148C18A01205A
:102FD000FFF7BAFF0120FFF723FF0446202C0AD198
:102FE0000120FFF73FFE0446204634F0E9FE0120B1
:102FF000FFF716FF0446204634F0E2FE012000F001
:1030000009F80446204634F0DBFE10BDC4900020D1
:103010008090002070B5054600260024362035F04B
:1030200069F9284635F07AF910210C480DF0C0FEF8
:103030000FE0052034F0BCFBFFF73AFE0446102CED
:1030400000D007E03046711CCEB2C82801DDFA205E
:1030500070BDEEE700BF2046FAE70000000801401F
:1030600000B587B00121080326F00CF901210420E6
:1030700026F008F918208DF81B0003208DF81A009F
:10308000A020ADF8180006A920480DF0BBFD0420D3
:103090008DF81B004020ADF8180006A91B480DF064
:1030A000B1FD1020ADF818008DF81B0003208DF83D
:1030B0001A0006A915480DF0A5FD102113480DF0C2
:1030C00077FE0020ADF804004FF48270ADF80600E2
:1030D0000020ADF80800ADF80A00ADF80C004FF480
:1030E0000070ADF80E000820ADF810000020ADF81B
:1030F00012000720ADF8140001A9054829F04EFC84
:103100000121034829F03EFC07B000BD0008014042
:10311000003001400FB42DE9F047A6B007464FF04C
:10312000000AD54801680F9141681091007A8DF826
:103130004400D1480168099141680A91007A8DF8EC
:103140002C00CD480168069141680791007A8DF8FE
:103150002000C9480168039141680491007A8DF804
:103160001400C5480168009141680191007A8DF80A
:103170000800BDF8BC0042F2107188421FDABF4857
:10318000B0F8C95ABDF8BC00A0F59850893881B292
:10319000BA48A0F8C91A2F2200F67D411AA8FDF7F7
:1031A00014F826F049FCB64890F823A0B348A0F8DC
:1031B000C95A2F221AA9B248FDF707F8C8E0BDF88E
:1031C000BC00A0F51C5011381FFA80F8AB48B0F8CD
:1031D000C95AA0F8DF8A27F095F8A948983090F8E6
:1031E0002210A648A0F8C91A90F8BB0A00F0020005
:1031F000002860D0A0480168099141680A91007ACE
:103200008DF82C009D48613890F82B2400F6AE51C3
:103210000DF12500FCF7D9FF974801680691416838
:103220000791007A8DF82000DDF8BF000690DDF8E8
:10323000C30007909DF8C7008DF820009DF8180086
:103240008DF824008C480168039141680491007A4C
:103250008DF8140007E009A906A82BF041FE894962
:1032600003A8FDF771FC09A906A806F005FD0028D2
:10327000F1DA03A803F0ECFE002857D07E4801687D
:10328000009141680191007A8DF808007B4861380F
:1032900090F82B2400F69F510DF10100FCF795FFEB
:1032A00003A9684614F0FCFE9DF8000080F0800041
:1032B0008DF800003AE0714890F8BB0A00F0040075
:1032C000A0B36D480168009141680191007A8DF8C2
:1032D00008006A48613890F82B2400F69F510DF1E0
:1032E0000100FCF772FF04208DF8000062480168BD
:1032F000069141680791007A8DF82000DDF8D10031
:103300000690DDF8D50007909DF8D9008DF82000D3
:1033100006A9684614F0C4FE0021684628F076FC31
:103320009DF8000080F080008DF800002F225449A5
:103330001AA8FCF74AFF26F07FFB514890F823A01B
:103340004E48A0F8C95A2F221AA94D48FCF73DFF54
:103350000126002481E00AEA0600002879D04748C7
:1033600090F8AA9A112200F6835115A8FCF72DFFB8
:10337000424880F8AA4A27F00BFA3F4801681291A8
:1033800041681391007A8DF850003F48B0F80D1055
:10339000ADF84910C07B8DF84B00374801680F919C
:1033A00041681091007A8DF8440032A807C80FAB2D
:1033B00007C33548007C00F00100A8B904208DF84F
:1033C000480012A90FA814F06BFE00210FA828F0E6
:1033D0001DFC0FA90120FEF7AFFA9DF83C0040F05C
:1033E00080008DF83C002CE00DF1BF010FA814F017
:1033F00057FE00210FA828F009FC0FA90120FEF7B5
:103400009BFA9DF83C0020F080008DF83C00694656
:103410000FA8FDF799FB0FA807C80CAB07C31B4902
:1034200012A8FDF791FB04208DF8480012A90CA802
:103430000AF034FF0CA828F081FC0CA90FA82BF08F
:103440004FFD0E4880F8AA9A112215A90E48FCF7E4
:10345000BCFE7006060E601CC4B2082CFFF67BAFE3
:103460000F983860109878609DF84400387226B044
:10347000BDE8F0075DF814FBB8CA0308C82A0020AD
:1034800045370020C1CA03084B380020E5CA0308AD
:103490002DE9F047EEB006464FF4807108A8FCF71E
:1034A000ADFEFE480168689141686991007A8DF827
:1034B000A801FA481B300168659141686691007A5D
:1034C0008DF89C01F5485A3001686291416863911A
:1034D000007A8DF89001F248B0F8DF8AB0F8C99A06
:1034E000002766BBEF4801686B9141686C91007AD8
:1034F0008DF8B401EB4801685F9141686091007AF2
:103500008DF88401E548363001685F91416860912B
:10351000007A8DF88401E4495FA814F0C1FD9DF89C
:103520007C0180F080008DF87C01DD4890F8970ADE
:1035300028B19DF87C0180F080008DF87C0100248A
:1035400022E2D84801685C9141685D91007A8DF86B
:103550007801D4480168599141685A91007A8DF8F0
:103560006C01D0480168569141685791007A8DF8F6
:103570006001CC480168539141685491007A8DF8FC
:103580005401C8480168509141685191007A8DF802
:103590004801C4EB4411C5480844008841F2883111
:1035A00088427CDDC4EB4411C0480844008842F2E4
:1035B0001071884274DD47F00107C4EB4411BB4829
:1035C00008440088A0F51C50113881B2B448A0F816
:1035D000DF1A26F097FEB248B0F8ED1AA0F8C91A23
:1035E000002E64D190F8BB0A00F0020000285FD0E2
:1035F000AC4801685C9141685D91007A8DF8780172
:10360000A748613890F82B2400F6AE510DF27110E6
:10361000FCF7DBFDA3480168599141685A91007A93
:103620008DF86C01C4EB4411A048084450F8031F06
:10363000599141685A91007A8DF86C019DF86401A6
:103640008DF8700197480168569141685791007A4A
:103650008DF8600107E05CA959A82BF041FC944962
:1036600056A8FDF771FA5CA959A806F005FB0028D9
:10367000F1DA56A803F0ECFC00285DD08948016817
:10368000539141685491007A8DF85401844861380F
:1036900090F82B2400F69F510DF24D1001E071E1DE
:1036A0003EE0FCF792FD56A953A814F0F9FC43E064
:1036B0007B4890F8BB0A00F0040080B379480168A9
:1036C000539141685491007A8DF8540174486138DF
:1036D00090F82B2400F69F510DF24D10FCF775FD6C
:1036E00004208DF84C016F480168599141685A9146
:1036F000007A8DF86C01C4EB44116C48084450F812
:10370000151F599141685A91007A8DF86C0159A999
:1037100053A814F0C5FC002153A828F077FA0BE059
:10372000C4EB4411614808440088A0F598508938DA
:1037300081B25B48A0F8C91A26F07EF9C4EB4412A6
:103740005A4811181F2248A8FCF73FFD13224BA925
:103750006846FCF73AFD052048A90EC92AF09EFDEF
:103760000546002E7BD1002D31DBC5EB45125148BB
:1037700011181F2248A8FCF728FD13224BA9684600
:10378000FCF723FD05A848A90EC9FFF7C3FC05A84F
:1037900007C850AB07C3C5EB451146480844C1688C
:1037A0006B9101696C91007D8DF8B401C5EB4512F8
:1037B00040481044C11C6BA814F072FC9DF8AC0189
:1037C0008DF8400150A96BA82BF08AFB12E0C4EBE6
:1037D000441136480844C1686B9101696C91007DC1
:1037E0008DF8B401C4EB441230481044C11C6BA8DE
:1037F00014F056FC9DF8AC018DF84C0153A96BA850
:103800002BF06EFB5FA96BA814F04AFC2A496BA849
:103810000AF044FD00216BA828F0F8F96BA90120FB
:10382000FEF78AF81D481B306B9901606C99416066
:103830009DF8B41101721B386B9901606C9941605D
:103840009DF8B4110172002D0ADBC5EB4512194930
:10385000114401F115006BA9FDF776F98BE03AE010
:10386000C4EB44121149114401F115006BA9FDF795
:103870006BF9124890F8230008A9085C012807D0CA
:103880004FF0000A01200D4991F8231008AA505466
:103890000248689901606999416011E02350002055
:1038A000C82A0020B8CA0308EECA0308C738002097
:1038B000C1CA0308EF43002000CB030845370020AE
:1038C0009DF8A8110172BAF1000F54D100F098FFD1
:1038D0004FF0010A4FE0012E4DD1002D26DBC5EB44
:1038E00045114348014400F64F40CA6802600A6926
:1038F0004260097D0172C5EB45123D481044C11C70
:103900003C4814F0CDFBC5EB45123948104400F19A
:10391000150138482BF0E4FA36481B3835490A6857
:1039200002604A684260097A017224E0C4EB4411E3
:10393000314801442F48CA6802600A694260097D23
:103940000172C4EB44122C481044C11C294814F0E5
:10395000A7FBC4EB44122848104400F11501254888
:103960002BF0BEFA23481B3822490A6802604A68D5
:103970004260097A017207F0010008B1FDF734FCDA
:10398000FDF73CFA601CC4B21C48D0F8FB0DA04205
:103990003FF7D7AD194890F8970A38B11848016831
:1039A0005F9141686091007A8DF8840111481B385D
:1039B00068990160699941609DF8A81101721B30F6
:1039C00065990160669941609DF89C1101723F30D4
:1039D00062990160639941609DF8901101720748F6
:1039E000A0F8DF8AA0F8C99A6EB0BDE8F0870000A1
:1039F000EF4300203E500020C7380020C82A002096
:103A0000B8CA03082DE9F043DBB005464FF48071D6
:103A10006846FCF7F3FBF8480168559141685691F8
:103A2000007A8DF85C01F4481B30016852914168BE
:103A30005391007A8DF85001EF485A3001684F9148
:103A400041685091007A8DF84401EC48B0F8DF8A63
:103A5000B0F8C99A00269DBBE948016858914168B1
:103A60005991007A8DF86801E54801684C914168E8
:103A70004D91007A8DF83801DF48363001684C915D
:103A800041684D91007A8DF83801DE494CA814F058
:103A900007FBDD48407800F0080028B99DF83001A8
:103AA00080F080008DF83001D44890F8970A002803
:103AB00005D09DF8300180F080008DF8300198E14C
:103AC000FFE7022DFBD1CE4801685891416859911A
:103AD000007A8DF86801CA4801684C9141684D919F
:103AE000007A8DF83801C448363001684C9141683D
:103AF0004D91007A8DF83801002456E1C0480168E4
:103B0000499141684A91007A8DF82C01BC480168BE
:103B1000469141684791007A8DF82001B8480168C4
:103B2000439141684491007A8DF81401B4480168CA
:103B3000409141684191007A8DF80801C4EB44112D
:103B4000B2480844008841F2883188427EDDC4EBE7
:103B50004411AE480844008842F21071884276DD74
:103B6000C4EB4411A94808440088A0F51C50113842
:103B700081B2A248A0F8DF1A26F0C4FB9F48B0F833
:103B8000ED1AA0F8C91A90F8BB0A00F0020000284C
:103B900065D09B480168499141684A91007A8DF847
:103BA0002C019648613890F82B2400F6AE510DF2A6
:103BB0002510FCF70AFB924801684691416847913D
:103BC000007A8DF82001C4EB44119048084450F865
:103BD000031F469141684791007A8DF820019DF8B6
:103BE00018018DF824018648016843914168449189
:103BF000007A8DF8140107E049A946A82BF070F966
:103C0000834943A8FCF7A0FF49A946A806F034F869
:103C10000028F1DA43A803F01BFA002869D078489D
:103C20000168409141684191007A8DF8080173481C
:103C3000613890F82B2400F69F510DF20110FCF72B
:103C4000C4FA43A940A814F02BFA01E098E044E03C
:103C50009DF8000180F080008DF8000149E0674880
:103C600090F8BB0A00F00400B0B3654801684091C9
:103C700041684191007A8DF808016048613890F8F8
:103C80002B2400F69F510DF20110FCF79EFA042040
:103C90008DF800015A480168469141684791007AC1
:103CA0008DF82001C4EB44115848084450F8151F02
:103CB000469141684791007A8DF8200146A940A8B5
:103CC00014F0EEF9002140A827F0A0FF9DF80001B4
:103CD00080F080008DF800010BE0C4EB44114B48EC
:103CE00008440088A0F59850893881B24348A0F86C
:103CF000C91A25F0A1FE4448407800F0400020B9E0
:103D00004148407800F08000C0B13F48407800F062
:103D1000400030B13C482F3890F8220000F04000BD
:103D200060B93948407800F0800030B136482F380B
:103D300090F8220000F0800000B934E0C4EB441198
:103D40003248084450F8151F589141685991007A3B
:103D50008DF8680106F0020038B19DF8600180F02E
:103D600080008DF8600126F0020658A9224809302B
:103D7000FCF7EAFE40A920480930FCF7E5FE11E017
:103D8000C4EB441121480844008840F22F118842B6
:103D900007D0C4EB44111D4808440088B0F5977F54
:103DA00000D100E000BF601CC4B21448D0F8FB0D85
:103DB000A0423FF7A3AE17494CA814F071F90E4981
:103DC00009314CA80AF06AFA0F48407800F0080060
:103DD00028B99DF8300180F080008DF83001074847
:103DE00090F8970A28B19DF8300180F080008DF896
:103DF00030010024CFE2000023500020C82A002018
:103E0000B8CA0308EECA030874370020C738002078
:103E1000C1CA030800CB0308FE4801684991416804
:103E20004A91007A8DF82C01FA4801684691416860
:103E30004791007A8DF82001F64801684391416866
:103E40004491007A8DF81401F2480168409141686C
:103E50004191007A8DF80801C4EB4411EE48084402
:103E6000008841F2883188427EDD26F00106C4EBED
:103E70004411E9480844008842F21071884274DD18
:103E800046F00106C4EB4411E34808440088A0F55D
:103E90001C50113881B2E148A0F8DF1A26F032FA3E
:103EA000DE48B0F8ED1AA0F8C91A90F8BB0A00F085
:103EB0000200002865D0D7480168499141684A91BD
:103EC000007A8DF82C01D548613890F82B2400F643
:103ED000AE510DF22510FCF778F9CE4801684691F5
:103EE00041684791007A8DF82001C4EB4411CA481B
:103EF000084450F8031F469141684791007A8DF8B5
:103F000020019DF818018DF82401C24801684391F1
:103F100041684491007A8DF8140107E049A946A848
:103F20002AF0DEFFBE4943A8FCF70EFE49A946A8C9
:103F300005F0A2FE0028F1DA43A803F089F8002872
:103F400069D0B4480168409141684191007A8DF888
:103F50000801B248613890F82B2400F69F510DF209
:103F60000110FCF732F901E06AE148E043A940A8FA
:103F700014F096F89DF8000180F080008DF80001A3
:103F800049E0A64890F8BB0A00F00400B0B3A1488D
:103F90000168409141684191007A8DF808019F487D
:103FA000613890F82B2400F69F510DF20110FCF7B8
:103FB0000CF904208DF8000196480168469141688B
:103FC0004791007A8DF82001C4EB441192480844CF
:103FD00050F8151F469141684791007A8DF82001ED
:103FE00046A940A814F05CF8002140A827F00EFE76
:103FF0009DF8000180F080008DF800010BE0C4EB1B
:104000004411854808440088A0F59850893881B249
:104010008248A0F8C91A25F00FFD042D47D1814828
:1040200090F823001DF80000012806D00027012089
:104030007C4991F823100DF801007B4855990160E7
:10404000569941609DF85C11017276482F30407896
:1040500000F0400058B973482F30407800F08000DD
:1040600028B9002F02D100F0CBFB01274FE16D48AA
:104070002F30407800F0400028B16A4890F82200C4
:1040800000F0400068B967482F30407800F08000A9
:104090000028EBD0634890F8220000F08000002850
:1040A000E4D0002FE2D100F0ABFB01272FE15D4807
:1040B0002F30407800F0400028B95A482F3040781F
:1040C00000F08000C0B157482F30407800F0400029
:1040D00028B1544890F8220000F0400060B95148DF
:1040E0002F30407800F0800028B14E4890F8220030
:1040F00000F0800000B94CE1012D49D1C4EB44111E
:104100004548014448481B30CA6802600A69426059
:10411000097D017206F0020038B19DF8600180F05F
:1041200080008DF8600126F00206C4EB44123A4884
:104130001044C11C3C481B3013F0B2FFC4EB4412C6
:104140003548104400F1150137481B302AF0C8FEED
:10415000354800F11B010A6802604A684260097A2A
:104160000172C4EB44112C4801442F485A3051F8D5
:10417000032F02604A684260097A0172A0F2B550CA
:1041800090F8B50580F08001284880F8B515BEE0AC
:10419000C4EB44112048084450F8151F5891416859
:1041A0005991007A8DF8680106F0020038B19DF847
:1041B000600180F080008DF8600126F0020640A9C1
:1041C00058A8FCF7C1FC4CA958A813F069FF18497E
:1041D00058A80AF063F8002158A827F017FD58A93D
:1041E0000120FDF7A9FB10481B305899016059992F
:1041F00041609DF8681101721B3858990160599906
:1042000041609DF868110172C4EB441202491144E7
:1042100010E00000B8CA0308C7380020C82A0020F0
:10422000C1CA03084537002023500020C84A002097
:1042300000CB030801F1150058A9FCF785FC66E0E6
:10424000C4EB44116D4808440088B0F5FA7F1DDDC9
:10425000C4EB4411694808440088B0F5FC7F15DCC4
:10426000012D13D1C4EB4411644801446448CA6869
:1042700002600A694260097D01721B3860490A6860
:1042800002604A684260097A017240E0C4EB44115E
:104290005A4808440088B0F5FC7F0ADDC4EB44119D
:1042A000564808440088B0F5FE7F02DC012D00D19D
:1042B0006FE0C4EB4411514808440088B0F5FE7F1C
:1042C0000ADDC4EB44114D4808440088B0F5FF7F77
:1042D00002DC012D00D15CE0C4EB441147480844E6
:1042E0000088B0F5977F02D1042D00D051E04448FA
:1042F00044490A6802604A684260097A01721B38C0
:1043000040490A6802604A684260097A01721DB930
:104310003D4890F8970A40B139483F3039490A681A
:1043200002604A684260097A0172042D30D0374831
:1043300090F82010A0F6DE40B0F87303814206DA50
:10434000324890F820103048A0F8CB1A03E0002142
:104350002D48A0F8CB1A2C4890F87A0A082804D0E7
:10436000294890F87A0A092809D1FCF703FE06F0DB
:10437000010008B1FCF738FFFCF740FD08E0FCF74E
:10438000F9FD06F0010008B1FCF72EFFFCF736FD41
:1043900000BF601CC4B21C48D0F8FB0DA0423FF720
:1043A0003BAD194890F8970A38B1164801684C910E
:1043B00041684D91007A8DF8380111481B385599A4
:1043C0000160569941609DF85C1101721B30529951
:1043D0000160539941609DF8501101723F304F992F
:1043E0000160509941609DF8441101720648A0F89F
:1043F000DF8AA0F8C99A5BB0BDE8F083C738002017
:104400003E500020B8CA0308C82A002045370020C3
:104410002DE9F04186B00446002700251CB9F0497B
:104420000020FDF789FAEE486238ED490A684267D4
:104430004A688267097A80F87C10EA4890F8930409
:1044400000287DD0E748613090F8870A002877D1AE
:1044500000BF0021E348613080F8AA1A92E126F0FB
:1044600097F9E148007C00F00800F0B1022D1AD164
:10447000DB48873803990160049941609DF8141066
:104480000172D848613090F8AA0A00EBC000D44904
:1044900090310144D248873802680A6042684A6015
:1044A000007A087215E0012562E1022D00D15FE17A
:1044B000CC48613090F8AA0A00EBC000C84990319E
:1044C0000144C74887380A6802604A684260097A2E
:1044D0000172C3487538C5490A6802604A6842607B
:1044E000097A01720930C1490A6802604A6842606B
:1044F000097A01721B3802F0ABFD00287DD0B84864
:104500002D38BA490A6802604A684260097A017225
:10451000B549B1F80D20A0F80120C97BC170B2489F
:10452000007C00F0010038BBAD487538A0F11201E5
:104530000A6802604A684260097A0172042100E058
:1045400040E1A0F26D5080F8B51500F2B55100F2CF
:104550006D5013F0A5FD0021A148753827F056FBDA
:104560009F4975390120FDF7E7F99D49753901F13A
:104570008700FCF7E9FA4EE0032C01D0022C4AD167
:1045800097487538A0F112010A6802604A684260D3
:10459000097A017248304078992813D190482D3813
:1045A000807899280ED18E482D38C078992809D165
:1045B0008B486C388D490A6802604A684260097A03
:1045C000017228E086486C38A0F11B010A6802607D
:1045D0004A684260097A017285493F30FCF7B4FAB3
:1045E0000421844880F8B51500F2B55100F27650E8
:1045F00009F054FE7A486C3800E011E027F09EFB89
:1046000077496C39A1F109002AF06AFC74497539BF
:1046100003A82AF065FC0CB1042C01D1FCF7B0FF13
:104620006F48873802F014FD002870D0022C6ED13C
:104630006D48007C00F00200002866D0684875389C
:1046400002F006FD28B96848007C00F0040000284C
:10465000F3D02E2018F03EFE1B2004F093FD62489C
:10466000007C00F0100018B35F496348FBF70BFEB5
:104670006148FBF7E6FD064620223046761C5E497F
:104680000A545E4AD2F854125B4A9019FBF7FBFDBC
:104690005548007C00F0010028B951498739564837
:1046A00016F08EFF04E04E496C39534816F088FF2F
:1046B000202240215048FBF79AFD4C4801680091A8
:1046C00041680191007A8DF808004748B0F80D0064
:1046D000ADF801004448FBF7B4FD8046424642492C
:1046E0004548FBF772FD02208DF8000069464248FC
:1046F00010300CF0E5F925203F49487400208874FB
:10470000374975393C4816F05BFF30E0FFE7032C72
:104710002DD13548007C00F00100F8B13248007C12
:1047200000F00200D0B12E48873802F091FC20B989
:104730002D48007C00F0040080B1294975392A48D1
:1047400016F03EFF2848007C00F0100030B12B49E5
:10475000D1F8540222496C3916F032FF20487538DE
:1047600022490A6802604A684260097A017200BF01
:104770001C48613090F8AA0A401CC1B21948613047
:1047800080F8AA1A1748613090F8AA1A613890F890
:1047900093048142FFF663AE012D11D1104912310D
:1047A0000020FDF7C9F80E486238416F0391816F10
:1047B000049190F87C008DF814000225002748E64B
:1047C00000BF00BF0748613090F88A0A20B9044949
:1047D00012310020FDF7B0F806B0BDE8F08100000E
:1047E000AA500020672A00204B380020B8CA0308CE
:1047F000E5CA0308C84A0020775F0020DAB803083A
:1048000010B58AB05E48407800F00400002853D10B
:104810005C480168019141680291007A8DF80C00B2
:10482000594901A813F03CFC002442E054482F38B9
:1048300090F823000121A1400840C0B304EBC4005C
:104840005049E13108440168079141680891007AB4
:104850008DF8240001A907A813F022FC4B4907A8F2
:1048600009F01CFD002107A827F0D0F907A90120B5
:10487000FDF762F84248407800F0080028B99DF83A
:104880001C0080F080008DF81C00414890F8970AC9
:1048900028B19DF81C0080F080008DF81C0004EB0E
:1048A000C401384AE132881807A9FCF74DF9601CA9
:1048B000C4B2082CBADB60E032481138416F07916E
:1048C000816F089190F87C008DF8240007A802F011
:1048D000BFFB002851D000244DE029482F3890F824
:1048E00023000121A1400840002842D004EBC4016C
:1048F000244AE132881802F0ABFBD0B304EBC401C8
:10490000204AE132881802F0A3FB90B304EBC40004
:104910001C49E13108440168049141680591007A1D
:104920008DF81800194904A813F0BAFB07A904A8C8
:1049300009F0B4FC1349363904A813F0B1FB13494C
:1049400004A809F0ABFC002104A827F05FF99DF84A
:10495000100000F0FC008DF8100004A90120FCF705
:10496000EBFF04EBC401074AE132881804A9FCF705
:10497000EBF8601CC4B2082CAFDB0AB010BD00001D
:104980007437002059500020EECA030800CB0308FA
:10499000C82A00200246914201DD00207047531AC8
:1049A00003EBD370C0F34700F8E7000010B54648AA
:1049B00090F8BF0F30B1012820D002283AD0032848
:1049C00071D153E0414890F8790A30B1012808D0FC
:1049D00002280AD003280DD108E03D48FDF7F0FC7D
:1049E0000AE03B48FDF7D4FC06E005E03848FDF757
:1049F000ABFC01E0002010BD00BF56E0334890F84A
:104A0000790A30B1012805D002280BD003280DD136
:104A100004E00DE02E48FDF797FC09E02C48FDF777
:104A200093FC00BF2A48FDF7A7FC01E00020E2E765
:104A300000BF3AE0254890F8790A30B1012808D043
:104A400002280AD003280DD10BE02148FDF7A0FC75
:104A500000BF1F48FDF7B4FC06E01D48FDF798FCB9
:104A600002E001E00020C6E700BF1EE0174890F812
:104A7000790A30B1012808D0022807D003280DD1C7
:104A800008E01348FDF784FC0AE009E01048FDF750
:104A90005BFC05E00E48FDF76FFC01E00020AAE793
:104AA00000BF02E0FFE70020A5E700BF094890F83B
:104AB000910500F0F801074880F89115002103489E
:104AC00080F8791A012096E7C81A0020C82A002029
:104AD00059500020C84A002010B5124890F8790AB1
:104AE00030B1012808D002280AD003280DD108E0EF
:104AF0000D48FDF765FC0AE00B48FDF749FC06E0B0
:104B000005E00948FDF720FC01E0002010BD00BFD2
:104B10000221064880F891150021024880F8791A90
:104B20000120F3E7C82A002059500020C84A00207D
:104B300070B50446257805F00F0020B1012806D095
:104B400002280CD107E02046FDF722FC00BF2046DA
:104B5000FDF71EFC00BF2046FDF71AFC00BF00BF9A
:104B6000257070BD0EB5284890F94E01002802DA74
:104B70004FF0FF300EBD002027F01EF92248D0F87C
:104B800042010A21B0FBF1F201FB12001E4981F83B
:104B9000490102200FF0C2F903200FF0BFF90222F1
:104BA00019499031684632F0B3FB18496846FBF763
:104BB000CBFF022269461448903009F0D5FF04204B
:104BC0000FF0ACF9FF21104880F82A1001200FF0F7
:104BD000A5F90F210C48CE3027F0BBF80A4981F81F
:104BE000DD0004210A48FDF715FF10B96FF0080039
:104BF000C0E705210648FDF70DFF10B90120FDF7BC
:104C00000BFC0120B6E70000BB350020C1CA030839
:104C1000D93600202DE9F04706460C4615461F46BA
:104C2000681E00F00F010120884000F0FF080120FD
:104C3000304908703048007848B9207800EA080008
:104C400008B1012000E00020401C2B4908702A48D0
:104C50000078022802DD01202749087026480078E4
:104C6000022808D187F0790024494871207840EA69
:104C70000800207007E087F06E0020494871207816
:104C800020EA080020701D484079792807D11C4887
:104C9000D0F83C151948C01CFBF7F5FA06E0184897
:104CA000D0F840151548C01CFBF7EDFA154890F8F0
:104CB000011900231A460A2028F0B0FB104901EB25
:104CC00086010868FF22002107F070FD05F08000D2
:104CD00068B10B4901EB86010868FBF7B2FA81461F
:104CE00005F00F000123FF22494608F043F9BDE813
:104CF000F0870000A2020020A0020020775F0020C1
:104D0000DAB80308C84A002010B500F007F80248D6
:104D100090F87C0A10BD0000C82A002010B510F0E1
:104D2000DFFF002856D00EF049FE0446412C3EDD40
:104D3000802C13DA2848A0F8C34A09E00EF03EFEA2
:104D40000446412C04DD802C02DA2348A0F8C34A33
:104D50002148B0F8C30A8328F0D03BE0802C0AD168
:104D60001D4890F8750A08B300211B4880F8751A91
:104D7000A0F8C71A2EE0184890F8750AA04229D06A
:104D8000154880F8754AA4F1800081B21248A0F855
:104D9000C71AB0F8C71A6138B0F86C01814219DD42
:104DA00000210D48A0F8C71A80F8751A12E00B48C8
:104DB00090F89F0FA0420DD1074890F8920A8A28D8
:104DC00008D0054890F8A50A20B91B21024880F8B0
:104DD0007C1A10BD00BFFCE7C82A0020C81A0020BA
:104DE0007FB500216846FDF775FD0546CDB100246D
:104DF0000BE01DF8041004FB04F00A300A4A105CB2
:104E000041400DF80410601C04B2042CF1DB009E3C
:104E10000648D0F84201B04201D1012000E0002054
:104E20000546E8B204B070BDA7CE0308BB3500202C
:104E30002A4A92F8E02F02F00F0100294CD097285F
:104E40002ED008DC15280FD0812813D0822817D047
:104E5000852837D11EE09A2828D0CF282CD0E128E9
:104E60002CD0F8282ED12BE0012901D15D2000E0C3
:104E7000402030E0022901D17D2000E07E202AE0A0
:104E8000012901D17B2004E0062901D15D2000E049
:104E9000602020E0062901D17B2000E040201AE0BC
:104EA000062901D1602000E07C2014E0022901D114
:104EB0005D2000E05E200EE024200CE07E200AE071
:104EC0005B2008E07F2805DDB02803DA00F07F02D0
:104ED000034B985C00BF00BF70470000C81A002059
:104EE00040D4030810B50446611CC8B20022114624
:104EF0002FF05CFD10BD0000F0B585B0044614B97C
:104F0000474890F87C4AFF2C0CD10020FDF784FA2A
:104F1000434890F87C0AFF2803D10021404880F8DC
:104F20007C1A7BE03F480078A0420DD1002C75D060
:104F30003D480068002871D14FF4FA703A49086082
:104F40000120FDF769FA69E0002544B93548007889
:104F5000002861D00021084632F03AFD5CE0AA1C2E
:104F6000D1B2E8B232F034FD3049D1F8DC02FBF7BF
:104F700068F9C7B239460E20FFF70CFD401CC6B2D7
:104F8000EAB22A49D1F8DC02314632F008FD002CA1
:104F90001CDD642C1ADC04F1CE01244A02EB8101F1
:104FA0000868FBF74EF9C7B239460E20FFF7F2FC4E
:104FB000401CC6B2691CCAB204F1CE011B4B03EB04
:104FC00081010868314632F0EAFC1EE000200090C2
:104FD0000190029003901549D1F8DC02FBF731F9FA
:104FE00006461248D0F8DC1232466846FBF7EDF868
:104FF0002146684630F07DFB00208DF80E00681CCD
:10500000C2B20721684632F0CAFC4FF4FA70064972
:1050100008600120FDF700FA0248047005B0F0BDF9
:10502000C82A002074020020EC000020DAB803082F
:1050300070B5FD4890F8985AA0F5805090F89F0FF1
:10504000A84206D14FF4FA61F848A0F853150020A1
:1050500070BDF548B0F8C30A00F47F40B0F5706F3A
:1050600003D0F14890F87C0A08B10120F0E7F0483D
:10507000007858B10021ED4880F891150822ED49DB
:1050800000F2925029F0A6FE0EF01AFC284615F008
:10509000A1FC08B10120DBE7E548007848B1E6480B
:1050A0000078162805D1E5480078022801D10624A9
:1050B00012E0E148007816280AD1E0480078042878
:1050C00006D10624DD480078401EDC49087003E064
:1050D00028460CF03BF90446D34890F86C0A38B1E6
:1050E0000E2C05D00021D04880F8981A0120AFE797
:1050F000CD4890F8910A18B9CB4890F8830A58B176
:10510000102C09DACE48007B1E2805D00E21C64897
:1051100080F87C1A01209BE7C5480078A8B9C248EE
:10512000B0F9B90A00280CDABF49B1F9B90A002868
:1051300001DB014600E041420AB2BB49A1F8B92AAD
:1051400003E00021B848A0F8B91AE01E0C286FD27D
:10515000DFE810F07B050C003105FD006E00300526
:105160007A052E046E006E006E003104AE48B0F871
:10517000C30A00F47060D0B1AB48B0F8C30A00F4C1
:105180007060B0F5706F0CD00C220421084603F05B
:1051900053FDAB48807A401EA7490978081AA649F2
:1051A00008708721A048A0F8C31A012050E79E4844
:1051B000B0F8C30A892804D09B48B0F8C30A8A28EB
:1051C00037D1994890F85D0A401CC1B2964880F8E2
:1051D0005D1A90F85D0A9A490979884203DD012138
:1051E000914880F85D1A9248007878B18E48B0F8FE
:1051F000B90A30B18C48B0F9B90A914909798842A5
:1052000009DD0121884880F87C1A10E3864890F86F
:105210005D1AA0F8B91A844890F8B91A80F85D1A96
:10522000042008F005FC002003F004FB01200FE738
:10523000F0E381480078002834DD804800780028B9
:1052400030DD8048007800282CDD7F48007818B1D8
:1052500001207749087004E00121734880F87C1A26
:10526000D3E779480078401C7749087001207549D8
:10527000087007F0E7FF08B90020E9E66A4890F8EF
:105280007C0A70B9714B1A79684B93F801196F4B0E
:10529000987803F0D1FC6D488178FF226C4807F0C4
:1052A00085FAB2E76048B0F9B90A66281ADD5E48A7
:1052B000B0F9B90A6C2815DA5B48B0F8B90A6B285E
:1052C00009D15948B0F8C30A872804D001215648AB
:1052D00080F87C1A05E05449B1F8B91A88B201F097
:1052E00073FF92E75048B0F8B90A40B14E4890F8C1
:1052F000B90A401E504908700020524908704E48B3
:10530000007810B14F48007888B94D4800794A4973
:105310000978884202DD4848007818B901204649DA
:10532000087004E044480078401C434908700E208F
:1053300048490870042008F07BFB002041490870B0
:10534000454908803D4908703F4908705DE7364887
:10535000D0F8BB0A20F480313348C0F8BB1AB0F84B
:10536000C30A892804D03048B0F8C30A8A2835D146
:105370002F480078A0B12C48B0F8B90A30B12A48BB
:10538000B0F9B90A2E490979884204DD012126487D
:1053900080F87C1A39E7244890F8B91A80F85D1A29
:1053A0002148B0F8C30A892808D11F4991F85D1A2D
:1053B00001F2312188B21EF06DFF07E01A4991F821
:1053C0005D1A01F2352188B21EF0B6FF01211648A0
:1053D00080F85D1AFF2008F02BFB16E71248B0F8A2
:1053E000C30A87287ED11648007BE0B91448807A2A
:1053F000134908800846C07A0871002048710E4899
:10540000C1F806000120087314481549086003F02C
:1054100036FC312008F00CFB0E200E4908700020ED
:1054200008490870F1E61DE0C82A0020C84A00209B
:10543000A10200205B5F00209F0200209D0200204F
:10544000F45E00209E020020A0020020041600202E
:10545000775F0020A20200209602002031DA0008C7
:1054600068020020FE48007B1E2815D0FD48007809
:1054700090B9FB48D0F806000178F948807A401EC0
:105480000844F94908700020F8490880F849087074
:10549000F8490870F8490870F3480078002821D0CE
:1054A000F348007801287CD1F3480078002878D0B0
:1054B000EC48007810B901F069FDEBE30021EF48FA
:1054C00080F89115E84800781E2876D1EC4890F8CD
:1054D000280490B3EA486130A0F8DF1A613890F8E8
:1054E000280400E093E1E4490978B1EB400F5FDC68
:1054F00000221146E3A007F059F9E649DE4A127886
:10550000891A481E0122022107F050F9E2490120C0
:105510000CF0B0FFDA496131A1F8DF0A0846B0F8B3
:10552000DF0AA0B90021084602F018FA30B9DB48BA
:1055300090F8AD0FDA490870ACE33EE0D6490020A0
:105540000CF098FFCE496131A1F8DF0A1EE0CC488B
:105550006130B0F8C30A892818D0C948B0F82304CC
:1055600001B2C7486130A0F8B91A0021012002F049
:10557000F5F9C348B0F823146130B0F9B90A814293
:1055800004DAC64890F8AD0FC5490870BC486130D0
:10559000B0F8DF0A01B2BA486130A0F8B91A0020A9
:1055A00000E02BE003F0AAF9012003F0A7F904E0E2
:1055B0000021B3486130A0F8B91AB1486130B0F8A1
:1055C000B90A40B1AE486130B0F8B90A401E00B225
:1055D000A649088005E00121A948613080F87C1ABD
:1055E00058E30020A3490870A34908700021A4488B
:1055F000613080F87C1A01209A49087000259A4889
:105600000078462816D00CDC3F2820D004DC18286F
:1056100028D03B281AD175E0402877D04528F9D109
:1056200084E0472858D0482874D04B2878D04C289C
:10563000F0D155E09B49D1F81801002130F0D8F89D
:1056400018B100218E48A0F823140325BAE095492B
:10565000D1F89808012130F0CBF808B103F00CF82C
:105660000325AFE0012390A219461A2011F026FB72
:105670000446012C06D1824890F8AC030A2804DDC8
:10568000672402E0022C00D16624672C01D0662C2E
:1056900020D1844901EB84010868012130F0A8F889
:1056A000C0B1672C06D18022834975486030FAF773
:1056B0008CFD05E08022814971486030FAF785FD54
:1056C0006F486130D0F8BB0A20F400716C4861303B
:1056D000C0F8BB1A032575E016F042FF032571E000
:1056E0001AF0BCF889201BF011F88A201BF00EF884
:1056F00017F020FE062024F06BF8032562E005E099
:1057000008E00DE017F09AFB03255BE009F068FB69
:10571000032557E04FF480500EF0AAFA032551E01C
:105720004FF400500EF0A4FA03254BE000BF012314
:1057300063A20021452011F0C1FA0446002C3BDD94
:105740000A2C39DC04F14C0084B2A4F14D000A2883
:1057500031D2DFE800F005090E12161A1E22262BA0
:1057600002200EF085FA26E04FF480400EF080FA19
:1057700021E001200EF07CFA1DE008200EF078FAFE
:1057800019E004200EF074FA15E010200EF070FA03
:1057900011E020200EF06CFA0DE040200EF068FAC7
:1057A00009E04FF480600EF063FA04E04FF400600B
:1057B0000EF05EFA00BF00BF4FF6FE708442B6D115
:1057C000032500BF00BF15B3032D14D12448807AF0
:1057D000401E25490978081A2349087000202149EC
:1057E000087022490880224908702249087003F095
:1057F00021F801202CE400212148613080F86C1A46
:10580000264890F8AD0F26490870012020E4324860
:10581000324908601848007800BB1348007830B15E
:105820001748613090F8BB0A00F0080000B131E27F
:105830000F480078401C0E49087000200D49087080
:105840000B480078022862DD012027F0BBFA0B48E4
:1058500090F80109032849D1012041E04CE0000003
:10586000F45E00209E0200209F020020960200208D
:105870009D020020A0020020A1020020C84A0020B2
:10588000672A0020434F4449474F20444520504C4D
:10589000550000005D5F00205A500020C81A00200B
:1058A00098020020DAB803085449504F204445209C
:1058B0005445434C41444F0022B60308C9A603088F
:1058C00053454C4543494F4E20444520415254498D
:1058D00043554C4F000000002DDA000868020020FC
:1058E00027F07EFA022100200EF0A0F8F14890F88F
:1058F0000109F149C8700AE0F048007810B9F04891
:10590000007820B90121EF4880F87C1AC2E101201B
:10591000ED49087007F096FC08B9002046E4E94814
:1059200090F87C0AB0BBE948007800283FDDE448E5
:10593000007816283BD0E548007801280BDDDE4BC7
:105940001A79D978987803F077F9DB48C2788178AA
:10595000DF4806F02BFFDF480078D8B1DB4800783D
:10596000401CDA490870012027F02CFAD14890F841
:105970000109032806D1012027F032FA0221002074
:105980000EF054F8002002F055FF07F05BFC10B950
:1059900000200BE40BE0CB48B0F8BB0A00F48070A9
:1059A00028B9C5488178FF22C94806F0FFFE71E199
:1059B00023F0ECF96EE1C348D0F8BB0AC6490840B1
:1059C000C049C1F8BB0A0846B0F8C30A4FF28601C5
:1059D000884220D18621BB48A0F8C31A0020B849CC
:1059E0000870BE4890F84F0100F00800BB4981F8EC
:1059F0004F01002002F01EFF31F08EFE042002F065
:105A00007DFFB049D1F8EF0A0422002106F0CEFE56
:105A100086200CE427E1AB48B0F8C30A00F47060BC
:105A200090B18421A748A0F8C31A002002F002FF19
:105A3000042002F063FFA349D1F8EF0A04220021F9
:105A400006F0B4FE842018E4A548A64908609F48E3
:105A5000007878BB9C48007860BB9A48B0F8C30ACD
:105A6000892804D09748B0F8C30A8A2809D10020B1
:105A700093490870FF2007F0DBFF0E209A49087059
:105A800008E108F0E7F900218E4880F86C1A8721B8
:105A9000A0F8C31A954801698A48C0F8EF1A014670
:105AA000D1F8EF0A0422002106F080FE04208E497E
:105AB0000870EFE0FFE782480078C8B383480078B9
:105AC000012836DD7E480078312832DA7C480078BB
:105AD00036282EDD7A480078BB282ADA7848007804
