:020000040800F2
:10000000E0C0002045010008C5800108293A010828
:10001000397E01088D2800081D54030800000000E7
:10002000000000000000000000000000C5CB020836
:1000300035A800080000000049A7010879F202086D
:100040005F0100085F0100085F0100085F01000810
:100050005F0100085F0100085F0100085F01000800
:10006000F5E600085F0100085F0100085F01000875
:100070005F0100085F0100085F0100085F010008E0
:100080005F0100085F0100085F0100085F010008D0
:10009000155103085F0100085F0100082DE7000803
:1000A0005F0100085F0100085F0100085F010008B0
:1000B0005F0100085F0100085F0100085F010008A0
:1000C0005F0100085F0100085F0100085F01000890
:1000D0005F010008614C0308314D0308214E0308FD
:1000E0005F0100085F010008095103085F01000873
:1000F0005F0100085F0100085F0100085F01000860
:100100005F01000885BF02085F0100085F01000869
:100110005F0100085F01000891F40208C1F50208C0
:100120005F0100085F0100085F0100085F0100082F
:10013000DFF80CD000F0F2FA00480047117B03080A
:10014000E0C000200648804706480047FEE7FEE77B
:10015000FEE7FEE7FEE7FEE7FEE7FEE7FEE7FEE777
:10016000D9F20208310100082DE9F05F05460020B0
:1001700092469B4688460646814640241BE0284618
:1001800041464746224600F0C8F853465A46C01A30
:10019000914110D311461846224600F0AFF82D1AAF
:1001A00067EB01084F4622460120002100F0A6F827
:1001B00017EB00094E41201EA4F10104DFDC484684
:1001C00031462A464346BDE8F09F40EA01039B07BB
:1001D00003D009E008C9121F08C0042AFAD203E0BC
:1001E00011F8013B00F8013B521EF9D27047D2B220
:1001F00001E000F8012B491EFBD270470022F6E710
:1002000010B513460A4604461946FFF7F0FF20468C
:1002100010BD421E12F8013F002BFBD111F8013B2B
:1002200002F8013B002BF9D1704710B5044604E0F9
:100230000B7800F8013B03B1491C521EF8D220464E
:1002400010BD421C10F8011B0029FBD1801A704719
:1002500010B5002200E0521C835C8C5CA34201D1EB
:10026000002BF8D1D8B2E1B2401A10BD30B5044627
:100270000020034600E05B1C934203D2E05CCD5CAF
:10028000401BF8D030BD034611F8012B00F8012BBC
:10029000002AF9D11846704730B5054600200346BC
:1002A00000E05B1C934205D2EC5CC85C201A01D1D3
:1002B000002CF6D130BD70B5064635F09FFE0468BF
:1002C00005460A220021304600F037F82C6070BD48
:1002D00030B50B46014600202022012409E021FA16
:1002E00002F59D4205D303FA02F5491B04FA02F513
:1002F0002844151EA2F10102F1DC30BD202A04DBE6
:10030000203A00FA02F1002070479140C2F1200328
:1003100020FA03F3194390407047202A04DB203A67
:1003200021FA02F00021704721FA02F3D040C2F115
:10033000200291400843194670472DE9F047914645
:100340000F4680460446002614F8015B2DB100F0EC
:1003500009FA0068405DC007F6D12B2D02D02D2D83
:1003600018D0641E4A463946204600F0FFF927B1EE
:100370003968A14201D1C7F8008071054FF002042D
:100380000BD54042002803DD35F038FE0460A0079D
:10039000BDE8F08746F48066E4E70028F8DA35F037
:1003A0002DFE04606FF00040F2E72DE9FE4F80461D
:1003B00081EA0300C00F0C46009021F0004123F0B9
:1003C0000045B8EB0200A94105D2404621469046BF
:1003D0001C460B46024623F00040104347D0270D31
:1003E000C7F30A00C3F30A510290401A0190402853
:1003F0006BDAC3F3130040F4801B0098924620B1DF
:100400000023D2EB030A63EB0B0B01985946C0F1B2
:1004100040025046FFF772FF06460D4650465946C9
:10042000019A00F08DF910EB08006141002487EA81
:10043000115284EAE7731A4340D0009A62B3019ADA
:10044000012A4FEA075215DC001B61EB02014FF055
:10045000004202EA0752CDE90042001C41F580113A
:1004600032462B4600F0E0F903B0BDE8F08F40467D
:100470002146F9E7001B61EB0201001C41F58013E6
:1004800000185B412018A2F5001747EB030140EA72
:10049000D570B6196D4111E06D084FEA360645EA90
:1004A000C0754FEA0752001B61EB0201001C41F5C9
:1004B000801149084FEA30000019514132462B465D
:1004C00003B0BDE8F04F00F0A0B900980122400051
:1004D0000023D0EB020263EBE073009821464FEA61
:1004E000E074B8EB000061EB0401E9E783F000433E
:1004F0005BE781F0004158E72DE9FE4F81EA0304F4
:1005000004F0004421F0004100944FF0000B23F070
:10051000004350EA01045ED052EA03045BD0C3F307
:100520000A54C1F30A552C44A4F2F3340194A0FBFD
:100530000254C1F3130141F48011C3F3130343F4D4
:10054000801301FB024400FB034E840A970A44EA2D
:10055000815447EA8357A4FB076802958D0A05FB7F
:1005600007854FEA932C04FB0C542705029D4FEAA4
:10057000065847EA1637B5EB08056EEB070C870EF1
:10058000920E47EA811742EA8312A7FB0201B6EBFB
:100590000B0164EB00042B0D43EA0C335E1844EBB3
:1005A0001C50DA465146E7FB0201C5F313044FEA3B
:1005B0000B3343EA14534FEA0432019C43EA060327
:1005C000A4F10C040294009CCDE900B400F02CF9D5
:1005D00003B0BDE8F08F00200146F9E72DE9F04DAA
:1005E00081EA030404F0004B21F0004514464FF06B
:1005F000000A23F0004150EA050220D054EA01022B
:100600001DD0C5F30A570246C5F31303C1F3130007
:10061000C1F30A5640F4801543F48013A7EB060893
:10062000101BD64608F2FD3873EB050002D308F123
:10063000010801E092185B41B8F1000F03DA0020D5
:100640000146BDE8F08D00204FF480110646844637
:100650000EE0171B73EB050705D3121B63EB0503B5
:1006600006434CEA010C49084FEA300092185B41FE
:1006700050EA0107EDD152EA030012D082EA0400E9
:1006800083EA0501084305D0101BAB4106D20122C5
:10069000002306E000224FF0004302E06FF0010269
:1006A00053101AEB06004CEB085110EB0A0041EB1B
:1006B0000B01BDE8F04D00F0A8B8C1F30A52C1F338
:1006C000130140F2FF3341F480119A4202DA002014
:1006D0000146704740F233439A42A2F2334202DCB1
:1006E0005242FFF71ABEFFF709BE000030B5041EE4
:1006F00071F1000404DB4FF00044404264EB01015F
:10070000141E73F1000405DB1C464FF000435242F7
:1007100063EB0403994208BF904230BD064C074D7D
:1007200006E0E06840F0010394E8070098471034C1
:10073000AC42F6D3FFF700FD90EF0308B0EF0308DB
:10074000202A06DBCB17203A41FA02F043EAE07395
:1007500006E041FA02F3D040C2F120029140084382
:100760001946704700487047C4D103082DE9F05F6F
:1007700082460078002715468B460AF10104B946E7
:10078000302801D09DB113E014F8010B012778281F
:1007900003D0582801D045B10AE00DB1102D07D182
:1007A0000027102514F8010B02E0082500E00A25B7
:1007B0000026B0460EE005FB080005FB06F1012708
:1007C00001EB10461FFA80F8B6F5803F00D3B9461A
:1007D00014F8010B294600F075F80028EBDABBF19C
:1007E000000F05D00FB1641E00E05446CBF8004066
:1007F000B9F1000F06D035F001FC02210160C81EDE
:10080000BDE8F09F48EA0640FAE710B5141E73F100
:10081000000408DA401C41F1000192185B411A43C0
:1008200001D120F0010010BD2DE9F04D92469B460C
:1008300011B1B1FA81F202E0B0FA80F220329046B2
:10084000FFF75CFD04460F4640EA0A0041EA0B014F
:1008500053465A46084313D0114653EA010019D0B3
:10086000C8F140025046FFF758FD05460E46504677
:1008700059464246FFF742FD084305D0012004E0F7
:1008800020463946BDE8F08D0020054346EAE07673
:100890002C4337430A986305E40AA0EB08000022C2
:1008A000FD0A44EA47540A3002D500200146E9E730
:1008B000010510196941DDE9084500196941BDE8E4
:1008C000F04DA2E73A2800D2303820F02002412A29
:1008D00001D3A2F13700884201D34FF0FF307047B7
:1008E00070B58C1810F8015B15F0070301D110F8F2
:1008F000013B2A1106D110F8012B03E010F8016B1F
:1009000001F8016B5B1EF9D12B0705D40023521EA1
:100910000DD401F8013BFAE710F8013BCB1A921C09
:1009200003E013F8015B01F8015B521EF9D5A14207
:10093000D8D3002070BD000000B591B001214FF464
:10094000047028F043FD0121084628F01FFD4FF4F4
:10095000404028F00FFD264809F0D0FD25480190C1
:100960002548029000200390032004900020059069
:100970008020069040000790800008902020099079
:1009800000020A9000200B9001A9194809F05CFEB2
:100990000121174809F0A6FD00200C9001208DF8D8
:1009A00034008DF835004FF460200E9000200F9039
:1009B00003208DF840000CA90E484C3800F034F8A4
:1009C000072301220E210B484C3800F055F807236D
:1009D00002220F2107484C3800F04EF803231A4634
:1009E0000A2104484C3800F047F811B000BD00005F
:1009F000080002404C2401408800002021B1826898
:100A000042F00102826003E0826822F0010282600B
:100A1000704721B1826842F48072826003E082688C
:100A200022F480728260704730B5024600200023B5
:100A300050680F4C20400D790C6844EA052420438F
:100A4000506090680B4C2040D1E902542C434D7902
:100A500044EA450420439060D06A20F470000C7C86
:100A6000641EE4B2234340EA0350D06230BD00006C
:100A7000FFFEF0FFFDF7F1FFF0B504460D46002044
:100A80000021092D11DDE068A5F10A0606EB4607F5
:100A9000072606FA07F18843A5F10A0606EB460683
:100AA00003FA06F10843E0600CE0206905EB450716
:100AB000072606FA07F1884305EB450603FA06F117
:100AC00008432061072A0FDA606B561E06EB860783
:100AD0001F2606FA07F18843561E06EB860605FA1E
:100AE00006F10843606322E00D2A0FDA206BD61F5F
:100AF00006EB86071F2606FA07F18843D61F06EB8A
:100B0000860605FA06F10843206310E0E06AA2F1C8
:100B10000D0606EB86071F2606FA07F18843A2F1A9
:100B20000D0606EB860605FA06F10843E062F0BD05
:100B300021B1826842F4A002826003E0826822F45C
:100B4000A0028260704700002DE9F04105460E4684
:100B5000287800F080004D490870307800F080005F
:100B60004B490870287800F007004A49087030782F
:100B700000F007004849087011214848FFF73EFB84
:100B800011214748FFF73AFB4448D5F801100160AE
:100B9000D5F8051041604248D6F801100160D6F83A
:100BA000051041603B4800783B49097888420FDDD9
:100BB00007E039480078401C37490870384801F090
:100BC00059F834480078344909788842F1DC14E057
:100BD000304800783049097888420EDA07E02D481D
:100BE0000078401C2B4908702C4801F043F8294834
:100BF0000078294909788842F1DB072425E0274855
:100C0000005D2749095D884200DD20E02348005D42
:100C10002349095D884216DA002409E01F48075D70
:100C20001F48005D1D4908551D480755601C04B24A
:100C3000082CF3DB1648077814480078144908702C
:100C40001248077003E0601E04B2002CD7DA00BF20
:100C50000E4800780E490978884202D100F024F845
:100C600001E02DF0F5FF094800780E49087009F001
:100C700039F90C480078287008480168C5F8011057
:100C80004068C5F80500BDE8F081000007020020BB
:100C900008020020090200200A020020641A002035
:100CA000751A00200602002070B5002100240020E3
:100CB00030E01A4D2D5C05F00F05184E365C3611EC
:100CC00006EB860605EB4605EAB2154D2D5C05F0F0
:100CD0000F05134E365C361106EB860605EB46050E
:100CE000EBB2D5182544E9B2632904DDA1F164050E
:100CF000E9B2012400E000240A2591FBF5F605FB8A
:100D000016150A2691FBF6F605EB0615034E35542B
:100D1000451C28B21028CCDB70BD0000641A0020EE
:100D2000751A002010B510F041F8174890F86902C4
:100D300016490968084415490860002112486130C5
:100D400080F8A21A19E01048613090F8A21A00F257
:100D50000A2000EBC10100F537600A6802604968AB
:100D6000416000F0ADFA0848613090F8A20A401CDA
:100D7000C1B20548613080F8A21A0348613090F88A
:100D8000A20A0628DFDB10BD672A0020000200202F
:100D900010B510F01DF8174890F89E021649096822
:100DA00008441549086000211248613080F8A21AF1
:100DB00019E01048613090F8A21A00F23F2000EBD1
:100DC000C10100F63B300A6802604968416000F0EA
:100DD00077FA0848613090F8A20A401CC1B2054871
:100DE000613080F8A21A0348613090F8A20A062800
:100DF000DFDB10BD672A00200002002010B51A4872
:100E0000B0F8C81A6138B0F8D00281422BDA10F07D
:100E1000ABF81548613890F8D402144909680844C1
:100E2000124908600021104880F8A21A16E00E4806
:100E300090F8A21A00F51E7000EBC10100F6023016
:100E40000A6802604968416000F03AFA064890F882
:100E5000A20A401CC1B2044880F8A21A024890F8C5
:100E6000A20A0628E3DB10BDC82A002000020020E9
:100E700010B5204890F8210440F020011D4880F86A
:100E8000211410F0C1F81C4890F80C031B490968A4
:100E900008441A49086000211748613080F8A21AF6
:100EA00019E01548613090F8A21A00F2AD2000EB6D
:100EB000C10100F6CD200A6802604968416000F077
:100EC000FFF90D48613090F8A20A401CC1B20A48EF
:100ED000613080F8A21A0848613090F8A20A06280A
:100EE000DFDB044890F8210420F02001014880F85D
:100EF000211410BDC85A0020672A002000020020DB
:100F000010B51A4890F87B1A613890F83E03814278
:100F10002BDA10F08BF81548613890F8410314492A
:100F200009680844124908600021104880F8A21A94
:100F300016E00E4890F8A21A00F2E22000EBC10180
:100F400000F698200A6802604968416000F0B8F92C
:100F5000064890F8A20A401CC1B2044880F8A21AC0
:100F6000024890F8A20A0628E3DB10BDC82A002038
:100F70000002002010B53448D0F8E0003349086082
:100F800000213148613080F8A21A19E02E48613002
:100F900090F8A21A00F2D51000EBC10100F6A530BE
:100FA0000A6802604968416000F08AF926486130A9
:100FB00090F8A20A401CC1B22348613080F8A21AFE
:100FC0002148613090F8A20A0628DFDB0021204882
:100FD00080F81B14A0F54050B0F8CA1A6138B0F878
:100FE000730381422FDA10F069F8174890F87703FD
:100FF0001649096808441549086000211248613003
:1010000080F8A21A19E01048613090F8A21A00F591
:10101000467000EBC10100F662200A680260496870
:10102000416000F04DF90848613090F8A20A401C78
:10103000C1B20548613080F8A21A0348613090F8C7
:10104000A20A0628DFDB10BD672A0020000200206C
:10105000C85A00207CB529484488294812F00AFA69
:10106000274BDA78997818880DF0B1FC254948812A
:10107000B4F5006F3DDA4FF4004000EB0415014673
:1010800001EB04101F4A0A32102135F021FF1D49DF
:101090000C8000204880009001904FF4804101EBCB
:1010A000C4006A46082135F013FF14484088401CEC
:1010B00012494880C4F3090412480088B0F5806FD3
:1010C00004DA10480089B0F5804F09D00D48008837
:1010D000B0F5806F11DB0B480089B0F5C04F0CD123
:1010E00008481A3000EBC400009901600199416082
:1010F00003E05A21044880F87C1A7CBD03350020A7
:10110000035F0020CA6B0020C82A002010B510F031
:1011100061FF174890F8AF0316490968084415495C
:10112000086000211248613080F8A21A19E01048C6
:10113000613090F8A21A00F5587000EBC10100F67A
:101140001A200A6802604968416000F0B9F808484E
:10115000613090F8A20A401CC1B20548613080F8A5
:10116000A21A0348613090F8A20A0628DFDB10BDFE
:10117000672A00200002002010B54FF0FF3011F068
:1011800007F8174890F8C00316490968084415493C
:10119000086000211248613080F8A21A19E0104856
:1011A000613090F8A21A00F5647000EBC10100F6FE
:1011B000EA100A6802604968416000F081F8084856
:1011C000613090F8A20A401CC1B20548613080F835
:1011D000A21A0348613090F8A20A0628DFDB10BD8E
:1011E000672A00200002002010B511F001F817480E
:1011F00090F8270416490968084415490860002139
:101200001248613080F8A21A19E01048613090F855
:10121000A21A00F2CD3000EBC10100F6AD100A6851
:1012200002604968416000F04BF80848613090F86E
:10123000A20A401CC1B20548613080F8A21A0348D6
:10124000613090F8A20A0628DFDB10BD672A002073
:101250000002002010B511F055F8174890F861040D
:101260001649096808441549086000211248613090
:1012700080F8A21A19E01048613090F8A21A00F222
:10128000024000EBC10100F678100A68026049686C
:10129000416000F015F80848613090F8A20A401C3F
:1012A000C1B20548613080F8A21A0348613090F855
:1012B000A20A0628DFDB10BD672A002000020020FA
:1012C00070B5934890F88D0A00B170BD904890F8C1
:1012D0007A0D00B9F9E78F48407800B9F5E78C48F6
:1012E00090F8950A00B1F0E70024894890F87A0D4B
:1012F00000F0010018B187484078204484B2844847
:1013000090F87A0D00F0020018B18248407820442D
:1013100084B27F4890F87A0D00F0040018B17D483F
:101320004078204484B27A4890F87A0D00F00800A2
:1013300018B178484078204484B22546744890F823
:10134000A20A062864D2DFE800F003061D344B62CF
:10135000002400255DE06E486138B0F86C0100B9EA
:10136000B3E76B486138B0F86C116130B0F8C40A6B
:10137000081A684385B26648B0F8C40A401E604344
:1013800084B246E06248613890F8FD0400B99CE7F9
:101390005F48613890F8FD14613090F8AF0A081A80
:1013A000401E684385B25A4890F8AF0A604384B241
:1013B0002FE05748613890F82E0500B985E754486A
:1013C000613890F82E15613090F8780A081A401E9E
:1013D000684385B24E4890F8780A604384B218E0BA
:1013E0004B48613890F82F0500B96EE748486138DE
:1013F00090F82F15613090F89A0A081A401E684339
:1014000085B2434890F89A0A604384B201E05CE7F1
:1014100000BF00BF4048006820443F4908603C4886
:1014200090F8A20AE8B93D4890F8210400F02000A5
:10143000B8B93B4805F0BAFE20B13949A1F1E10045
:101440002DF046FC324890F8970A50B134480930E4
:1014500005F0ACFE28B132490931A1F1EA002DF0C6
:1014600037FC2B4890F87A0D00F0010008B100F02D
:1014700065F9274890F87A0D00F0020030B127484E
:1014800090F81A04012801D000F058F9204890F88B
:101490007A0D00F0040008B100F050F91C4890F8F3
:1014A0007A0D00F0080008B100F048F91A48006809
:1014B000284419490860164890F8A20A28BB154824
:1014C00040781A2803D10021144880F81B141348CF
:1014D00090F8210400F02000B8B9114805F066FE2C
:1014E00020B10F49A1F1E100FFF72EFB084890F869
:1014F000970A50B10A48093005F058FE28B108494A
:101500000931A1F1EA00FFF71FFB00BFDDE6000093
:10151000C82A00204238002000020020C85A0020BB
:10152000035100203EB5204890F8830A00283AD1A4
:101530001D4890F8800A022835D01B4890F88D0A83
:1015400000BB194890F8930A08B1042400E0002475
:1015500016480168009141680191007A8DF80800F1
:10156000134890F8220400F0010060B11148406D6A
:10157000CDF8010010496846FFF7E6FA0D48DDF89E
:10158000011041650FE00B484D3020440068CDF854
:10159000010009496846FFF7D7FA06484D30204454
:1015A000DDF8011001603EBDC82A00204CC70308C9
:1015B000C85A0020C834002055C7030870B5044637
:1015C0000126244890F8AB0A4440224890F8AC0A1F
:1015D000444000250EE004EA060038B105EBC501E1
:1015E0001D4A8818A2F21711FFF7AEFA7006060E10
:1015F000681CC5B2082DEEDBBCB9184901F1FC002E
:10160000FFF7A2FA164890F81D0400F0080060B138
:10161000104890F8970A18B90E4890F8810A20B13E
:101620000E4901F1F300FFF78FFA0C4901F1870031
:10163000FFF78AFA09495A3101F13600FFF784FAB7
:10164000044890F8AC1A80F8AD1A002180F8AC1A62
:1016500070BD0000C82A002039510020225000200F
:10166000C85A002010B511F0E1FE174890F8960412
:10167000164909680844154908600021124861307C
:1016800080F8A21A19E01048613090F8A21A00F20E
:10169000374000EBC10100F643100A680260496858
:1016A0004160FFF70DFE0848613090F8A20A401C27
:1016B000C1B20548613080F8A21A0348613090F841
:1016C000A20A0628DFDB10BD672A002000020020E6
:1016D00010B511F0BDFE174890F8CB041649096803
:1016E00008441549086000211248613080F8A21AA8
:1016F00019E01048613090F8A21A00F26C4000EB3B
:10170000C10100F60E100A68026049684160FFF7E7
:10171000D7FD0848613090F8A20A401CC1B20548C4
:10172000613080F8A21A0348613090F8A20A0628B6
:10173000DFDB10BD672A00200002002010B57148D1
:1017400090F8930A60B16F4890F8A20A012807D078
:101750006D4840786D49096808446C49086010BDBF
:101760006A48046829F0ECF868480460654890F815
:101770006F0A58B1664890F81B0438B934F082FB00
:1017800061484078204461490860B9E0604890F8B9
:101790001A0400283FD05C482B30C07E00F0800047
:1017A00060B159482B3090F82D0057492B31C8763D
:1017B0000846C07E40F08000C8760BE052482B30CF
:1017C00090F82D0050492B31C8760846C07E20F095
:1017D0008000C8764C495831A1F11200FFF7B4F9E6
:1017E00049493D314B4802680A6042684A60007AC4
:1017F00008721239474802684A6242688A62007A6F
:1018000081F82C002D31434802680A6042684A6022
:10181000007A087272E03E4890F81B0448B13A48DA
:10182000C07900286AD03C4937485830FFF78CF916
:1018300064E03548807890B133482B30407A00F02E
:10184000080060B92F4890F8B10A40B92D4890F8C7
:10185000800A20B931492C482B30FFF775F92A4806
:10186000C07868B128482B30407A00F083002649C0
:101870002B3148722849483123483430FFF764F946
:101880002148007928B1244912391F483D30FFF71B
:101890005BF91D48407900B31B480D38807838B992
:1018A000184890F8A20A18B9174840781A2814D096
:1018B00019496C31144846302DF00AFA12482B3081
:1018C000C07E00F0800040B10F49463111480268E7
:1018D0000A6042684A60007A08720B48807928B131
:1018E0000D49093108484F30FFF72EF90648C079F5
:1018F00020B1094904485830FFF726F934F0C2FAFC
:1019000000BF2CE7C82A0020423800200002002037
:10191000C85A00204CC703083450002055C703089C
:10192000002070472DE9F04106460C462EB92F489D
:1019300090F8FE0F00F00F0040B9002E53D02B4856
:1019400090F8FE0F00F0F00000284CD0277800201F
:101950002070264890F8FE0F00F00F051DB92348AF
:1019600090F8FE0F0509012D06D0022D12D0032D8F
:101970001FD0042D35D128E0607800F00F00052835
:1019800003DB1B492046FFF7DFF8607800F0F0002A
:10199000607026E0657800206070742D04DD1549C4
:1019A0002046FFF7D1F803E0242D01DD50206070C0
:1019B00017E0607800F0F00500206070502D03DB28
:1019C0000C492046FFF7C0F80BE0607800F0F00506
:1019D00000206070002D03DD06492046FFF7B4F8B3
:1019E00000BF00BF2770BDE8F0810000C81A0020CA
:1019F0005EC7030867C7030810B50446314800787E
:101A000030B920224F213048FEF7F1FB07F0BBF937
:101A10002E4890F8BA0A00F01000002839D12F2C77
:101A200003D13020FFF7E8FF30242E2C1AD12748AD
:101A300090F8790AA0B90121244880F8791A214840
:101A4000007830BB3020204981F84D002E2081F8ED
:101A50004E00002081F84F0002201A49087010BD86
:101A60000020FCE7194890F8790A90B1302C10DB7F
:101A7000392C0EDC154890F8790A032801DD002086
:101A8000EDE7124890F8790A401CC1B20F4880F87F
:101A9000791A0C48007828B14E220B49491C481E7F
:101AA000FEF793FB084880F84E400020064981F875
:101AB0004F0004480078401C02490870084600782E
:101AC000CDE70000A10200200C5F0020C82A002002
:101AD00010B501460A12CBB202F00F00141104EB4C
:101AE000840400EB440000EBC00404EB00104FF64C
:101AF000FF7404EA800203F00F001C1104EB84045D
:101B000000EB4400104480B210BD00002DE9FF47F7
:101B100082460C4691461D46DDE90D780C9E134821
:101B200090F8C20F012802D0022812D108E02B46FB
:101B30004A460FA150468DE8D00134F039FA11E041
:101B40004B46224612A150468DE8E00134F030FAAF
:101B500008E04B462A4606A150468DE8D00134F0F5
:101B600027FA00BF00BFBDE8FF870000C81A0020A9
:101B7000253032782D253032782D323025303278AC
:101B800020253032783A253032783A2530327800C4
:101B90003230253032782D253032782D253032788C
:101BA00020253032783A253032783A2530327800A4
:101BB0002DE9F047034600252846294606221CE069
:101BC0009C5C992C16DC9C5C04F00F049D5C2D1130
:101BD00005EB850504EB45044FF0640C4FF000095C
:101BE0008046A8FB0C6A01FB0CA700FB0977A01933
:101BF00047EBE471A2F1010422B2002AE0DABDE869
:101C0000F08730B502460C460023062113E0505CF5
:101C100099280EDC505C00F00F00555C2D1105EB8F
:101C2000850500EB450003EBC30505EB031500EB51
:101C30008503481E01B20029E9DA236098B230BD5D
:101C400030B500240F30002101E0401E491C10294E
:101C500002DA0578002DF8D009E005782D072A0E64
:101C600005782B091D1905701446401E491C1029C2
:101C7000F3DB30BD30B50024002109E005782D07E5
:101C80002A0E05782B09151905701C46401C491CA5
:101C90001029F3DB30BD0146072005E04A1C125C29
:101CA00002B103E0421E10B20028F7DA00BF421C66
:101CB00010B200280BDD421E4B1C9A5C0F2A04DA7E
:101CC0000122C2EB400210B201E0420010B20A78D9
:101CD00002F080020AB1421C10B2704708B50146FA
:101CE000002000900348009000980844009000985D
:101CF000008808BD006C004008B500220092044A2C
:101D00000092009A02440092009A116008BD0000FF
:101D1000006C004010B504461348B0F8FE0800F40B
:101D2000007000BB44B11149114800880880084682
:101D3000007840F0800008700B4890F8FE0800F032
:101D40000100C0F104000201094952390948FEF7B7
:101D50003CFA35F071FB0448B0F8FE0840F400711D
:101D60000148A0F8FE1810BDC84A0020D801002084
:101D7000C85300201416002010B50F4890F8DB0F50
:101D800000F007041CB10D4890F87C0A08B100204F
:101D900010BD611EC8B20CF0C7FD611EC8B205219E
:101DA0002BF057F9002006490870064908700649CB
:101DB00008800120ECE70000C81A0020C82A002093
:101DC00075010020740100207801002070B5B3482F
:101DD00090F8DB0F00F007051DB1B14890F87C0AC0
:101DE00008B1002070BDE7E0691EC8B203F038F901
:101DF00030B1691EC8B227F087FE0446401C08B9FE
:101E00000020EFE7A7480088B8BB0020A64908706B
:101E1000A6490870A6490870012C10D0022C12D0D7
:101E2000062C02D0462C16D111E0691EC8B2112131
:101E30002BF00FF902209F4908700020D2E7022002
:101E40009C49087009E000209A49087005E00120CB
:101E50009849087001E00020C4E700BF8F4890F85F
:101E6000DB0F00F007009349097801F00F0140EA09
:101E700001118A4880F8DB1F30E0FFE78D480078C9
:101E800002282BD1042C1FD18748007880F0030052
:101E9000854908700846007848B9874880785328F3
:101EA00005D18548008840F2012188420BD0691E87
:101EB000C8B20CF039FD5521794880F87C1A002011
:101EC000784908808EE778E07648B0F9000001286C
:101ED00004DD7548007860407349087073480078E5
:101EE00038B17048B0F9000070490978401A0128EB
:101EF00004DC71496B4AB2F900208C54302C01DBB0
:101F0000392C01DD2E2C0AD16948007818B96548B2
:101F10000078674908706348007864490870614830
:101F20000088401C00B25F490880624800780128A0
:101F300019D1084600880A2815D15D48007818B9DB
:101F4000084600785A490870564800785749087082
:101F50002E215448B0F900200088401C00B2514B9B
:101F60001880554881544F48B0F900001E2801DA06
:101F70000A2C03D100204B49088033E70D2C1BD1DC
:101F80004C48007818B94C480078022807D04948D6
:101F90000078012804D148480078462800D10CE098
:101FA000691EC8B20CF0C0FC55213D4880F87C1A6F
:101FB00000203C49088015E716E700BF002006F026
:101FC000BFFC691EC8B20CF0AFFC00203B49087092
:101FD00034490880002600253548007833490978BF
:101FE000884259DA3248047832E04EB93248005B10
:101FF00043F23001884201D0012000E00020064673
:1020000026B300212E48A0F854152B48055D2E2D2F
:1020100006D12448008818B901202249088008E028
:102020002048008828B11F480088401C00B21D4984
:1020300008801C48B0F90000042807DC2048A0F8FC
:1020400052550146B1F8520513F07EFD601C04B2F2
:10205000164800788442C8DD00201249088001201B
:1020600000F0CEF90E48B0F8C20A842804D00C481B
:10207000B0F8C20A86280FD100211148A0F85415E3
:1020800040F2D471A0F852150121054880F87D1A5C
:1020900021F01AFA0120A5E60020A3E6C81A0020C4
:1020A000C82A002078010020760100207501002058
:1020B000740100207A010020E8140020A40200200E
:1020C000C84A002070B5834890F8DD0F00F007057E
:1020D000814890F87C0A90B97F48B0F8C20A8328FA
:1020E0000DD07D48B0F8C20A8A2808D07A48B0F8E6
:1020F000C20A872805D1794800781E2801D000201F
:1021000070BD002679E05DB1691EC8B202F0A8FF7B
:1021100030B1691EC8B227F0F7FC0446401C08B96C
:102120000020EDE7E4B26E4801680068401C6C4A8C
:1021300010606C48445410460068FE2803DB002001
:1021400011460860DCE70A2C11D006DC022C09D00D
:10215000032C31D0092C40D12DE00D2C2AD0242C79
:102160003BD100E000BF00205D490860C8E75C4843
:102170000068801E5B49085C0D280AD15848006839
:10218000801E5749086000205649554A12688854F5
:102190000EE053480068401E514908600020514934
:1021A0004F4A126888544E48006808B90020A7E7D3
:1021B000012621E000BF00BF49480068401E484991
:1021C000086000204749464A12688854444800681D
:1021D00008B9002094E701260EE0202C01DB7E2CBC
:1021E00009DD3F480068401E3D49086000203D4928
:1021F0003B4A1268885400BF00BF002E83D00020E5
:1022000006F09EFB0020384908703348B0F8C20A37
:1022100087281CD131480078C8B92F4991F8A41AF1
:1022200001F0040109B1062100E0042108462D490E
:1022300016F030FB06F0B6FD06F096FD04221146BE
:1022400028480AF051FB00202549086058E7244837
:102250000078264908700020214908602449234A53
:102260001278891A481E21490A781E49FDF7ADFFE8
:102270000121194880F87E1A03F076FE1648B0F85E
:10228000C20A84281AD01448B0F8C20A862815D089
:1022900000211848A0F852150F4880F88C1AB0F8A1
:1022A000C20A892804D114480078144908700FE044
:1022B000084890F8A50F1149087009E000210D4861
:1022C000A0F8541542F21071A0F8521521F0FCF854
:1022D000012015E7C81A0020C82A00209F0200200C
:1022E0007C01002006150020A4020020A10200208D
:1022F0005C5F0020C84A0020AF0200209802002046
:1023000030B502460B460020591E0EE0C40004EB17
:102310004004555C04EB2510C40004EB4004555CFC
:1023200005F00F0560194C1E21B20029EEDA30BD10
:1023300010B5044611210948FDF760FF074854F81D
:10234000011F016061684160FFF77AFC0348016882
:10235000216040686060641E10BD0000641A0020A7
:10236000D0F80220C0F80120C288A0F80520017A28
:10237000C17100220272704710B50446112109484C
:10238000FDF73CFF074854F8011F01606168416098
:10239000FFF770FC03480168216040686060641EBC
:1023A00010BD0000641A0020072105E04A1E431CEE
:1023B0009B5C421C5354491E0029F7DC00224270EA
:1023C0007047000008210C4A1160012803D10A213E
:1023D0000A4A11800EE0022803D12821074A118001
:1023E00008E0032803D15021044A118002E00A21A9
:1023F000024A11807047000014140140760000204A
:1024000000B50346D8B2FFF7DDFF002000BD000095
:102410002DE9FC5F8346894616461C46082E00D9E6
:102420000826002C3ED02048D0F800A04FF000082D
:10243000601E04B229E0A5B205EB080085B26D105C
:1024400005FB09A0184908603146684628F00AFAD9
:1024500032466946584607F001FD0746002F03DA69
:102460002CB2601E04B210E037B10FFA85F808F103
:1024700001000FFA80F808E00B480068801B0A4949
:102480000860681C80B2BDE8FC9FA045D3DD06480B
:102490000068801B04490860002F03DD08460068BF
:1024A000484408600020EEE70002002010B588B024
:1024B000044620461D2C7DD00CDCA0F10F000D2819
:1024C00079D2DFE800F0227878211C787878262A03
:1024D00038343000502832D006DC332821D03D2853
:1024E00009D03F2867D109E0512867D052287DD014
:1024F0005328F7D1C1E0002008B010BDF1E013F07F
:10250000F5FD26F001FFECE0EBE013F0DBFD002031
:10251000F2E700200CF01EFAE3E001200CF01AFABA
:10252000DFE00020E8E70320FFF74CFFD9E00220BE
:10253000FFF748FFD5E00120FFF744FFD1E001A8F5
:1025400035F025FC0798B0F5FA6F02DA0020079005
:1025500003E00798A0F5FA6007900A21049890FB21
:10256000F1F201FB12000A22049991FBF2F100EB57
:1025700001105D4908700A21069890FBF1F201FBF9
:1025800012000A22069991FBF2F100EB0110564964
:1025900048700A21079890FBF1F201FB12000A2211
:1025A000079991FBF2F100EB01104F4988700598F3
:1025B000C87001E08DE08FE001209DE701A835F0B3
:1025C000E6FB0A21039890FBF1F201FB12000A22BC
:1025D000039991FBF2F100EB0110444908700A21C4
:1025E000029890FBF1F201FB120000E017E00A22D2
:1025F000029991FBF2F100EB01103C4948700A216D
:10260000019890FBF1F201FB12000A22019991FB63
:10261000F2F100EB01103549887000206CE701A849
:1026200035F0B5FB3048807800F00F002E498978EE
:10263000091101EB810100EB410000F5FA60079000
:102640002948407800F00F0027494978091101EB2B
:10265000810100EB410006902348007800F00F0054
:1026600021490978091101EB810100EB4100049037
:1026700001A835F0B8FB00203EE701A835F087FB44
:102680001A48007800F00F0018490978091101EB89
:10269000810100EB410003901448407800F00F00E6
:1026A00012494978091101EB810100EB41000290C8
:1026B0000E48807800F00F000C498978091101EB71
:1026C000810100EB4100019001A835F08CFB002056
:1026D00012E703F041FE0FE7214605A032F000FDAE
:1026E00000BF00BF002007E700000020040000201A
:1026F000436F6D6D616E645F312025640A000000D8
:102700002DE9F84F8046894615461E46DDF828A07B
:10271000314800680090CB46A8F10104B8F1030FDE
:1027200057DCBAF1000F02D00020AAF80000D5B99A
:1027300009E02EB1284801680098081AB04202D971
:102740000020BDE8F88F04EB8410244901EB001051
:10275000C06804EB8411214A02EB011189688842A8
:10276000E7D00120EDE7681C68B9002004EB841174
:102770001A4A02EB0111886004EB841102EB01118B
:10278000C8600120DDE7B9F1000F11D104EB84101E
:10279000124901EB0010C06804EB84110F4A02EBF0
:1027A00001118968884201D00120CAE70020C8E7EA
:1027B00000270AE032465946404631F0DFFF08B9AB
:1027C00038B2BEE70BF1010B7F1CAF42F2DB2846AB
:1027D000B7E70020B5E70000E40000201403002064
:1027E0002DE9F04705460E4617469946B046032D9B
:1027F0000EDC002407E098F80010284632F05AF961
:1028000008F10108641CBC42F5DB0120BDE8F0873B
:102810000020FBE770B5002500BF0E48806800F47B
:1028200000544FF47A7035F095FB0A48806800F444
:102830000056B44204D16D1C1CB1022D01DD02E032
:102840000025322DE9DB00BF0CB9012070BD00204E
:10285000FCE700000010014030B5024600200FE008
:102860000B7801248440234023B13124431D064DBD
:10287000EC5403E03024431D034DEC54431C18B2C8
:102880000828EDDB30BD0000765F002000BFFEE7CA
:1028900010B503200EF032FA08B1012010BD064831
:1028A00090F84F0120F01400034981F84F01F52002
:1028B00081F84E010020F1E7BA3500202DE9F84FEC
:1028C00081468846404610F08BFE002581E020219D
:1028D0004448FDF793FC4220424908700E2048709E
:1028E0004148007828448870B8F1060F02D0B8F14A
:1028F000050F07D13B48C01C3C490A680260898823
:10290000818006E03748C01C39490A68026089881E
:1029100081803448093037490A680260898881809B
:102920000224002704E02F48005D3844C7B2641C2D
:102930002C484078401CA042F5DC2A484078401CD6
:1029400028490F5402200BF0EFFF002310222549E5
:102950000320FFF745FF4FF0000A00260EE000209D
:102960000090C6F1130002B21E48811932230320E1
:10297000FFF7C6FE304406B20AF1010ABAF10A0FA7
:1029800001DA132EEBDB0224002704E01548005D7A
:102990003844C7B2641C122CF8DB12480078422875
:1029A00009D110484078112805D10E48807CB842E2
:1029B00001D1132E04DA00270020C9F800000DE031
:1029C000012709EB051010220649891CFDF7FDFBC4
:1029D0006D1C094800788542FFF679AF00BF384684
:1029E000BDE8F88FA71A0020750200200ACB030863
:1029F00004CB030810CB0308760200202DE9F8432E
:102A000080460E460025304610F0EAFD002464E0C2
:102A100020213548FDF7F2FB4220334908701E2083
:102A200048703248007820448870062E01D0052E68
:102A300007D12D48C01C2E490A6802608988818010
:102A400006E02948C01C2B490A68026089888180F9
:102A50002548093028490A6802608988818008EB86
:102A600004111022801DFDF7B0FB0227002504E0B1
:102A70001D48C05D2844C5B27F1C1B484078401CDF
:102A8000B842F5DC18484078401C17490D54022024
:102A90000BF04AFF0023202213490320FFF7A0FE7A
:102AA0000A2516E00020322303220F490090104629
:102AB000FFF726FE0C480078422808D10A484078E3
:102AC000012804D108488078592800D103E0681E05
:102AD000C5B2002DE6D100BF641C084800788442CE
:102AE00096DB2846BDE8F883A71A0020750200206F
:102AF0000ACB030804CB030810CB0308760200209E
:102B000070B50446062035F085FA204635F096FA71
:102B100035F078FA0546102102480DF0EBFF284603
:102B200070BD00000008014010B5192035F072FAA0
:102B3000022034F0DDFC35F065FA044635F062FA27
:102B400004EB002084B2102102480DF0D3FF204690
:102B500010BD00000008014070B50446402035F06B
:102B600059FA002505E035F04DFA04F8010B681C10
:102B7000C5B2062DF7DB102101480DF0BBFF70BD7B
:102B80000008014070B500250024272035F042FAE6
:102B900010210C480DF0AEFF0FE00A2034F098FC35
:102BA00000F07AF80446102C00D007E02846691C93
:102BB000CDB2C82801DDFA2070BDEEE700BF204687
:102BC000FAE700000008014070B50446232035F004
:102BD00021FA002505E014F8010B35F02FFA681CE6
:102BE000C5B2042DF7DB102101480DF083FF70BD45
:102BF0000008014070B50446222035F00BFA00258C
:102C000005E014F8010B35F019FA681CC5B2042D63
:102C1000F7DB102101480DF06DFF70BD0008014089
:102C200070B50446242035F0F5F9002505E014F8C8
:102C3000010B35F003FA681CC5B2042DF7DB102137
:102C400001480DF057FF70BD0008014070B5054602
:102C5000002600243D2035F0DDF9284635F0EEF958
:102C600010210C480DF046FF0FE0052034F030FC39
:102C700000F012F80446102C00D007E03046711C1A
:102C8000CEB2C82801DDFA2070BDEEE700BF2046B5
:102C9000FAE700000008014010B52C2035F0BAF921
:102CA00035F0B0F90446102102480DF023FF20460C
:102CB00010BD0000000801402DE9F04107460C4618
:102CC00015460CB9BDE8F0813C2035F0A3F9384633
:102CD00035F0B4F9E0B235F0B1F9201235F0AEF9C3
:102CE000012034F005FC002605E035F08BF9287052
:102CF0006D1C701C86B2A642F7DB102102480DF055
:102D0000F9FE00BFDEE700000008014070B505468F
:102D10003B2035F07FF9284635F090F935F072F90F
:102D2000044635F06FF904EB002084B2102102480C
:102D30000DF0E0FE204670BD0008014070B504466D
:102D4000302035F067F9204635F078F9022034F06C
:102D5000CFFB35F057F90546102102480DF0CAFEA9
:102D6000284670BD0008014010B56520FFF7C8FE79
:102D700004469A2C01D0FA2010BD0948FFF73AFF0B
:102D80000748001DFFF720FF05480830FFF748FF00
:102D9000642034F09DFBFFF7F5FE04462046EBE788
:102DA0009C90002010B50446582035F033F9204699
:102DB00035F044F910BD10B50446562035F02AF917
:102DC000E0B235F03BF9C4F3072035F037F9C4F32E
:102DD000074035F033F9200E35F030F910BD10B54D
:102DE0000446572035F016F9E0B235F027F9C4F360
:102DF000072035F023F9C4F3074035F01FF9200E02
:102E000035F01CF910BD000070B505460026002401
:102E1000352035F0FFF8284635F010F910210C4820
:102E20000DF068FE0FE0052034F052FBFFF734FF91
:102E30000446102C00D007E03046711CCEB2C828E2
:102E400001DDFA2070BDEEE700BF2046FAE7000082
:102E5000000801402DE9F04107460D46144639208F
:102E600035F0D8F8384635F0E9F8E0B235F0E6F854
:102E7000201235F0E3F8002605E015F8010B35F0D7
:102E8000DDF8701C86B2A642F7DB102102480DF077
:102E900031FEBDE8F08100000008014070B5054634
:102EA0000C46312035F0B6F8284635F0C7F814F84E
:102EB000010B35F0C3F814F8010B35F0BFF814F826
:102EC000010B35F0BBF814F8010B35F0B7F8102101
:102ED00001480DF00FFE70BD0008014070B50546B9
:102EE0000C46322035F096F8284635F0A7F8E0B2C7
:102EF00035F0A4F8201235F0A1F8102101480DF0AA
:102F0000F9FD70BD0008014070B505460C4634203F
:102F100035F080F8284635F091F8204635F08EF8E7
:102F2000102102480DF0E6FD70BD000000080140D0
:102F300070B505460C46332035F06CF8284635F060
:102F40007DF8E0B235F07AF8201235F077F81021EC
:102F500001480DF0CFFD70BD0008014010B52549B6
:102F60000020FFF79BFF02210020FFF7CDFF214843
:102F7000818A0020FFF7B2FF1E48C18A0020FFF7B8
:102F8000D7FF0020FFF740FF0446202C0AD1002085
:102F9000FFF75CFE0446204634F0A2FD0020FFF758
:102FA00033FF0446204634F09BFD03210120FFF748
:102FB000ABFF1148C18A0120FFF7BAFF0120FFF7DC
:102FC00023FF0446202C0AD10120FFF73FFE0446D0
:102FD000204634F085FD0120FFF716FF0446204609
:102FE00034F07EFD012000F009F80446204634F05C
:102FF00077FD10BDC09000207C90002070B5054684
:1030000000260024362035F005F8284635F016F85D
:1030100010210C480DF06EFD0FE0052034F058FA39
:10302000FFF73AFE0446102C00D007E03046711C32
:10303000CEB2C82801DDFA2070BDEEE700BF204601
:10304000FAE700000008014000B587B0012108033D
:1030500026F0BCF90121042026F0B8F918208DF8DB
:103060001B0003208DF81A00A020ADF8180006A957
:1030700020480DF069FC04208DF81B004020ADF8BD
:10308000180006A91B480DF05FFC1020ADF81800D1
:103090008DF81B0003208DF81A0006A915480DF0C5
:1030A00053FC102113480DF025FD0020ADF804005D
:1030B0004FF48270ADF806000020ADF80800ADF8BE
:1030C0000A00ADF80C004FF40070ADF80E000820B7
:1030D000ADF810000020ADF812000720ADF8140084
:1030E00001A9054829F0F2FB0121034829F0E2FB80
:1030F00007B000BD00080140003001400FB42DE9C9
:10310000F0479AB007464FF0000A8C4801680391D7
:1031100041680491007A8DF81400BDF88C0042F2E9
:10312000107188421FDA8648B0F8C85ABDF88C0082
:10313000A0F59850893881B28148A0F8C81A2F228A
:1031400000F67C410EA8FDF740F826F019FD7D48F9
:1031500090F823A07A48A0F8C85A2F220EA97948DF
:10316000FDF733F822E0BDF88C00A0F51C501138B3
:103170001FFA80F87248B0F8C85A404627F0E6FABD
:1031800081B26F48A0F8C81A2F226E490EA8FDF729
:103190001CF826F0F5FC6B4890F823A06848A0F8CE
:1031A000C85A2F220EA96748FDF70FF80126002400
:1031B000B5E00AEA060000287ED0614890F8AA9A95
:1031C000112200F6825109A8FCF7FFFF5C4880F845
:1031D000AA4A27F081FB5948016806914168079186
:1031E000007A8DF820005848B0F80D10ADF819108D
:1031F000C07B8DF81B005148016803914168049120
:10320000007A8DF8140026A807C803AB07C34E4800
:10321000007C00F00100A8B904208DF8180006A970
:1032200003A814F00BFE002103A828F087FC03A9D3
:103230000120FEF777FB9DF80C0040F080008DF830
:103240000C0060E00DF18F0103A814F0F7FD0021E0
:1032500003A828F073FC03A90120FEF763FB9DF887
:103260000C0020F080008DF80C00384801680091B7
:1032700041680191007A8DF80800354890F81D04E6
:1032800040F02001324880F81D14A0F667202B4939
:103290000A6802604A684260097A0172002003F0FD
:1032A00015F92B4890F81D0420F02001284880F8DB
:1032B0001D149DF80C1000E02DE0A0F5805080F862
:1032C0007515224903A82BF003FD204800990160E1
:1032D000019941609DF80810017203A807C88DE8A4
:1032E00007001C4906A8FDF72FFC04208DF81800E4
:1032F00006A968460AF09AFE684628F0B7FC6946B7
:1033000003A82BF0E5FC0E4880F8AA9A112209A91F
:103310000D48FCF75AFF7006060E601CC4B2082C5C
:10332000FFF647AF03983860049878609DF8140062
:1033300038721AB0BDE8F0075DF814FB4CC70308FB
:10334000C82A0020443700204A3800203D50002081
:10335000C85A002079C703082DE9F043CFB00546CD
:103360004FF480716846FCF749FFFE4801684991B7
:1033700041684A91007A8DF82C01FA481B300168A7
:10338000469141684791007A8DF82001F548263032
:10339000416B4391816B449190F83C008DF814018E
:1033A000F148B0F8DE8AB0F8C89A00269DBBEF4815
:1033B00001684C9141684D91007A8DF83801EB48D5
:1033C0000168409141684191007A8DF80801E54813
:1033D00026300169409141694191007E8DF80801D4
:1033E000E34940A814F02AFDE248407800F00800C4
:1033F00028B99DF8000180F080008DF80001DA48BE
:1034000090F8970A002805D09DF8000180F0800010
:103410008DF80001CAE0FFE7022DFBD1D348016817
:103420004C9141684D91007A8DF83801CF48016880
:10343000409141684191007A8DF80801C9482630D1
:103440000169409141694191007E8DF80801002495
:1034500088E0C4EB4411C8480844008841F2883130
:1034600088426ADDC4EB4411C3480844008842F234
:103470001071884213DDC4EB4411BF480844008832
:10348000A0F51C50113881B2B748A0F8DE1A26F01A
:10349000DDFFB548B0F8EC1AA0F8C81A0BE0C4EB91
:1034A0004411B54808440088A0F59850893881B285
:1034B000AD48A0F8C81A26F063FBAE48407800F08B
:1034C000400020B9AB48407800F08000C0B1A94866
:1034D000407800F0400030B1A6482F3890F8220024
:1034E00000F0400060B9A348407800F0800030B19F
:1034F000A0482F3890F8220000F0800000B92FE09B
:10350000C4EB44119C48084450F8151F4C91416885
:103510004D91007A8DF8380106F0020038B19DF81F
:10352000300180F080008DF8300126F002064CA9B1
:103530008C480930FDF708FB11E0C4EB44118E48BC
:103540000844008840F22F11884207D0C4EB441190
:10355000894808440088B0F5977F00D100E000BF9B
:10356000601CC4B28048D0F8FA0DA0423FF771AF9A
:10357000824940A814F062FC7A49093140A80AF057
:1035800055FD7C48407800F0080028B99DF80001FE
:1035900080F080008DF80001734890F8970A28B1F8
:1035A0009DF8000180F080008DF800010024F0E11A
:1035B000C4EB441170480844008841F288318842C5
:1035C00078DD26F00106C4EB44116B4808440088FE
:1035D00042F21071884215DD46F00106C4EB441139
:1035E000654808440088A0F51C50113881B25E4837
:1035F000A0F8DE1A26F02AFF5B48B0F8EC1AA0F813
:10360000C81A0BE0C4EB44115B4808440088A0F5DD
:103610009850893881B25448A0F8C81A26F0B0FAF8
:10362000042D48D153482F3890F823001DF800008E
:10363000012807D0002701204E492F3991F8231087
:103640000DF801004748499901604A9941609DF889
:103650002C1101724748407800F0400050B94548AD
:10366000407800F0800028B9002F02D101F088F9DD
:1036700001274AE13F48407800F0400030B13D4822
:103680002F3890F8220000F0400068B9394840789F
:1036900000F080000028ECD036482F3890F8220047
:1036A00000F080000028E4D0002FE2D101F068F99A
:1036B00001272AE1BFE02F48407800F0400020B900
:1036C0002C48407800F08000C0B12A48407800F0D3
:1036D000400030B127482F3890F8220000F0400019
:1036E00060B92448407800F0800030B121482F387C
:1036F00090F8220000F0800000B948E1012D58D177
:10370000C4EB44111C48014416481B30CA680260CF
:103710000A694260097D017206F0020038B19DF825
:10372000300180F080008DF8300126F00206C4EBF5
:10373000441211481044C11C0A481B3014F07EFB8F
:10374000C4EB44120C48104400F1150105481B302D
:103750002BF0BEFA034800F11B010A6802604A68B8
:1037600042600DE022500020C82A00204CC7030808
:1037700082C7030873370020C638002094C70308A7
:10378000097A0172C4EB44119C4801449C4851F8E9
:10379000032F42634A688263097A80F83C10A0F5DF
:1037A000B06090F8B40580F08001964880F8B415B8
:1037B000ABE0C4EB44119148084450F8151F4C91FC
:1037C00041684D91007A8DF8380106F0020038B159
:1037D0009DF8300180F080008DF8300126F002065F
:1037E00040A94CA814F02AFB87494CA80AF01EFCFB
:1037F00000214CA828F0A2F94CA90120FEF792F86C
:103800007F480B384C9901604D9941609DF8381103
:1038100001721B384C9901604D9941609DF8381137
:103820000172C4EB44127549114401F115004CA911
:10383000FDF78AF969E0C4EB441170480844008838
:10384000B0F5FA7F1FDDC4EB44116C4808440088D2
:10385000B0F5FC7F17DC012D15D1C4EB441167488E
:10386000014467480B38CA6802600A694260097DF2
:1038700001721B3800F11B010A6802604A6842604D
:10388000097A017241E0C4EB44115C4808440088A5
:10389000B0F5FC7F0ADDC4EB4411584808440088A9
:1038A000B0F5FE7F02DC012D00D170E0C4EB4411C5
:1038B000524808440088B0F5FE7F0ADDC4EB44118D
:1038C0004E4808440088B0F5FF7F02DC012D00D18E
:1038D0005DE0C4EB4411494808440088B0F5977F87
:1038E00002D1042D00D052E045480B3847490A6800
:1038F00002604A684260097A01721B3843490A68CB
:1039000002604A684260097A01721DB9404890F825
:10391000970A40B13A483D490A6842634A6882635F
:10392000097A80F83C10042D30D03A4890F82010E5
:10393000A0F6DD40B0F87303814206DA354890F80E
:1039400020103348A0F8CA1A03E000213048A0F83C
:10395000CA1A2F4890F87A0A082804D02C4890F800
:103960007A0A092809D1FDF705FB06F0010008B124
:10397000FDF73AFCFDF742FA08E0FDF7FBFA06F026
:10398000010008B1FDF730FCFDF738FA00BF601CFC
:10399000C4B21F48D0F8FA0DA0423FF709AE1C4848
:1039A00090F8970A38B119480168409141684191EF
:1039B000007A8DF8080112482638499901604A9921
:1039C00041609DF82C1101721B30469901604799A6
:1039D00041609DF8201101720B3043994163449975
:1039E00081639DF8141180F83C100948A0F8DE8A24
:1039F000A0F8C89A4FB0BDE8F0830000C638002098
:103A000048500020C84A002094C703084CC7030848
:103A1000C82A0020443700202DE9F04192B0044626
:103A20004FF00008002700251CB9FE490020FDF7D3
:103A300079FF062C7ED1FB498739FA48FDF784F8D7
:103A4000F8492D3901F13600FDF77EF8F5485A3076
:103A500003F0ACFB002853D0F249873901F1A200F2
:103A6000FDF772F8EF495A31A1F13F002BF030F920
:103A7000ED4890F81D0400F00100C8B1EB4890F843
:103A80009304401E00EBC000E6499031095CE84811
:103A900080F83B16E54991F89314491E01EBC101EA
:103AA00000F271628818A2F136012BF011F91EE0C4
:103AB000DD4890F81D0400F00200C0B1DB4890F82A
:103AC0009304801E00EBC000D6499031095CD848B1
:103AD00080F83B16D54991F89314891E01EBC1017A
:103AE00000F271628818A2F136012BF0F1F8CD488E
:103AF0005A30D0490A6802604A684260097A017205
:103B0000CA48613090F8970A002858D0C5486330F9
:103B100003F04CFB002852D0C249873901F1A200C2
:103B2000FDF712F8BF496331A1F148002BF0D0F83E
:103B3000BF4800E046E090F84466BB4890F81D049A
:103B400000F00100C8B1B94890F89304401E00EBA2
:103B5000C000B4499031095CB54880F84416B349B7
:103B600091F89314491E01EBC10100F271628818AB
:103B7000A2F12D012BF0ACF81EE0AB4890F81D042B
:103B800000F00200C0B1A94890F89304801E00EB39
:103B9000C000A4499031095CA54880F84416A349A7
:103BA00091F89314891E01EBC10100F2716288182B
:103BB000A2F12D012BF08CF89D4880F8446612B0DC
:103BC000BDE8F081052C7DD1974890F81D0400F0E8
:103BD0000100A8B3954890F89304801E00EBC00044
:103BE00090499031084401680C9141680D91007A28
:103BF0008DF838008D4890F89304401E00EBC0000B
:103C00008849903108440168069141680791007A1B
:103C10008DF82000482183489030FCF7EFFA834864
:103C200090F89304801E00EBC0007E499031084458
:103C30000C9901600D9941609DF8381001723BE0CC
:103C4000FFE7794890F81D0400F00200A0B3774820
:103C500090F89304401E00EBC00072499031084474
:103C600001680C9141680D91007A8DF838006F4819
:103C700090F89304801E00EBC0006A49903108441C
:103C80000168069141680791007A8DF8200048216B
:103C900064489030FCF7B2FA644890F89304401EF0
:103CA00000EBC0005F49903108440C9901600D9908
:103CB00041609DF8381001725E4801680C914168BE
:103CC0000D9100E049E2007A8DF83800564890F8EE
:103CD0001C0438B1564890F80E0680F08001544814
:103CE00080F80E16504890F81D0400F00100E8B16D
:103CF0004E4890F89304401E00EBC00049499031B3
:103D0000014448482D3002680A6042684A60007ADF
:103D10000872464991F89314491E01EBC101414ACA
:103D20009032881806A9FCF70FFF22E03E4890F871
:103D30001D0400F00200E0B13C4890F89304801E9E
:103D400000EBC00037499031014436482D300268FD
:103D50000A6042684A60007A0872344991F8931404
:103D6000891E01EBC1012F4A9032881806A9FCF781
:103D7000EBFE3148807800F01000002878D0294808
:103D80000168069141680791007A8DF82000254866
:103D90002D300168039141680491007A8DF8140078
:103DA00003A906A8FCF7D0FE1F4890F81D0400F0F8
:103DB000100020BB2E2019F075F91E4801680091F3
:103DC00041680191007A8DF80800202240211B48AB
:103DD000FCF70DFA1AA11948FCF755FA694617487D
:103DE00017F0BAFA202240211448FCF700FA18A173
:103DF0001248FCF748FA6946104817F0ADFA0A482D
:103E000090F81D0400F0010000287DD02022402100
:103E10000A48FCF7ECF911A10848FCF734FA0CA9A0
:103E2000064826E0A9500020C85A0020672A002032
:103E3000C84A00204CC70308CA6B0020765F0020E8
:103E400056415441424C452053414C4553000000DB
:103E500056415420414D4F554E5400005A45524F43
:103E60002052415445442053414C4553000000002A
:103E7000DDE017F071FA20224021FC48FCF7B7F989
:103E8000FBA1FA48FCF7FFF9FE480168039141687D
:103E90000491007A8DF81400FA4806990160079998
:103EA00041609DF82010017203A906A82AF010FFB6
:103EB00006A9EE4817F050FA20224021EB48FCF703
:103EC00096F9F1A1E948FCF7DEF9EE483F3003F03E
:103ED0006DF928B1EB493F31A1F15A00FCF734FEEE
:103EE000E848BD3801680C9141680D91007A8DF861
:103EF0003800E948C16E0091016F019190F874009B
:103F00008DF80800E44800E027E05A300699016087
:103F1000079941609DF8201001725A3800F58771A9
:103F20000A68C2664A680267097A80F874101C2021
:103F300005F0B2F9D8485A300C9901600D994160EA
:103F40009DF8381001725A380099C16601990167CD
:103F50009DF8081080F8741069E0D04890F81D04AE
:103F600000F00200002862D020224021BF48FCF768
:103F70003EF9AFF21811BD48FCF785F906A9BB4818
:103F800017F0EAF920224021B848FCF730F9B8A12F
:103F9000B648FCF778F90CA9B44817F0DDF9B94830
:103FA0003F3003F003F948B1B648363000F109015B
:103FB0000A6802604A684260097A0172B6485A305B
:103FC0000168039141680491007A8DF81400B248A9
:103FD000C16E0091016F019190F874008DF8080096
:103FE000AD485A3006990160079941609DF820104C
:103FF00001725A38AA490A68C2664A680267097A91
:1040000080F874101D2005F047F9A3485A30039931
:104010000160049941609DF8141001725A380099AA
:10402000C166019901679DF8081080F874109549E0
:104030000939A1F12D00FCF787FD92490939A1F159
:104040001B00FCF781FD8F49093901F11200FCF7D3
:104050007BFD8C48093892490A6802604A684260D0
:10406000097A0172B43801680C9141680D91007AA7
:104070008DF83800884875300168069141680791CD
:10408000007A8DF8200084488030816D0391C16DE5
:10409000049190F860008DF814007F48C16E009183
:1040A000016F019190F874008DF808007A48803013
:1040B0007B490A6882654A68C265097A80F860109F
:1040C000803877490A68C2664A680267097A80F8C8
:1040D00074105A3000F1A6010A6A02604A6A42600E
:1040E00091F8281001721B3000F18B010A6A0260FE
:1040F0004A6A426091F828100172FCF73BFF66485B
:104100005A300C9901600D9941609DF83810017288
:104110001B3006990160079941609DF820100172DB
:104120000B30039981650499C1659DF8141080F8DE
:10413000601080380099C166019901679DF80810E8
:1041400080F8741000F5807055490A6802624A6868
:104150004262097A80F8281031E54A482438A0F1F3
:1041600012010A6802604A684260097A01724D4889
:1041700090F89304002877D04A48613090F8870A75
:10418000002871D100BF00214648613080F8AA1A8A
:104190000FE326F0A1FB4448007C00F00800F0B1DA
:1041A000022D1AD13C485A300F9901601099416094
:1041B0009DF8441001723B48613090F8AA0A00EB68
:1041C000C00030495A31014433485A3002680A600D
:1041D00042684A60007A087215E00125E1E2022D8A
:1041E00000D1DEE22F48613090F8AA0A00EBC0004F
:1041F00024495A31014428485A300A6802604A6802
:104200004260097A0172244825490A68C2664A68F0
:104210000267097A80F87410753021490A680260D3
:104220004A684260097A01721D4801680991416833
:104230000A91007A8DF82C0017485A3002F0B6FF28
:1042400000287DD01448803015490A6842634A68C6
:104250008263097A80F83C1034301349B1F80D209C
:10426000A0F80120C97B21E01AE30000765F00205E
:10427000564154204558454D50542053414C4553C8
:1042800000000000DF5000205641542041444A55B0
:1042900053544D454E540000C84F0020C85A0020CA
:1042A0004CC70308672A00204A380020C170FE4826
:1042B000007C00F00100002869D1FC4800F15A019F
:1042C0000A68C2664A680267097A80F87410042195
:1042D000A0F5A06080F8B41500F2B45100F26C5063
:1042E00013F0ACFD0021F1486C3027F027FCEF49BA
:1042F0006C310120FDF716FBEC496C3101F18700B0
:10430000FCF722FC022C28D1E948807800F010004C
:1043100020B3E6496C3101F17500FCF715FCE34868
:10432000C16E0991016F0A9190F874008DF82C000C
:104330009DF8240040F080008DF82400DB4800E068
:1043400002E1FC30099901600A9941609DF82C1046
:10435000017209A91230FCF7F7FBC2E0D5480168E9
:10436000099141680A91007A8DF82C00D1480168C2
:10437000069141680791007A8DF82000CD480168C8
:10438000039141680491007A8DF81400A9E0032C90
:1043900001D0022CE1D1C54800F15A010A68C26679
:1043A0004A680267097A80F87410B4304078992816
:1043B00013D1BE48B430807899280ED1BB48B430B0
:1043C000C078992809D1B9487530BA490A6802609D
:1043D0004A684260097A017283E0B4487530A0F1FE
:1043E0001B010A6802604A684260097A0172B24998
:1043F0003F30FCF7A9FB0421B04880F8B41500F267
:10440000B45100F2755009F011FEA848753027F03C
:104410002DFCA6497531A1F109002AF059FCA349E8
:104420006C310FA82AF054FCA148807800F01000ED
:10443000F0B39E485A300168099141680A91007AA8
:104440008DF82C0099485A30016803914168049115
:10445000007A8DF8140095488030416B0691816B8D
:10446000079190F83C008DF820009049B43106A8DF
:1044700005F08EFC002834DC06A903A809F0D6FD5F
:1044800003A827F0F3FB03A909A82AF021FC9DF853
:10449000240040F080008DF8240084495A3101F155
:1044A000A200FCF751FB09A98548FCF74DFB18E079
:1044B000FFE780480168099141680A91007A8DF808
:1044C0002C007C480168069141680791007A8DF8BC
:1044D000200078480168039141680491007A8DF8C2
:1044E00014000CB1042C2FD17048C16E0091016FE3
:1044F000019190F874008DF80800724890F8AA0AAB
:10450000062804D06F4890F8AA0A072809D16748FE
:1045100000F1FC010A68C2664A680267097A80F8FD
:104520007410FDF79FF8684890F81D0440F02001D2
:10453000654880F81D145D480099C16601990167BE
:104540009DF8081080F8741058485A3002F02EFE7A
:1045500020B95C4890F8AA0A06287CD1022CFCD12C
:104560005148007C00F00200002875D04F486C30A4
:1045700002F01CFE28B94C48007C00F00400002822
:10458000F3D0514890F81D0440F010014E4880F8D7
:104590001D142E2018F086FD1B2004F07DFE4248DD
:1045A000007C00F0100008B3AFF26C714748FBF7D5
:1045B0006AFE454890F81D0400F0080060B13D48CF
:1045C0000168009141680191007A8DF80800694600
:1045D0003E4816F0C1FE1CE03A4890F8AA0A0628A8
:1045E00005D132497531394816F0B6FE11E02E4832
:1045F000007C00F0010028B92C495A31334816F0EC
:10460000ABFE06E029497531304816F0A5FE4FF0A3
:104610000108202240212D48FBF7E9FD25480168CB
:104620000C9141680D91007A8DF838001E48B0F861
:104630000D00ADF831002548AFF2EC710A68026058
:104640004A684260098901810020204988741E4817
:1046500090F81D0401E073E0A2E000F0080060B1F2
:1046600014480168009141680191007A8DF80800B2
:104670006946164816F070FE09E0124890F8AA0A3A
:10468000062804D009496C31104816F065FEE7BBD6
:104690000D4890F81D0400F00100B8BB0A4890F8DE
:1046A0001D0400F0020013E04A380020C84F00202B
:1046B000CA6B00204CC7030879C70308C84A00200A
:1046C000D6500020C82A0020C85A0020765F00205B
:1046D000E0B9A0480168009141680191007A8DF825
:1046E0000800202240219C48FBF781FDAFF6940191
:1046F0009948FBF7C8FD6946974816F02DFE202221
:1047000040219548FBF773FD01E00AE008E0AFF2B5
:10471000A0419148FBF7B7FD69468F4816F01CFE93
:1047200001278E48807800F01000C8B32022402175
:104730008948FBF75CFD8AA18748FBF7A4FD2FE0C1
:10474000032C2DD18948007C00F00100F0B187488E
:10475000007C00F00200C8B1854802F027FD20B9B6
:104760008248007C00F0040080B1814912317F480A
:1047700016F0F2FD7D48007C00F0100030B17D495C
:10478000D1F854027A491B3116F0E6FD78485A38C0
:1047900070490A68C2664A680267097A80F874102C
:1047A00000BF754890F8AA0A401CC1B2724880F850
:1047B000AA1A714890F8AA1A613890F893048142B5
:1047C000FFF6E7AC022C56D16C4890F81D0400F0BF
:1047D0001000E8BB694890F81D0400F00100B8BB68
:1047E000664890F81D0400F0020088BB2E2018F0E7
:1047F00059FC58480168009141680191007A8DF890
:104800000800202240215448FBF7F1FCAFF6D011FC
:104810005148FBF738FD69464F4816F09DFD2022B0
:1048200040214D48FBF7E3FCAFF6DC114A48FBF7AB
:104830002AFD6946484816F08FFD2022402146484F
:10484000FBF7D5FCAFF6EC114348FBF71CFD00E08D
:1048500011E06946404816F07FFD202240213E4885
:10486000FBF7C5FCAFF2F8513B48FBF70CFD69467E
:10487000394816F071FD012D10D13D4999310020C4
:10488000FDF750F83A48993001680F91416810914E
:10489000007A8DF844000225002774E400BF00BFB1
:1048A0003348F33002F082FCF0B30CB1042C44D155
:1048B0002F485A38C16E0091016F019190F8740031
:1048C0008DF808002D4890F81D0400F0010088B113
:1048D0000721294880F8AA1A00F5145000F24D115A
:1048E0000A68C2664A680267097A80F87410FCF7A1
:1048F000B9FE16E0214890F81D0400F0020080B1D6
:1049000006211D4880F8AA1A00F5145000F24D1136
:104910000A68C2664A680267097A80F87410FCF770
:10492000A1FE13485A3800E007E00099C1660199DA
:1049300001679DF8081080F874100F4890F88A0AF3
:1049400020B90B4999310020FCF7ECFF00BFFFF7BD
:1049500036B900004CC70308765F0020CA6B002000
:104960004C45535320564154000000004A38002063
:1049700022500020FAB50308C82A0020C85A002097
:1049800010B58AB05D48407800F00400002853D18B
:104990005B480169019141690291007E8DF80C002C
:1049A000584901A813F04AFA002442E053482F382E
:1049B00090F823000121A1400840C0B304EBC400DB
:1049C0004F49F13108440168079141680891007A24
:1049D0008DF8240001A907A813F030FA4A4907A866
:1049E00009F024FB002107A827F0A8F807A9012057
:1049F000FCF798FF4148407800F0080028B99DF87E
:104A00001C0080F080008DF81C00404890F8970A48
:104A100028B19DF81C0080F080008DF81C0004EB8C
:104A2000C401374AF132881807A9FCF78DF8601CD9
:104A3000C4B2082CBADB5FE031481D380168079129
:104A400041680891007A8DF8240007A802F0AEFBB7
:104A5000002851D000244DE028482F3890F823003A
:104A60000121A1400840002842D004EBC401244A9F
:104A7000F132881802F09AFBD0B304EBC401204A4B
:104A8000F132881802F092FB90B304EBC4001C4989
:104A9000F13108440168049141680591007A8DF86C
:104AA0001800194904A813F0C9F907A904A809F0C6
:104AB000BDFA1349263904A813F0C0F9124904A815
:104AC00009F0B4FA002104A827F038F89DF8100086
:104AD00000F0FC008DF8100004A90120FCF722FF73
:104AE00004EBC401064AF132881804A9FCF72CF83B
:104AF000601CC4B2082CAFDB0AB010BD73370020B5
:104B00004850002082C7030894C70308C82A002021
:104B10000246914201DD00207047531A03EBD37027
:104B2000C0F34700F8E7000010B5464890F8BF0F03
:104B300030B1012820D002283AD0032871D153E0A7
:104B4000414890F8790A30B1012808D002280AD0EB
:104B500003280DD108E03D48FDF726FC0AE03B485C
:104B6000FDF70AFC06E005E03848FDF7E1FB01E04F
:104B7000002010BD00BF56E0334890F8790A30B1EC
:104B8000012805D002280BD003280DD104E00DE048
:104B90002E48FDF7CDFB09E02C48FDF7C9FB00BF0F
:104BA0002A48FDF7DDFB01E00020E2E700BF3AE024
:104BB000254890F8790A30B1012808D002280AD097
:104BC00003280DD10BE02148FDF7D6FB00BF1F489D
:104BD000FDF7EAFB06E01D48FDF7CEFB02E001E031
:104BE0000020C6E700BF1EE0174890F8790A30B1F0
:104BF000012808D0022807D003280DD108E0134867
:104C0000FDF7BAFB0AE009E01048FDF791FB05E06B
:104C10000E48FDF7A5FB01E00020AAE700BF02E077
:104C2000FFE70020A5E700BF094890F8900500F0D5
:104C3000F801074880F890150021034880F8791A98
:104C4000012096E7C81A0020C82A002058500020EA
:104C5000C84A002010B5124890F8790A30B10128EE
:104C600008D002280AD003280DD108E00D48FDF72E
:104C70009BFB0AE00B48FDF77FFB06E005E00948D7
:104C8000FDF756FB01E0002010BD00BF02210648E1
:104C900080F890150021024880F8791A0120F3E786
:104CA000C82A002058500020C84A002070B5044689
:104CB000257805F00F0020B1012806D002280CD17C
:104CC00007E02046FDF758FB00BF2046FDF754FBE8
:104CD00000BF2046FDF750FB00BF00BF257070BD30
:104CE0000EB5284890F94E01002802DA4FF0FF3047
:104CF0000EBD002026F0F8FF2248D0F842010A211C
:104D0000B0FBF1F201FB12001E4981F849010220BB
:104D10000FF00AF803200FF007F80222194990312A
:104D2000684632F085F918496846FBF70DFF022204
:104D300069461448903009F0DFFD04200EF0F4FFBE
:104D4000FF21104880F82A1001200EF0EDFF0F21FE
:104D50000C48CE3026F095FF0A4981F8DD00042189
:104D60000A48FDF74BFE10B96FF00800C0E70521B7
:104D70000648FDF743FE10B90120FDF741FB012075
:104D8000B6E70000BA35002055C70308D836002022
:104D90002DE9F04706460C4615461F46681E00F0F2
:104DA0000F010120884000F0FF0801203049087001
:104DB0003048007848B9207800EA080008B101209E
:104DC00000E00020401C2B4908702A480078022887
:104DD00002DD01202749087026480078022808D102
:104DE00087F0790024494871207840EA0800207053
:104DF00007E087F06E0020494871207820EA08001B
:104E000020701D484079792807D11C48D0F83C15FE
:104E10001948C01CFBF737FA06E01848D0F84015CF
:104E20001548C01CFBF72FFA154890F8001900230D
:104E30001A460A2028F088FA104901EB8601086812
:104E4000FF22002107F050FD05F0800068B10B49FA
:104E500001EB86010868FBF7F4F9814605F00F00C5
:104E60000123FF22494608F0C1F8BDE8F0870000A1
:104E7000A2020020A0020020765F0020FAB50308FD
:104E8000C84A002010B500F007F8024890F87C0AE4
:104E900010BD0000C82A002010B510F0F7FD002852
:104EA00056D00EF069FC0446412C3EDD802C13DA0E
:104EB0002848A0F8C24A09E00EF05EFC0446412CE6
:104EC00004DD802C02DA2348A0F8C24A2148B0F859
:104ED000C20A8328F0D03BE0802C0AD11D4890F80C
:104EE000750A08B300211B4880F8751AA0F8C61A85
:104EF0002EE0184890F8750AA04229D0154880F88D
:104F0000754AA4F1800081B21248A0F8C61AB0F820
:104F1000C61A6138B0F86C01814219DD00210D48D4
:104F2000A0F8C61A80F8751A12E00B4890F89F0F87
:104F3000A0420DD1074890F8920A8A2808D0054867
:104F400090F8A50A20B91B21024880F87C1A10BDF0
:104F500000BFFCE7C82A0020C81A00207FB5002146
:104F60006846FDF7ABFC0546CDB100240BE01DF80B
:104F7000041004FB04F00A300A4A105C41400DF8AA
:104F80000410601C04B2042CF1DB009E0648D0F82B
:104F90004201B04201D1012000E000200546E8B204
:104FA00004B070BD3BCB0308BA3500202A4A92F802
:104FB000E02F02F00F0100294CD097282ED008DCFA
:104FC00015280FD0812813D0822817D0852837D1F3
:104FD0001EE09A2828D0CF282CD0E1282CD0F82801
:104FE0002ED12BE0012901D15D2000E0402030E0EE
:104FF000022901D17D2000E07E202AE0012901D193
:105000007B2004E0062901D15D2000E0602020E043
:10501000062901D17B2000E040201AE0062901D1B9
:10502000602000E07C2014E0022901D15D2000E036
:105030005E200EE024200CE07E200AE05B2008E0E9
:105040007F2805DDB02803DA00F07F02034B985C6F
:1050500000BF00BF70470000C81A0020D4D003086A
:1050600010B50446611CC8B2002211462FF086FB21
:1050700010BD0000F0B585B0044614B9474890F85B
:105080007C4AFF2C0CD10020FDF7BAF9434890F878
:105090007C0AFF2803D10021404880F87C1A7BE07D
:1050A0003F480078A0420DD1002C75D03D480068E3
:1050B000002871D14FF4FA703A4908600120FDF7D9
:1050C0009FF969E0002544B935480078002861D08F
:1050D0000021084632F00CFB5CE0AA1CD1B2E8B219
:1050E00032F006FB3049D1F8DC02FBF7AAF8C7B270
:1050F00039460E20FFF70CFD401CC6B2EAB22A4921
:10510000D1F8DC02314632F0DAFA002C1CDD642CD6
:105110001ADC04F1CE01244A02EB81010868FBF796
:1051200090F8C7B239460E20FFF7F2FC401CC6B219
:10513000691CCAB204F1CE011B4B03EB8101086864
:10514000314632F0BCFA1EE000200090019002903F
:1051500003901549D1F8DC02FBF773F806461248B4
:10516000D0F8DC1232466846FBF72FF82146684635
:1051700030F0A7F900208DF80E00681CC2B207219C
:10518000684632F09CFA4FF4FA7006490860012034
:10519000FDF736F90248047005B0F0BDC82A0020BA
:1051A00074020020EC000020FAB5030870B5FD4839
:1051B00090F8985AA0F5805090F89F0FA84206D119
:1051C0004FF4FA61F848A0F85215002070BDF54878
:1051D000B0F8C20A00F47F40B0F5706F03D0F14818
:1051E00090F87C0A08B10120F0E7F048007858B147
:1051F0000021ED4880F890150822ED4900F2915009
:1052000029F0E0FC0EF040FA284615F0AFFA08B19C
:105210000120DBE7E548007848B1E6480078162829
:1052200005D1E5480078022801D1062412E0E148C2
:10523000007816280AD1E0480078042806D1062410
:10524000DD480078401EDC49087003E028460BF07A
:1052500021FF0446D34890F86C0A38B10E2C05D0D3
:105260000021D04880F8981A0120AFE7CD4890F887
:10527000910A18B9CB4890F8830A58B1102C09DA72
:10528000CE48007B1E2805D00E21C64880F87C1A27
:1052900001209BE7C5480078A8B9C248B0F9B80A10
:1052A00000280CDABF49B1F9B80A002801DB014631
:1052B00000E041420AB2BB49A1F8B82A03E000214C
:1052C000B848A0F8B81AE01E0C286FD2DFE810F03A
:1052D00074050C002A05FD006E00290573052604DF
:1052E0006E006E006E002904AE48B0F8C20A00F4E9
:1052F0007060D0B1AB48B0F8C20A00F47060B0F58D
:10530000706F0CD00C220421084603F019FDAB4845
:10531000807A401EA7490978081AA6490870872193
:10532000A048A0F8C21A012050E79E48B0F8C20A6F
:10533000892804D09B48B0F8C20A8A2837D19948F6
:1053400090F85D0A401CC1B2964880F85D1A90F84A
:105350005D0A9A490979884203DD0121914880F864
:105360005D1A9248007878B18E48B0F8B80A30B12A
:105370008C48B0F9B80A91490979884209DD0121C0
:10538000884880F87C1A10E3864890F85D1AA0F8E7
:10539000B81A844890F8B81A80F85D1A042008F00A
:1053A0007DFB002003F0CCFA01200FE7FEE38148EB
:1053B0000078002834DD80480078002830DD8048FF
:1053C000007800282CDD7F48007818B1012077494B
:1053D000087004E00121734880F87C1AD3E779480B
:1053E0000078401C7749087001207549087007F063
:1053F00065FF08B90020E9E66A4890F87C0A70B9B0
:10540000714B1A79684B93F800196F4B987803F039
:1054100097FC6D488178FF226C4807F065FAB2E787
:105420006048B0F9B80A66281ADD5E48B0F9B80AD3
:105430006C2815DA5B48B0F8B80A6B2809D15948CE
:10544000B0F8C20A872804D00121564880F87C1A97
:1054500005E05449B1F8B81A88B201F063FF92E749
:105460005048B0F8B80A40B14E4890F8B80A401E0B
:10547000504908700020524908704E48007810B119
:105480004F48007888B94D4800794A4909788842E0
:1054900002DD4848007818B901204649087004E048
:1054A00044480078401C434908700E204849087061
:1054B000042008F0F3FA00204149087045490880AB
:1054C0003D4908703F4908705DE73648D0F8BA0A90
:1054D00020F480313348C0F8BA1AB0F8C20A8928DB
:1054E00004D03048B0F8C20A8A2835D12F48007855
:1054F000A0B12C48B0F8B80A30B12A48B0F9B80ABF
:105500002E490979884204DD0121264880F87C1A59
:1055100039E7244890F8B81A80F85D1A2148B0F8A5
:10552000C20A892808D11F4991F85D1A01F2312178
:1055300088B21EF05BFF07E01A4991F85D1A01F28C
:10554000352188B21EF0A2FF0121164880F85D1AAD
:10555000FF2008F0A3FA16E71248B0F8C20A87281D
:105560007ED11648007BE0B91448807A1349088040
:105570000846C07A0871002048710E48C1F806003C
:105580000120087314481549086003F0FCFB312022
:1055900008F084FA0E200E490870002008490870AF
:1055A000F1E61DE0C82A0020C84A0020A102002020
:1055B0005A5F00209F0200209D020020F35E002021
:1055C0009E020020A002002004160020765F00202A
:1055D000A2020020960200209DDA00086802002046
:1055E000FE48007B1E2815D0FD48007890B9FB4886
:1055F000D0F806000178F948807A401E0844F9493D
:1056000008700020F8490880F8490870F8490870C7
:10561000F8490870F3480078002821D0F348007852
:1056200001287CD1F3480078002878D0EC48007835
:1056300010B901F05BFDE4E30021EF4880F890151C
:10564000E84800781E2876D1EC4890F8280490B3FA
:10565000EA486130A0F8DE1A613890F8280400E0CA
:1056600093E1E4490978B1EB400F5FDC0022114679
:10567000E3A007F039F9E549DE4A1278891A481E95
:105680000122022107F030F9E14901200CF096FDDA
:10569000DA496131A1F8DE0A0846B0F8DE0AA0B99D
:1056A0000021084602F0DEF930B9DA4890F8AD0F73
:1056B000D9490870A5E33EE0D54900200CF07EFDF5
:1056C000CE496131A1F8DE0A1EE0CC486130B0F865
:1056D000C20A892818D0C948B0F8230401B2C748C3
:1056E0006130A0F8B81A0021012002F0BBF9C348CC
:1056F000B0F823146130B0F9B80A814204DAC54821
:1057000090F8AD0FC4490870BC486130B0F8DE0AAB
:1057100001B2BA486130A0F8B81A002000E02BE0CE
:1057200003F072F9012003F06FF904E00021B3489F
:105730006130A0F8B81AB1486130B0F8B80A40B189
:10574000AE486130B0F8B80A401E00B2A6490880E1
:1057500005E00121A948613080F87C1A51E300205E
:10576000A3490870A34908700021A448613080F85B
:105770007C1A01209A49087000259A48007846282A
:1057800016D00CDC3F2820D004DC182828D03B2879
:105790001AD175E0402877D04528F9D184E0472810
:1057A00058D0482874D04B2878D04C28F0D155E0F8
:1057B0009A49D1F8180100212FF002FF18B10021F9
:1057C0008E48A0F823140325BAE09449D1F898082C
:1057D00001212FF0F5FE08B102F0D2FF0325AFE062
:1057E00001238FA219461A2011F040F90446012C1A
:1057F00006D1824890F8AC030A2804DD672402E051
:10580000022C00D16624672C01D0662C20D183495C
:1058100001EB8401086801212FF0D2FEC0B1672C92
:1058200006D18022824975486030FAF7CEFC05E047
:105830008022804971486030FAF7C7FC6F486130B8
:10584000D0F8BA0A20F400716C486130C0F8BA1A76
:10585000032575E016F052FD032571E019F0CAFF2B
:1058600089201BF033F88A201BF030F817F04AFC2F
:10587000062024F051F8032562E005E008E00DE081
:1058800017F08CF903255BE009F072F9032557E066
:105890004FF480500EF0CAF8032551E04FF4005049
:1058A0000EF0C4F803254BE000BF012362A20021E3
:1058B000452011F0DBF80446002C3BDD0A2C39DCD6
:1058C00004F14C0084B2A4F14D000A2831D2DFE883
:1058D00000F005090E12161A1E22262B02200EF0C9
:1058E000A5F826E04FF480400EF0A0F821E001205A
:1058F0000EF09CF81DE008200EF098F819E0042046
:105900000EF094F815E010200EF090F811E0202031
:105910000EF08CF80DE040200EF088F809E04FF40E
:1059200080600EF083F804E04FF400600EF07EF823
:1059300000BF00BF4FF6FE708442B6D1032500BF02
:1059400000BF15B3032D14D12448807A401E254989
:105950000978081A23490870002021490870224953
:105960000880224908702249087002F0E9FF0120EE
:105970002CE400212148613080F86C1A254890F809
:10598000AD0F25490870012020E42E482E490860FB
:105990001848007800BB1348007830B117486130D0
:1059A00090F8BA0A00F0080000B12AE20F48007827
:1059B000401C0E49087000200D4908700B48007803
:1059C00002285ADD012027F095F90B4890F80009CC
:1059D000032841D1012039E044E00000F35E0020BB
:1059E0009E0200209F020020960200209D020020BF
:1059F000A0020020A1020020C84A0020672A00203F
:105A0000504C5520434F4445000000005C5F00208F
:105A100059500020C81A002098020020FAB5030847
:105A20004B2E424F41524420545950450000000033
:105A300042B30308E9A3030853454C4543542049A6
:105A400054454D0099DA00086802002027F060F9FB
:105A5000022100200DF0C8FEF24890F80009F2493A
:105A6000C8700AE0F148007810B9F148007820B910
:105A70000121F04880F87C1AC3E10120EE4908704A
:105A800007F01CFC08B900204EE4EA4890F87C0AB4
:105A9000B0BBEA48007800283FDDE54800781628CA
:105AA0003BD0E648007801280BDDDF4B1A79D97826
:105AB000987803F045F9DC48C2788178E04806F030
:105AC00013FFE0480078D8B1DC480078401CDB497F
:105AD0000870012027F00EF9D24890F80009032839
