:100A74004572726F723A20253032580A00726563EB
:100A840065697665206C656E203D2025640A0054F6
:100A9400637020436F6E6E6563740A004950206171
:100AA400646472657373203D2025642E25642E25AD
:100AB400642E25640A00506F7274203D2025640A58
:100AC40000627566203D20002530327820000A003F
:100AD400B2BBBFC9B4EFC0E0D0CDA3BA2564202017
:100AE40025303278200A00D0ADD2E9B2BBBFC9B4F8
:100AF400EFB4FAC2EBA3BA25642020253032782063
:100B04000A00B2BBBFC9B4EFB6CBBFDAA3BA25346F
:100B14006420200A00B2BBBFC9B4EF4950A3BA2570
:100B2400642E25642E25642E2564200A00496E69EE
:100B34007420737461747573203A2047494E545F6E
:100B4400535441545F5048595F4348414E47450A06
:100B54000043483339354556542054657374204452
:100B6400656D6F0A00434833393520436F6E6E65F7
:0D0B740063742045746865726E65740A0034
:100F2C00440200C0A8010A44023EC0A801014402C8
:100F3C002FFFFFFF00440227C0A8016442023C03BC
:100F4C00E8420244138844022BC0A80164420246C2
:100F5C001770440233C0A801644202420BB842022B
:0E0F6C00481B58440237C0A8016441023BE212
:07170E007FFA1217157FFAA4
:07171500AE071FEE70FA227F
:10165E00AD07AF051DEF600812170E12170E80F2C0
:01166E002259
:09177900D29475D55C43AA082244
:0D172A008F86E5AA30E7FB53AA7FAF862229
:0316C300E4FCFB49
:0C16C600D294C29412172A7F020217155A
:1012CD0090024AE0FBA3E475F001120489A9F0FA3B
:1012DD0012045EFF1212F890024AE0FBA3E475F0CF
:0B12ED0001120489A9F0FA12045EFF50
:0312F80002172AB0
:08171C001216C6AF051212F807
:051724007FFF12172AEF
:01172900229D
:081782007F051216C6D2942265
:08178A007F031216C6D294225F
:0A1743007F011216C6121724D2947B
:01174D002279
:02176F00AD07C4
:071771007F0612171CD29441
:01177800224E
:0F16D200AD077F201216C6AF051212F8D2942270
:0A174E007F261216C6121724D2944B
:01175800226E
:0A1759007F291216C6121724D2943D
:011763002263
:1012FB00E490024AF0FD7F271216C6D2947F0A12A1
:10130B00165E1216B8AD07EDB4101090024AE0FF4E
:0D131B0004F0EFD394C840E57FFA22AF053F
:0113280022A2
:061140009002BE1204DB68
:101146007F021216C69002BEA3A3A3E0FF1212F8F6
:101156009002BEA3A3E0FEEEFF1212F89002BEE0DC
:10116600FCA3E0FDA3E0FEA3E0FF78101204B51295
:0A11760012F8121724A3EFF0D29430
:01118000224C
:0516B3007F0512165E28
:0A16B8007F2C1216C6121724D294DC
:0116C2002205
:0B14D50090024AEBF0A3EAF0A3E9F05C
:1014E0007F221216C6E4FE90024A1212E70EEEB4F4
:0414F00004F5D29499
:0114F40022D5
:0B14F50090024AEBF0A3EAF0A3E9F03C
:101500007F231216C6E4FE90024A1212E70EEEB4D2
:0415100004F5D29478
:0115140022B4
:0B15150090024AEBF0A3EAF0A3E9F01B
:101520007F241216C6E4FE90024A1212E70EEEB4B1
:0415300004F5D29458
:011534002294
:0B146C009002CFEBF0A3EAF0A3E9F040
:101477007F211216C6E4FE9002CF1212E70EEEB4D9
:0914870006F5D2947F6402165EA2
:0B123A009002D2EBF0A3EAF0A3E9F071
:101245007F401216C6E4FE1217249002D2E0FBA3DB
:10125500E475F001120489A9F0FAEF1204770EEE95
:05126500B406E4D29480
:01126A002261
:100D0F00AD077F251216C6AF051212F89002AAA3DF
:100D1F00A3A3E0FF1212F89002AAA3A3E0FEEEFF36
:100D2F001212F89002AAE0FCA3E0FDA3E0FEA3E0FC
:100D3F00FF78101204B51212F89002AAE0FCA3E09B
:100D4F00FDA3E0FEA3E0FF78181204B51212F8A37A
:100D5F00A3A3A3E0FF1212F89002AEA3A3E0FEEE4E
:100D6F00FF1212F89002AEE0FCA3E0FDA3E0FEA399
:100D7F00E0FF78101204B51212F89002AEE0FCA357
:100D8F00E0FDA3E0FEA3E0FF78181204B51212F8FD
:030D9F00D29422C9
:0B126B00900259EBF0A3EAF0A3E9F0B9
:101276007F281216C6E4FE121724900259E0FBA33B
:10128600E475F001120489A9F0FAEF1204770EEE64
:05129600B408E4D2944D
:01129B002230
:0D120200900260EBF0A3EAF0A3E9F0AD0765
:10120F007F2D1216C6AF051212F8E4FE12172490A6
:10121F000260E0FBA3E475F001120489A9F0FAEF74
:0A122F001204770EEEB406E4D29428
:011239002292
:1015350090024AEBF0A3EAF0A3E9F0AD077F311280
:1015450016C6AF051212F81212CD1212CDD2942280
:10161000AC077F341216C6AF041212F8AF051212CF
:04162000F8D2942246
:10157000AB077F321216C6AF031212F8AF05121274
:09158000F8ECFF1212F8D29422DB
:10158900AB077F331216C6AF031212F8AF0512125A
:09159900F8ECFF1212F8D29422C2
:10162400AC077F3E1216C6AF041212F8AF051212B1
:04163400F8D2942232
:0F16E100AD077F3F1216C6AF051212F8D2942242
:0D10FA00900261EBF0A3EAF0A3E9F0AD076E
:101107007F391216C6AF051212F8A3A3E0FF121219
:10111700F8900264E0FF1212F8E4FDFCD390026538
:10112700E09D900264E09C400D9002611212E70D71
:08113700BD00010C80E6D2941A
:01113F00228D
:02155500AD07E0
:101557007F3B12171CAD077C00121724EFFEE42D0A
:08156700FDEC3ED294FEAF053D
:01156F002259
:0F16F000AD077F2E1216C6AF051212F8D2942244
:0B0E2E00900260EFF0A3ECF0A3EDF0E9
:100E39004C60487F3C1216C6900260E0FF1212F81F
:100E4900A3A3E0FF1212F8900261E0FF1212F87FEB
:100E590001121715E4FDFCD3900262E09D90026136
:100E6900E09C4015121724EF120477740129F9E464
:0B0E79003AFA0DBD00010C80DED2949F
:010E8400224B
:0F16FF00AD077F2A1216C6AF051212F8D2942239
:1015B900AD07AC067F2A1216C6AF051212F8ECFF6A
:0615C9001212F8D2942278
:1011C2009002D5EBF0A3EAF0A3E9F0AD077F2F126E
:1011D200171C9002D5E0FBA3E475F001120489A963
:1011E200F0FAEF1204771217249002D5E0FBA3E481
:1011F20075F001120489A9F0FAEF120477D2942251
:02142000AD0716
:101422007F351216C3AF051212F8D2941216B3AB5F
:1014320007EBB4100CAF040CEFD394C840EE7FFA64
:0314420022AF03D3
:011445002284
:02144600AD07F0
:101448007F3D1216C3AF051212F8D2941216B3AB31
:1014580007EBB4100CAF040CEFD394C840EE7FFA3E
:0314680022AF03AD
:01146B00225E
:02135500AD07E2
:10135700E4FCFB7F371216C6AF051212F8D29412BF
:1013670016B3AB07EBB4100CAF040CEFD394C84023
:06137700EE7FFA22AF0335
:01137D00224D
:02137E00AD07B9
:10138000E4FCFB7F361216C6AF051212F8D2941297
:1013900016B3AB07EBB4100CAF040CEFD394C840FA
:0613A000EE7FFA22AF030C
:0113A6002224
:0213A700AD0790
:1013A900E4FCFB7F381216C6AF051212F8D294126C
:1013B90016B3AB07EBB4100CAF040CEFD394C840D1
:0613C900EE7FFA22AF03E3
:0113CF0022FB
:0215A200AD0793
:1015A4007F301216C6AF051212F87F0212171512F9
:0415B4001724D29492
:0115B8002210
:0B078D00900288EBF0A3EAF0A3E9F073
:100798009002931204E704C11DB79002971204E770
:1007A800FFFFFFFF90028B1204E700000000E47FC8
:1007B80006FEFDFC90028BE0F8A3E0F9A3E0FAA3A3
:1007C800E0FBC312049F40030208E0900288E0FBAC
:1007D800A3E475F001120489A9F0FA12045E9002EC
:1007E8009BF090028F1204E700000000E47F08FEEF
:1007F800FDFC90028FE0F8A3E0F9A3E0FAA3E0FB88
:10080800C312049F40030208B8900297E0FCA3E0DB
:10081800FDA3E0FEA3E0FF781F1204B5A905AA0610
:10082800AB07A3E0FFEB6FFFEF5401FFEF601890F9
:100838000293E0FCA3E0FDA3E0FEA3E0FFC004C038
:1008480005C006C007800DE4FBFAF9F8C000C00136
:10085800C002C003900297E0FCA3E0FDA3E0FEA362
:10086800E0FF78011204C8D003D002D001D000EF15
:100878006BFFEE6AFEED69FDEC68FC9002971204CE
:10088800DB90029BE0C313F090028FE0FCA3E0FD35
:10089800A3E0FEA3E0FFE4FAF9F8EF2401FFEA3E43
:1008A800FEE93DFDE83CFC90028F1204DB0207F4F0
:1008B80090028BE0FCA3E0FDA3E0FEA3E0FFE4FAD6
:1008C800F9F8EF2401FFEA3EFEE93DFDE83CFC9023
:1008D800028B1204DB0207B6900297E0FCA3E0FD4E
:1008E800A3E0FEA3E0FF781A1204B5900297120461
:0908F800DB900297A3A3A3E0FF2B
:0109010022D3
:0213D000AD0767
:1013D200E4FC7F411216C6AF051212F8D2947F14B4
:1013E20012165E1216B8EFB4100CAE040CEED394C3
:0613F200C840EB7FFA2267
:0113F80022D2
:0A1764007F421216C6121724D29419
:01176E002258
:0B129C009002D8EBF0A3EAF0A3E9F009
:1012A7007F431216C6E4FE1217249002D8E0FBA370
:1012B700E475F001120489A9F0FAEF1204770EEE33
:0512C700B414E4D29410
:0112CC0022FF
:10166F00AC077FED1216C6AF041212F8AF050212C7
:01167F00F872
:0215FB00AD073A
:1015FD007FEC1216C6AF051212F87F0112165E129D
:02160D001724A0
:01160F0022B8
:101638007FE91216C67F1412165E1216B8EF6410F0
:0216480060F34D
:01164A00227D
:0F0ED9009002B4EBF0A3EAF0A3E9F0AD07AC068A
:100EE8007FEA1216C6AF051212F8ECFF1212F8A329
:100EF800E0801D9002B7E0FF14F0EF60199002B493
:100F0800E0FBA3E475F001120489A9F0FA12045E6B
:100F1800FF1212F880DD7F1412165E1216B8EF6405
:030F28001060F363
:010F2B0022A3
:101065009002BAEBF0A3EAF0A3E9F0AD07AC067F76
:10107500EB1216C6AF051212F8ECFF1212F8A3E038
:10108500FF1212F87F0112165E9002BDE0FF14F008
:10109500EF60191217249002BAE0FBA3E475F00182
:0D10A500120489A9F0FAEF12047780DD2211
:10164B00AD07AC067F501216C6AF051212F8ECFFB1
:03165B000212F880
:1015CF00AC077F521216C6AF041212F8AF051212F3
:0615DF00F8AF030212F850
:1015E500AC077F531216C6AF041212F8AF051212DC
:0615F500F8AF030212F83A
:100E850090029CEBF0A3EAF0A3E9F0A31204DB9037
:100E950002A8E0FF9002A3E0FBA3E0FAA3E0F912A9
:100EA50015359002A8E0FF9002A6E0FCA3E0FD1234
:100EB500157090029CE0FBA3E0FAA3E0F9A3A3A3BD
:100EC500E0FFA3E0900264CFF0A3EFF09002A8E06A
:040ED500FF0210FA0E
:100F7B009002C31204DB7F551216C69002C3A3A3C3
:100F8B00A3E0FF1212F89002C3A3A3E0FEEEFF1240
:100F9B0012F89002C3E0FCA3E0FDA3E0FEA3E0FF88
:100FAB0078101204B51212F89002C3E0FCA3E0FD16
:0E0FBB00A3E0FEA3E0FF78181204B50212F8BE
:1014B4007F191216C67F02121715121724AD077C66
:1014C40000121724EFFEE42DFDEC3ED294FEAF058E
:0114D40022F5
:10168000AC077F591216C6AF041212F8AF0502124A
:01169000F861
:0C173700AD077F581216C6AF050212F86D
:100FC9009002C71204DB7F561216C69002C7A3A36C
:100FD900A3E0FF1212F89002C7A3A3E0FEEEFF12EE
:100FE90012F89002C7E0FCA3E0FDA3E0FEA3E0FF36
:100FF90078101204B51212F89002C7E0FCA3E0FDC4
:0E100900A3E0FEA3E0FF78181204B50212F86F
:101017009002CB1204DB7F571216C69002CBA3A314
:10102700A3E0FF1212F89002CBA3A3E0FEEEFF129B
:1010370012F89002CBE0FCA3E0FDA3E0FEA3E0FFE3
:1010470078101204B51212F89002CBE0FCA3E0FD71
:0E105700A3E0FEA3E0FF78181204B50212F821
:10169100AC077F511216C6AF041212F8AF05021241
:0116A100F850
:0314900012142013
:10149300EF601D7BFF7A0A7974900263E4F0A3EF97
:1014A300F012006E7FC812165E7FC812165E80F4BB
:0114B3002216
:1010B2007E007F237D007B017A0279041205187875
:1010C200047C027D017B017A0279007E007F04129A
:1010D200043878087C027D017B017A02793E7E0029
:1010E2007F04120438780C7C027D017B017A02793C
:0810F2002F7E007F0402043888
:100B81007E007F1C7D007B017A0179901205187827
:100B9100907C017D017B017A0279277E007F04121E
:100BA100043890023CE0FFA3E09001A1CFF0A3EF55
:100BB100F0900244E0FFA3E09001A3CFF0A3EFF097
:100BC10090019A7402F07E007F1C7D007B017A0106
:100BD10079AC120518900246E0FFA3E09001BFCF67
:100BE100F0A3EFF09001B67403F09001B87401F036
:100BF1007E007F1C7D00FB7A0179C812051878C838
:100C01007C017D017B017A0279337E007F0412042D
:100C110038900242E0FFA3E09001D9CFF0A3EFF0BA
:100C2100900248E0FFA3E09001DBCFF0A3EFF0904A
:100C310001D27403F0E49001D4F0FE7F1CFD7B012E
:100C41007A0179E412051878E47C017D017B017A4F
:100C51000279377E007F04120438E49001EEF0221D
:100C61007B017A017990E4FF1215357D02E4FF12D0
:100C710016109001A1E0FCA3E0FDE4FF121570A3A2
:100C8100E0FCA3E0FDE4FF121589E4FF1214907D5E
:100C9100037F011216109001BFE0FCA3E0FD7F016C
:100CA1001215897F011214907F0112137E12149381
:100CB1007B017A0179C87F021215357D037F02120B
:100CC10016109001D9E0FCA3E0FD7F02121570A37C
:100CD100E0FCA3E0FD7F021215897F0212142012AD
:100CE10014937F021213551214937B017A0179E454
:100CF1007F03121535E4FD7F0312161090023BE0CD
:0E0D0100FD7F031216247F03121420021493A8
:0505B700900259EFF075
:1005BC001215A2A3EFF090025AE020E2030206BE4D
:1005CC00900259E0FF12155590025CEEF0A3EFF08B
:1005DC007BFF7A0A7981900263EEF0A3EFF01200B0
:1005EC006E90025CE0FEA3E0FF4E700302078CD31A
:1005FC00EF9464EE9400400990025CE4F0A3746400
:10060C00F0900259E075F064A42400F9740035F000
:10061C00FA7B01E0FF90025CE0FCA3E0FD120E2EE1
:10062C00E490025EF0A3F090025CE0FEA3E0FFC356
:10063C0090025FE09F90025EE09E5050E0FEA3E0CF
:10064C00FF900259E0FD75F064A42400F582E5F0FA
:10065C003400F583E5822FF582E5833EF583E0F4E3
:10066C00FC75F064EDA42400F582E5F03400F5830C
:10067C00E5822FF582E5833EF583ECF090025FE096
:10068C0004F070A390025EE004F0809B900259E0AD
:10069C0075F064A42400F9740035F0FA7B01E0FFD6
:1006AC0090025CE0FDA3E0900264CDF0A3EDF012AB
:1006BC0010FA90025AE020E30302074C7BFF7A0AFF
:1006CC00799312006E900259E0FF75F01CA4249CE3
:1006DC00F582E43401F583E064017064FB7A0079FF
:1006EC000D1212027812E6FE18E67C002400FFECD4
:1006FC003E90025EF0A3EFF07BFF7A0A79A0780DB2
:10070C00E6FF900263E4F0A3EFF008E6FFA3E4F049
:10071C00A3EFF008E6FFA3E4F0A3EFF008E6FFA3D5
:10072C00E4F0A3EFF012006E7BFF7A0A79BA900224
:10073C005EE0FFA3E0900263CFF0A3EFF012006E37
:10074C0090025AE030E639900259E075F01CA4246E
:10075C009CF582E43401F583E070257FC812165EA7
:10076C00900259E0FF12142090025BEFF0121493E8
:10077C00900259E0FF12135590025BE0FF121493A4
:01078C00224A
:100902001214B490024AEEF0A3EFF020E003020AC0
:10091200037B017A02794E12126B7BFF7A0A79C548
:1009220012006EE4900258F0900258E0FFC394085F
:1009320050207BFF7A0A79CC744E2FF582E4340280
:10094200F583E0900263F012006E900258E004F02A
:1009520080D67BFF7A0A79D212006E900251E0FEB5
:10096200900250E07C002400FFEC3E90024CF0A389
:10097200EFF07BFF7A0A79D4A3E0FF7E0090026356
:10098200EEF0A3EFF0A3EEF0A3EFF012006E7BFF08
:100992007A0A79EB90024FE0FF7E00900263EEF05C
:1009A200A3EFF0A3EEF0A3EFF012006E7BFF7A0B41
:1009B200790690024CE0FFA3E0900263CFF0A3EF30
:1009C200F012006E7BFF7A0B7919900252E0FF90D1
:1009D2000263E4F0A3EFF0900253E0FF900265E4BB
:1009E200F0A3EFF0900254E0FF900267E4F0A3EF6F
:1009F200F0900255E0FF900269E4F0A3EFF01200DC
:100A02006E90024BE030E2097BFF7A0B79311200E3
:100A12006E90024BE030E405E4FF1205B790024B02
:100A2200E030E5057F011205B790024BE030E605A4
:100A32007F021205B790024BE030E7057F031205F3
:100A4200B790024AE030E0057F041205B790024AEF
:100A5200E030E1057F051205B790024AE030E20579
:100A62007F061205B790024AE030E3057F071205C0
:010A7200B7CC
:010A73002260
:101329007F6512176FEF649A60037FFA227B017A57
:101339000279041214D57B017A0279081214F57B1B
:0B134900017A02790C1215151212FB3C
:011354002276
:1016A200759850758780758921758DF3D28ED29980
:0116B2002215
:101181007F6412165E1216A27BFF7A0B795512004C
:101191006E1217791210B212132912149312174EEC
:1011A100BF01077FC812165E80F37BFF7A0B796956
:1011B10012006E120B81120C6120B3FD1209028024
:0111C100F835
:03000000020DA24C
:0C0DA200787FE4F6D8FD758121020DE990
:10036800E709F608DFFA8046E709F208DFFA803E77
:1003780088828C83E709F0A3DFFA8032E309F60864
:10038800DFFA8078E309F208DFFA807088828C83CC
:10039800E309F0A3DFFA806489828A83E0A3F60880
:1003A800DFFA805889828A83E0A3F208DFFA804C5A
:1003B80080D280FA80C680D4806980F28033801031
:1003C80080A680EA809A80A880DA80E280CA80339A
:1003D80089828A83ECFAE493A3C8C582C8CCC58312
:1003E800CCF0A3C8C582C8CCC583CCDFE9DEE780E2
:1003F8000D89828A83E493A3F608DFF9ECFAA9F061
:10040800EDFB2289828A83ECFAE0A3C8C582C8CCB6
:10041800C583CCF0A3C8C582C8CCC583CCDFEADECF
:10042800E880DB89828A83E493A3F208DFF980CC31
:1004380088F0EF60010E4E60C388F0ED2402B4042A
:100448000050B9F582EB2402B4040050AF232345D1
:0604580082239003B8733B
:10045E00BB010689828A83E0225002E722BBFE029C
:09046E00E32289828A83E49322CF
:10047700BB010689828A83F0225002F722BBFE0164
:02048700F3225E
:10048900A3F8E0C5F025F0F0E58215827002158326
:06049900E0C838F0E82283
:10049F00EB9FF5F0EA9E42F0E99D42F0EC6480C8D4
:0604AF0064809845F02274
:1004B500E8600FECC313FCED13FDEE13FEEF13FF25
:0304C500D8F12249
:1004C800E8600FEFC333FFEE33FEED33FDEC33FC92
:0304D800D8F12236
:0C04DB00ECF0A3EDF0A3EEF0A3EFF02294
:1004E700A8828583F0D083D0821204FE1204FE1204
:1004F70004FE1204FEE473E493A3C583C5F0C58329
:10050700C8C582C8F0A3C583C5F0C583C8C582C85E
:0105170022C1
:10000300E5082463F582E43402F583E005082290D1
:100013000260300703900263E475F0011205710278
:10002300045E2000E97F2ED2008018EF540F249045
:10003300D43440D4FF30040BEF24BFB41A00500370
:100043002461FFE50960021509050CE50C70020542
:100053000B30070E900260E475F001120571EF0298
:1000630004770213F97403D2078003E4C207F50887
:10007300900260120588E4F509F50BF50CE50960BB
:10008300077F2012004680F5750AFFC201C200C235
:1000930002C203C205C206C208120012FF700D306D
:1000A30007057F00120057AF0CAE0B22B4255FC2C9
:1000B300D5C204120012FF24D0B40A00501A75F0FE
:1000C3000A780930D50508B6FF0106C6A426F6202E
:1000D300D5047002D20380D924CFB41A00EF5004A0
:1000E300C2E5D204020258D20180C6D20080C0D237
:1000F3000280BCD2D580BAD20580B47F20120046DC
:100103002002077401B5090040F1120003FF120039
:1001130046020080D208D2068095120003FB12002B
:1001230003FA120003F94A4B700679297A037BFF1D
:1001330020022EE509602A7E008E82758300120557
:100143004460060EEE650A70F0C2D5EBC0E0EAC06B
:10015300E0E9C0E0EE12029FD0E0F9D0E0FAD0E08F
:10016300FB12045EFF60AAEBC0E0EAC0E0E9C0E076
:10017300120046D0E02401F9D0E03400FAD0E0FBCD
:10018300E50A0460DCD50AD980877BFF7A02799B74
:10019300D202809C791080027908C206C2088008C6
:1001A300D2D5790A8004790AC2D5E50A047002F52A
:1001B3000AE4FAFDFEFF120003FC7B082001131280
:1001C3000003FD7B1030000A120003FE120003FF40
:1001D3007B20EC3382D592D55013C3E43000069FC5
:1001E300FFE49EFEE42001039DFDE49CFCE4CBF8C8
:1001F300C201EC700CCFCECDCCE824F8F870F380BC
:1002030017C3EF33FFEE33FEED33FDEC33FCEB337B
:10021300FB994002FB0FD8E9EB300105F8D0E0C4AD
:1002230048B201C0E00AEC4D4E4F78207B0070C20B
:10023300EAB50A0040BCC0E01202A1D0F0D0E02031
:100243000104C4C0E0C4B201C0F012002FD0F0D545
:10025300F0EB020080120591011D5301975800EE47
:100263004C00EA42019B4F01A34401A3490103430C
:0802730001A955018D46018D22
:10027B0045018D4703495000F22D00F62E01192B35
:10028B0000FA2301172003322A00B24800000111A3
:10029B003F3F3F00790AA2D5200314300509B9105E
:1002AB00020404B9080104A2D5200602500104205F
:1002BB0002689202B509005034C0E07F2030031968
:1002CB007F30A20272067205500F1202F8C202C2F0
:1002DB0006C205C2087F30800F300503E9C0E0126B
:1002EB000046300503D0E0F9D0E0B509CC30051756
:1002FB007F30B9100C1200467F583004077F78808E
:10030B0003B908031200463002057F2D0200467F19
:10031B00202008F87F2B2006F322920280CF286E34
:10032B00756C6C2900D2011200033001F8C2017800
:10033B000930D50108F60200B22D5043495812007E
:10034B00032403B405004001E490034493120037E7
:0D035B00743A120037D203750904020197AD
:10051800EF4E6012EF60010EEDBB010B89828A83FA
:10052800F0A3DFFCDEFA2289F05007F709DFFCA907
:0C053800F022BBFEFCF309DFFCA9F0225E
:100DAE00021181E493A3F8E493A34003F68001F2C9
:100DBE0008DFF48029E493A3F85407240CC8C33346
:100DCE00C4540F4420C8834004F456800146F6DF15
:100DDE00E4800B0102040810204080900F2CE47E6A
:100DEE00019360BCA3FF543F30E509541FFEE4930A
:100DFE00A360010ECF54C025E060A840B8E493A3D1
:100E0E00FAE493A3F8E493A3C8C582C8CAC583CAFB
:100E1E00F0A3C8C582C8CAC583CADFE9DEE780BEB3
:010F7A000076
:10054400BB010CE58229F582E5833AF583E022506C
:1005540006E92582F8E622BBFE06E92582F8E222B6
:0D056400E58229F582E5833AF583E49322D0
:10057100F8E0FBA3A3E0F925F0F0E5821582700213
:070581001583E0FA38F022B7
:09058800EBF0A3EAF0A3E9F02274
:10059100D083D082F8E4937012740193700DA3A3F9
:1005A10093F8740193F5828883E47374029368600D
:0605B100EFA3A3A380DF0D
:1013F900EFB40A07740D121404740A309811A899ED
:10140900B8130CC2983098FDA899C298B811F63053
:0714190099FDC299F599222B
:00000001FF
